{
  "_format": "hh-sol-artifact-1",
  "contractName": "ESkillzStraightBet",
  "sourceName": "contracts/bet.sol",
  "abi": [
    {
      "inputs": [
        {
          "internalType": "address",
          "name": "_sport",
          "type": "address"
        },
        {
          "internalType": "address",
          "name": "lambdaOwner",
          "type": "address"
        },
        {
          "internalType": "string",
          "name": "lambdaName",
          "type": "string"
        }
      ],
      "stateMutability": "nonpayable",
      "type": "constructor"
    },
    {
      "anonymous": false,
      "inputs": [
        {
          "indexed": false,
          "internalType": "uint256",
          "name": "_game",
          "type": "uint256"
        },
        {
          "indexed": false,
          "internalType": "uint256",
          "name": "_amount",
          "type": "uint256"
        }
      ],
      "name": "BetEvent",
      "type": "event"
    },
    {
      "anonymous": false,
      "inputs": [
        {
          "indexed": true,
          "internalType": "bytes32",
          "name": "role",
          "type": "bytes32"
        },
        {
          "indexed": true,
          "internalType": "bytes32",
          "name": "previousAdminRole",
          "type": "bytes32"
        },
        {
          "indexed": true,
          "internalType": "bytes32",
          "name": "newAdminRole",
          "type": "bytes32"
        }
      ],
      "name": "RoleAdminChanged",
      "type": "event"
    },
    {
      "anonymous": false,
      "inputs": [
        {
          "indexed": true,
          "internalType": "bytes32",
          "name": "role",
          "type": "bytes32"
        },
        {
          "indexed": true,
          "internalType": "address",
          "name": "account",
          "type": "address"
        },
        {
          "indexed": true,
          "internalType": "address",
          "name": "sender",
          "type": "address"
        }
      ],
      "name": "RoleGranted",
      "type": "event"
    },
    {
      "anonymous": false,
      "inputs": [
        {
          "indexed": true,
          "internalType": "bytes32",
          "name": "role",
          "type": "bytes32"
        },
        {
          "indexed": true,
          "internalType": "address",
          "name": "account",
          "type": "address"
        },
        {
          "indexed": true,
          "internalType": "address",
          "name": "sender",
          "type": "address"
        }
      ],
      "name": "RoleRevoked",
      "type": "event"
    },
    {
      "inputs": [
        {
          "internalType": "address",
          "name": "_sender",
          "type": "address"
        },
        {
          "internalType": "uint256",
          "name": "amount",
          "type": "uint256"
        }
      ],
      "name": "CreateMPGame",
      "outputs": [],
      "stateMutability": "nonpayable",
      "type": "function"
    },
    {
      "inputs": [
        {
          "internalType": "address",
          "name": "_sender",
          "type": "address"
        },
        {
          "internalType": "uint256",
          "name": "amount",
          "type": "uint256"
        }
      ],
      "name": "CreateMPGameByToken",
      "outputs": [],
      "stateMutability": "nonpayable",
      "type": "function"
    },
    {
      "inputs": [
        {
          "internalType": "address",
          "name": "_sender",
          "type": "address"
        },
        {
          "internalType": "uint256",
          "name": "amount",
          "type": "uint256"
        }
      ],
      "name": "CreateMPGameForNFT",
      "outputs": [],
      "stateMutability": "nonpayable",
      "type": "function"
    },
    {
      "inputs": [
        {
          "internalType": "address",
          "name": "_sender",
          "type": "address"
        },
        {
          "internalType": "uint256",
          "name": "amount",
          "type": "uint256"
        }
      ],
      "name": "CreateSPGame",
      "outputs": [],
      "stateMutability": "nonpayable",
      "type": "function"
    },
    {
      "inputs": [
        {
          "internalType": "address",
          "name": "_sender",
          "type": "address"
        },
        {
          "internalType": "uint256",
          "name": "amount",
          "type": "uint256"
        }
      ],
      "name": "CreateSPGameByToken",
      "outputs": [],
      "stateMutability": "nonpayable",
      "type": "function"
    },
    {
      "inputs": [],
      "name": "DEFAULT_ADMIN_ROLE",
      "outputs": [
        {
          "internalType": "bytes32",
          "name": "",
          "type": "bytes32"
        }
      ],
      "stateMutability": "view",
      "type": "function"
    },
    {
      "inputs": [],
      "name": "ERC712_VERSION",
      "outputs": [
        {
          "internalType": "string",
          "name": "",
          "type": "string"
        }
      ],
      "stateMutability": "view",
      "type": "function"
    },
    {
      "inputs": [],
      "name": "GameIDs",
      "outputs": [
        {
          "internalType": "uint256",
          "name": "",
          "type": "uint256"
        }
      ],
      "stateMutability": "view",
      "type": "function"
    },
    {
      "inputs": [
        {
          "internalType": "address",
          "name": "_sender",
          "type": "address"
        },
        {
          "internalType": "uint256",
          "name": "gameID",
          "type": "uint256"
        },
        {
          "internalType": "uint256",
          "name": "amount",
          "type": "uint256"
        }
      ],
      "name": "JoinMPGame",
      "outputs": [],
      "stateMutability": "nonpayable",
      "type": "function"
    },
    {
      "inputs": [
        {
          "internalType": "address",
          "name": "_sender",
          "type": "address"
        },
        {
          "internalType": "uint256",
          "name": "gameID",
          "type": "uint256"
        },
        {
          "internalType": "uint256",
          "name": "amount",
          "type": "uint256"
        }
      ],
      "name": "JoinMPGameByToken",
      "outputs": [],
      "stateMutability": "nonpayable",
      "type": "function"
    },
    {
      "inputs": [
        {
          "internalType": "address",
          "name": "_sender",
          "type": "address"
        },
        {
          "internalType": "uint256",
          "name": "gameID",
          "type": "uint256"
        },
        {
          "internalType": "uint256",
          "name": "amount",
          "type": "uint256"
        }
      ],
      "name": "JoinMPGameForNFT",
      "outputs": [],
      "stateMutability": "nonpayable",
      "type": "function"
    },
    {
      "inputs": [],
      "name": "METAKEEP_LAMBDA_CANCEL_NONCE_TYPEHASH",
      "outputs": [
        {
          "internalType": "bytes32",
          "name": "",
          "type": "bytes32"
        }
      ],
      "stateMutability": "view",
      "type": "function"
    },
    {
      "inputs": [],
      "name": "METAKEEP_LAMBDA_OWNER_ROLE",
      "outputs": [
        {
          "internalType": "bytes32",
          "name": "",
          "type": "bytes32"
        }
      ],
      "stateMutability": "view",
      "type": "function"
    },
    {
      "inputs": [],
      "name": "METAKEEP_LAMBDA_TRANSACTION_TYPEHASH",
      "outputs": [
        {
          "internalType": "bytes32",
          "name": "",
          "type": "bytes32"
        }
      ],
      "stateMutability": "view",
      "type": "function"
    },
    {
      "inputs": [],
      "name": "SetGameIDToZero",
      "outputs": [],
      "stateMutability": "nonpayable",
      "type": "function"
    },
    {
      "inputs": [
        {
          "internalType": "address",
          "name": "winner",
          "type": "address"
        },
        {
          "internalType": "uint256",
          "name": "GameID",
          "type": "uint256"
        },
        {
          "internalType": "uint256",
          "name": "reduction_fee",
          "type": "uint256"
        }
      ],
      "name": "SetMPGameResult",
      "outputs": [],
      "stateMutability": "nonpayable",
      "type": "function"
    },
    {
      "inputs": [
        {
          "internalType": "address",
          "name": "winner",
          "type": "address"
        },
        {
          "internalType": "uint256",
          "name": "GameID",
          "type": "uint256"
        },
        {
          "internalType": "uint256",
          "name": "reduction_fee",
          "type": "uint256"
        }
      ],
      "name": "SetMPGameResultByToken",
      "outputs": [],
      "stateMutability": "nonpayable",
      "type": "function"
    },
    {
      "inputs": [
        {
          "internalType": "address",
          "name": "winner",
          "type": "address"
        },
        {
          "internalType": "uint256",
          "name": "GameID",
          "type": "uint256"
        }
      ],
      "name": "SetMPGameResultForNFT",
      "outputs": [],
      "stateMutability": "nonpayable",
      "type": "function"
    },
    {
      "inputs": [
        {
          "internalType": "uint256",
          "name": "_amounts",
          "type": "uint256"
        }
      ],
      "name": "SetMinBetAmounts",
      "outputs": [],
      "stateMutability": "nonpayable",
      "type": "function"
    },
    {
      "inputs": [
        {
          "internalType": "address",
          "name": "winner",
          "type": "address"
        },
        {
          "internalType": "uint256",
          "name": "GameID",
          "type": "uint256"
        },
        {
          "internalType": "uint256",
          "name": "result",
          "type": "uint256"
        },
        {
          "internalType": "uint256",
          "name": "reduction_fee",
          "type": "uint256"
        }
      ],
      "name": "SetSPGameResult",
      "outputs": [],
      "stateMutability": "nonpayable",
      "type": "function"
    },
    {
      "inputs": [
        {
          "internalType": "address",
          "name": "winner",
          "type": "address"
        },
        {
          "internalType": "uint256",
          "name": "GameID",
          "type": "uint256"
        },
        {
          "internalType": "uint256",
          "name": "result",
          "type": "uint256"
        },
        {
          "internalType": "uint256",
          "name": "reduction_fee",
          "type": "uint256"
        }
      ],
      "name": "SetSPGameResultByToken",
      "outputs": [],
      "stateMutability": "nonpayable",
      "type": "function"
    },
    {
      "inputs": [
        {
          "internalType": "address",
          "name": "userAddress",
          "type": "address"
        },
        {
          "internalType": "uint256",
          "name": "nonce",
          "type": "uint256"
        },
        {
          "internalType": "bytes32",
          "name": "sigR",
          "type": "bytes32"
        },
        {
          "internalType": "bytes32",
          "name": "sigS",
          "type": "bytes32"
        },
        {
          "internalType": "uint8",
          "name": "sigV",
          "type": "uint8"
        }
      ],
      "name": "cancelMetaKeepLambdaNonce",
      "outputs": [],
      "stateMutability": "nonpayable",
      "type": "function"
    },
    {
      "inputs": [],
      "name": "domainSeperator",
      "outputs": [
        {
          "internalType": "bytes32",
          "name": "",
          "type": "bytes32"
        }
      ],
      "stateMutability": "view",
      "type": "function"
    },
    {
      "inputs": [],
      "name": "eskillz_fee",
      "outputs": [
        {
          "internalType": "uint256",
          "name": "",
          "type": "uint256"
        }
      ],
      "stateMutability": "view",
      "type": "function"
    },
    {
      "inputs": [
        {
          "internalType": "address",
          "name": "userAddress",
          "type": "address"
        },
        {
          "internalType": "uint256",
          "name": "nonce",
          "type": "uint256"
        },
        {
          "internalType": "uint256",
          "name": "validFrom",
          "type": "uint256"
        },
        {
          "internalType": "uint256",
          "name": "validUpto",
          "type": "uint256"
        },
        {
          "internalType": "bytes",
          "name": "functionSignature",
          "type": "bytes"
        },
        {
          "internalType": "bytes32",
          "name": "sigR",
          "type": "bytes32"
        },
        {
          "internalType": "bytes32",
          "name": "sigS",
          "type": "bytes32"
        },
        {
          "internalType": "uint8",
          "name": "sigV",
          "type": "uint8"
        }
      ],
      "name": "executeMetaKeepLambdaTransaction",
      "outputs": [
        {
          "internalType": "bool",
          "name": "",
          "type": "bool"
        }
      ],
      "stateMutability": "payable",
      "type": "function"
    },
    {
      "inputs": [],
      "name": "feeReceiver",
      "outputs": [
        {
          "internalType": "address",
          "name": "",
          "type": "address"
        }
      ],
      "stateMutability": "view",
      "type": "function"
    },
    {
      "inputs": [
        {
          "internalType": "uint256",
          "name": "",
          "type": "uint256"
        },
        {
          "internalType": "uint256",
          "name": "",
          "type": "uint256"
        }
      ],
      "name": "gamebetting",
      "outputs": [
        {
          "internalType": "address",
          "name": "player",
          "type": "address"
        },
        {
          "internalType": "uint256",
          "name": "amount",
          "type": "uint256"
        },
        {
          "internalType": "uint256",
          "name": "gameType",
          "type": "uint256"
        },
        {
          "internalType": "uint256",
          "name": "betType",
          "type": "uint256"
        }
      ],
      "stateMutability": "view",
      "type": "function"
    },
    {
      "inputs": [],
      "name": "getAvailableAmountOfContract",
      "outputs": [
        {
          "internalType": "uint256",
          "name": "",
          "type": "uint256"
        }
      ],
      "stateMutability": "view",
      "type": "function"
    },
    {
      "inputs": [],
      "name": "getGameID",
      "outputs": [
        {
          "internalType": "uint256",
          "name": "",
          "type": "uint256"
        }
      ],
      "stateMutability": "view",
      "type": "function"
    },
    {
      "inputs": [
        {
          "internalType": "uint256",
          "name": "gameID",
          "type": "uint256"
        }
      ],
      "name": "getGameInfo",
      "outputs": [
        {
          "components": [
            {
              "internalType": "address",
              "name": "player",
              "type": "address"
            },
            {
              "internalType": "uint256",
              "name": "amount",
              "type": "uint256"
            },
            {
              "internalType": "uint256",
              "name": "gameType",
              "type": "uint256"
            },
            {
              "internalType": "uint256",
              "name": "betType",
              "type": "uint256"
            }
          ],
          "internalType": "struct ESkillzStraightBet.Bet[]",
          "name": "",
          "type": "tuple[]"
        }
      ],
      "stateMutability": "view",
      "type": "function"
    },
    {
      "inputs": [
        {
          "internalType": "uint256",
          "name": "game",
          "type": "uint256"
        }
      ],
      "name": "getPlayerLength",
      "outputs": [
        {
          "internalType": "uint256",
          "name": "",
          "type": "uint256"
        }
      ],
      "stateMutability": "view",
      "type": "function"
    },
    {
      "inputs": [
        {
          "internalType": "bytes32",
          "name": "role",
          "type": "bytes32"
        }
      ],
      "name": "getRoleAdmin",
      "outputs": [
        {
          "internalType": "bytes32",
          "name": "",
          "type": "bytes32"
        }
      ],
      "stateMutability": "view",
      "type": "function"
    },
    {
      "inputs": [
        {
          "internalType": "bytes32",
          "name": "role",
          "type": "bytes32"
        },
        {
          "internalType": "address",
          "name": "account",
          "type": "address"
        }
      ],
      "name": "grantRole",
      "outputs": [],
      "stateMutability": "nonpayable",
      "type": "function"
    },
    {
      "inputs": [
        {
          "internalType": "bytes32",
          "name": "role",
          "type": "bytes32"
        },
        {
          "internalType": "address",
          "name": "account",
          "type": "address"
        }
      ],
      "name": "hasRole",
      "outputs": [
        {
          "internalType": "bool",
          "name": "",
          "type": "bool"
        }
      ],
      "stateMutability": "view",
      "type": "function"
    },
    {
      "inputs": [
        {
          "internalType": "address",
          "name": "userAddress",
          "type": "address"
        },
        {
          "internalType": "uint256",
          "name": "nonce",
          "type": "uint256"
        }
      ],
      "name": "metaKeepLambdaNonceState",
      "outputs": [
        {
          "internalType": "bool",
          "name": "",
          "type": "bool"
        }
      ],
      "stateMutability": "view",
      "type": "function"
    },
    {
      "inputs": [],
      "name": "minBetAmounts",
      "outputs": [
        {
          "internalType": "uint256",
          "name": "",
          "type": "uint256"
        }
      ],
      "stateMutability": "view",
      "type": "function"
    },
    {
      "inputs": [
        {
          "internalType": "bytes32",
          "name": "role",
          "type": "bytes32"
        },
        {
          "internalType": "address",
          "name": "account",
          "type": "address"
        }
      ],
      "name": "renounceRole",
      "outputs": [],
      "stateMutability": "nonpayable",
      "type": "function"
    },
    {
      "inputs": [
        {
          "internalType": "bytes32",
          "name": "role",
          "type": "bytes32"
        },
        {
          "internalType": "address",
          "name": "account",
          "type": "address"
        }
      ],
      "name": "revokeRole",
      "outputs": [],
      "stateMutability": "nonpayable",
      "type": "function"
    },
    {
      "inputs": [
        {
          "internalType": "uint256",
          "name": "_fee",
          "type": "uint256"
        }
      ],
      "name": "setFee",
      "outputs": [],
      "stateMutability": "nonpayable",
      "type": "function"
    },
    {
      "inputs": [
        {
          "internalType": "address",
          "name": "_address",
          "type": "address"
        }
      ],
      "name": "setFeeReceiver",
      "outputs": [],
      "stateMutability": "nonpayable",
      "type": "function"
    },
    {
      "inputs": [
        {
          "internalType": "address",
          "name": "_sport",
          "type": "address"
        }
      ],
      "name": "setSportAddress",
      "outputs": [],
      "stateMutability": "nonpayable",
      "type": "function"
    },
    {
      "inputs": [
        {
          "internalType": "address",
          "name": "_address",
          "type": "address"
        }
      ],
      "name": "setTresury",
      "outputs": [],
      "stateMutability": "nonpayable",
      "type": "function"
    },
    {
      "inputs": [],
      "name": "sport",
      "outputs": [
        {
          "internalType": "address",
          "name": "",
          "type": "address"
        }
      ],
      "stateMutability": "view",
      "type": "function"
    },
    {
      "inputs": [
        {
          "internalType": "bytes4",
          "name": "interfaceId",
          "type": "bytes4"
        }
      ],
      "name": "supportsInterface",
      "outputs": [
        {
          "internalType": "bool",
          "name": "",
          "type": "bool"
        }
      ],
      "stateMutability": "view",
      "type": "function"
    },
    {
      "inputs": [
        {
          "internalType": "uint256",
          "name": "",
          "type": "uint256"
        }
      ],
      "name": "totalAmountsOfDay",
      "outputs": [
        {
          "internalType": "uint256",
          "name": "",
          "type": "uint256"
        }
      ],
      "stateMutability": "view",
      "type": "function"
    },
    {
      "inputs": [],
      "name": "treasury",
      "outputs": [
        {
          "internalType": "address",
          "name": "",
          "type": "address"
        }
      ],
      "stateMutability": "view",
      "type": "function"
    },
    {
      "inputs": [
        {
          "internalType": "address",
          "name": "_feeReceiver",
          "type": "address"
        },
        {
          "internalType": "uint256",
          "name": "_amount",
          "type": "uint256"
        }
      ],
      "name": "withdraw",
      "outputs": [],
      "stateMutability": "nonpayable",
      "type": "function"
    },
    {
      "inputs": [
        {
          "internalType": "address",
          "name": "_feeReceiver",
          "type": "address"
        }
      ],
      "name": "withdrawAll",
      "outputs": [],
      "stateMutability": "nonpayable",
      "type": "function"
    }
  ],
  "bytecode": "0x60806040523480156200001157600080fd5b5060405162004c8b38038062004c8b833981016040819052620000349162000420565b8181816200005260008051602062004c6b8339815191528262000158565b6200006d60008051602062004c6b8339815191528062000168565b506200007981620001b3565b5050600380546001600160a01b03199081166001600160a01b038581169190911790925560068054821692861692831790556101f4600955600a805473099b7b28ac913efbb3236946769ac6d3819329ab92168217905560405163095ea7b360e01b81526004810191909152670de0b6b3a7640000602482015263095ea7b3906044016020604051808303816000875af11580156200011c573d6000803e3d6000fd5b505050506040513d601f19601f8201168201806040525081019062000142919062000524565b5050633b9aca00600555505042600c556200054f565b620001648282620002d0565b5050565b600082815260208190526040808220600101805490849055905190918391839186917fbd79b86ffe0ab8e8776151514217cd7cacd52c909f66475c3af44e129f0b00ff9190a4505050565b600154156200021d5760405162461bcd60e51b815260206004820152602c60248201527f4d6574614b6565704c616d6264613a20446f6d61696e20736570657261746f7260448201526b08185b1c9958591e481cd95d60a21b606482015260840160405180910390fd5b6040518060800160405280604f815260200162004c1c604f913980516020918201208251838301206040805180820190915260018152603160f81b930192909252907fc89efdaa54c0f20c7adf612882df0950f5a951637e0307cdcb4c672f298b8bc6304660408051602081019690965285019390935260608401919091526001600160a01b0316608083015260a082015260c00160408051601f19818403018152919052805160209091012060015550565b6000828152602081815260408083206001600160a01b038516845290915290205460ff1662000164576000828152602081815260408083206001600160a01b03851684529091529020805460ff191660011790556200032e62000372565b6001600160a01b0316816001600160a01b0316837f2f8788117e7eff1d82e926ec794901d17c78024a50270940304540a733656f0d60405160405180910390a45050565b6000620003896200038e60201b620034891760201c565b905090565b600033301415620003e757600080368080601f0160208091040260200160405190810160405280939291908181526020018383808284376000920191909152505050503601516001600160a01b03169150620003ea9050565b50335b90565b80516001600160a01b03811681146200040557600080fd5b919050565b634e487b7160e01b600052604160045260246000fd5b6000806000606084860312156200043657600080fd5b6200044184620003ed565b9250602062000452818601620003ed565b60408601519093506001600160401b03808211156200047057600080fd5b818701915087601f8301126200048557600080fd5b8151818111156200049a576200049a6200040a565b604051601f8201601f19908116603f01168101908382118183101715620004c557620004c56200040a565b816040528281528a86848701011115620004de57600080fd5b600093505b82841015620005025784840186015181850187015292850192620004e3565b82841115620005145760008684830101525b8096505050505050509250925092565b6000602082840312156200053757600080fd5b815180151581146200054857600080fd5b9392505050565b6146bd806200055f6000396000f3fe6080604052600436106102935760003560e01c8063715a168a1161015a578063cb73ac56116100c1578063f3fef3a31161007a578063f3fef3a31461082d578063f4167d621461084d578063f696649d14610862578063f81b97bc146108ac578063fa09e630146108cc578063fddc3d19146108ec57600080fd5b8063cb73ac561461075c578063d547741f14610772578063e8b1398414610792578063e97ff65e146107b2578063ebe9b0f2146107c7578063efdcd9741461080d57600080fd5b8063a217fddf11610113578063a217fddf146106bb578063a38e0fcc146106d0578063b3f00674146106f0578063b908619914610710578063c0dcaeeb14610726578063c4f83d751461074657600080fd5b8063715a168a146105fb57806376b22e681461061b57806388cb57b41461063b57806391d148541461065b57806395b5c7161461067b5780639dc010ba1461069b57600080fd5b80633f5c0d3f116101fe57806365e01552116101b757806365e015521461053957806367eb5f391461055957806369c9eaf71461056e57806369fe0e2d1461059b5780636a337141146105bb5780636ab9b2d7146105db57600080fd5b80633f5c0d3f1461045e5780633f7c16851461049657806343b4f083146104b657806347e1d550146104cc578063587415b0146104f957806361d027b31461051957600080fd5b8063208a24df11610250578063208a24df14610399578063243ed11d146103b9578063248a9ca3146103cc578063285857ae146103fc5780632f2ff15d1461041e57806336568abe1461043e57600080fd5b806301ffc9a71461029857806302f356ad146102cd578063085d12dd146102ef5780630bb93b4b1461030f5780630c1f56351461034a5780630f7e59701461035f575b600080fd5b3480156102a457600080fd5b506102b86102b3366004613c50565b610901565b60405190151581526020015b60405180910390f35b3480156102d957600080fd5b506102ed6102e8366004613c96565b610938565b005b3480156102fb57600080fd5b506102ed61030a366004613cc9565b610ea2565b34801561031b57600080fd5b5061033c61032a366004613d02565b60009081526007602052604090205490565b6040519081526020016102c4565b34801561035657600080fd5b5061033c6113a5565b34801561036b57600080fd5b5061038c604051806040016040528060018152602001603160f81b81525081565b6040516102c49190613d47565b3480156103a557600080fd5b506102ed6103b4366004613c96565b6113c8565b6102b86103c7366004613da1565b61179a565b3480156103d857600080fd5b5061033c6103e7366004613d02565b60009081526020819052604090206001015490565b34801561040857600080fd5b5061033c60008051602061464883398151915281565b34801561042a57600080fd5b506102ed610439366004613ea4565b6119a9565b34801561044a57600080fd5b506102ed610459366004613ea4565b6119d3565b34801561046a57600080fd5b5060065461047e906001600160a01b031681565b6040516001600160a01b0390911681526020016102c4565b3480156104a257600080fd5b506102ed6104b1366004613ed0565b611a61565b3480156104c257600080fd5b5061033c60055481565b3480156104d857600080fd5b506104ec6104e7366004613d02565b611b60565b6040516102c49190613efa565b34801561050557600080fd5b506102ed610514366004613d02565b611bfd565b34801561052557600080fd5b50600b5461047e906001600160a01b031681565b34801561054557600080fd5b506102ed610554366004613f67565b611c38565b34801561056557600080fd5b5061033c611c90565b34801561057a57600080fd5b5061033c610589366004613d02565b60086020526000908152604090205481565b3480156105a757600080fd5b506102ed6105b6366004613d02565b611db0565b3480156105c757600080fd5b506102ed6105d6366004613c96565b611deb565b3480156105e757600080fd5b506102ed6105f6366004613ed0565b611fc4565b34801561060757600080fd5b506102ed610616366004613c96565b61209a565b34801561062757600080fd5b506102ed610636366004613ed0565b61221b565b34801561064757600080fd5b506102ed610656366004613f67565b612311565b34801561066757600080fd5b506102b8610676366004613ea4565b612369565b34801561068757600080fd5b506102ed610696366004613cc9565b612392565b3480156106a757600080fd5b506102ed6106b6366004613ed0565b6125b4565b3480156106c757600080fd5b5061033c600081565b3480156106dc57600080fd5b506102ed6106eb366004613ed0565b612794565b3480156106fc57600080fd5b50600a5461047e906001600160a01b031681565b34801561071c57600080fd5b5061033c60095481565b34801561073257600080fd5b506102ed610741366004613f82565b6128da565b34801561075257600080fd5b5061033c60045481565b34801561076857600080fd5b5061033c60015481565b34801561077e57600080fd5b506102ed61078d366004613ea4565b6129ce565b34801561079e57600080fd5b506102ed6107ad366004613ed0565b6129f3565b3480156107be57600080fd5b5061033c612bd4565b3480156107d357600080fd5b506102b86107e2366004613ed0565b6001600160a01b03919091166000908152600260209081526040808320938352929052205460ff1690565b34801561081957600080fd5b506102ed610828366004613f67565b612bf7565b34801561083957600080fd5b506102ed610848366004613ed0565b612cbe565b34801561085957600080fd5b506102ed612ed3565b34801561086e57600080fd5b5061088261087d366004613fd2565b612f10565b604080516001600160a01b03909516855260208501939093529183015260608201526080016102c4565b3480156108b857600080fd5b506102ed6108c7366004613c96565b612f60565b3480156108d857600080fd5b506102ed6108e7366004613f67565b613218565b3480156108f857600080fd5b5060045461033c565b60006001600160e01b03198216637965db0b60e01b148061093257506301ffc9a760e01b6001600160e01b03198316145b92915050565b60008061094584846134e5565b60008681526007602052604081208054939550919350909161096957610969613ff4565b90600052602060002090600402016002015460011480156109bc57506000848152600760205260409020805460019081106109a6576109a6613ff4565b9060005260206000209060040201600201546001145b6109e15760405162461bcd60e51b81526004016109d89061400a565b60405180910390fd5b60008481526007602052604081208054909190610a0057610a00613ff4565b60009182526020909120600490910201546001600160a01b0386811691161480610a665750600084815260076020526040902080546001908110610a4657610a46613ff4565b60009182526020909120600490910201546001600160a01b038681169116145b610a825760405162461bcd60e51b81526004016109d890614041565b60008481526007602052604081208054909190610aa157610aa1613ff4565b9060005260206000209060040201600101546002610abf919061409c565b6006546040516370a0823160e01b81523060048201526001600160a01b03909116906370a0823190602401602060405180830381865afa158015610b07573d6000803e3d6000fd5b505050506040513d601f19601f82011682018060405250810190610b2b91906140bb565b1015610b495760405162461bcd60e51b81526004016109d8906140d4565b60008481526007602052604081208054909190610b6857610b68613ff4565b60009182526020909120600490910201546001600160a01b0386811691161415610c4457600654600085815260076020526040812080546001600160a01b039093169263a9059cbb9290610bbe57610bbe613ff4565b60009182526020909120600491820201546040516001600160e01b031960e085901b168152610bfb926001600160a01b0390921691879101614120565b6020604051808303816000875af1158015610c1a573d6000803e3d6000fd5b505050506040513d601f19601f82011682018060405250810190610c3e9190614139565b50610cfd565b600654600085815260076020526040902080546001600160a01b039092169163a9059cbb91906001908110610c7b57610c7b613ff4565b60009182526020909120600491820201546040516001600160e01b031960e085901b168152610cb8926001600160a01b0390921691879101614120565b6020604051808303816000875af1158015610cd7573d6000803e3d6000fd5b505050506040513d601f19601f82011682018060405250810190610cfb9190614139565b505b600654600a5460405163a9059cbb60e01b81526001600160a01b039283169263a9059cbb92610d33929116908590600401614120565b6020604051808303816000875af1158015610d52573d6000803e3d6000fd5b505050506040513d601f19601f82011682018060405250810190610d769190614139565b50610d81818361415b565b6008600062015180600c5442610d979190614173565b610da1919061418a565b81526020019081526020016000205410610e0757610dbf818361415b565b6008600062015180600c5442610dd59190614173565b610ddf919061418a565b81526020019081526020016000206000828254610dfc9190614173565b90915550610e849050565b600062015180600c5442610e1b9190614173565b610e25919061418a565b1115610e8457610e35818361415b565b60086000600162015180600c5442610e4d9190614173565b610e57919061418a565b610e619190614173565b81526020019081526020016000206000828254610e7e9190614173565b90915550505b6000848152600760205260408120610e9b91613bfc565b5050505050565b600080610eaf85846135b4565b600087815260076020526040812080549395509193506001600160a01b03891692610edc57610edc613ff4565b60009182526020909120600490910201546001600160a01b031614610f435760405162461bcd60e51b815260206004820152601d60248201527f4f7468657220506c61796572732063616e206e6f74206163636573732e00000060448201526064016109d8565b60008581526007602052604081208054909190610f6257610f62613ff4565b906000526020600020906004020160020154600014610f935760405162461bcd60e51b81526004016109d8906141ac565b60008581526007602052604081208054909190610fb257610fb2613ff4565b60009182526020909120600491820201600101546006546040516370a0823160e01b8152309381019390935290916001600160a01b03909116906370a0823190602401602060405180830381865afa158015611012573d6000803e3d6000fd5b505050506040513d601f19601f8201168201806040525081019061103691906140bb565b10156110545760405162461bcd60e51b81526004016109d8906140d4565b600654600086815260076020526040812080546001600160a01b0390931692634622ae14928a926064928a929061108d5761108d613ff4565b9060005260206000209060040201600101546110a9919061409c565b6110b3919061418a565b6040518363ffffffff1660e01b81526004016110d0929190614120565b6020604051808303816000875af11580156110ef573d6000803e3d6000fd5b505050506040513d601f19601f820116820180604052508101906111139190614139565b5060065460405163a9059cbb60e01b81526001600160a01b039091169063a9059cbb906111469089908690600401614120565b6020604051808303816000875af1158015611165573d6000803e3d6000fd5b505050506040513d601f19601f820116820180604052508101906111899190614139565b50600654600a5460405163a9059cbb60e01b81526001600160a01b039283169263a9059cbb926111c0929116908590600401614120565b6020604051808303816000875af11580156111df573d6000803e3d6000fd5b505050506040513d601f19601f820116820180604052508101906112039190614139565b506000858152600760205260408120805490919061122357611223613ff4565b9060005260206000209060040201600101546008600062015180600c544261124b9190614173565b611255919061418a565b815260200190815260200160002054106112e2576000858152600760205260408120805490919061128857611288613ff4565b9060005260206000209060040201600101546008600062015180600c54426112b09190614173565b6112ba919061418a565b815260200190815260200160002060008282546112d79190614173565b909155506113869050565b600062015180600c54426112f69190614173565b611300919061418a565b1115611386576000858152600760205260408120805490919061132557611325613ff4565b90600052602060002090600402016001015460086000600162015180600c544261134f9190614173565b611359919061418a565b6113639190614173565b815260200190815260200160002060008282546113809190614173565b90915550505b600085815260076020526040812061139d91613bfc565b505050505050565b6040518060600160405280603581526020016145a2603591398051906020012081565b6000806113d584846134e5565b6000868152600760205260408120805493955091935090916113f9576113f9613ff4565b906000526020600020906004020160020154600114801561144c575060008481526007602052604090208054600190811061143657611436613ff4565b9060005260206000209060040201600201546001145b6114685760405162461bcd60e51b81526004016109d89061400a565b6000848152600760205260408120805490919061148757611487613ff4565b60009182526020909120600490910201546001600160a01b03868116911614806114ed57506000848152600760205260409020805460019081106114cd576114cd613ff4565b60009182526020909120600490910201546001600160a01b038681169116145b6115095760405162461bcd60e51b81526004016109d890614041565b6000848152600760205260408120805490919061152857611528613ff4565b9060005260206000209060040201600101546002611546919061409c565b6006546040516370a0823160e01b81523060048201526001600160a01b03909116906370a0823190602401602060405180830381865afa15801561158e573d6000803e3d6000fd5b505050506040513d601f19601f820116820180604052508101906115b291906140bb565b10156115d05760405162461bcd60e51b81526004016109d8906140d4565b600084815260076020526040812080549091906115ef576115ef613ff4565b60009182526020909120600490910201546001600160a01b03868116911614156116cb57600654600085815260076020526040812080546001600160a01b0390931692634622ae14929061164557611645613ff4565b60009182526020909120600491820201546040516001600160e01b031960e085901b168152611682926001600160a01b0390921691879101614120565b6020604051808303816000875af11580156116a1573d6000803e3d6000fd5b505050506040513d601f19601f820116820180604052508101906116c59190614139565b50610e84565b600654600085815260076020526040902080546001600160a01b0390921691634622ae149190600190811061170257611702613ff4565b60009182526020909120600491820201546040516001600160e01b031960e085901b16815261173f926001600160a01b0390921691879101614120565b6020604051808303816000875af115801561175e573d6000803e3d6000fd5b505050506040513d601f19601f820116820180604052508101906117829190614139565b506000848152600760205260408120610e9b91613bfc565b60006117a88989898961366b565b60006040518060a001604052808a81526020018981526020018881526020018b6001600160a01b0316815260200187815250905060006040518060a00160405280607181526020016145d76071913980516020918201208351848301516040808701516060808901516080808b01518051908a01208551998a0198909852938801959095528601929092528401526001600160a01b031660a083015260c082015260e0016040516020818303038152906040528051906020012090506118718b8288888861373c565b6118bd5760405162461bcd60e51b815260206004820152601d60248201527f4d6574614b6565704c616d6264613a20536967206e6f74206d6174636800000060448201526064016109d8565b6001600260008d6001600160a01b03166001600160a01b0316815260200190815260200160002060008c815260200190815260200160002060006101000a81548160ff021916908315150217905550600080306001600160a01b0316898e60405160200161192c9291906141e3565b60408051601f19818403018152908290526119469161421a565b6000604051808303816000865af19150503d8060008114611983576040519150601f19603f3d011682016040523d82523d6000602084013e611988565b606091505b509150915081611999578060208201fd5b509b9a5050505050505050505050565b6000828152602081905260409020600101546119c481613854565b6119ce8383613868565b505050565b6119db6138ed565b6001600160a01b0316816001600160a01b031614611a535760405162461bcd60e51b815260206004820152602f60248201527f416363657373436f6e74726f6c3a2063616e206f6e6c792072656e6f756e636560448201526e103937b632b9903337b91039b2b63360891b60648201526084016109d8565b611a5d82826138f7565b5050565b60008111611a815760405162461bcd60e51b81526004016109d890614236565b60048054906000611a918361427a565b90915550506004546000908152600760205260408120611ab091613bfc565b60048054600090815260076020908152604080832081516080810183526001600160a01b03888116825281850188815282850187815260016060850181815286548083018855968a52988890209451958a0290940180546001600160a01b0319169590931694909417825551918101919091559051600282015592516003909301929092559154815190815291820183905260008051602061466883398151915291015b60405180910390a15050565b606060076000838152602001908152602001600020805480602002602001604051908101604052809291908181526020016000905b82821015611bf2576000848152602090819020604080516080810182526004860290920180546001600160a01b03168352600180820154848601526002820154928401929092526003015460608301529083529092019101611b95565b505050509050919050565b611c17600080516020614648833981519152610676613489565b611c335760405162461bcd60e51b81526004016109d890614295565b600555565b611c52600080516020614648833981519152610676613489565b611c6e5760405162461bcd60e51b81526004016109d890614295565b600680546001600160a01b0319166001600160a01b0392909216919091179055565b60008062015180600c5442611ca59190614173565b611caf919061418a565b1115611da75760086000600162015180600c5442611ccd9190614173565b611cd7919061418a565b611ce19190614173565b8152602001908152602001600020546008600062015180600c5442611d069190614173565b611d10919061418a565b8152602081019190915260409081016000205460065491516370a0823160e01b815230600482015290916001600160a01b0316906370a0823190602401602060405180830381865afa158015611d6a573d6000803e3d6000fd5b505050506040513d601f19601f82011682018060405250810190611d8e91906140bb565b611d989190614173565b611da29190614173565b905090565b50600090565b90565b611dca600080516020614648833981519152610676613489565b611de65760405162461bcd60e51b81526004016109d890614295565b600955565b600082815260076020526040902054600114611e195760405162461bcd60e51b81526004016109d8906142cc565b600082815260076020526040812080546001600160a01b0386169290611e4157611e41613ff4565b60009182526020909120600490910201546001600160a01b03161415611e795760405162461bcd60e51b81526004016109d8906142fb565b60008281526007602052604081208054909190611e9857611e98613ff4565b9060005260206000209060040201600101548114611ec85760405162461bcd60e51b81526004016109d890614332565b60008281526007602052604081208054909190611ee757611ee7613ff4565b906000526020600020906004020160020154600114611f185760405162461bcd60e51b81526004016109d89061437b565b600082815260076020908152604080832081516080810183526001600160a01b03888116825281850187815260018386018181526060850182815286548084018855968a52988890209451600490960290940180546001600160a01b0319169590931694909417825551928101929092555160028201559251600390930192909255815184815290810183905260008051602061466883398151915291015b60405180910390a1505050565b60048054906000611fd48361427a565b90915550506004546000908152600760205260408120611ff391613bfc565b60048054600090815260076020908152604080832081516080810183526001600160a01b038881168252818501888152600183860181815260026060860181815287548085018955978b52998990209551968b0290950180546001600160a01b031916969094169590951783559051908201559151908201559251600390930192909255915481519081529182018390526000805160206146688339815191529101611b54565b6000828152600760205260409020546001146120c85760405162461bcd60e51b81526004016109d8906142cc565b600082815260076020526040812080546001600160a01b03861692906120f0576120f0613ff4565b60009182526020909120600490910201546001600160a01b031614156121285760405162461bcd60e51b81526004016109d8906142fb565b6000828152600760205260408120805490919061214757612147613ff4565b9060005260206000209060040201600201546001146121785760405162461bcd60e51b81526004016109d89061437b565b600082815260076020908152604080832081516080810183526001600160a01b038881168252818501878152600183860181815260026060860181815287548085018955978b52998990209551600490970290950180546001600160a01b03191696909416959095178355905190820155915190820155925160039093019290925581518481529081018390526000805160206146688339815191529101611fb7565b6000811161223b5760405162461bcd60e51b81526004016109d890614236565b6004805490600061224b8361427a565b9091555050600454600090815260076020526040812061226a91613bfc565b60048054600090815260076020908152604080832081516080810183526001600160a01b03888116825281850188815260018386018181526060850182815286548084018855968a52988890209451958a0290940180546001600160a01b0319169590931694909417825551928101929092555160028201559251600390930192909255915481519081529182018390526000805160206146688339815191529101611b54565b61232b600080516020614648833981519152610676613489565b6123475760405162461bcd60e51b81526004016109d890614295565b600b80546001600160a01b0319166001600160a01b0392909216919091179055565b6000918252602082815260408084206001600160a01b0393909316845291905290205460ff1690565b60008061239f85846135b4565b600087815260076020526040812080549395509193506001600160a01b038916926123cc576123cc613ff4565b60009182526020909120600490910201546001600160a01b0316146124335760405162461bcd60e51b815260206004820152601d60248201527f4f7468657220506c61796572732063616e206e6f74206163636573732e00000060448201526064016109d8565b6000858152600760205260408120805490919061245257612452613ff4565b9060005260206000209060040201600201546000146124835760405162461bcd60e51b81526004016109d8906141ac565b600085815260076020526040812080549091906124a2576124a2613ff4565b9060005260206000209060040201600301546001146124d35760405162461bcd60e51b81526004016109d8906141ac565b600654600086815260076020526040812080546001600160a01b0390931692634622ae14928a926064928a929061250c5761250c613ff4565b906000526020600020906004020160010154612528919061409c565b612532919061418a565b61253c908661415b565b6040518363ffffffff1660e01b8152600401612559929190614120565b6020604051808303816000875af1158015612578573d6000803e3d6000fd5b505050506040513d601f19601f8201168201806040525081019061259c9190614139565b50600085815260076020526040812061139d91613bfc565b6006546001600160a01b03166125c86138ed565b6001600160a01b0316146125db57600080fd5b8060055411156125fd5760405162461bcd60e51b81526004016109d8906143b2565b806008600062015180600c54426126149190614173565b61261e919061418a565b8152602001908152602001600020600082825461263b919061415b565b9091555050600480549060006126508361427a565b90915550506006546040516323b872dd60e01b81526001600160a01b03848116600483015230602483015260448201849052909116906323b872dd906064016020604051808303816000875af11580156126ae573d6000803e3d6000fd5b505050506040513d601f19601f820116820180604052508101906126d29190614139565b5060045460009081526007602052604081206126ed91613bfc565b60048054600090815260076020908152604080832081516080810183526001600160a01b03888116825281850188815260018386018181526060850189815286548084018855968a52988890209451958a0290940180546001600160a01b0319169590931694909417825551928101929092555160028201559251600390930192909255915481519081529182018390526000805160206146688339815191529101611b54565b600081815260076020526040812080549091906127b3576127b3613ff4565b906000526020600020906004020160020154600114801561280657506000818152600760205260409020805460019081106127f0576127f0613ff4565b9060005260206000209060040201600201546001145b6128225760405162461bcd60e51b81526004016109d89061400a565b6000818152600760205260408120805490919061284157612841613ff4565b60009182526020909120600490910201546001600160a01b03838116911614806128a7575060008181526007602052604090208054600190811061288757612887613ff4565b60009182526020909120600490910201546001600160a01b038381169116145b6128c35760405162461bcd60e51b81526004016109d890614041565b6000818152600760205260408120611a5d91613bfc565b6128e4858561397a565b60006040518060600160405280603581526020016145a2603591398051602091820120604080519283019190915281018690526001600160a01b038716606082015260800160405160208183030381529060405280519060200120905061294e868286868661373c565b61299a5760405162461bcd60e51b815260206004820152601d60248201527f4d6574614b6565704c616d6264613a20536967206e6f74206d6174636800000060448201526064016109d8565b5050506001600160a01b03909216600090815260026020908152604080832093835292905220805460ff1916600117905550565b6000828152602081905260409020600101546129e981613854565b6119ce83836138f7565b6006546001600160a01b0316612a076138ed565b6001600160a01b031614612a1a57600080fd5b806005541115612a3c5760405162461bcd60e51b81526004016109d8906143b2565b806008600062015180600c5442612a539190614173565b612a5d919061418a565b81526020019081526020016000206000828254612a7a919061415b565b909155505060048054906000612a8f8361427a565b90915550506006546040516323b872dd60e01b81526001600160a01b03848116600483015230602483015260448201849052909116906323b872dd906064016020604051808303816000875af1158015612aed573d6000803e3d6000fd5b505050506040513d601f19601f82011682018060405250810190612b119190614139565b506004546000908152600760205260408120612b2c91613bfc565b60048054600090815260076020908152604080832081516080810183526001600160a01b03888116825281850188815282850187815260608401888152855460018082018855968a52988890209451988a0290940180546001600160a01b031916989093169790971782555192810192909255935160028201559251600390930192909255915481519081529182018390526000805160206146688339815191529101611b54565b6040518060a00160405280607181526020016145d7607191398051906020012081565b612c11600080516020614648833981519152610676613489565b612c2d5760405162461bcd60e51b81526004016109d890614295565b600a80546001600160a01b0319166001600160a01b0383811691821790925560065460405163095ea7b360e01b815292169163095ea7b391612c7b91670de0b6b3a764000090600401614120565b6020604051808303816000875af1158015612c9a573d6000803e3d6000fd5b505050506040513d601f19601f82011682018060405250810190611a5d9190614139565b600062015180600c5442612cd29190614173565b612cdc919061418a565b11612cf95760405162461bcd60e51b81526004016109d8906143ff565b600060086000600162015180600c5442612d139190614173565b612d1d919061418a565b612d279190614173565b8152602001908152602001600020546008600062015180600c5442612d4c9190614173565b612d56919061418a565b815260200190815260200160002054612d6f919061415b565b6006546040516370a0823160e01b8152306004820152919250829184916001600160a01b0316906370a0823190602401602060405180830381865afa158015612dbc573d6000803e3d6000fd5b505050506040513d601f19601f82011682018060405250810190612de091906140bb565b612dea9190614173565b11612e075760405162461bcd60e51b81526004016109d890614454565b600a546001600160a01b0384811691161480612e385750612e266138ed565b6003546001600160a01b039081169116145b612e545760405162461bcd60e51b81526004016109d8906144c5565b600654600a5460405163a9059cbb60e01b81526001600160a01b039283169263a9059cbb92612e8a929116908690600401614120565b6020604051808303816000875af1158015612ea9573d6000803e3d6000fd5b505050506040513d601f19601f82011682018060405250810190612ecd9190614139565b50505050565b612eed600080516020614648833981519152610676613489565b612f095760405162461bcd60e51b81526004016109d890614295565b6000600455565b60076020528160005260406000208181548110612f2c57600080fd5b600091825260209091206004909102018054600182015460028301546003909301546001600160a01b039092169450925084565b6006546001600160a01b0316612f746138ed565b6001600160a01b031614612f8757600080fd5b600082815260076020526040902054600114612fb55760405162461bcd60e51b81526004016109d8906142cc565b600082815260076020526040812080546001600160a01b0386169290612fdd57612fdd613ff4565b60009182526020909120600490910201546001600160a01b031614156130155760405162461bcd60e51b81526004016109d8906142fb565b6000828152600760205260408120805490919061303457613034613ff4565b90600052602060002090600402016001015481146130645760405162461bcd60e51b81526004016109d890614332565b6000828152600760205260408120805490919061308357613083613ff4565b9060005260206000209060040201600201546001146130b45760405162461bcd60e51b81526004016109d89061437b565b806008600062015180600c54426130cb9190614173565b6130d5919061418a565b815260200190815260200160002060008282546130f2919061415b565b90915550506006546040516323b872dd60e01b81526001600160a01b03858116600483015230602483015260448201849052909116906323b872dd906064016020604051808303816000875af1158015613150573d6000803e3d6000fd5b505050506040513d601f19601f820116820180604052508101906131749190614139565b50600082815260076020908152604080832081516080810183526001600160a01b03888116825281850187815260018386018181526060850189815286548084018855968a52988890209451600490960290940180546001600160a01b031916959093169490941782555192810192909255516002820155925160039093019290925581518481529081018390526000805160206146688339815191529101611fb7565b600062015180600c544261322c9190614173565b613236919061418a565b116132535760405162461bcd60e51b81526004016109d8906143ff565b600060086000600162015180600c544261326d9190614173565b613277919061418a565b6132819190614173565b8152602001908152602001600020546008600062015180600c54426132a69190614173565b6132b0919061418a565b8152602001908152602001600020546132c9919061415b565b6006546040516370a0823160e01b815230600482015291925082916001600160a01b03909116906370a0823190602401602060405180830381865afa158015613316573d6000803e3d6000fd5b505050506040513d601f19601f8201168201806040525081019061333a91906140bb565b116133575760405162461bcd60e51b81526004016109d890614454565b600a546001600160a01b038381169116148061338857506133766138ed565b6003546001600160a01b039081169116145b6133a45760405162461bcd60e51b81526004016109d8906144c5565b600654600a546040516370a0823160e01b81523060048201526001600160a01b039283169263a9059cbb921690849084906370a0823190602401602060405180830381865afa1580156133fb573d6000803e3d6000fd5b505050506040513d601f19601f8201168201806040525081019061341f91906140bb565b6134299190614173565b6040518363ffffffff1660e01b8152600401613446929190614120565b6020604051808303816000875af1158015613465573d6000803e3d6000fd5b505050506040513d601f19601f820116820180604052508101906119ce9190614139565b6000333014156134e057600080368080601f0160208091040260200160405190810160405280939291908181526020018383808284376000920191909152505050503601516001600160a01b03169150611dad9050565b503390565b600080806127106134f760648661418a565b600954613504919061409c565b6009546135119190614173565b6000878152600760205260408120805490919061353057613530613ff4565b90600052602060002090600402016001015461354c919061409c565b613556919061418a565b90506000816007600088815260200190815260200160002060008154811061358057613580613ff4565b906000526020600020906004020160010154600261359e919061409c565b6135a89190614173565b96919550909350505050565b600080806127106135c660648661418a565b6009546135d3919061409c565b6009546135e09190614173565b600087815260076020526040812080549091906135ff576135ff613ff4565b90600052602060002090600402016001015461361b919061409c565b613625919061418a565b90506000816007600088815260200190815260200160002060008154811061364f5761364f613ff4565b9060005260206000209060040201600101546135a89190614173565b8142116136d15760405162461bcd60e51b815260206004820152602e60248201527f4d6574614b6565704c616d6264613a20417574686f72697a6174696f6e20697360448201526d103737ba103cb2ba1033b4bb32b760911b60648201526084016109d8565b8042106137325760405162461bcd60e51b815260206004820152602960248201527f4d6574614b6565704c616d6264613a20417574686f72697a6174696f6e2068616044820152681cc8195e1c1a5c995960ba1b60648201526084016109d8565b612ecd848461397a565b60006001600160a01b0386166137945760405162461bcd60e51b815260206004820152601e60248201527f4d6574614b6565704c616d6264613a20494e56414c49445f5349474e4552000060448201526064016109d8565b60016137dd8660015460405161190160f01b6020820152602281019190915260428101829052600090606201604051602081830303815290604052805190602001209050919050565b6040805160008152602081018083529290925260ff851690820152606081018690526080810185905260a0016020604051602081039080840390855afa15801561382b573d6000803e3d6000fd5b505050602060405103516001600160a01b0316866001600160a01b031614905095945050505050565b613865816138606138ed565b6139ee565b50565b6138728282612369565b611a5d576000828152602081815260408083206001600160a01b03851684529091529020805460ff191660011790556138a96138ed565b6001600160a01b0316816001600160a01b0316837f2f8788117e7eff1d82e926ec794901d17c78024a50270940304540a733656f0d60405160405180910390a45050565b6000611da2613489565b6139018282612369565b15611a5d576000828152602081815260408083206001600160a01b03851684529091529020805460ff191690556139366138ed565b6001600160a01b0316816001600160a01b0316837ff6391f5c32d9c69d2a47ea670b442974b53935d1edc7fd64eb21e047a839171b60405160405180910390a45050565b6001600160a01b038216600090815260026020908152604080832084845290915290205460ff1615611a5d5760405162461bcd60e51b815260206004820152601a60248201527f4d6574614b6565704c616d6264613a204e6f6e6365205573656400000000000060448201526064016109d8565b6139f88282612369565b611a5d57613a0581613a47565b613a10836020613a59565b604051602001613a21929190614515565b60408051601f198184030181529082905262461bcd60e51b82526109d891600401613d47565b60606109326001600160a01b03831660145b60606000613a6883600261409c565b613a7390600261415b565b67ffffffffffffffff811115613a8b57613a8b613d7a565b6040519080825280601f01601f191660200182016040528015613ab5576020820181803683370190505b509050600360fc1b81600081518110613ad057613ad0613ff4565b60200101906001600160f81b031916908160001a905350600f60fb1b81600181518110613aff57613aff613ff4565b60200101906001600160f81b031916908160001a9053506000613b2384600261409c565b613b2e90600161415b565b90505b6001811115613ba6576f181899199a1a9b1b9c1cb0b131b232b360811b85600f1660108110613b6257613b62613ff4565b1a60f81b828281518110613b7857613b78613ff4565b60200101906001600160f81b031916908160001a90535060049490941c93613b9f8161458a565b9050613b31565b508315613bf55760405162461bcd60e51b815260206004820181905260248201527f537472696e67733a20686578206c656e67746820696e73756666696369656e7460448201526064016109d8565b9392505050565b508054600082556004029060005260206000209081019061386591905b80821115613c4c5780546001600160a01b0319168155600060018201819055600282018190556003820155600401613c19565b5090565b600060208284031215613c6257600080fd5b81356001600160e01b031981168114613bf557600080fd5b80356001600160a01b0381168114613c9157600080fd5b919050565b600080600060608486031215613cab57600080fd5b613cb484613c7a565b95602085013595506040909401359392505050565b60008060008060808587031215613cdf57600080fd5b613ce885613c7a565b966020860135965060408601359560600135945092505050565b600060208284031215613d1457600080fd5b5035919050565b60005b83811015613d36578181015183820152602001613d1e565b83811115612ecd5750506000910152565b6020815260008251806020840152613d66816040850160208701613d1b565b601f01601f19169190910160400192915050565b634e487b7160e01b600052604160045260246000fd5b803560ff81168114613c9157600080fd5b600080600080600080600080610100898b031215613dbe57600080fd5b613dc789613c7a565b9750602089013596506040890135955060608901359450608089013567ffffffffffffffff80821115613df957600080fd5b818b0191508b601f830112613e0d57600080fd5b813581811115613e1f57613e1f613d7a565b604051601f8201601f19908116603f01168101908382118183101715613e4757613e47613d7a565b816040528281528e6020848701011115613e6057600080fd5b82602086016020830137600060208483010152809850505050505060a0890135925060c08901359150613e9560e08a01613d90565b90509295985092959890939650565b60008060408385031215613eb757600080fd5b82359150613ec760208401613c7a565b90509250929050565b60008060408385031215613ee357600080fd5b613eec83613c7a565b946020939093013593505050565b602080825282518282018190526000919060409081850190868401855b82811015613f5a57815180516001600160a01b03168552868101518786015285810151868601526060908101519085015260809093019290850190600101613f17565b5091979650505050505050565b600060208284031215613f7957600080fd5b613bf582613c7a565b600080600080600060a08688031215613f9a57600080fd5b613fa386613c7a565b9450602086013593506040860135925060608601359150613fc660808701613d90565b90509295509295909350565b60008060408385031215613fe557600080fd5b50508035926020909101359150565b634e487b7160e01b600052603260045260246000fd5b6020808252601c908201527f596f752063616e2073657420746865204d502067616d65206f6e6c7900000000604082015260600190565b60208082526025908201527f6d73672073656e646572206d75737420696e636c7564657320696e20746869736040820152642067616d6560d81b606082015260800190565b634e487b7160e01b600052601160045260246000fd5b60008160001904831182151516156140b6576140b6614086565b500290565b6000602082840312156140cd57600080fd5b5051919050565b6020808252602c908201527f44706f72742042616c616e6365206f662042657420636f6e747261637420697360408201526b103737ba1032b737bab3b41760a11b606082015260800190565b6001600160a01b03929092168252602082015260400190565b60006020828403121561414b57600080fd5b81518015158114613bf557600080fd5b6000821982111561416e5761416e614086565b500190565b60008282101561418557614185614086565b500390565b6000826141a757634e487b7160e01b600052601260045260246000fd5b500490565b6020808252601c908201527f596f752063616e20736574207468652053502067616d65206f6e6c7900000000604082015260600190565b600083516141f5818460208801613d1b565b60609390931b6bffffffffffffffffffffffff19169190920190815260140192915050565b6000825161422c818460208701613d1b565b9190910192915050565b60208082526024908201527f42657420616d6f756e7473206d75737420626520626967676572207468616e206040820152637a65726f60e01b606082015260800190565b600060001982141561428e5761428e614086565b5060010190565b60208082526019908201527f4d6574614b6565704c616d6264613a204e6f74206f776e657200000000000000604082015260600190565b602080825260159082015274283630bcb2b9399031b0b7103737ba103537b4b71760591b604082015260600190565b6020808252601a908201527f53616d6520506c61796572732063616e206e6f74206a6f696e2e000000000000604082015260600190565b60208082526029908201527f596f75722062657420616d6f756e74206d75737420657175616c7320637265616040820152681d1948185b5bdd5b9d60ba1b606082015260800190565b6020808252601d908201527f596f752063616e206a6f696e20746865204d502067616d65206f6e6c79000000604082015260600190565b6020808252602d908201527f42657420616d6f756e7473206d75737420626520626967676572207468616e2060408201526c6d696e426574416d6f756e747360981b606082015260800190565b60208082526035908201527f7769746864726177206461792073686f756c642062652062696767657220746860408201527430b71039ba30b93a103230bc90159018903230bc9760591b606082015260800190565b6020808252604b908201527f42616c616e6365206d75737420626520626967676572207468616e20616d6f7560408201527f6e74202b2062657474696e67416d6f756e7473206f6620746f64617920616e6460608201526a103cb2b9ba32b93230bc9760a91b608082015260a00190565b60208082526030908201527f6d73672073656e646572206d757374206265206665655265636569766572206f60408201526f391031b7b73a3930b1ba1037bbb732b960811b606082015260800190565b7f416363657373436f6e74726f6c3a206163636f756e742000000000000000000081526000835161454d816017850160208801613d1b565b7001034b99036b4b9b9b4b733903937b6329607d1b601791840191820152835161457e816028840160208801613d1b565b01602801949350505050565b60008161459957614599614086565b50600019019056fe4d6574614b6565704c616d62646143616e63656c4e6f6e63652875696e74323536206e6f6e63652c616464726573732066726f6d294d6574614b6565704c616d6264615472616e73616374696f6e2875696e74323536206e6f6e63652c75696e743235362076616c696446726f6d2c75696e743235362076616c69645570746f2c616464726573732066726f6d2c62797465732066756e6374696f6e5369676e617475726529f3a68b3f49a13367480fd7bc507b2776cef106fb7cff6b2af48f699790f77014b2e369502d9bd83f41ab63f1677a14cd6ec5f6f31a885b67989df4f1b3570369a264697066735822122067855c95b27492deca3e0624a4090b5d5f124692655a4dab1bab2f91b3a4b2c064736f6c634300080a0033454950373132446f6d61696e28737472696e67206e616d652c737472696e672076657273696f6e2c6164647265737320766572696679696e67436f6e74726163742c627974657333322073616c7429f3a68b3f49a13367480fd7bc507b2776cef106fb7cff6b2af48f699790f77014",
  "linkReferences": {},
  "deployedLinkReferences": {}
}