{
  "_format": "hh-sol-artifact-1",
  "contractName": "ESkillzStraightBet",
  "sourceName": "contracts/bet.sol",
  "abi": [
    {
      "inputs": [
        {
          "internalType": "address",
          "name": "_sport",
          "type": "address"
        },
        {
          "internalType": "address",
          "name": "lambdaOwner",
          "type": "address"
        },
        {
          "internalType": "string",
          "name": "lambdaName",
          "type": "string"
        }
      ],
      "stateMutability": "nonpayable",
      "type": "constructor"
    },
    {
      "anonymous": false,
      "inputs": [
        {
          "indexed": false,
          "internalType": "uint256",
          "name": "_game",
          "type": "uint256"
        },
        {
          "indexed": false,
          "internalType": "uint256",
          "name": "_amount",
          "type": "uint256"
        }
      ],
      "name": "BetEvent",
      "type": "event"
    },
    {
      "anonymous": false,
      "inputs": [
        {
          "indexed": true,
          "internalType": "bytes32",
          "name": "role",
          "type": "bytes32"
        },
        {
          "indexed": true,
          "internalType": "bytes32",
          "name": "previousAdminRole",
          "type": "bytes32"
        },
        {
          "indexed": true,
          "internalType": "bytes32",
          "name": "newAdminRole",
          "type": "bytes32"
        }
      ],
      "name": "RoleAdminChanged",
      "type": "event"
    },
    {
      "anonymous": false,
      "inputs": [
        {
          "indexed": true,
          "internalType": "bytes32",
          "name": "role",
          "type": "bytes32"
        },
        {
          "indexed": true,
          "internalType": "address",
          "name": "account",
          "type": "address"
        },
        {
          "indexed": true,
          "internalType": "address",
          "name": "sender",
          "type": "address"
        }
      ],
      "name": "RoleGranted",
      "type": "event"
    },
    {
      "anonymous": false,
      "inputs": [
        {
          "indexed": true,
          "internalType": "bytes32",
          "name": "role",
          "type": "bytes32"
        },
        {
          "indexed": true,
          "internalType": "address",
          "name": "account",
          "type": "address"
        },
        {
          "indexed": true,
          "internalType": "address",
          "name": "sender",
          "type": "address"
        }
      ],
      "name": "RoleRevoked",
      "type": "event"
    },
    {
      "inputs": [
        {
          "internalType": "address",
          "name": "_sender",
          "type": "address"
        },
        {
          "internalType": "uint256",
          "name": "amount",
          "type": "uint256"
        }
      ],
      "name": "CreateMPGame",
      "outputs": [],
      "stateMutability": "nonpayable",
      "type": "function"
    },
    {
      "inputs": [
        {
          "internalType": "address",
          "name": "_sender",
          "type": "address"
        },
        {
          "internalType": "uint256",
          "name": "amount",
          "type": "uint256"
        }
      ],
      "name": "CreateMPGameByToken",
      "outputs": [],
      "stateMutability": "nonpayable",
      "type": "function"
    },
    {
      "inputs": [
        {
          "internalType": "address",
          "name": "_sender",
          "type": "address"
        },
        {
          "internalType": "uint256",
          "name": "amount",
          "type": "uint256"
        }
      ],
      "name": "CreateMPGameForNFT",
      "outputs": [],
      "stateMutability": "nonpayable",
      "type": "function"
    },
    {
      "inputs": [
        {
          "internalType": "address",
          "name": "_sender",
          "type": "address"
        },
        {
          "internalType": "uint256",
          "name": "amount",
          "type": "uint256"
        }
      ],
      "name": "CreateSPGame",
      "outputs": [],
      "stateMutability": "nonpayable",
      "type": "function"
    },
    {
      "inputs": [
        {
          "internalType": "address",
          "name": "_sender",
          "type": "address"
        },
        {
          "internalType": "uint256",
          "name": "amount",
          "type": "uint256"
        }
      ],
      "name": "CreateSPGameByToken",
      "outputs": [],
      "stateMutability": "nonpayable",
      "type": "function"
    },
    {
      "inputs": [],
      "name": "DEFAULT_ADMIN_ROLE",
      "outputs": [
        {
          "internalType": "bytes32",
          "name": "",
          "type": "bytes32"
        }
      ],
      "stateMutability": "view",
      "type": "function"
    },
    {
      "inputs": [],
      "name": "ERC712_VERSION",
      "outputs": [
        {
          "internalType": "string",
          "name": "",
          "type": "string"
        }
      ],
      "stateMutability": "view",
      "type": "function"
    },
    {
      "inputs": [],
      "name": "GameIDs",
      "outputs": [
        {
          "internalType": "uint256",
          "name": "",
          "type": "uint256"
        }
      ],
      "stateMutability": "view",
      "type": "function"
    },
    {
      "inputs": [
        {
          "internalType": "address",
          "name": "_sender",
          "type": "address"
        },
        {
          "internalType": "uint256",
          "name": "gameID",
          "type": "uint256"
        },
        {
          "internalType": "uint256",
          "name": "amount",
          "type": "uint256"
        }
      ],
      "name": "JoinMPGame",
      "outputs": [],
      "stateMutability": "nonpayable",
      "type": "function"
    },
    {
      "inputs": [
        {
          "internalType": "address",
          "name": "_sender",
          "type": "address"
        },
        {
          "internalType": "uint256",
          "name": "gameID",
          "type": "uint256"
        },
        {
          "internalType": "uint256",
          "name": "amount",
          "type": "uint256"
        }
      ],
      "name": "JoinMPGameByToken",
      "outputs": [],
      "stateMutability": "nonpayable",
      "type": "function"
    },
    {
      "inputs": [
        {
          "internalType": "address",
          "name": "_sender",
          "type": "address"
        },
        {
          "internalType": "uint256",
          "name": "gameID",
          "type": "uint256"
        },
        {
          "internalType": "uint256",
          "name": "amount",
          "type": "uint256"
        }
      ],
      "name": "JoinMPGameForNFT",
      "outputs": [],
      "stateMutability": "nonpayable",
      "type": "function"
    },
    {
      "inputs": [],
      "name": "METAKEEP_LAMBDA_CANCEL_NONCE_TYPEHASH",
      "outputs": [
        {
          "internalType": "bytes32",
          "name": "",
          "type": "bytes32"
        }
      ],
      "stateMutability": "view",
      "type": "function"
    },
    {
      "inputs": [],
      "name": "METAKEEP_LAMBDA_OWNER_ROLE",
      "outputs": [
        {
          "internalType": "bytes32",
          "name": "",
          "type": "bytes32"
        }
      ],
      "stateMutability": "view",
      "type": "function"
    },
    {
      "inputs": [],
      "name": "METAKEEP_LAMBDA_TRANSACTION_TYPEHASH",
      "outputs": [
        {
          "internalType": "bytes32",
          "name": "",
          "type": "bytes32"
        }
      ],
      "stateMutability": "view",
      "type": "function"
    },
    {
      "inputs": [],
      "name": "SetGameIDToZero",
      "outputs": [],
      "stateMutability": "nonpayable",
      "type": "function"
    },
    {
      "inputs": [
        {
          "internalType": "address",
          "name": "winner",
          "type": "address"
        },
        {
          "internalType": "uint256",
          "name": "GameID",
          "type": "uint256"
        }
      ],
      "name": "SetMPGameResult",
      "outputs": [],
      "stateMutability": "nonpayable",
      "type": "function"
    },
    {
      "inputs": [
        {
          "internalType": "address",
          "name": "winner",
          "type": "address"
        },
        {
          "internalType": "uint256",
          "name": "GameID",
          "type": "uint256"
        }
      ],
      "name": "SetMPGameResultByToken",
      "outputs": [],
      "stateMutability": "nonpayable",
      "type": "function"
    },
    {
      "inputs": [
        {
          "internalType": "address",
          "name": "winner",
          "type": "address"
        },
        {
          "internalType": "uint256",
          "name": "GameID",
          "type": "uint256"
        }
      ],
      "name": "SetMPGameResultForNFT",
      "outputs": [],
      "stateMutability": "nonpayable",
      "type": "function"
    },
    {
      "inputs": [
        {
          "internalType": "uint256",
          "name": "_amounts",
          "type": "uint256"
        }
      ],
      "name": "SetMinBetAmounts",
      "outputs": [],
      "stateMutability": "nonpayable",
      "type": "function"
    },
    {
      "inputs": [
        {
          "internalType": "address",
          "name": "winner",
          "type": "address"
        },
        {
          "internalType": "uint256",
          "name": "GameID",
          "type": "uint256"
        },
        {
          "internalType": "uint256",
          "name": "result",
          "type": "uint256"
        }
      ],
      "name": "SetSPGameResult",
      "outputs": [],
      "stateMutability": "nonpayable",
      "type": "function"
    },
    {
      "inputs": [
        {
          "internalType": "address",
          "name": "winner",
          "type": "address"
        },
        {
          "internalType": "uint256",
          "name": "GameID",
          "type": "uint256"
        },
        {
          "internalType": "uint256",
          "name": "result",
          "type": "uint256"
        }
      ],
      "name": "SetSPGameResultByToken",
      "outputs": [],
      "stateMutability": "nonpayable",
      "type": "function"
    },
    {
      "inputs": [
        {
          "internalType": "address",
          "name": "userAddress",
          "type": "address"
        },
        {
          "internalType": "uint256",
          "name": "nonce",
          "type": "uint256"
        },
        {
          "internalType": "bytes32",
          "name": "sigR",
          "type": "bytes32"
        },
        {
          "internalType": "bytes32",
          "name": "sigS",
          "type": "bytes32"
        },
        {
          "internalType": "uint8",
          "name": "sigV",
          "type": "uint8"
        }
      ],
      "name": "cancelMetaKeepLambdaNonce",
      "outputs": [],
      "stateMutability": "nonpayable",
      "type": "function"
    },
    {
      "inputs": [],
      "name": "domainSeperator",
      "outputs": [
        {
          "internalType": "bytes32",
          "name": "",
          "type": "bytes32"
        }
      ],
      "stateMutability": "view",
      "type": "function"
    },
    {
      "inputs": [],
      "name": "eskillz_fee",
      "outputs": [
        {
          "internalType": "uint256",
          "name": "",
          "type": "uint256"
        }
      ],
      "stateMutability": "view",
      "type": "function"
    },
    {
      "inputs": [
        {
          "internalType": "address",
          "name": "userAddress",
          "type": "address"
        },
        {
          "internalType": "uint256",
          "name": "nonce",
          "type": "uint256"
        },
        {
          "internalType": "uint256",
          "name": "validFrom",
          "type": "uint256"
        },
        {
          "internalType": "uint256",
          "name": "validUpto",
          "type": "uint256"
        },
        {
          "internalType": "bytes",
          "name": "functionSignature",
          "type": "bytes"
        },
        {
          "internalType": "bytes32",
          "name": "sigR",
          "type": "bytes32"
        },
        {
          "internalType": "bytes32",
          "name": "sigS",
          "type": "bytes32"
        },
        {
          "internalType": "uint8",
          "name": "sigV",
          "type": "uint8"
        }
      ],
      "name": "executeMetaKeepLambdaTransaction",
      "outputs": [
        {
          "internalType": "bool",
          "name": "",
          "type": "bool"
        }
      ],
      "stateMutability": "payable",
      "type": "function"
    },
    {
      "inputs": [],
      "name": "feeReceiver",
      "outputs": [
        {
          "internalType": "address",
          "name": "",
          "type": "address"
        }
      ],
      "stateMutability": "view",
      "type": "function"
    },
    {
      "inputs": [
        {
          "internalType": "uint256",
          "name": "",
          "type": "uint256"
        },
        {
          "internalType": "uint256",
          "name": "",
          "type": "uint256"
        }
      ],
      "name": "gamebetting",
      "outputs": [
        {
          "internalType": "address",
          "name": "player",
          "type": "address"
        },
        {
          "internalType": "uint256",
          "name": "amount",
          "type": "uint256"
        },
        {
          "internalType": "uint256",
          "name": "gameType",
          "type": "uint256"
        },
        {
          "internalType": "uint256",
          "name": "betType",
          "type": "uint256"
        }
      ],
      "stateMutability": "view",
      "type": "function"
    },
    {
      "inputs": [],
      "name": "getAvailableAmountOfContract",
      "outputs": [
        {
          "internalType": "uint256",
          "name": "",
          "type": "uint256"
        }
      ],
      "stateMutability": "view",
      "type": "function"
    },
    {
      "inputs": [],
      "name": "getGameID",
      "outputs": [
        {
          "internalType": "uint256",
          "name": "",
          "type": "uint256"
        }
      ],
      "stateMutability": "view",
      "type": "function"
    },
    {
      "inputs": [
        {
          "internalType": "uint256",
          "name": "gameID",
          "type": "uint256"
        }
      ],
      "name": "getGameInfo",
      "outputs": [
        {
          "components": [
            {
              "internalType": "address",
              "name": "player",
              "type": "address"
            },
            {
              "internalType": "uint256",
              "name": "amount",
              "type": "uint256"
            },
            {
              "internalType": "uint256",
              "name": "gameType",
              "type": "uint256"
            },
            {
              "internalType": "uint256",
              "name": "betType",
              "type": "uint256"
            }
          ],
          "internalType": "struct ESkillzStraightBet.Bet[]",
          "name": "",
          "type": "tuple[]"
        }
      ],
      "stateMutability": "view",
      "type": "function"
    },
    {
      "inputs": [
        {
          "internalType": "uint256",
          "name": "game",
          "type": "uint256"
        }
      ],
      "name": "getPlayerLength",
      "outputs": [
        {
          "internalType": "uint256",
          "name": "",
          "type": "uint256"
        }
      ],
      "stateMutability": "view",
      "type": "function"
    },
    {
      "inputs": [
        {
          "internalType": "bytes32",
          "name": "role",
          "type": "bytes32"
        }
      ],
      "name": "getRoleAdmin",
      "outputs": [
        {
          "internalType": "bytes32",
          "name": "",
          "type": "bytes32"
        }
      ],
      "stateMutability": "view",
      "type": "function"
    },
    {
      "inputs": [
        {
          "internalType": "bytes32",
          "name": "role",
          "type": "bytes32"
        },
        {
          "internalType": "address",
          "name": "account",
          "type": "address"
        }
      ],
      "name": "grantRole",
      "outputs": [],
      "stateMutability": "nonpayable",
      "type": "function"
    },
    {
      "inputs": [
        {
          "internalType": "bytes32",
          "name": "role",
          "type": "bytes32"
        },
        {
          "internalType": "address",
          "name": "account",
          "type": "address"
        }
      ],
      "name": "hasRole",
      "outputs": [
        {
          "internalType": "bool",
          "name": "",
          "type": "bool"
        }
      ],
      "stateMutability": "view",
      "type": "function"
    },
    {
      "inputs": [
        {
          "internalType": "address",
          "name": "userAddress",
          "type": "address"
        },
        {
          "internalType": "uint256",
          "name": "nonce",
          "type": "uint256"
        }
      ],
      "name": "metaKeepLambdaNonceState",
      "outputs": [
        {
          "internalType": "bool",
          "name": "",
          "type": "bool"
        }
      ],
      "stateMutability": "view",
      "type": "function"
    },
    {
      "inputs": [],
      "name": "minBetAmounts",
      "outputs": [
        {
          "internalType": "uint256",
          "name": "",
          "type": "uint256"
        }
      ],
      "stateMutability": "view",
      "type": "function"
    },
    {
      "inputs": [
        {
          "internalType": "bytes32",
          "name": "role",
          "type": "bytes32"
        },
        {
          "internalType": "address",
          "name": "account",
          "type": "address"
        }
      ],
      "name": "renounceRole",
      "outputs": [],
      "stateMutability": "nonpayable",
      "type": "function"
    },
    {
      "inputs": [
        {
          "internalType": "bytes32",
          "name": "role",
          "type": "bytes32"
        },
        {
          "internalType": "address",
          "name": "account",
          "type": "address"
        }
      ],
      "name": "revokeRole",
      "outputs": [],
      "stateMutability": "nonpayable",
      "type": "function"
    },
    {
      "inputs": [
        {
          "internalType": "uint256",
          "name": "_fee",
          "type": "uint256"
        }
      ],
      "name": "setFee",
      "outputs": [],
      "stateMutability": "nonpayable",
      "type": "function"
    },
    {
      "inputs": [
        {
          "internalType": "address",
          "name": "_address",
          "type": "address"
        }
      ],
      "name": "setFeeReceiver",
      "outputs": [],
      "stateMutability": "nonpayable",
      "type": "function"
    },
    {
      "inputs": [
        {
          "internalType": "address",
          "name": "_sport",
          "type": "address"
        }
      ],
      "name": "setSportAddress",
      "outputs": [],
      "stateMutability": "nonpayable",
      "type": "function"
    },
    {
      "inputs": [
        {
          "internalType": "address",
          "name": "_address",
          "type": "address"
        }
      ],
      "name": "setTresury",
      "outputs": [],
      "stateMutability": "nonpayable",
      "type": "function"
    },
    {
      "inputs": [],
      "name": "sport",
      "outputs": [
        {
          "internalType": "address",
          "name": "",
          "type": "address"
        }
      ],
      "stateMutability": "view",
      "type": "function"
    },
    {
      "inputs": [
        {
          "internalType": "bytes4",
          "name": "interfaceId",
          "type": "bytes4"
        }
      ],
      "name": "supportsInterface",
      "outputs": [
        {
          "internalType": "bool",
          "name": "",
          "type": "bool"
        }
      ],
      "stateMutability": "view",
      "type": "function"
    },
    {
      "inputs": [
        {
          "internalType": "uint256",
          "name": "",
          "type": "uint256"
        }
      ],
      "name": "totalAmountsOfDay",
      "outputs": [
        {
          "internalType": "uint256",
          "name": "",
          "type": "uint256"
        }
      ],
      "stateMutability": "view",
      "type": "function"
    },
    {
      "inputs": [],
      "name": "treasury",
      "outputs": [
        {
          "internalType": "address",
          "name": "",
          "type": "address"
        }
      ],
      "stateMutability": "view",
      "type": "function"
    },
    {
      "inputs": [
        {
          "internalType": "address",
          "name": "_feeReceiver",
          "type": "address"
        },
        {
          "internalType": "uint256",
          "name": "_amount",
          "type": "uint256"
        }
      ],
      "name": "withdraw",
      "outputs": [],
      "stateMutability": "nonpayable",
      "type": "function"
    },
    {
      "inputs": [
        {
          "internalType": "address",
          "name": "_feeReceiver",
          "type": "address"
        }
      ],
      "name": "withdrawAll",
      "outputs": [],
      "stateMutability": "nonpayable",
      "type": "function"
    }
  ],
  "bytecode": "0x60806040523480156200001157600080fd5b506040516200524438038062005244833981016040819052620000349162000420565b81818162000052600080516020620052248339815191528262000158565b6200006d600080516020620052248339815191528062000168565b506200007981620001b3565b5050600380546001600160a01b03199081166001600160a01b038581169190911790925560068054821692861692831790556101f4600955600a805473099b7b28ac913efbb3236946769ac6d3819329ab92168217905560405163095ea7b360e01b81526004810191909152670de0b6b3a7640000602482015263095ea7b3906044016020604051808303816000875af11580156200011c573d6000803e3d6000fd5b505050506040513d601f19601f8201168201806040525081019062000142919062000524565b5050633b9aca00600555505042600c556200054f565b620001648282620002d0565b5050565b600082815260208190526040808220600101805490849055905190918391839186917fbd79b86ffe0ab8e8776151514217cd7cacd52c909f66475c3af44e129f0b00ff9190a4505050565b600154156200021d5760405162461bcd60e51b815260206004820152602c60248201527f4d6574614b6565704c616d6264613a20446f6d61696e20736570657261746f7260448201526b08185b1c9958591e481cd95d60a21b606482015260840160405180910390fd5b6040518060800160405280604f8152602001620051d5604f913980516020918201208251838301206040805180820190915260018152603160f81b930192909252907fc89efdaa54c0f20c7adf612882df0950f5a951637e0307cdcb4c672f298b8bc6304660408051602081019690965285019390935260608401919091526001600160a01b0316608083015260a082015260c00160408051601f19818403018152919052805160209091012060015550565b6000828152602081815260408083206001600160a01b038516845290915290205460ff1662000164576000828152602081815260408083206001600160a01b03851684529091529020805460ff191660011790556200032e62000372565b6001600160a01b0316816001600160a01b0316837f2f8788117e7eff1d82e926ec794901d17c78024a50270940304540a733656f0d60405160405180910390a45050565b6000620003896200038e60201b62003e181760201c565b905090565b600033301415620003e757600080368080601f0160208091040260200160405190810160405280939291908181526020018383808284376000920191909152505050503601516001600160a01b03169150620003ea9050565b50335b90565b80516001600160a01b03811681146200040557600080fd5b919050565b634e487b7160e01b600052604160045260246000fd5b6000806000606084860312156200043657600080fd5b6200044184620003ed565b9250602062000452818601620003ed565b60408601519093506001600160401b03808211156200047057600080fd5b818701915087601f8301126200048557600080fd5b8151818111156200049a576200049a6200040a565b604051601f8201601f19908116603f01168101908382118183101715620004c557620004c56200040a565b816040528281528a86848701011115620004de57600080fd5b600093505b82841015620005025784840186015181850187015292850192620004e3565b82841115620005145760008684830101525b8096505050505050509250925092565b6000602082840312156200053757600080fd5b815180151581146200054857600080fd5b9392505050565b614c76806200055f6000396000f3fe6080604052600436106103135760003560e01c806385f104271161019a578063cb73ac56116100e1578063f3fef3a31161008a578063f81b97bc11610064578063f81b97bc14610950578063fa09e63014610970578063fddc3d191461099057600080fd5b8063f3fef3a3146108d1578063f4167d62146108f1578063f696649d1461090657600080fd5b8063e97ff65e116100bb578063e97ff65e14610856578063ebe9b0f21461086b578063efdcd974146108b157600080fd5b8063cb73ac5614610800578063d547741f14610816578063e8b139841461083657600080fd5b8063a38e0fcc11610143578063b90861991161011d578063b9086199146107b4578063c0dcaeeb146107ca578063c4f83d75146107ea57600080fd5b8063a38e0fcc14610754578063b3f0067414610774578063b53969401461079457600080fd5b806391d148541161017457806391d14854146106db5780639dc010ba1461071f578063a217fddf1461073f57600080fd5b806385f104271461067b57806388cb57b41461069b5780638a8ff7ad146106bb57600080fd5b806343b4f0831161025e57806369c9eaf7116102075780636ab9b2d7116101e15780636ab9b2d71461061b578063715a168a1461063b57806376b22e681461065b57600080fd5b806369c9eaf7146105ae57806369fe0e2d146105db5780636a337141146105fb57600080fd5b806361d027b31161023857806361d027b31461055957806365e015521461057957806367eb5f391461059957600080fd5b806343b4f083146104f657806347e1d5501461050c578063587415b01461053957600080fd5b8063285857ae116102c057806336568abe1161029a57806336568abe1461047e5780633f5c0d3f1461049e5780633f7c1685146104d657600080fd5b8063285857ae1461041a5780632f2ff15d1461043c5780633591ccf51461045e57600080fd5b80630f7e5970116102f15780630f7e59701461039d578063243ed11d146103d7578063248a9ca3146103ea57600080fd5b806301ffc9a7146103185780630bb93b4b1461034d5780630c1f563514610388575b600080fd5b34801561032457600080fd5b50610338610333366004614612565b6109a5565b60405190151581526020015b60405180910390f35b34801561035957600080fd5b5061037a61036836600461463c565b60009081526007602052604090205490565b604051908152602001610344565b34801561039457600080fd5b5061037a6109dc565b3480156103a957600080fd5b506103ca604051806040016040528060018152602001603160f81b81525081565b6040516103449190614681565b6103386103e53660046146f7565b6109ff565b3480156103f657600080fd5b5061037a61040536600461463c565b60009081526020819052604090206001015490565b34801561042657600080fd5b5061037a600080516020614c0183398151915281565b34801561044857600080fd5b5061045c6104573660046147fa565b610c13565b005b34801561046a57600080fd5b5061045c610479366004614826565b610c3d565b34801561048a57600080fd5b5061045c6104993660046147fa565b6110d0565b3480156104aa57600080fd5b506006546104be906001600160a01b031681565b6040516001600160a01b039091168152602001610344565b3480156104e257600080fd5b5061045c6104f1366004614826565b61116c565b34801561050257600080fd5b5061037a60055481565b34801561051857600080fd5b5061052c61052736600461463c565b6112a7565b6040516103449190614850565b34801561054557600080fd5b5061045c61055436600461463c565b611344565b34801561056557600080fd5b50600b546104be906001600160a01b031681565b34801561058557600080fd5b5061045c6105943660046148bd565b6113ab565b3480156105a557600080fd5b5061037a61142f565b3480156105ba57600080fd5b5061037a6105c936600461463c565b60086020526000908152604090205481565b3480156105e757600080fd5b5061045c6105f636600461463c565b61154f565b34801561060757600080fd5b5061045c6106163660046148d8565b6115b6565b34801561062757600080fd5b5061045c610636366004614826565b611859565b34801561064757600080fd5b5061045c6106563660046148d8565b61192f565b34801561066757600080fd5b5061045c610676366004614826565b611b38565b34801561068757600080fd5b5061045c6106963660046148d8565b611c6a565b3480156106a757600080fd5b5061045c6106b63660046148bd565b6121f1565b3480156106c757600080fd5b5061045c6106d63660046148d8565b612275565b3480156106e757600080fd5b506103386106f63660046147fa565b6000918252602082815260408084206001600160a01b0393909316845291905290205460ff1690565b34801561072b57600080fd5b5061045c61073a366004614826565b612505565b34801561074b57600080fd5b5061037a600081565b34801561076057600080fd5b5061045c61076f366004614826565b61272b565b34801561078057600080fd5b50600a546104be906001600160a01b031681565b3480156107a057600080fd5b5061045c6107af366004614826565b6128df565b3480156107c057600080fd5b5061037a60095481565b3480156107d657600080fd5b5061045c6107e536600461490b565b612ef2565b3480156107f657600080fd5b5061037a60045481565b34801561080c57600080fd5b5061037a60015481565b34801561082257600080fd5b5061045c6108313660046147fa565b612fe6565b34801561084257600080fd5b5061045c610851366004614826565b61300b565b34801561086257600080fd5b5061037a613232565b34801561087757600080fd5b50610338610886366004614826565b6001600160a01b03919091166000908152600260209081526040808320938352929052205460ff1690565b3480156108bd57600080fd5b5061045c6108cc3660046148bd565b613255565b3480156108dd57600080fd5b5061045c6108ec366004614826565b61334c565b3480156108fd57600080fd5b5061045c61365c565b34801561091257600080fd5b5061092661092136600461495b565b6136c5565b604080516001600160a01b0390951685526020850193909352918301526060820152608001610344565b34801561095c57600080fd5b5061045c61096b3660046148d8565b613715565b34801561097c57600080fd5b5061045c61098b3660046148bd565b613a97565b34801561099c57600080fd5b5060045461037a565b60006001600160e01b03198216637965db0b60e01b14806109d657506301ffc9a760e01b6001600160e01b03198316145b92915050565b604051806060016040528060358152602001614b5b603591398051906020012081565b6000610a0d89898989613e74565b60006040518060a001604052808a81526020018981526020018881526020018b6001600160a01b0316815260200187815250905060006040518060a0016040528060718152602001614b906071913980516020918201208351848301516040808701516060808901516080808b01518051908a01208551998a0198909852938801959095528601929092528401526001600160a01b031660a083015260c082015260e001604051602081830303815290604052805190602001209050610ad68b82888888613f54565b610b275760405162461bcd60e51b815260206004820152601d60248201527f4d6574614b6565704c616d6264613a20536967206e6f74206d6174636800000060448201526064015b60405180910390fd5b6001600260008d6001600160a01b03166001600160a01b0316815260200190815260200160002060008c815260200190815260200160002060006101000a81548160ff021916908315150217905550600080306001600160a01b0316898e604051602001610b9692919061497d565b60408051601f1981840301815290829052610bb0916149b4565b6000604051808303816000865af19150503d8060008114610bed576040519150601f19603f3d011682016040523d82523d6000602084013e610bf2565b606091505b509150915081610c03578060208201fd5b509b9a5050505050505050505050565b600082815260208190526040902060010154610c2e8161406c565b610c388383614080565b505050565b600080610c498361411f565b600085815260076020526040812080549395509193509091610c6d57610c6d6149d0565b9060005260206000209060040201600201546001148015610cc05750600083815260076020526040902080546001908110610caa57610caa6149d0565b9060005260206000209060040201600201546001145b610d0c5760405162461bcd60e51b815260206004820152601c60248201527f596f752063616e2073657420746865204d502067616d65206f6e6c79000000006044820152606401610b1e565b60008381526007602052604081208054909190610d2b57610d2b6149d0565b60009182526020909120600490910201546001600160a01b0385811691161480610d915750600083815260076020526040902080546001908110610d7157610d716149d0565b60009182526020909120600490910201546001600160a01b038581169116145b610deb5760405162461bcd60e51b815260206004820152602560248201527f6d73672073656e646572206d75737420696e636c7564657320696e20746869736044820152642067616d6560d81b6064820152608401610b1e565b60008381526007602052604081208054909190610e0a57610e0a6149d0565b9060005260206000209060040201600101546002610e2891906149fc565b6006546040516370a0823160e01b81523060048201526001600160a01b03909116906370a0823190602401602060405180830381865afa158015610e70573d6000803e3d6000fd5b505050506040513d601f19601f82011682018060405250810190610e949190614a1b565b1015610ef75760405162461bcd60e51b815260206004820152602c60248201527f44706f72742042616c616e6365206f662042657420636f6e747261637420697360448201526b103737ba1032b737bab3b41760a11b6064820152608401610b1e565b60008381526007602052604081208054909190610f1657610f166149d0565b60009182526020909120600490910201546001600160a01b0385811691161415610ff657600654600084815260076020526040812080546001600160a01b0390931692634622ae149290610f6c57610f6c6149d0565b600091825260209091206004918202015460405160e084901b6001600160e01b03191681526001600160a01b0390911691810191909152602481018590526044016020604051808303816000875af1158015610fcc573d6000803e3d6000fd5b505050506040513d601f19601f82011682018060405250810190610ff09190614a34565b506110b3565b600654600084815260076020526040902080546001600160a01b0390921691634622ae149190600190811061102d5761102d6149d0565b600091825260209091206004918202015460405160e084901b6001600160e01b03191681526001600160a01b0390911691810191909152602481018590526044016020604051808303816000875af115801561108d573d6000803e3d6000fd5b505050506040513d601f19601f820116820180604052508101906110b19190614a34565b505b60008381526007602052604081206110ca916145be565b50505050565b6110d86141d2565b6001600160a01b0316816001600160a01b03161461115e5760405162461bcd60e51b815260206004820152602f60248201527f416363657373436f6e74726f6c3a2063616e206f6e6c792072656e6f756e636560448201527f20726f6c657320666f722073656c6600000000000000000000000000000000006064820152608401610b1e565b61116882826141dc565b5050565b600081116111c85760405162461bcd60e51b8152602060048201526024808201527f42657420616d6f756e7473206d75737420626520626967676572207468616e206044820152637a65726f60e01b6064820152608401610b1e565b600480549060006111d883614a56565b909155505060045460009081526007602052604081206111f7916145be565b60048054600090815260076020908152604080832081516080810183526001600160a01b03888116825281850188815282850187815260016060850181815286548083018855968a52988890209451958a0290940180546001600160a01b03191695909316949094178255519181019190915590516002820155925160039093019290925591548151908152918201839052600080516020614c2183398151915291015b60405180910390a15050565b606060076000838152602001908152602001600020805480602002602001604051908101604052809291908181526020016000905b82821015611339576000848152602090819020604080516080810182526004860290920180546001600160a01b031683526001808201548486015260028201549284019290925260030154606083015290835290920191016112dc565b505050509050919050565b61135e600080516020614c018339815191526106f6613e18565b6113a65760405162461bcd60e51b815260206004820152601960248201527826b2ba30a5b2b2b82630b6b132309d102737ba1037bbb732b960391b6044820152606401610b1e565b600555565b6113c5600080516020614c018339815191526106f6613e18565b61140d5760405162461bcd60e51b815260206004820152601960248201527826b2ba30a5b2b2b82630b6b132309d102737ba1037bbb732b960391b6044820152606401610b1e565b600680546001600160a01b0319166001600160a01b0392909216919091179055565b60008062015180600c54426114449190614a71565b61144e9190614a88565b11156115465760086000600162015180600c544261146c9190614a71565b6114769190614a88565b6114809190614a71565b8152602001908152602001600020546008600062015180600c54426114a59190614a71565b6114af9190614a88565b8152602081019190915260409081016000205460065491516370a0823160e01b815230600482015290916001600160a01b0316906370a0823190602401602060405180830381865afa158015611509573d6000803e3d6000fd5b505050506040513d601f19601f8201168201806040525081019061152d9190614a1b565b6115379190614a71565b6115419190614a71565b905090565b50600090565b90565b611569600080516020614c018339815191526106f6613e18565b6115b15760405162461bcd60e51b815260206004820152601960248201527826b2ba30a5b2b2b82630b6b132309d102737ba1037bbb732b960391b6044820152606401610b1e565b600955565b60008281526007602052604090205460011461160c5760405162461bcd60e51b8152602060048201526015602482015274283630bcb2b9399031b0b7103737ba103537b4b71760591b6044820152606401610b1e565b600082815260076020526040812080546001600160a01b0386169290611634576116346149d0565b60009182526020909120600490910201546001600160a01b0316141561169c5760405162461bcd60e51b815260206004820152601a60248201527f53616d6520506c61796572732063616e206e6f74206a6f696e2e0000000000006044820152606401610b1e565b600082815260076020526040812080549091906116bb576116bb6149d0565b906000526020600020906004020160010154811461172d5760405162461bcd60e51b815260206004820152602960248201527f596f75722062657420616d6f756e74206d75737420657175616c7320637265616044820152681d1948185b5bdd5b9d60ba1b6064820152608401610b1e565b6000828152600760205260408120805490919061174c5761174c6149d0565b9060005260206000209060040201600201546001146117ad5760405162461bcd60e51b815260206004820152601d60248201527f596f752063616e206a6f696e20746865204d502067616d65206f6e6c790000006044820152606401610b1e565b600082815260076020908152604080832081516080810183526001600160a01b03888116825281850187815260018386018181526060850182815286548084018855968a52988890209451600490960290940180546001600160a01b03191695909316949094178255519281019290925551600282015592516003909301929092558151848152908101839052600080516020614c2183398151915291015b60405180910390a1505050565b6004805490600061186983614a56565b90915550506004546000908152600760205260408120611888916145be565b60048054600090815260076020908152604080832081516080810183526001600160a01b038881168252818501888152600183860181815260026060860181815287548085018955978b52998990209551968b0290950180546001600160a01b03191696909416959095178355905190820155915190820155925160039093019290925591548151908152918201839052600080516020614c21833981519152910161129b565b6000828152600760205260409020546001146119855760405162461bcd60e51b8152602060048201526015602482015274283630bcb2b9399031b0b7103737ba103537b4b71760591b6044820152606401610b1e565b600082815260076020526040812080546001600160a01b03861692906119ad576119ad6149d0565b60009182526020909120600490910201546001600160a01b03161415611a155760405162461bcd60e51b815260206004820152601a60248201527f53616d6520506c61796572732063616e206e6f74206a6f696e2e0000000000006044820152606401610b1e565b60008281526007602052604081208054909190611a3457611a346149d0565b906000526020600020906004020160020154600114611a955760405162461bcd60e51b815260206004820152601d60248201527f596f752063616e206a6f696e20746865204d502067616d65206f6e6c790000006044820152606401610b1e565b600082815260076020908152604080832081516080810183526001600160a01b038881168252818501878152600183860181815260026060860181815287548085018955978b52998990209551600490970290950180546001600160a01b0319169690941695909517835590519082015591519082015592516003909301929092558151848152908101839052600080516020614c21833981519152910161184c565b60008111611b945760405162461bcd60e51b8152602060048201526024808201527f42657420616d6f756e7473206d75737420626520626967676572207468616e206044820152637a65726f60e01b6064820152608401610b1e565b60048054906000611ba483614a56565b90915550506004546000908152600760205260408120611bc3916145be565b60048054600090815260076020908152604080832081516080810183526001600160a01b03888116825281850188815260018386018181526060850182815286548084018855968a52988890209451958a0290940180546001600160a01b031916959093169490941782555192810192909255516002820155925160039093019290925591548151908152918201839052600080516020614c21833981519152910161129b565b600080611c7684614279565b600086815260076020526040812080549395509193506001600160a01b03881692611ca357611ca36149d0565b60009182526020909120600490910201546001600160a01b031614611d0a5760405162461bcd60e51b815260206004820152601d60248201527f4f7468657220506c61796572732063616e206e6f74206163636573732e0000006044820152606401610b1e565b60008481526007602052604081208054909190611d2957611d296149d0565b906000526020600020906004020160020154600014611d8a5760405162461bcd60e51b815260206004820152601c60248201527f596f752063616e20736574207468652053502067616d65206f6e6c79000000006044820152606401610b1e565b60008481526007602052604081208054909190611da957611da96149d0565b60009182526020909120600491820201600101546006546040516370a0823160e01b8152309381019390935290916001600160a01b03909116906370a0823190602401602060405180830381865afa158015611e09573d6000803e3d6000fd5b505050506040513d601f19601f82011682018060405250810190611e2d9190614a1b565b1015611e905760405162461bcd60e51b815260206004820152602c60248201527f44706f72742042616c616e6365206f662042657420636f6e747261637420697360448201526b103737ba1032b737bab3b41760a11b6064820152608401610b1e565b600654600085815260076020526040812080546001600160a01b0390931692634622ae14928992606492899290611ec957611ec96149d0565b906000526020600020906004020160010154611ee591906149fc565b611eef9190614a88565b6040516001600160e01b031960e085901b1681526001600160a01b03909216600483015260248201526044016020604051808303816000875af1158015611f3a573d6000803e3d6000fd5b505050506040513d601f19601f82011682018060405250810190611f5e9190614a34565b5060065460405163a9059cbb60e01b81526001600160a01b038781166004830152602482018590529091169063a9059cbb906044016020604051808303816000875af1158015611fb2573d6000803e3d6000fd5b505050506040513d601f19601f82011682018060405250810190611fd69190614a34565b50600654600a5460405163a9059cbb60e01b81526001600160a01b0391821660048201526024810184905291169063a9059cbb906044016020604051808303816000875af115801561202c573d6000803e3d6000fd5b505050506040513d601f19601f820116820180604052508101906120509190614a34565b5060008481526007602052604081208054909190612070576120706149d0565b9060005260206000209060040201600101546008600062015180600c54426120989190614a71565b6120a29190614a88565b8152602001908152602001600020541061212f57600084815260076020526040812080549091906120d5576120d56149d0565b9060005260206000209060040201600101546008600062015180600c54426120fd9190614a71565b6121079190614a88565b815260200190815260200160002060008282546121249190614a71565b909155506121d39050565b600062015180600c54426121439190614a71565b61214d9190614a88565b11156121d35760008481526007602052604081208054909190612172576121726149d0565b90600052602060002090600402016001015460086000600162015180600c544261219c9190614a71565b6121a69190614a88565b6121b09190614a71565b815260200190815260200160002060008282546121cd9190614a71565b90915550505b60008481526007602052604081206121ea916145be565b5050505050565b61220b600080516020614c018339815191526106f6613e18565b6122535760405162461bcd60e51b815260206004820152601960248201527826b2ba30a5b2b2b82630b6b132309d102737ba1037bbb732b960391b6044820152606401610b1e565b600b80546001600160a01b0319166001600160a01b0392909216919091179055565b60008061228184614279565b600086815260076020526040812080549395509193506001600160a01b038816926122ae576122ae6149d0565b60009182526020909120600490910201546001600160a01b0316146123155760405162461bcd60e51b815260206004820152601d60248201527f4f7468657220506c61796572732063616e206e6f74206163636573732e0000006044820152606401610b1e565b60008481526007602052604081208054909190612334576123346149d0565b9060005260206000209060040201600201546000146123955760405162461bcd60e51b815260206004820152601c60248201527f596f752063616e20736574207468652053502067616d65206f6e6c79000000006044820152606401610b1e565b600084815260076020526040812080549091906123b4576123b46149d0565b9060005260206000209060040201600301546001146124155760405162461bcd60e51b815260206004820152601c60248201527f596f752063616e20736574207468652053502067616d65206f6e6c79000000006044820152606401610b1e565b600654600085815260076020526040812080546001600160a01b0390931692634622ae1492899260649289929061244e5761244e6149d0565b90600052602060002090600402016001015461246a91906149fc565b6124749190614a88565b61247e9086614aaa565b6040516001600160e01b031960e085901b1681526001600160a01b03909216600483015260248201526044016020604051808303816000875af11580156124c9573d6000803e3d6000fd5b505050506040513d601f19601f820116820180604052508101906124ed9190614a34565b5060008481526007602052604081206121ea916145be565b6006546001600160a01b03166125196141d2565b6001600160a01b03161461252c57600080fd5b8060055411156125945760405162461bcd60e51b815260206004820152602d60248201527f42657420616d6f756e7473206d75737420626520626967676572207468616e2060448201526c6d696e426574416d6f756e747360981b6064820152608401610b1e565b806008600062015180600c54426125ab9190614a71565b6125b59190614a88565b815260200190815260200160002060008282546125d29190614aaa565b9091555050600480549060006125e783614a56565b90915550506006546040516323b872dd60e01b81526001600160a01b03848116600483015230602483015260448201849052909116906323b872dd906064016020604051808303816000875af1158015612645573d6000803e3d6000fd5b505050506040513d601f19601f820116820180604052508101906126699190614a34565b506004546000908152600760205260408120612684916145be565b60048054600090815260076020908152604080832081516080810183526001600160a01b03888116825281850188815260018386018181526060850189815286548084018855968a52988890209451958a0290940180546001600160a01b031916959093169490941782555192810192909255516002820155925160039093019290925591548151908152918201839052600080516020614c21833981519152910161129b565b6000818152600760205260408120805490919061274a5761274a6149d0565b906000526020600020906004020160020154600114801561279d5750600081815260076020526040902080546001908110612787576127876149d0565b9060005260206000209060040201600201546001145b6127e95760405162461bcd60e51b815260206004820152601c60248201527f596f752063616e2073657420746865204d502067616d65206f6e6c79000000006044820152606401610b1e565b60008181526007602052604081208054909190612808576128086149d0565b60009182526020909120600490910201546001600160a01b038381169116148061286e575060008181526007602052604090208054600190811061284e5761284e6149d0565b60009182526020909120600490910201546001600160a01b038381169116145b6128c85760405162461bcd60e51b815260206004820152602560248201527f6d73672073656e646572206d75737420696e636c7564657320696e20746869736044820152642067616d6560d81b6064820152608401610b1e565b6000818152600760205260408120611168916145be565b6000806128eb8361411f565b60008581526007602052604081208054939550919350909161290f5761290f6149d0565b9060005260206000209060040201600201546001148015612962575060008381526007602052604090208054600190811061294c5761294c6149d0565b9060005260206000209060040201600201546001145b6129ae5760405162461bcd60e51b815260206004820152601c60248201527f596f752063616e2073657420746865204d502067616d65206f6e6c79000000006044820152606401610b1e565b600083815260076020526040812080549091906129cd576129cd6149d0565b60009182526020909120600490910201546001600160a01b0385811691161480612a335750600083815260076020526040902080546001908110612a1357612a136149d0565b60009182526020909120600490910201546001600160a01b038581169116145b612a8d5760405162461bcd60e51b815260206004820152602560248201527f6d73672073656e646572206d75737420696e636c7564657320696e20746869736044820152642067616d6560d81b6064820152608401610b1e565b60008381526007602052604081208054909190612aac57612aac6149d0565b9060005260206000209060040201600101546002612aca91906149fc565b6006546040516370a0823160e01b81523060048201526001600160a01b03909116906370a0823190602401602060405180830381865afa158015612b12573d6000803e3d6000fd5b505050506040513d601f19601f82011682018060405250810190612b369190614a1b565b1015612b995760405162461bcd60e51b815260206004820152602c60248201527f44706f72742042616c616e6365206f662042657420636f6e747261637420697360448201526b103737ba1032b737bab3b41760a11b6064820152608401610b1e565b60008381526007602052604081208054909190612bb857612bb86149d0565b60009182526020909120600490910201546001600160a01b0385811691161415612c9857600654600084815260076020526040812080546001600160a01b039093169263a9059cbb9290612c0e57612c0e6149d0565b600091825260209091206004918202015460405160e084901b6001600160e01b03191681526001600160a01b0390911691810191909152602481018590526044016020604051808303816000875af1158015612c6e573d6000803e3d6000fd5b505050506040513d601f19601f82011682018060405250810190612c929190614a34565b50612d55565b600654600084815260076020526040902080546001600160a01b039092169163a9059cbb91906001908110612ccf57612ccf6149d0565b600091825260209091206004918202015460405160e084901b6001600160e01b03191681526001600160a01b0390911691810191909152602481018590526044016020604051808303816000875af1158015612d2f573d6000803e3d6000fd5b505050506040513d601f19601f82011682018060405250810190612d539190614a34565b505b600654600a5460405163a9059cbb60e01b81526001600160a01b0391821660048201526024810184905291169063a9059cbb906044016020604051808303816000875af1158015612daa573d6000803e3d6000fd5b505050506040513d601f19601f82011682018060405250810190612dce9190614a34565b50612dd98183614aaa565b6008600062015180600c5442612def9190614a71565b612df99190614a88565b81526020019081526020016000205410612e5f57612e178183614aaa565b6008600062015180600c5442612e2d9190614a71565b612e379190614a88565b81526020019081526020016000206000828254612e549190614a71565b909155506110b39050565b600062015180600c5442612e739190614a71565b612e7d9190614a88565b11156110b357612e8d8183614aaa565b60086000600162015180600c5442612ea59190614a71565b612eaf9190614a88565b612eb99190614a71565b81526020019081526020016000206000828254612ed69190614a71565b909155505060008381526007602052604081206110ca916145be565b612efc8585614315565b6000604051806060016040528060358152602001614b5b603591398051602091820120604080519283019190915281018690526001600160a01b0387166060820152608001604051602081830303815290604052805190602001209050612f668682868686613f54565b612fb25760405162461bcd60e51b815260206004820152601d60248201527f4d6574614b6565704c616d6264613a20536967206e6f74206d617463680000006044820152606401610b1e565b5050506001600160a01b03909216600090815260026020908152604080832093835292905220805460ff1916600117905550565b6000828152602081905260409020600101546130018161406c565b610c3883836141dc565b6006546001600160a01b031661301f6141d2565b6001600160a01b03161461303257600080fd5b80600554111561309a5760405162461bcd60e51b815260206004820152602d60248201527f42657420616d6f756e7473206d75737420626520626967676572207468616e2060448201526c6d696e426574416d6f756e747360981b6064820152608401610b1e565b806008600062015180600c54426130b19190614a71565b6130bb9190614a88565b815260200190815260200160002060008282546130d89190614aaa565b9091555050600480549060006130ed83614a56565b90915550506006546040516323b872dd60e01b81526001600160a01b03848116600483015230602483015260448201849052909116906323b872dd906064016020604051808303816000875af115801561314b573d6000803e3d6000fd5b505050506040513d601f19601f8201168201806040525081019061316f9190614a34565b50600454600090815260076020526040812061318a916145be565b60048054600090815260076020908152604080832081516080810183526001600160a01b03888116825281850188815282850187815260608401888152855460018082018855968a52988890209451988a0290940180546001600160a01b03191698909316979097178255519281019290925593516002820155925160039093019290925591548151908152918201839052600080516020614c21833981519152910161129b565b6040518060a0016040528060718152602001614b90607191398051906020012081565b61326f600080516020614c018339815191526106f6613e18565b6132b75760405162461bcd60e51b815260206004820152601960248201527826b2ba30a5b2b2b82630b6b132309d102737ba1037bbb732b960391b6044820152606401610b1e565b600a80546001600160a01b0319166001600160a01b0383811691821790925560065460405163095ea7b360e01b81526004810192909252670de0b6b3a764000060248301529091169063095ea7b3906044016020604051808303816000875af1158015613328573d6000803e3d6000fd5b505050506040513d601f19601f820116820180604052508101906111689190614a34565b600062015180600c54426133609190614a71565b61336a9190614a88565b116133d55760405162461bcd60e51b815260206004820152603560248201527f7769746864726177206461792073686f756c642062652062696767657220746860448201527430b71039ba30b93a103230bc90159018903230bc9760591b6064820152608401610b1e565b600060086000600162015180600c54426133ef9190614a71565b6133f99190614a88565b6134039190614a71565b8152602001908152602001600020546008600062015180600c54426134289190614a71565b6134329190614a88565b81526020019081526020016000205461344b9190614aaa565b6006546040516370a0823160e01b8152306004820152919250829184916001600160a01b0316906370a0823190602401602060405180830381865afa158015613498573d6000803e3d6000fd5b505050506040513d601f19601f820116820180604052508101906134bc9190614a1b565b6134c69190614a71565b1161354d5760405162461bcd60e51b815260206004820152604b60248201527f42616c616e6365206d75737420626520626967676572207468616e20616d6f7560448201527f6e74202b2062657474696e67416d6f756e7473206f6620746f64617920616e6460648201526a103cb2b9ba32b93230bc9760a91b608482015260a401610b1e565b600a546001600160a01b038481169116148061357e575061356c6141d2565b6003546001600160a01b039081169116145b6135e35760405162461bcd60e51b815260206004820152603060248201527f6d73672073656e646572206d757374206265206665655265636569766572206f60448201526f391031b7b73a3930b1ba1037bbb732b960811b6064820152608401610b1e565b600654600a5460405163a9059cbb60e01b81526001600160a01b0391821660048201526024810185905291169063a9059cbb906044016020604051808303816000875af1158015613638573d6000803e3d6000fd5b505050506040513d601f19601f820116820180604052508101906110ca9190614a34565b613676600080516020614c018339815191526106f6613e18565b6136be5760405162461bcd60e51b815260206004820152601960248201527826b2ba30a5b2b2b82630b6b132309d102737ba1037bbb732b960391b6044820152606401610b1e565b6000600455565b600760205281600052604060002081815481106136e157600080fd5b600091825260209091206004909102018054600182015460028301546003909301546001600160a01b039092169450925084565b6006546001600160a01b03166137296141d2565b6001600160a01b03161461373c57600080fd5b6000828152600760205260409020546001146137925760405162461bcd60e51b8152602060048201526015602482015274283630bcb2b9399031b0b7103737ba103537b4b71760591b6044820152606401610b1e565b600082815260076020526040812080546001600160a01b03861692906137ba576137ba6149d0565b60009182526020909120600490910201546001600160a01b031614156138225760405162461bcd60e51b815260206004820152601a60248201527f53616d6520506c61796572732063616e206e6f74206a6f696e2e0000000000006044820152606401610b1e565b60008281526007602052604081208054909190613841576138416149d0565b90600052602060002090600402016001015481146138b35760405162461bcd60e51b815260206004820152602960248201527f596f75722062657420616d6f756e74206d75737420657175616c7320637265616044820152681d1948185b5bdd5b9d60ba1b6064820152608401610b1e565b600082815260076020526040812080549091906138d2576138d26149d0565b9060005260206000209060040201600201546001146139335760405162461bcd60e51b815260206004820152601d60248201527f596f752063616e206a6f696e20746865204d502067616d65206f6e6c790000006044820152606401610b1e565b806008600062015180600c544261394a9190614a71565b6139549190614a88565b815260200190815260200160002060008282546139719190614aaa565b90915550506006546040516323b872dd60e01b81526001600160a01b03858116600483015230602483015260448201849052909116906323b872dd906064016020604051808303816000875af11580156139cf573d6000803e3d6000fd5b505050506040513d601f19601f820116820180604052508101906139f39190614a34565b50600082815260076020908152604080832081516080810183526001600160a01b03888116825281850187815260018386018181526060850189815286548084018855968a52988890209451600490960290940180546001600160a01b03191695909316949094178255519281019290925551600282015592516003909301929092558151848152908101839052600080516020614c21833981519152910161184c565b600062015180600c5442613aab9190614a71565b613ab59190614a88565b11613b205760405162461bcd60e51b815260206004820152603560248201527f7769746864726177206461792073686f756c642062652062696767657220746860448201527430b71039ba30b93a103230bc90159018903230bc9760591b6064820152608401610b1e565b600060086000600162015180600c5442613b3a9190614a71565b613b449190614a88565b613b4e9190614a71565b8152602001908152602001600020546008600062015180600c5442613b739190614a71565b613b7d9190614a88565b815260200190815260200160002054613b969190614aaa565b6006546040516370a0823160e01b815230600482015291925082916001600160a01b03909116906370a0823190602401602060405180830381865afa158015613be3573d6000803e3d6000fd5b505050506040513d601f19601f82011682018060405250810190613c079190614a1b565b11613c8e5760405162461bcd60e51b815260206004820152604b60248201527f42616c616e6365206d75737420626520626967676572207468616e20616d6f7560448201527f6e74202b2062657474696e67416d6f756e7473206f6620746f64617920616e6460648201526a103cb2b9ba32b93230bc9760a91b608482015260a401610b1e565b600a546001600160a01b0383811691161480613cbf5750613cad6141d2565b6003546001600160a01b039081169116145b613d245760405162461bcd60e51b815260206004820152603060248201527f6d73672073656e646572206d757374206265206665655265636569766572206f60448201526f391031b7b73a3930b1ba1037bbb732b960811b6064820152608401610b1e565b600654600a546040516370a0823160e01b81523060048201526001600160a01b039283169263a9059cbb921690849084906370a0823190602401602060405180830381865afa158015613d7b573d6000803e3d6000fd5b505050506040513d601f19601f82011682018060405250810190613d9f9190614a1b565b613da99190614a71565b6040516001600160e01b031960e085901b1681526001600160a01b03909216600483015260248201526044016020604051808303816000875af1158015613df4573d6000803e3d6000fd5b505050506040513d601f19601f82011682018060405250810190610c389190614a34565b600033301415613e6f57600080368080601f0160208091040260200160405190810160405280939291908181526020018383808284376000920191909152505050503601516001600160a01b0316915061154c9050565b503390565b814211613ee95760405162461bcd60e51b815260206004820152602e60248201527f4d6574614b6565704c616d6264613a20417574686f72697a6174696f6e20697360448201527f206e6f742079657420676976656e0000000000000000000000000000000000006064820152608401610b1e565b804210613f4a5760405162461bcd60e51b815260206004820152602960248201527f4d6574614b6565704c616d6264613a20417574686f72697a6174696f6e2068616044820152681cc8195e1c1a5c995960ba1b6064820152608401610b1e565b6110ca8484614315565b60006001600160a01b038616613fac5760405162461bcd60e51b815260206004820152601e60248201527f4d6574614b6565704c616d6264613a20494e56414c49445f5349474e455200006044820152606401610b1e565b6001613ff58660015460405161190160f01b6020820152602281019190915260428101829052600090606201604051602081830303815290604052805190602001209050919050565b6040805160008152602081018083529290925260ff851690820152606081018690526080810185905260a0016020604051602081039080840390855afa158015614043573d6000803e3d6000fd5b505050602060405103516001600160a01b0316866001600160a01b031614905095945050505050565b61407d816140786141d2565b614389565b50565b6000828152602081815260408083206001600160a01b038516845290915290205460ff16611168576000828152602081815260408083206001600160a01b03851684529091529020805460ff191660011790556140db6141d2565b6001600160a01b0316816001600160a01b0316837f2f8788117e7eff1d82e926ec794901d17c78024a50270940304540a733656f0d60405160405180910390a45050565b60008060006127106009546007600087815260200190815260200160002060008154811061414f5761414f6149d0565b90600052602060002090600402016001015461416b91906149fc565b6141759190614a88565b90506000816007600087815260200190815260200160002060008154811061419f5761419f6149d0565b90600052602060002090600402016001015460026141bd91906149fc565b6141c79190614a71565b959194509092505050565b6000611541613e18565b6000828152602081815260408083206001600160a01b038516845290915290205460ff1615611168576000828152602081815260408083206001600160a01b03851684529091529020805460ff191690556142356141d2565b6001600160a01b0316816001600160a01b0316837ff6391f5c32d9c69d2a47ea670b442974b53935d1edc7fd64eb21e047a839171b60405160405180910390a45050565b6000806000612710600954600760008781526020019081526020016000206000815481106142a9576142a96149d0565b9060005260206000209060040201600101546142c591906149fc565b6142cf9190614a88565b9050600081600760008781526020019081526020016000206000815481106142f9576142f96149d0565b9060005260206000209060040201600101546141c79190614a71565b6001600160a01b038216600090815260026020908152604080832084845290915290205460ff16156111685760405162461bcd60e51b815260206004820152601a60248201527f4d6574614b6565704c616d6264613a204e6f6e636520557365640000000000006044820152606401610b1e565b6000828152602081815260408083206001600160a01b038516845290915290205460ff16611168576143ba816143fc565b6143c583602061440e565b6040516020016143d6929190614ac2565b60408051601f198184030181529082905262461bcd60e51b8252610b1e91600401614681565b60606109d66001600160a01b03831660145b6060600061441d8360026149fc565b614428906002614aaa565b67ffffffffffffffff811115614440576144406146d0565b6040519080825280601f01601f19166020018201604052801561446a576020820181803683370190505b509050600360fc1b81600081518110614485576144856149d0565b60200101906001600160f81b031916908160001a905350600f60fb1b816001815181106144b4576144b46149d0565b60200101906001600160f81b031916908160001a90535060006144d88460026149fc565b6144e3906001614aaa565b90505b6001811115614568577f303132333435363738396162636465660000000000000000000000000000000085600f1660108110614524576145246149d0565b1a60f81b82828151811061453a5761453a6149d0565b60200101906001600160f81b031916908160001a90535060049490941c9361456181614b43565b90506144e6565b5083156145b75760405162461bcd60e51b815260206004820181905260248201527f537472696e67733a20686578206c656e67746820696e73756666696369656e746044820152606401610b1e565b9392505050565b508054600082556004029060005260206000209081019061407d91905b8082111561460e5780546001600160a01b03191681556000600182018190556002820181905560038201556004016145db565b5090565b60006020828403121561462457600080fd5b81356001600160e01b0319811681146145b757600080fd5b60006020828403121561464e57600080fd5b5035919050565b60005b83811015614670578181015183820152602001614658565b838111156110ca5750506000910152565b60208152600082518060208401526146a0816040850160208701614655565b601f01601f19169190910160400192915050565b80356001600160a01b03811681146146cb57600080fd5b919050565b634e487b7160e01b600052604160045260246000fd5b803560ff811681146146cb57600080fd5b600080600080600080600080610100898b03121561471457600080fd5b61471d896146b4565b9750602089013596506040890135955060608901359450608089013567ffffffffffffffff8082111561474f57600080fd5b818b0191508b601f83011261476357600080fd5b813581811115614775576147756146d0565b604051601f8201601f19908116603f0116810190838211818310171561479d5761479d6146d0565b816040528281528e60208487010111156147b657600080fd5b82602086016020830137600060208483010152809850505050505060a0890135925060c089013591506147eb60e08a016146e6565b90509295985092959890939650565b6000806040838503121561480d57600080fd5b8235915061481d602084016146b4565b90509250929050565b6000806040838503121561483957600080fd5b614842836146b4565b946020939093013593505050565b602080825282518282018190526000919060409081850190868401855b828110156148b057815180516001600160a01b0316855286810151878601528581015186860152606090810151908501526080909301929085019060010161486d565b5091979650505050505050565b6000602082840312156148cf57600080fd5b6145b7826146b4565b6000806000606084860312156148ed57600080fd5b6148f6846146b4565b95602085013595506040909401359392505050565b600080600080600060a0868803121561492357600080fd5b61492c866146b4565b945060208601359350604086013592506060860135915061494f608087016146e6565b90509295509295909350565b6000806040838503121561496e57600080fd5b50508035926020909101359150565b6000835161498f818460208801614655565b60609390931b6bffffffffffffffffffffffff19169190920190815260140192915050565b600082516149c6818460208701614655565b9190910192915050565b634e487b7160e01b600052603260045260246000fd5b634e487b7160e01b600052601160045260246000fd5b6000816000190483118215151615614a1657614a166149e6565b500290565b600060208284031215614a2d57600080fd5b5051919050565b600060208284031215614a4657600080fd5b815180151581146145b757600080fd5b6000600019821415614a6a57614a6a6149e6565b5060010190565b600082821015614a8357614a836149e6565b500390565b600082614aa557634e487b7160e01b600052601260045260246000fd5b500490565b60008219821115614abd57614abd6149e6565b500190565b7f416363657373436f6e74726f6c3a206163636f756e7420000000000000000000815260008351614afa816017850160208801614655565b7f206973206d697373696e6720726f6c65200000000000000000000000000000006017918401918201528351614b37816028840160208801614655565b01602801949350505050565b600081614b5257614b526149e6565b50600019019056fe4d6574614b6565704c616d62646143616e63656c4e6f6e63652875696e74323536206e6f6e63652c616464726573732066726f6d294d6574614b6565704c616d6264615472616e73616374696f6e2875696e74323536206e6f6e63652c75696e743235362076616c696446726f6d2c75696e743235362076616c69645570746f2c616464726573732066726f6d2c62797465732066756e6374696f6e5369676e617475726529f3a68b3f49a13367480fd7bc507b2776cef106fb7cff6b2af48f699790f77014b2e369502d9bd83f41ab63f1677a14cd6ec5f6f31a885b67989df4f1b3570369a2646970667358221220724a5130cbc54fd3f70b4ac9bb56089c37a2d32da17dbfba7553ffc01cd137e764736f6c634300080a0033454950373132446f6d61696e28737472696e67206e616d652c737472696e672076657273696f6e2c6164647265737320766572696679696e67436f6e74726163742c627974657333322073616c7429f3a68b3f49a13367480fd7bc507b2776cef106fb7cff6b2af48f699790f77014",
  "linkReferences": {},
  "deployedLinkReferences": {}
}