{
  "_format": "hh-sol-artifact-1",
  "contractName": "MarketGetData",
  "sourceName": "contracts/MarketGetData.sol",
  "abi": [
    {
      "inputs": [
        {
          "internalType": "address",
          "name": "marketplace",
          "type": "address"
        },
        {
          "internalType": "address",
          "name": "lambdaOwner",
          "type": "address"
        },
        {
          "internalType": "string",
          "name": "lambdaName",
          "type": "string"
        }
      ],
      "stateMutability": "nonpayable",
      "type": "constructor"
    },
    {
      "anonymous": false,
      "inputs": [
        {
          "indexed": true,
          "internalType": "bytes32",
          "name": "role",
          "type": "bytes32"
        },
        {
          "indexed": true,
          "internalType": "bytes32",
          "name": "previousAdminRole",
          "type": "bytes32"
        },
        {
          "indexed": true,
          "internalType": "bytes32",
          "name": "newAdminRole",
          "type": "bytes32"
        }
      ],
      "name": "RoleAdminChanged",
      "type": "event"
    },
    {
      "anonymous": false,
      "inputs": [
        {
          "indexed": true,
          "internalType": "bytes32",
          "name": "role",
          "type": "bytes32"
        },
        {
          "indexed": true,
          "internalType": "address",
          "name": "account",
          "type": "address"
        },
        {
          "indexed": true,
          "internalType": "address",
          "name": "sender",
          "type": "address"
        }
      ],
      "name": "RoleGranted",
      "type": "event"
    },
    {
      "anonymous": false,
      "inputs": [
        {
          "indexed": true,
          "internalType": "bytes32",
          "name": "role",
          "type": "bytes32"
        },
        {
          "indexed": true,
          "internalType": "address",
          "name": "account",
          "type": "address"
        },
        {
          "indexed": true,
          "internalType": "address",
          "name": "sender",
          "type": "address"
        }
      ],
      "name": "RoleRevoked",
      "type": "event"
    },
    {
      "inputs": [],
      "name": "DEFAULT_ADMIN_ROLE",
      "outputs": [
        {
          "internalType": "bytes32",
          "name": "",
          "type": "bytes32"
        }
      ],
      "stateMutability": "view",
      "type": "function"
    },
    {
      "inputs": [],
      "name": "ERC712_VERSION",
      "outputs": [
        {
          "internalType": "string",
          "name": "",
          "type": "string"
        }
      ],
      "stateMutability": "view",
      "type": "function"
    },
    {
      "inputs": [],
      "name": "METAKEEP_LAMBDA_CANCEL_NONCE_TYPEHASH",
      "outputs": [
        {
          "internalType": "bytes32",
          "name": "",
          "type": "bytes32"
        }
      ],
      "stateMutability": "view",
      "type": "function"
    },
    {
      "inputs": [],
      "name": "METAKEEP_LAMBDA_OWNER_ROLE",
      "outputs": [
        {
          "internalType": "bytes32",
          "name": "",
          "type": "bytes32"
        }
      ],
      "stateMutability": "view",
      "type": "function"
    },
    {
      "inputs": [],
      "name": "METAKEEP_LAMBDA_TRANSACTION_TYPEHASH",
      "outputs": [
        {
          "internalType": "bytes32",
          "name": "",
          "type": "bytes32"
        }
      ],
      "stateMutability": "view",
      "type": "function"
    },
    {
      "inputs": [
        {
          "internalType": "address",
          "name": "userAddress",
          "type": "address"
        },
        {
          "internalType": "uint256",
          "name": "nonce",
          "type": "uint256"
        },
        {
          "internalType": "bytes32",
          "name": "sigR",
          "type": "bytes32"
        },
        {
          "internalType": "bytes32",
          "name": "sigS",
          "type": "bytes32"
        },
        {
          "internalType": "uint8",
          "name": "sigV",
          "type": "uint8"
        }
      ],
      "name": "cancelMetaKeepLambdaNonce",
      "outputs": [],
      "stateMutability": "nonpayable",
      "type": "function"
    },
    {
      "inputs": [],
      "name": "domainSeperator",
      "outputs": [
        {
          "internalType": "bytes32",
          "name": "",
          "type": "bytes32"
        }
      ],
      "stateMutability": "view",
      "type": "function"
    },
    {
      "inputs": [
        {
          "internalType": "address",
          "name": "userAddress",
          "type": "address"
        },
        {
          "internalType": "uint256",
          "name": "nonce",
          "type": "uint256"
        },
        {
          "internalType": "uint256",
          "name": "validFrom",
          "type": "uint256"
        },
        {
          "internalType": "uint256",
          "name": "validUpto",
          "type": "uint256"
        },
        {
          "internalType": "bytes",
          "name": "functionSignature",
          "type": "bytes"
        },
        {
          "internalType": "bytes32",
          "name": "sigR",
          "type": "bytes32"
        },
        {
          "internalType": "bytes32",
          "name": "sigS",
          "type": "bytes32"
        },
        {
          "internalType": "uint8",
          "name": "sigV",
          "type": "uint8"
        }
      ],
      "name": "executeMetaKeepLambdaTransaction",
      "outputs": [
        {
          "internalType": "bool",
          "name": "",
          "type": "bool"
        }
      ],
      "stateMutability": "payable",
      "type": "function"
    },
    {
      "inputs": [
        {
          "internalType": "address",
          "name": "_nftAddr",
          "type": "address"
        },
        {
          "internalType": "uint256",
          "name": "page",
          "type": "uint256"
        },
        {
          "internalType": "uint256",
          "name": "pageSize",
          "type": "uint256"
        }
      ],
      "name": "fetchAllItems",
      "outputs": [
        {
          "components": [
            {
              "internalType": "uint256",
              "name": "itemId",
              "type": "uint256"
            },
            {
              "internalType": "uint256",
              "name": "tokenId",
              "type": "uint256"
            },
            {
              "internalType": "address",
              "name": "nftContract",
              "type": "address"
            },
            {
              "internalType": "address payable",
              "name": "owner",
              "type": "address"
            },
            {
              "internalType": "address",
              "name": "lastSeller",
              "type": "address"
            },
            {
              "internalType": "address[]",
              "name": "prevOwners",
              "type": "address[]"
            },
            {
              "internalType": "uint256",
              "name": "price",
              "type": "uint256"
            },
            {
              "internalType": "uint256",
              "name": "lastPrice",
              "type": "uint256"
            },
            {
              "internalType": "bool",
              "name": "onSale",
              "type": "bool"
            }
          ],
          "internalType": "struct INFTMarket.MarketItem[]",
          "name": "",
          "type": "tuple[]"
        },
        {
          "internalType": "uint256",
          "name": "",
          "type": "uint256"
        }
      ],
      "stateMutability": "view",
      "type": "function"
    },
    {
      "inputs": [
        {
          "internalType": "address",
          "name": "_owner",
          "type": "address"
        },
        {
          "internalType": "address",
          "name": "_nftAddr",
          "type": "address"
        },
        {
          "internalType": "uint256",
          "name": "page",
          "type": "uint256"
        },
        {
          "internalType": "uint256",
          "name": "pageSize",
          "type": "uint256"
        }
      ],
      "name": "fetchAllItemsOfOwner",
      "outputs": [
        {
          "components": [
            {
              "internalType": "uint256",
              "name": "itemId",
              "type": "uint256"
            },
            {
              "internalType": "uint256",
              "name": "tokenId",
              "type": "uint256"
            },
            {
              "internalType": "address",
              "name": "nftContract",
              "type": "address"
            },
            {
              "internalType": "address payable",
              "name": "owner",
              "type": "address"
            },
            {
              "internalType": "address",
              "name": "lastSeller",
              "type": "address"
            },
            {
              "internalType": "address[]",
              "name": "prevOwners",
              "type": "address[]"
            },
            {
              "internalType": "uint256",
              "name": "price",
              "type": "uint256"
            },
            {
              "internalType": "uint256",
              "name": "lastPrice",
              "type": "uint256"
            },
            {
              "internalType": "bool",
              "name": "onSale",
              "type": "bool"
            }
          ],
          "internalType": "struct INFTMarket.MarketItem[]",
          "name": "",
          "type": "tuple[]"
        },
        {
          "internalType": "uint256",
          "name": "",
          "type": "uint256"
        }
      ],
      "stateMutability": "view",
      "type": "function"
    },
    {
      "inputs": [
        {
          "internalType": "address",
          "name": "_nftAddr",
          "type": "address"
        },
        {
          "internalType": "uint256",
          "name": "page",
          "type": "uint256"
        },
        {
          "internalType": "uint256",
          "name": "pageSize",
          "type": "uint256"
        }
      ],
      "name": "fetchAllItemsOnSale",
      "outputs": [
        {
          "components": [
            {
              "internalType": "uint256",
              "name": "itemId",
              "type": "uint256"
            },
            {
              "internalType": "uint256",
              "name": "tokenId",
              "type": "uint256"
            },
            {
              "internalType": "address",
              "name": "nftContract",
              "type": "address"
            },
            {
              "internalType": "address payable",
              "name": "owner",
              "type": "address"
            },
            {
              "internalType": "address",
              "name": "lastSeller",
              "type": "address"
            },
            {
              "internalType": "address[]",
              "name": "prevOwners",
              "type": "address[]"
            },
            {
              "internalType": "uint256",
              "name": "price",
              "type": "uint256"
            },
            {
              "internalType": "uint256",
              "name": "lastPrice",
              "type": "uint256"
            },
            {
              "internalType": "bool",
              "name": "onSale",
              "type": "bool"
            }
          ],
          "internalType": "struct INFTMarket.MarketItem[]",
          "name": "",
          "type": "tuple[]"
        },
        {
          "internalType": "uint256",
          "name": "",
          "type": "uint256"
        }
      ],
      "stateMutability": "view",
      "type": "function"
    },
    {
      "inputs": [
        {
          "internalType": "address",
          "name": "_owner",
          "type": "address"
        },
        {
          "internalType": "address",
          "name": "_nftAddr",
          "type": "address"
        },
        {
          "internalType": "uint256",
          "name": "page",
          "type": "uint256"
        },
        {
          "internalType": "uint256",
          "name": "pageSize",
          "type": "uint256"
        }
      ],
      "name": "fetchAllItemsOnSaleOfNotOwner",
      "outputs": [
        {
          "components": [
            {
              "internalType": "uint256",
              "name": "itemId",
              "type": "uint256"
            },
            {
              "internalType": "uint256",
              "name": "tokenId",
              "type": "uint256"
            },
            {
              "internalType": "address",
              "name": "nftContract",
              "type": "address"
            },
            {
              "internalType": "address payable",
              "name": "owner",
              "type": "address"
            },
            {
              "internalType": "address",
              "name": "lastSeller",
              "type": "address"
            },
            {
              "internalType": "address[]",
              "name": "prevOwners",
              "type": "address[]"
            },
            {
              "internalType": "uint256",
              "name": "price",
              "type": "uint256"
            },
            {
              "internalType": "uint256",
              "name": "lastPrice",
              "type": "uint256"
            },
            {
              "internalType": "bool",
              "name": "onSale",
              "type": "bool"
            }
          ],
          "internalType": "struct INFTMarket.MarketItem[]",
          "name": "",
          "type": "tuple[]"
        },
        {
          "internalType": "uint256",
          "name": "",
          "type": "uint256"
        }
      ],
      "stateMutability": "view",
      "type": "function"
    },
    {
      "inputs": [
        {
          "internalType": "address",
          "name": "_owner",
          "type": "address"
        },
        {
          "internalType": "address",
          "name": "_nftAddr",
          "type": "address"
        },
        {
          "internalType": "uint256",
          "name": "page",
          "type": "uint256"
        },
        {
          "internalType": "uint256",
          "name": "pageSize",
          "type": "uint256"
        }
      ],
      "name": "fetchAllItemsOnSaleOfOwner",
      "outputs": [
        {
          "components": [
            {
              "internalType": "uint256",
              "name": "itemId",
              "type": "uint256"
            },
            {
              "internalType": "uint256",
              "name": "tokenId",
              "type": "uint256"
            },
            {
              "internalType": "address",
              "name": "nftContract",
              "type": "address"
            },
            {
              "internalType": "address payable",
              "name": "owner",
              "type": "address"
            },
            {
              "internalType": "address",
              "name": "lastSeller",
              "type": "address"
            },
            {
              "internalType": "address[]",
              "name": "prevOwners",
              "type": "address[]"
            },
            {
              "internalType": "uint256",
              "name": "price",
              "type": "uint256"
            },
            {
              "internalType": "uint256",
              "name": "lastPrice",
              "type": "uint256"
            },
            {
              "internalType": "bool",
              "name": "onSale",
              "type": "bool"
            }
          ],
          "internalType": "struct INFTMarket.MarketItem[]",
          "name": "",
          "type": "tuple[]"
        },
        {
          "internalType": "uint256",
          "name": "",
          "type": "uint256"
        }
      ],
      "stateMutability": "view",
      "type": "function"
    },
    {
      "inputs": [
        {
          "internalType": "address",
          "name": "_owner",
          "type": "address"
        },
        {
          "internalType": "address",
          "name": "_nftAddr",
          "type": "address"
        },
        {
          "internalType": "uint256",
          "name": "page",
          "type": "uint256"
        },
        {
          "internalType": "uint256",
          "name": "pageSize",
          "type": "uint256"
        }
      ],
      "name": "fetchAllItemsOnUseOfOwner",
      "outputs": [
        {
          "components": [
            {
              "internalType": "uint256",
              "name": "itemId",
              "type": "uint256"
            },
            {
              "internalType": "uint256",
              "name": "tokenId",
              "type": "uint256"
            },
            {
              "internalType": "address",
              "name": "nftContract",
              "type": "address"
            },
            {
              "internalType": "address payable",
              "name": "owner",
              "type": "address"
            },
            {
              "internalType": "address",
              "name": "lastSeller",
              "type": "address"
            },
            {
              "internalType": "address[]",
              "name": "prevOwners",
              "type": "address[]"
            },
            {
              "internalType": "uint256",
              "name": "price",
              "type": "uint256"
            },
            {
              "internalType": "uint256",
              "name": "lastPrice",
              "type": "uint256"
            },
            {
              "internalType": "bool",
              "name": "onSale",
              "type": "bool"
            }
          ],
          "internalType": "struct INFTMarket.MarketItem[]",
          "name": "",
          "type": "tuple[]"
        },
        {
          "internalType": "uint256",
          "name": "",
          "type": "uint256"
        }
      ],
      "stateMutability": "view",
      "type": "function"
    },
    {
      "inputs": [
        {
          "internalType": "bytes32",
          "name": "role",
          "type": "bytes32"
        }
      ],
      "name": "getRoleAdmin",
      "outputs": [
        {
          "internalType": "bytes32",
          "name": "",
          "type": "bytes32"
        }
      ],
      "stateMutability": "view",
      "type": "function"
    },
    {
      "inputs": [
        {
          "internalType": "bytes32",
          "name": "role",
          "type": "bytes32"
        },
        {
          "internalType": "address",
          "name": "account",
          "type": "address"
        }
      ],
      "name": "grantRole",
      "outputs": [],
      "stateMutability": "nonpayable",
      "type": "function"
    },
    {
      "inputs": [
        {
          "internalType": "bytes32",
          "name": "role",
          "type": "bytes32"
        },
        {
          "internalType": "address",
          "name": "account",
          "type": "address"
        }
      ],
      "name": "hasRole",
      "outputs": [
        {
          "internalType": "bool",
          "name": "",
          "type": "bool"
        }
      ],
      "stateMutability": "view",
      "type": "function"
    },
    {
      "inputs": [
        {
          "internalType": "address",
          "name": "userAddress",
          "type": "address"
        },
        {
          "internalType": "uint256",
          "name": "nonce",
          "type": "uint256"
        }
      ],
      "name": "metaKeepLambdaNonceState",
      "outputs": [
        {
          "internalType": "bool",
          "name": "",
          "type": "bool"
        }
      ],
      "stateMutability": "view",
      "type": "function"
    },
    {
      "inputs": [
        {
          "internalType": "bytes32",
          "name": "role",
          "type": "bytes32"
        },
        {
          "internalType": "address",
          "name": "account",
          "type": "address"
        }
      ],
      "name": "renounceRole",
      "outputs": [],
      "stateMutability": "nonpayable",
      "type": "function"
    },
    {
      "inputs": [
        {
          "internalType": "bytes32",
          "name": "role",
          "type": "bytes32"
        },
        {
          "internalType": "address",
          "name": "account",
          "type": "address"
        }
      ],
      "name": "revokeRole",
      "outputs": [],
      "stateMutability": "nonpayable",
      "type": "function"
    },
    {
      "inputs": [
        {
          "internalType": "bytes4",
          "name": "interfaceId",
          "type": "bytes4"
        }
      ],
      "name": "supportsInterface",
      "outputs": [
        {
          "internalType": "bool",
          "name": "",
          "type": "bool"
        }
      ],
      "stateMutability": "view",
      "type": "function"
    }
  ],
  "bytecode": "0x60806040523480156200001157600080fd5b5060405162002ab038038062002ab08339810160408190526200003491620002f0565b8181816200005260008051602062002a9083398151915282620000a5565b6200006d60008051602062002a9083398151915280620000b5565b50620000798162000100565b5050600380546001600160a01b0319166001600160a01b03949094169390931790925550620003f49050565b620000b182826200021d565b5050565b600082815260208190526040808220600101805490849055905190918391839186917fbd79b86ffe0ab8e8776151514217cd7cacd52c909f66475c3af44e129f0b00ff9190a4505050565b600154156200016a5760405162461bcd60e51b815260206004820152602c60248201527f4d6574614b6565704c616d6264613a20446f6d61696e20736570657261746f7260448201526b08185b1c9958591e481cd95d60a21b606482015260840160405180910390fd5b6040518060800160405280604f815260200162002a41604f913980516020918201208251838301206040805180820190915260018152603160f81b930192909252907fc89efdaa54c0f20c7adf612882df0950f5a951637e0307cdcb4c672f298b8bc6304660408051602081019690965285019390935260608401919091526001600160a01b0316608083015260a082015260c00160408051601f19818403018152919052805160209091012060015550565b6000828152602081815260408083206001600160a01b038516845290915290205460ff16620000b1576000828152602081815260408083206001600160a01b03851684529091529020805460ff19166001179055620002793390565b6001600160a01b0316816001600160a01b0316837f2f8788117e7eff1d82e926ec794901d17c78024a50270940304540a733656f0d60405160405180910390a45050565b80516001600160a01b0381168114620002d557600080fd5b919050565b634e487b7160e01b600052604160045260246000fd5b6000806000606084860312156200030657600080fd5b6200031184620002bd565b9250602062000322818601620002bd565b60408601519093506001600160401b03808211156200034057600080fd5b818701915087601f8301126200035557600080fd5b8151818111156200036a576200036a620002da565b604051601f8201601f19908116603f01168101908382118183101715620003955762000395620002da565b816040528281528a86848701011115620003ae57600080fd5b600093505b82841015620003d25784840186015181850187015292850192620003b3565b82841115620003e45760008684830101525b8096505050505050509250925092565b61263d80620004046000396000f3fe60806040526004361061013a5760003560e01c806367ffc23b116100bb578063b5306e6d1161007f578063d547741f11610059578063d547741f146103e7578063e97ff65e14610407578063ebe9b0f21461041c57600080fd5b8063b5306e6d14610391578063c0dcaeeb146103b1578063cb73ac56146103d157600080fd5b806367ffc23b146102d85780638261d64d146102f8578063872e2fc11461031857806391d1485414610338578063a217fddf1461037c57600080fd5b8063243ed11d11610102578063243ed11d1461021f578063248a9ca314610232578063285857ae146102625780632f2ff15d1461029657806336568abe146102b857600080fd5b806301ffc9a71461013f5780630c1f5635146101745780630f7e597014610197578063144b45d8146101d15780632370359f146101ff575b600080fd5b34801561014b57600080fd5b5061015f61015a366004611d5f565b610462565b60405190151581526020015b60405180910390f35b34801561018057600080fd5b50610189610499565b60405190815260200161016b565b3480156101a357600080fd5b506101c4604051806040016040528060018152602001603160f81b81525081565b60405161016b9190611db5565b3480156101dd57600080fd5b506101f16101ec366004611dfd565b6104bc565b60405161016b929190611e87565b34801561020b57600080fd5b506101f161021a366004611f6e565b6106e9565b61015f61022d36600461202a565b610908565b34801561023e57600080fd5b5061018961024d366004612113565b60009081526020819052604090206001015490565b34801561026e57600080fd5b506101897ff3a68b3f49a13367480fd7bc507b2776cef106fb7cff6b2af48f699790f7701481565b3480156102a257600080fd5b506102b66102b136600461212c565b610b17565b005b3480156102c457600080fd5b506102b66102d336600461212c565b610b41565b3480156102e457600080fd5b506101f16102f3366004611f6e565b610bcd565b34801561030457600080fd5b506101f1610313366004611dfd565b610fa1565b34801561032457600080fd5b506101f1610333366004611dfd565b6111b9565b34801561034457600080fd5b5061015f61035336600461212c565b6000918252602082815260408084206001600160a01b0393909316845291905290205460ff1690565b34801561038857600080fd5b50610189600081565b34801561039d57600080fd5b506101f16103ac366004611dfd565b6113d1565b3480156103bd57600080fd5b506102b66103cc36600461215c565b6115e9565b3480156103dd57600080fd5b5061018960015481565b3480156103f357600080fd5b506102b661040236600461212c565b6116dd565b34801561041357600080fd5b50610189611702565b34801561042857600080fd5b5061015f6104373660046121ae565b6001600160a01b03919091166000908152600260209081526040808320938352929052205460ff1690565b60006001600160e01b03198216637965db0b60e01b148061049357506301ffc9a760e01b6001600160e01b03198316145b92915050565b604051806060016040528060358152602001612562603591398051906020012081565b60035460405163980e27bd60e01b81526001600160a01b038681166004830152858116602483015260609260009283929091169063980e27bd90604401600060405180830381865afa158015610516573d6000803e3d6000fd5b505050506040513d6000823e601f3d908101601f1916820160405261053e919081019061228d565b8051909150846105925760405162461bcd60e51b815260206004820152601a602482015279706167652073697a65206d75737420626520706f73697469766560301b60448201526064015b60405180910390fd5b8515806105a85750806105a586886123f7565b11155b6105e45760405162461bcd60e51b815260206004820152600d60248201526c6f7574206f6620626f756e647360981b6044820152606401610589565b8481816105f2896001612416565b6105fc91906123f7565b11156106195761060c86886123f7565b610616908361242e565b90505b60008167ffffffffffffffff81111561063457610634611fa3565b60405190808252806020026020018201604052801561066d57816020015b61065a611cf6565b8152602001906001900390816106525790505b50905060005b828110156106d95784816106878a8c6123f7565b6106919190612416565b815181106106a1576106a1612445565b60200260200101518282815181106106bb576106bb612445565b602002602001018190525080806106d19061245b565b915050610673565b5099919850909650505050505050565b6003546040516363b86bef60e11b81526001600160a01b03858116600483015260609260009283929091169063c770d7de90602401600060405180830381865afa15801561073b573d6000803e3d6000fd5b505050506040513d6000823e601f3d908101601f19168201604052610763919081019061228d565b8051909150846107b25760405162461bcd60e51b815260206004820152601a602482015279706167652073697a65206d75737420626520706f73697469766560301b6044820152606401610589565b8515806107c85750806107c586886123f7565b11155b6108045760405162461bcd60e51b815260206004820152600d60248201526c6f7574206f6620626f756e647360981b6044820152606401610589565b848181610812896001612416565b61081c91906123f7565b11156108395761082c86886123f7565b610836908361242e565b90505b60008167ffffffffffffffff81111561085457610854611fa3565b60405190808252806020026020018201604052801561088d57816020015b61087a611cf6565b8152602001906001900390816108725790505b50905060005b828110156108f95784816108a78a8c6123f7565b6108b19190612416565b815181106108c1576108c1612445565b60200260200101518282815181106108db576108db612445565b602002602001018190525080806108f19061245b565b915050610893565b50989197509095505050505050565b600061091689898989611725565b60006040518060a001604052808a81526020018981526020018881526020018b6001600160a01b0316815260200187815250905060006040518060a00160405280607181526020016125976071913980516020918201208351848301516040808701516060808901516080808b01518051908a01208551998a0198909852938801959095528601929092528401526001600160a01b031660a083015260c082015260e0016040516020818303038152906040528051906020012090506109df8b8288888861180b565b610a2b5760405162461bcd60e51b815260206004820152601d60248201527f4d6574614b6565704c616d6264613a20536967206e6f74206d617463680000006044820152606401610589565b6001600260008d6001600160a01b03166001600160a01b0316815260200190815260200160002060008c815260200190815260200160002060006101000a81548160ff021916908315150217905550600080306001600160a01b0316898e604051602001610a9a929190612476565b60408051601f1981840301815290829052610ab4916124ad565b6000604051808303816000865af19150503d8060008114610af1576040519150601f19603f3d011682016040523d82523d6000602084013e610af6565b606091505b509150915081610b07578060208201fd5b509b9a5050505050505050505050565b600082815260208190526040902060010154610b3281611923565b610b3c8383611930565b505050565b6001600160a01b0381163314610bbf5760405162461bcd60e51b815260206004820152602f60248201527f416363657373436f6e74726f6c3a2063616e206f6e6c792072656e6f756e636560448201527f20726f6c657320666f722073656c6600000000000000000000000000000000006064820152608401610589565b610bc982826119ce565b5050565b6060600080600360009054906101000a90046001600160a01b03166001600160a01b03166397598cc36040518163ffffffff1660e01b8152600401600060405180830381865afa158015610c25573d6000803e3d6000fd5b505050506040513d6000823e601f3d908101601f19168201604052610c4d919081019061228d565b90506000805b8251811015610cdd57828181518110610c6e57610c6e612445565b602002602001015160000151600014158015610cb85750876001600160a01b0316838281518110610ca157610ca1612445565b6020026020010151604001516001600160a01b0316145b15610ccb5781610cc78161245b565b9250505b80610cd58161245b565b915050610c53565b506000808267ffffffffffffffff811115610cfa57610cfa611fa3565b604051908082528060200260200182016040528015610d3357816020015b610d20611cf6565b815260200190600190039081610d185790505b50905060005b8451811015610dfb57848181518110610d5457610d54612445565b602002602001015160000151600014158015610d9e5750896001600160a01b0316858281518110610d8757610d87612445565b6020026020010151604001516001600160a01b0316145b15610de957848181518110610db557610db5612445565b6020026020010151828481518110610dcf57610dcf612445565b60200260200101819052508280610de59061245b565b9350505b80610df38161245b565b915050610d39565b5060008711610e495760405162461bcd60e51b815260206004820152601a602482015279706167652073697a65206d75737420626520706f73697469766560301b6044820152606401610589565b871580610e5f575082610e5c888a6123f7565b11155b610e9b5760405162461bcd60e51b815260206004820152600d60248201526c6f7574206f6620626f756e647360981b6044820152606401610589565b868381610ea98b6001612416565b610eb391906123f7565b1115610ed057610ec3888a6123f7565b610ecd908561242e565b90505b60008167ffffffffffffffff811115610eeb57610eeb611fa3565b604051908082528060200260200182016040528015610f2457816020015b610f11611cf6565b815260200190600190039081610f095790505b50905060005b82811015610f90578381610f3e8c8e6123f7565b610f489190612416565b81518110610f5857610f58612445565b6020026020010151828281518110610f7257610f72612445565b60200260200101819052508080610f889061245b565b915050610f2a565b509a93995092975050505050505050565b60035460405163b661ca0560e01b81526001600160a01b038681166004830152858116602483015260609260009283929091169063b661ca0590604401600060405180830381865afa158015610ffb573d6000803e3d6000fd5b505050506040513d6000823e601f3d908101601f19168201604052611023919081019061228d565b8051909150846110725760405162461bcd60e51b815260206004820152601a602482015279706167652073697a65206d75737420626520706f73697469766560301b6044820152606401610589565b85158061108857508061108586886123f7565b11155b6110c45760405162461bcd60e51b815260206004820152600d60248201526c6f7574206f6620626f756e647360981b6044820152606401610589565b8481816110d2896001612416565b6110dc91906123f7565b11156110f9576110ec86886123f7565b6110f6908361242e565b90505b60008167ffffffffffffffff81111561111457611114611fa3565b60405190808252806020026020018201604052801561114d57816020015b61113a611cf6565b8152602001906001900390816111325790505b50905060005b828110156106d95784816111678a8c6123f7565b6111719190612416565b8151811061118157611181612445565b602002602001015182828151811061119b5761119b612445565b602002602001018190525080806111b19061245b565b915050611153565b6003546040516391eec6bf60e01b81526001600160a01b03868116600483015285811660248301526060926000928392909116906391eec6bf90604401600060405180830381865afa158015611213573d6000803e3d6000fd5b505050506040513d6000823e601f3d908101601f1916820160405261123b919081019061228d565b80519091508461128a5760405162461bcd60e51b815260206004820152601a602482015279706167652073697a65206d75737420626520706f73697469766560301b6044820152606401610589565b8515806112a057508061129d86886123f7565b11155b6112dc5760405162461bcd60e51b815260206004820152600d60248201526c6f7574206f6620626f756e647360981b6044820152606401610589565b8481816112ea896001612416565b6112f491906123f7565b11156113115761130486886123f7565b61130e908361242e565b90505b60008167ffffffffffffffff81111561132c5761132c611fa3565b60405190808252806020026020018201604052801561136557816020015b611352611cf6565b81526020019060019003908161134a5790505b50905060005b828110156106d957848161137f8a8c6123f7565b6113899190612416565b8151811061139957611399612445565b60200260200101518282815181106113b3576113b3612445565b602002602001018190525080806113c99061245b565b91505061136b565b6003546040516305d5556360e41b81526001600160a01b0386811660048301528581166024830152606092600092839290911690635d55563090604401600060405180830381865afa15801561142b573d6000803e3d6000fd5b505050506040513d6000823e601f3d908101601f19168201604052611453919081019061228d565b8051909150846114a25760405162461bcd60e51b815260206004820152601a602482015279706167652073697a65206d75737420626520706f73697469766560301b6044820152606401610589565b8515806114b85750806114b586886123f7565b11155b6114f45760405162461bcd60e51b815260206004820152600d60248201526c6f7574206f6620626f756e647360981b6044820152606401610589565b848181611502896001612416565b61150c91906123f7565b11156115295761151c86886123f7565b611526908361242e565b90505b60008167ffffffffffffffff81111561154457611544611fa3565b60405190808252806020026020018201604052801561157d57816020015b61156a611cf6565b8152602001906001900390816115625790505b50905060005b828110156106d95784816115978a8c6123f7565b6115a19190612416565b815181106115b1576115b1612445565b60200260200101518282815181106115cb576115cb612445565b602002602001018190525080806115e19061245b565b915050611583565b6115f38585611a4d565b6000604051806060016040528060358152602001612562603591398051602091820120604080519283019190915281018690526001600160a01b038716606082015260800160405160208183030381529060405280519060200120905061165d868286868661180b565b6116a95760405162461bcd60e51b815260206004820152601d60248201527f4d6574614b6565704c616d6264613a20536967206e6f74206d617463680000006044820152606401610589565b5050506001600160a01b03909216600090815260026020908152604080832093835292905220805460ff1916600117905550565b6000828152602081905260409020600101546116f881611923565b610b3c83836119ce565b6040518060a0016040528060718152602001612597607191398051906020012081565b81421161179a5760405162461bcd60e51b815260206004820152602e60248201527f4d6574614b6565704c616d6264613a20417574686f72697a6174696f6e20697360448201527f206e6f742079657420676976656e0000000000000000000000000000000000006064820152608401610589565b8042106117fb5760405162461bcd60e51b815260206004820152602960248201527f4d6574614b6565704c616d6264613a20417574686f72697a6174696f6e2068616044820152681cc8195e1c1a5c995960ba1b6064820152608401610589565b6118058484611a4d565b50505050565b60006001600160a01b0386166118635760405162461bcd60e51b815260206004820152601e60248201527f4d6574614b6565704c616d6264613a20494e56414c49445f5349474e455200006044820152606401610589565b60016118ac8660015460405161190160f01b6020820152602281019190915260428101829052600090606201604051602081830303815290604052805190602001209050919050565b6040805160008152602081018083529290925260ff851690820152606081018690526080810185905260a0016020604051602081039080840390855afa1580156118fa573d6000803e3d6000fd5b505050602060405103516001600160a01b0316866001600160a01b031614905095945050505050565b61192d8133611ac1565b50565b6000828152602081815260408083206001600160a01b038516845290915290205460ff16610bc9576000828152602081815260408083206001600160a01b03851684529091529020805460ff1916600117905561198a3390565b6001600160a01b0316816001600160a01b0316837f2f8788117e7eff1d82e926ec794901d17c78024a50270940304540a733656f0d60405160405180910390a45050565b6000828152602081815260408083206001600160a01b038516845290915290205460ff1615610bc9576000828152602081815260408083206001600160a01b0385168085529252808320805460ff1916905551339285917ff6391f5c32d9c69d2a47ea670b442974b53935d1edc7fd64eb21e047a839171b9190a45050565b6001600160a01b038216600090815260026020908152604080832084845290915290205460ff1615610bc95760405162461bcd60e51b815260206004820152601a60248201527f4d6574614b6565704c616d6264613a204e6f6e636520557365640000000000006044820152606401610589565b6000828152602081815260408083206001600160a01b038516845290915290205460ff16610bc957611af281611b34565b611afd836020611b46565b604051602001611b0e9291906124c9565b60408051601f198184030181529082905262461bcd60e51b825261058991600401611db5565b60606104936001600160a01b03831660145b60606000611b558360026123f7565b611b60906002612416565b67ffffffffffffffff811115611b7857611b78611fa3565b6040519080825280601f01601f191660200182016040528015611ba2576020820181803683370190505b509050600360fc1b81600081518110611bbd57611bbd612445565b60200101906001600160f81b031916908160001a905350600f60fb1b81600181518110611bec57611bec612445565b60200101906001600160f81b031916908160001a9053506000611c108460026123f7565b611c1b906001612416565b90505b6001811115611ca0577f303132333435363738396162636465660000000000000000000000000000000085600f1660108110611c5c57611c5c612445565b1a60f81b828281518110611c7257611c72612445565b60200101906001600160f81b031916908160001a90535060049490941c93611c998161254a565b9050611c1e565b508315611cef5760405162461bcd60e51b815260206004820181905260248201527f537472696e67733a20686578206c656e67746820696e73756666696369656e746044820152606401610589565b9392505050565b604051806101200160405280600081526020016000815260200160006001600160a01b0316815260200160006001600160a01b0316815260200160006001600160a01b031681526020016060815260200160008152602001600081526020016000151581525090565b600060208284031215611d7157600080fd5b81356001600160e01b031981168114611cef57600080fd5b60005b83811015611da4578181015183820152602001611d8c565b838111156118055750506000910152565b6020815260008251806020840152611dd4816040850160208701611d89565b601f01601f19169190910160400192915050565b6001600160a01b038116811461192d57600080fd5b60008060008060808587031215611e1357600080fd5b8435611e1e81611de8565b93506020850135611e2e81611de8565b93969395505050506040820135916060013590565b600081518084526020808501945080840160005b83811015611e7c5781516001600160a01b031687529582019590820190600101611e57565b509495945050505050565b60006040808301818452808651808352606092508286019150828160051b8701016020808a0160005b84811015611f5957605f198a85030186528151805185528381015184860152888101516001600160a01b039081168a870152888201518116898701526080808301519091169086015260a0808201516101208288018190529190611f1683890182611e43565b60c085810151908a015260e080860151908a015261010094850151801515868b0152949093509150611f459050565b509684019694505090820190600101611eb0565b50509690960196909652509295945050505050565b600080600060608486031215611f8357600080fd5b8335611f8e81611de8565b95602085013595506040909401359392505050565b634e487b7160e01b600052604160045260246000fd5b604051610120810167ffffffffffffffff81118282101715611fdd57611fdd611fa3565b60405290565b604051601f8201601f1916810167ffffffffffffffff8111828210171561200c5761200c611fa3565b604052919050565b803560ff8116811461202557600080fd5b919050565b600080600080600080600080610100898b03121561204757600080fd5b883561205281611de8565b9750602089810135975060408a0135965060608a0135955060808a013567ffffffffffffffff8082111561208557600080fd5b818c0191508c601f83011261209957600080fd5b8135818111156120ab576120ab611fa3565b6120bd601f8201601f19168501611fe3565b91508082528d848285010111156120d357600080fd5b808484018584013760008482840101525080965050505060a0890135925060c0890135915061210460e08a01612014565b90509295985092959890939650565b60006020828403121561212557600080fd5b5035919050565b6000806040838503121561213f57600080fd5b82359150602083013561215181611de8565b809150509250929050565b600080600080600060a0868803121561217457600080fd5b853561217f81611de8565b94506020860135935060408601359250606086013591506121a260808701612014565b90509295509295909350565b600080604083850312156121c157600080fd5b82356121cc81611de8565b946020939093013593505050565b600067ffffffffffffffff8211156121f4576121f4611fa3565b5060051b60200190565b805161202581611de8565b600082601f83011261221a57600080fd5b8151602061222f61222a836121da565b611fe3565b82815260059290921b8401810191818101908684111561224e57600080fd5b8286015b8481101561227257805161226581611de8565b8352918301918301612252565b509695505050505050565b8051801515811461202557600080fd5b600060208083850312156122a057600080fd5b825167ffffffffffffffff808211156122b857600080fd5b818501915085601f8301126122cc57600080fd5b81516122da61222a826121da565b81815260059190911b830184019084810190888311156122f957600080fd5b8585015b838110156123d45780518581111561231457600080fd5b8601610120818c03601f190181131561232c57600080fd5b612334611fb9565b89830151815260408301518a82015261234f606084016121fe565b6040820152612360608084016121fe565b606082015261237160a084016121fe565b608082015260c0808401518981111561238a5760008081fd5b6123988f8d83880101612209565b60a08401525060e0808501518284015261010091508185015181840152506123c183850161227d565b90820152855250509186019186016122fd565b5098975050505050505050565b634e487b7160e01b600052601160045260246000fd5b6000816000190483118215151615612411576124116123e1565b500290565b60008219821115612429576124296123e1565b500190565b600082821015612440576124406123e1565b500390565b634e487b7160e01b600052603260045260246000fd5b600060001982141561246f5761246f6123e1565b5060010190565b60008351612488818460208801611d89565b60609390931b6bffffffffffffffffffffffff19169190920190815260140192915050565b600082516124bf818460208701611d89565b9190910192915050565b7f416363657373436f6e74726f6c3a206163636f756e7420000000000000000000815260008351612501816017850160208801611d89565b7f206973206d697373696e6720726f6c6520000000000000000000000000000000601791840191820152835161253e816028840160208801611d89565b01602801949350505050565b600081612559576125596123e1565b50600019019056fe4d6574614b6565704c616d62646143616e63656c4e6f6e63652875696e74323536206e6f6e63652c616464726573732066726f6d294d6574614b6565704c616d6264615472616e73616374696f6e2875696e74323536206e6f6e63652c75696e743235362076616c696446726f6d2c75696e743235362076616c69645570746f2c616464726573732066726f6d2c62797465732066756e6374696f6e5369676e617475726529a26469706673582212209451bf03bd2bf76ea1129d2212adeca9eb6a4714bf7772ac664ee11c107362e564736f6c634300080a0033454950373132446f6d61696e28737472696e67206e616d652c737472696e672076657273696f6e2c6164647265737320766572696679696e67436f6e74726163742c627974657333322073616c7429f3a68b3f49a13367480fd7bc507b2776cef106fb7cff6b2af48f699790f77014",
  "linkReferences": {},
  "deployedLinkReferences": {}
}