{
  "_format": "hh-sol-artifact-1",
  "contractName": "NFTCardMarket",
  "sourceName": "contracts/MarketPlace.sol",
  "abi": [
    {
      "inputs": [
        {
          "internalType": "address",
          "name": "lambdaOwner",
          "type": "address"
        },
        {
          "internalType": "string",
          "name": "lambdaName",
          "type": "string"
        }
      ],
      "stateMutability": "nonpayable",
      "type": "constructor"
    },
    {
      "anonymous": false,
      "inputs": [
        {
          "indexed": false,
          "internalType": "address",
          "name": "previousAdmin",
          "type": "address"
        },
        {
          "indexed": false,
          "internalType": "address",
          "name": "newAdmin",
          "type": "address"
        }
      ],
      "name": "AdminChanged",
      "type": "event"
    },
    {
      "anonymous": false,
      "inputs": [
        {
          "indexed": true,
          "internalType": "address",
          "name": "beacon",
          "type": "address"
        }
      ],
      "name": "BeaconUpgraded",
      "type": "event"
    },
    {
      "anonymous": false,
      "inputs": [
        {
          "indexed": false,
          "internalType": "uint8",
          "name": "version",
          "type": "uint8"
        }
      ],
      "name": "Initialized",
      "type": "event"
    },
    {
      "anonymous": false,
      "inputs": [
        {
          "indexed": false,
          "internalType": "address",
          "name": "_from",
          "type": "address"
        },
        {
          "indexed": false,
          "internalType": "address",
          "name": "to",
          "type": "address"
        },
        {
          "indexed": false,
          "internalType": "uint256",
          "name": "ItemID",
          "type": "uint256"
        },
        {
          "indexed": false,
          "internalType": "uint256",
          "name": "TokenID",
          "type": "uint256"
        }
      ],
      "name": "MarketItemChanged",
      "type": "event"
    },
    {
      "anonymous": false,
      "inputs": [
        {
          "indexed": true,
          "internalType": "bytes32",
          "name": "role",
          "type": "bytes32"
        },
        {
          "indexed": true,
          "internalType": "bytes32",
          "name": "previousAdminRole",
          "type": "bytes32"
        },
        {
          "indexed": true,
          "internalType": "bytes32",
          "name": "newAdminRole",
          "type": "bytes32"
        }
      ],
      "name": "RoleAdminChanged",
      "type": "event"
    },
    {
      "anonymous": false,
      "inputs": [
        {
          "indexed": true,
          "internalType": "bytes32",
          "name": "role",
          "type": "bytes32"
        },
        {
          "indexed": true,
          "internalType": "address",
          "name": "account",
          "type": "address"
        },
        {
          "indexed": true,
          "internalType": "address",
          "name": "sender",
          "type": "address"
        }
      ],
      "name": "RoleGranted",
      "type": "event"
    },
    {
      "anonymous": false,
      "inputs": [
        {
          "indexed": true,
          "internalType": "bytes32",
          "name": "role",
          "type": "bytes32"
        },
        {
          "indexed": true,
          "internalType": "address",
          "name": "account",
          "type": "address"
        },
        {
          "indexed": true,
          "internalType": "address",
          "name": "sender",
          "type": "address"
        }
      ],
      "name": "RoleRevoked",
      "type": "event"
    },
    {
      "anonymous": false,
      "inputs": [
        {
          "indexed": true,
          "internalType": "address",
          "name": "implementation",
          "type": "address"
        }
      ],
      "name": "Upgraded",
      "type": "event"
    },
    {
      "inputs": [],
      "name": "DEFAULT_ADMIN_ROLE",
      "outputs": [
        {
          "internalType": "bytes32",
          "name": "",
          "type": "bytes32"
        }
      ],
      "stateMutability": "view",
      "type": "function"
    },
    {
      "inputs": [],
      "name": "ERC712_VERSION",
      "outputs": [
        {
          "internalType": "string",
          "name": "",
          "type": "string"
        }
      ],
      "stateMutability": "view",
      "type": "function"
    },
    {
      "inputs": [],
      "name": "METAKEEP_LAMBDA_CANCEL_NONCE_TYPEHASH",
      "outputs": [
        {
          "internalType": "bytes32",
          "name": "",
          "type": "bytes32"
        }
      ],
      "stateMutability": "view",
      "type": "function"
    },
    {
      "inputs": [],
      "name": "METAKEEP_LAMBDA_OWNER_ROLE",
      "outputs": [
        {
          "internalType": "bytes32",
          "name": "",
          "type": "bytes32"
        }
      ],
      "stateMutability": "view",
      "type": "function"
    },
    {
      "inputs": [],
      "name": "METAKEEP_LAMBDA_TRANSACTION_TYPEHASH",
      "outputs": [
        {
          "internalType": "bytes32",
          "name": "",
          "type": "bytes32"
        }
      ],
      "stateMutability": "view",
      "type": "function"
    },
    {
      "inputs": [],
      "name": "NFTContract",
      "outputs": [
        {
          "internalType": "address",
          "name": "",
          "type": "address"
        }
      ],
      "stateMutability": "view",
      "type": "function"
    },
    {
      "inputs": [
        {
          "internalType": "uint256",
          "name": "amount",
          "type": "uint256"
        }
      ],
      "name": "calcEarnedFeeAmounts",
      "outputs": [],
      "stateMutability": "nonpayable",
      "type": "function"
    },
    {
      "inputs": [
        {
          "internalType": "address",
          "name": "userAddress",
          "type": "address"
        },
        {
          "internalType": "uint256",
          "name": "nonce",
          "type": "uint256"
        },
        {
          "internalType": "bytes32",
          "name": "sigR",
          "type": "bytes32"
        },
        {
          "internalType": "bytes32",
          "name": "sigS",
          "type": "bytes32"
        },
        {
          "internalType": "uint8",
          "name": "sigV",
          "type": "uint8"
        }
      ],
      "name": "cancelMetaKeepLambdaNonce",
      "outputs": [],
      "stateMutability": "nonpayable",
      "type": "function"
    },
    {
      "inputs": [
        {
          "internalType": "uint256",
          "name": "tokenId",
          "type": "uint256"
        },
        {
          "internalType": "address",
          "name": "nftContract",
          "type": "address"
        }
      ],
      "name": "createMarketItem",
      "outputs": [
        {
          "internalType": "uint256",
          "name": "",
          "type": "uint256"
        }
      ],
      "stateMutability": "nonpayable",
      "type": "function"
    },
    {
      "inputs": [
        {
          "internalType": "uint256",
          "name": "tokenId",
          "type": "uint256"
        },
        {
          "internalType": "address",
          "name": "_owner",
          "type": "address"
        }
      ],
      "name": "createMarketItemFromNFTContract",
      "outputs": [],
      "stateMutability": "nonpayable",
      "type": "function"
    },
    {
      "inputs": [
        {
          "internalType": "uint256[]",
          "name": "tokenIds",
          "type": "uint256[]"
        },
        {
          "internalType": "address",
          "name": "nftContract",
          "type": "address"
        }
      ],
      "name": "createMarketItems",
      "outputs": [],
      "stateMutability": "nonpayable",
      "type": "function"
    },
    {
      "inputs": [
        {
          "internalType": "uint256",
          "name": "itemId",
          "type": "uint256"
        }
      ],
      "name": "deleteMarketItem",
      "outputs": [],
      "stateMutability": "nonpayable",
      "type": "function"
    },
    {
      "inputs": [],
      "name": "domainSeperator",
      "outputs": [
        {
          "internalType": "bytes32",
          "name": "",
          "type": "bytes32"
        }
      ],
      "stateMutability": "view",
      "type": "function"
    },
    {
      "inputs": [
        {
          "internalType": "address",
          "name": "userAddress",
          "type": "address"
        },
        {
          "internalType": "uint256",
          "name": "nonce",
          "type": "uint256"
        },
        {
          "internalType": "uint256",
          "name": "validFrom",
          "type": "uint256"
        },
        {
          "internalType": "uint256",
          "name": "validUpto",
          "type": "uint256"
        },
        {
          "internalType": "bytes",
          "name": "functionSignature",
          "type": "bytes"
        },
        {
          "internalType": "bytes32",
          "name": "sigR",
          "type": "bytes32"
        },
        {
          "internalType": "bytes32",
          "name": "sigS",
          "type": "bytes32"
        },
        {
          "internalType": "uint8",
          "name": "sigV",
          "type": "uint8"
        }
      ],
      "name": "executeMetaKeepLambdaTransaction",
      "outputs": [
        {
          "internalType": "bool",
          "name": "",
          "type": "bool"
        }
      ],
      "stateMutability": "payable",
      "type": "function"
    },
    {
      "inputs": [],
      "name": "fetchAllItems",
      "outputs": [
        {
          "components": [
            {
              "internalType": "uint256",
              "name": "itemId",
              "type": "uint256"
            },
            {
              "internalType": "uint256",
              "name": "tokenId",
              "type": "uint256"
            },
            {
              "internalType": "address",
              "name": "nftContract",
              "type": "address"
            },
            {
              "internalType": "address payable",
              "name": "owner",
              "type": "address"
            },
            {
              "internalType": "address",
              "name": "lastSeller",
              "type": "address"
            },
            {
              "internalType": "address[]",
              "name": "prevOwners",
              "type": "address[]"
            },
            {
              "internalType": "uint256",
              "name": "price",
              "type": "uint256"
            },
            {
              "internalType": "uint256",
              "name": "lastPrice",
              "type": "uint256"
            },
            {
              "internalType": "bool",
              "name": "onSale",
              "type": "bool"
            }
          ],
          "internalType": "struct NFTCardMarket.MarketItem[]",
          "name": "",
          "type": "tuple[]"
        }
      ],
      "stateMutability": "view",
      "type": "function"
    },
    {
      "inputs": [
        {
          "internalType": "address",
          "name": "_owner",
          "type": "address"
        }
      ],
      "name": "fetchAllItemsOfOwner",
      "outputs": [
        {
          "components": [
            {
              "internalType": "uint256",
              "name": "itemId",
              "type": "uint256"
            },
            {
              "internalType": "uint256",
              "name": "tokenId",
              "type": "uint256"
            },
            {
              "internalType": "address",
              "name": "nftContract",
              "type": "address"
            },
            {
              "internalType": "address payable",
              "name": "owner",
              "type": "address"
            },
            {
              "internalType": "address",
              "name": "lastSeller",
              "type": "address"
            },
            {
              "internalType": "address[]",
              "name": "prevOwners",
              "type": "address[]"
            },
            {
              "internalType": "uint256",
              "name": "price",
              "type": "uint256"
            },
            {
              "internalType": "uint256",
              "name": "lastPrice",
              "type": "uint256"
            },
            {
              "internalType": "bool",
              "name": "onSale",
              "type": "bool"
            }
          ],
          "internalType": "struct NFTCardMarket.MarketItem[]",
          "name": "",
          "type": "tuple[]"
        }
      ],
      "stateMutability": "view",
      "type": "function"
    },
    {
      "inputs": [],
      "name": "fetchAllItemsOnSale",
      "outputs": [
        {
          "components": [
            {
              "internalType": "uint256",
              "name": "itemId",
              "type": "uint256"
            },
            {
              "internalType": "uint256",
              "name": "tokenId",
              "type": "uint256"
            },
            {
              "internalType": "address",
              "name": "nftContract",
              "type": "address"
            },
            {
              "internalType": "address payable",
              "name": "owner",
              "type": "address"
            },
            {
              "internalType": "address",
              "name": "lastSeller",
              "type": "address"
            },
            {
              "internalType": "address[]",
              "name": "prevOwners",
              "type": "address[]"
            },
            {
              "internalType": "uint256",
              "name": "price",
              "type": "uint256"
            },
            {
              "internalType": "uint256",
              "name": "lastPrice",
              "type": "uint256"
            },
            {
              "internalType": "bool",
              "name": "onSale",
              "type": "bool"
            }
          ],
          "internalType": "struct NFTCardMarket.MarketItem[]",
          "name": "",
          "type": "tuple[]"
        }
      ],
      "stateMutability": "view",
      "type": "function"
    },
    {
      "inputs": [
        {
          "internalType": "address",
          "name": "_owner",
          "type": "address"
        }
      ],
      "name": "fetchAllItemsOnSaleOfNotOwner",
      "outputs": [
        {
          "components": [
            {
              "internalType": "uint256",
              "name": "itemId",
              "type": "uint256"
            },
            {
              "internalType": "uint256",
              "name": "tokenId",
              "type": "uint256"
            },
            {
              "internalType": "address",
              "name": "nftContract",
              "type": "address"
            },
            {
              "internalType": "address payable",
              "name": "owner",
              "type": "address"
            },
            {
              "internalType": "address",
              "name": "lastSeller",
              "type": "address"
            },
            {
              "internalType": "address[]",
              "name": "prevOwners",
              "type": "address[]"
            },
            {
              "internalType": "uint256",
              "name": "price",
              "type": "uint256"
            },
            {
              "internalType": "uint256",
              "name": "lastPrice",
              "type": "uint256"
            },
            {
              "internalType": "bool",
              "name": "onSale",
              "type": "bool"
            }
          ],
          "internalType": "struct NFTCardMarket.MarketItem[]",
          "name": "",
          "type": "tuple[]"
        }
      ],
      "stateMutability": "view",
      "type": "function"
    },
    {
      "inputs": [
        {
          "internalType": "address",
          "name": "_owner",
          "type": "address"
        }
      ],
      "name": "fetchAllItemsOnSaleOfOwner",
      "outputs": [
        {
          "components": [
            {
              "internalType": "uint256",
              "name": "itemId",
              "type": "uint256"
            },
            {
              "internalType": "uint256",
              "name": "tokenId",
              "type": "uint256"
            },
            {
              "internalType": "address",
              "name": "nftContract",
              "type": "address"
            },
            {
              "internalType": "address payable",
              "name": "owner",
              "type": "address"
            },
            {
              "internalType": "address",
              "name": "lastSeller",
              "type": "address"
            },
            {
              "internalType": "address[]",
              "name": "prevOwners",
              "type": "address[]"
            },
            {
              "internalType": "uint256",
              "name": "price",
              "type": "uint256"
            },
            {
              "internalType": "uint256",
              "name": "lastPrice",
              "type": "uint256"
            },
            {
              "internalType": "bool",
              "name": "onSale",
              "type": "bool"
            }
          ],
          "internalType": "struct NFTCardMarket.MarketItem[]",
          "name": "",
          "type": "tuple[]"
        }
      ],
      "stateMutability": "view",
      "type": "function"
    },
    {
      "inputs": [
        {
          "internalType": "address",
          "name": "_owner",
          "type": "address"
        }
      ],
      "name": "fetchAllItemsOnUseOfOwner",
      "outputs": [
        {
          "components": [
            {
              "internalType": "uint256",
              "name": "itemId",
              "type": "uint256"
            },
            {
              "internalType": "uint256",
              "name": "tokenId",
              "type": "uint256"
            },
            {
              "internalType": "address",
              "name": "nftContract",
              "type": "address"
            },
            {
              "internalType": "address payable",
              "name": "owner",
              "type": "address"
            },
            {
              "internalType": "address",
              "name": "lastSeller",
              "type": "address"
            },
            {
              "internalType": "address[]",
              "name": "prevOwners",
              "type": "address[]"
            },
            {
              "internalType": "uint256",
              "name": "price",
              "type": "uint256"
            },
            {
              "internalType": "uint256",
              "name": "lastPrice",
              "type": "uint256"
            },
            {
              "internalType": "bool",
              "name": "onSale",
              "type": "bool"
            }
          ],
          "internalType": "struct NFTCardMarket.MarketItem[]",
          "name": "",
          "type": "tuple[]"
        }
      ],
      "stateMutability": "view",
      "type": "function"
    },
    {
      "inputs": [
        {
          "internalType": "uint256",
          "name": "itemId",
          "type": "uint256"
        }
      ],
      "name": "getIdToMarketItemOwner",
      "outputs": [
        {
          "internalType": "address",
          "name": "",
          "type": "address"
        }
      ],
      "stateMutability": "view",
      "type": "function"
    },
    {
      "inputs": [
        {
          "internalType": "uint256",
          "name": "itemId",
          "type": "uint256"
        }
      ],
      "name": "getIdToMarketItemTokenID",
      "outputs": [
        {
          "internalType": "uint256",
          "name": "",
          "type": "uint256"
        }
      ],
      "stateMutability": "view",
      "type": "function"
    },
    {
      "inputs": [],
      "name": "getListingPrice",
      "outputs": [
        {
          "internalType": "uint256",
          "name": "",
          "type": "uint256"
        }
      ],
      "stateMutability": "view",
      "type": "function"
    },
    {
      "inputs": [
        {
          "internalType": "bytes32",
          "name": "role",
          "type": "bytes32"
        }
      ],
      "name": "getRoleAdmin",
      "outputs": [
        {
          "internalType": "bytes32",
          "name": "",
          "type": "bytes32"
        }
      ],
      "stateMutability": "view",
      "type": "function"
    },
    {
      "inputs": [
        {
          "internalType": "bytes32",
          "name": "role",
          "type": "bytes32"
        },
        {
          "internalType": "address",
          "name": "account",
          "type": "address"
        }
      ],
      "name": "grantRole",
      "outputs": [],
      "stateMutability": "nonpayable",
      "type": "function"
    },
    {
      "inputs": [
        {
          "internalType": "bytes32",
          "name": "role",
          "type": "bytes32"
        },
        {
          "internalType": "address",
          "name": "account",
          "type": "address"
        }
      ],
      "name": "hasRole",
      "outputs": [
        {
          "internalType": "bool",
          "name": "",
          "type": "bool"
        }
      ],
      "stateMutability": "view",
      "type": "function"
    },
    {
      "inputs": [
        {
          "internalType": "address",
          "name": "lambdaOwner",
          "type": "address"
        },
        {
          "internalType": "string",
          "name": "lambdaName",
          "type": "string"
        }
      ],
      "name": "initialize",
      "outputs": [],
      "stateMutability": "nonpayable",
      "type": "function"
    },
    {
      "inputs": [
        {
          "internalType": "uint256",
          "name": "itemId",
          "type": "uint256"
        },
        {
          "internalType": "address",
          "name": "nftContract",
          "type": "address"
        }
      ],
      "name": "listItemCancelOnSale",
      "outputs": [],
      "stateMutability": "payable",
      "type": "function"
    },
    {
      "inputs": [
        {
          "internalType": "uint256",
          "name": "itemId",
          "type": "uint256"
        },
        {
          "internalType": "address",
          "name": "nftContract",
          "type": "address"
        },
        {
          "internalType": "uint256",
          "name": "price",
          "type": "uint256"
        }
      ],
      "name": "listItemOnSale",
      "outputs": [],
      "stateMutability": "payable",
      "type": "function"
    },
    {
      "inputs": [
        {
          "internalType": "uint256",
          "name": "itemId",
          "type": "uint256"
        },
        {
          "internalType": "uint256",
          "name": "price",
          "type": "uint256"
        },
        {
          "internalType": "address",
          "name": "_owner",
          "type": "address"
        }
      ],
      "name": "listItemOnSaleFromNFTContract",
      "outputs": [],
      "stateMutability": "payable",
      "type": "function"
    },
    {
      "inputs": [
        {
          "internalType": "address",
          "name": "userAddress",
          "type": "address"
        },
        {
          "internalType": "uint256",
          "name": "nonce",
          "type": "uint256"
        }
      ],
      "name": "metaKeepLambdaNonceState",
      "outputs": [
        {
          "internalType": "bool",
          "name": "",
          "type": "bool"
        }
      ],
      "stateMutability": "view",
      "type": "function"
    },
    {
      "inputs": [
        {
          "internalType": "address",
          "name": "operator",
          "type": "address"
        },
        {
          "internalType": "address",
          "name": "from",
          "type": "address"
        },
        {
          "internalType": "uint256",
          "name": "tokenId",
          "type": "uint256"
        },
        {
          "internalType": "bytes",
          "name": "data",
          "type": "bytes"
        }
      ],
      "name": "onERC721Received",
      "outputs": [
        {
          "internalType": "bytes4",
          "name": "",
          "type": "bytes4"
        }
      ],
      "stateMutability": "pure",
      "type": "function"
    },
    {
      "inputs": [],
      "name": "owner",
      "outputs": [
        {
          "internalType": "address",
          "name": "",
          "type": "address"
        }
      ],
      "stateMutability": "view",
      "type": "function"
    },
    {
      "inputs": [],
      "name": "proxiableUUID",
      "outputs": [
        {
          "internalType": "bytes32",
          "name": "",
          "type": "bytes32"
        }
      ],
      "stateMutability": "view",
      "type": "function"
    },
    {
      "inputs": [
        {
          "internalType": "bytes32",
          "name": "role",
          "type": "bytes32"
        },
        {
          "internalType": "address",
          "name": "account",
          "type": "address"
        }
      ],
      "name": "renounceRole",
      "outputs": [],
      "stateMutability": "nonpayable",
      "type": "function"
    },
    {
      "inputs": [
        {
          "internalType": "bytes32",
          "name": "role",
          "type": "bytes32"
        },
        {
          "internalType": "address",
          "name": "account",
          "type": "address"
        }
      ],
      "name": "revokeRole",
      "outputs": [],
      "stateMutability": "nonpayable",
      "type": "function"
    },
    {
      "inputs": [
        {
          "internalType": "uint256",
          "name": "itemId",
          "type": "uint256"
        },
        {
          "internalType": "address",
          "name": "nftContract",
          "type": "address"
        }
      ],
      "name": "sellMarketItem",
      "outputs": [],
      "stateMutability": "payable",
      "type": "function"
    },
    {
      "inputs": [
        {
          "internalType": "address",
          "name": "_NFTAddress",
          "type": "address"
        }
      ],
      "name": "setNFTContract",
      "outputs": [],
      "stateMutability": "nonpayable",
      "type": "function"
    },
    {
      "inputs": [
        {
          "internalType": "bytes4",
          "name": "interfaceId",
          "type": "bytes4"
        }
      ],
      "name": "supportsInterface",
      "outputs": [
        {
          "internalType": "bool",
          "name": "",
          "type": "bool"
        }
      ],
      "stateMutability": "view",
      "type": "function"
    },
    {
      "inputs": [],
      "name": "totalEarnedAmounts",
      "outputs": [
        {
          "internalType": "uint256",
          "name": "",
          "type": "uint256"
        }
      ],
      "stateMutability": "view",
      "type": "function"
    },
    {
      "inputs": [],
      "name": "totalEarnedFeeAmounts",
      "outputs": [
        {
          "internalType": "uint256",
          "name": "",
          "type": "uint256"
        }
      ],
      "stateMutability": "view",
      "type": "function"
    },
    {
      "inputs": [
        {
          "internalType": "address",
          "name": "newImplementation",
          "type": "address"
        }
      ],
      "name": "upgradeTo",
      "outputs": [],
      "stateMutability": "nonpayable",
      "type": "function"
    },
    {
      "inputs": [
        {
          "internalType": "address",
          "name": "newImplementation",
          "type": "address"
        },
        {
          "internalType": "bytes",
          "name": "data",
          "type": "bytes"
        }
      ],
      "name": "upgradeToAndCall",
      "outputs": [],
      "stateMutability": "payable",
      "type": "function"
    },
    {
      "inputs": [],
      "name": "withdrawAll",
      "outputs": [
        {
          "internalType": "bool",
          "name": "",
          "type": "bool"
        }
      ],
      "stateMutability": "payable",
      "type": "function"
    }
  ],
  "bytecode": "0x60a0604052306080523480156200001557600080fd5b5060405162004b5a38038062004b5a83398101604081905262000038916200055b565b6200004482826200004c565b50506200065b565b600054610100900460ff16158080156200006d5750600054600160ff909116105b806200009d57506200008a30620001aa60201b62002c161760201c565b1580156200009d575060005460ff166001145b620001065760405162461bcd60e51b815260206004820152602e60248201527f496e697469616c697a61626c653a20636f6e747261637420697320616c72656160448201526d191e481a5b9a5d1a585b1a5e995960921b60648201526084015b60405180910390fd5b6000805460ff1916600117905580156200012a576000805461ff0019166101001790555b6608e1bc9bf040006101305561013480546001600160a01b0319166001600160a01b0385161790556200015e8383620001b9565b8015620001a5576000805461ff0019169055604051600181527f7f26b83ff96e1f2b6a682f133852f6798a09c465da95921460cefb38474024989060200160405180910390a15b505050565b6001600160a01b03163b151590565b600054610100900460ff16620002155760405162461bcd60e51b815260206004820152602b602482015260008051602062004b1a83398151915260448201526a6e697469616c697a696e6760a81b6064820152608401620000fd565b62000220826200022f565b6200022b81620002c4565b5050565b600054610100900460ff166200028b5760405162461bcd60e51b815260206004820152602b602482015260008051602062004b1a83398151915260448201526a6e697469616c697a696e6760a81b6064820152608401620000fd565b620002a660008051602062004b3a83398151915282620003cd565b620002c160008051602062004b3a83398151915280620003d9565b50565b609754156200032b5760405162461bcd60e51b815260206004820152602c60248201527f4d6574614b6565704c616d6264613a20446f6d61696e20736570657261746f7260448201526b08185b1c9958591e481cd95d60a21b6064820152608401620000fd565b6040518060800160405280604f815260200162004acb604f9139805160209182012082519282019290922060408051808201825260018152603160f81b90840152805180840194909452838101919091527fc89efdaa54c0f20c7adf612882df0950f5a951637e0307cdcb4c672f298b8bc660608401523060808401524660a0808501919091528151808503909101815260c090930190528151910120609755565b6200022b828262000424565b600082815260656020526040808220600101805490849055905190918391839186917fbd79b86ffe0ab8e8776151514217cd7cacd52c909f66475c3af44e129f0b00ff9190a4505050565b60008281526065602090815260408083206001600160a01b038516845290915290205460ff166200022b5760008281526065602090815260408083206001600160a01b03851684529091529020805460ff1916600117905562000486620004ca565b6001600160a01b0316816001600160a01b0316837f2f8788117e7eff1d82e926ec794901d17c78024a50270940304540a733656f0d60405160405180910390a45050565b6000620004e1620004e660201b62002c251760201c565b905090565b6000333014156200053f57600080368080601f0160208091040260200160405190810160405280939291908181526020018383808284376000920191909152505050503601516001600160a01b03169150620005429050565b50335b90565b634e487b7160e01b600052604160045260246000fd5b600080604083850312156200056f57600080fd5b82516001600160a01b03811681146200058757600080fd5b602084810151919350906001600160401b0380821115620005a757600080fd5b818601915086601f830112620005bc57600080fd5b815181811115620005d157620005d162000545565b604051601f8201601f19908116603f01168101908382118183101715620005fc57620005fc62000545565b8160405282815289868487010111156200061557600080fd5b600093505b828410156200063957848401860151818501870152928501926200061a565b828411156200064b5760008684830101525b8096505050505050509250929050565b6080516144386200069360003960008181610b8101528181610bc101528181610e4201528181610e820152610f1101526144386000f3fe6080604052600436106102675760003560e01c806384a3c95e11610144578063c0534ab0116100b6578063d547741f1161007a578063d547741f14610747578063d8ad0cc714610767578063ddfe99d91461077c578063e97ff65e146107d5578063ebe9b0f2146107ea578063f399e22e1461083057600080fd5b8063c0534ab0146106a0578063c0dcaeeb146106da578063c8c930be146106fa578063cb73ac5614610711578063cce880cf1461072757600080fd5b8063a217fddf11610108578063a217fddf14610601578063a5c1344b14610616578063a7ccabdf14610636578063a9c0714514610656578063ac9dfacb14610676578063b161500c1461068d57600080fd5b806384a3c95e14610585578063853828b6146105a55780638da5cb5b146105ad57806391d14854146105cc57806397598cc3146105ec57600080fd5b806336568abe116101dd578063539c2302116101a1578063539c2302146104d25780635c8e937c146104e55780635f5e637f14610512578063746aea9b146105255780637a4151a1146105455780637dd3eeb91461056557600080fd5b806336568abe1461044a5780633659cfe61461046a5780633e3395901461048a5780634f1ef286146104aa57806352d1902d146104bd57600080fd5b80632147f68b1161022f5780632147f68b14610359578063243ed11d1461038a578063248a9ca31461039d578063285857ae146103cd5780632f2ff15d146103ef57806331c2273b1461041157600080fd5b806301ffc9a71461026c5780630c1f5635146102a15780630f7e5970146102c457806312e85585146102fe578063150b7a0214610314575b600080fd5b34801561027857600080fd5b5061028c610287366004613933565b610850565b60405190151581526020015b60405180910390f35b3480156102ad57600080fd5b506102b6610887565b604051908152602001610298565b3480156102d057600080fd5b506102f1604051806040016040528060018152602001603160f81b81525081565b6040516102989190613989565b34801561030a57600080fd5b50610130546102b6565b34801561032057600080fd5b5061034061032f3660046139e1565b630a85bd0160e11b95945050505050565b6040516001600160e01b03199091168152602001610298565b34801561036557600080fd5b506102b6610374366004613a7f565b6000908152610135602052604090206001015490565b61028c610398366004613b66565b6108aa565b3480156103a957600080fd5b506102b66103b8366004613a7f565b60009081526065602052604090206001015490565b3480156103d957600080fd5b506102b66000805160206143bc83398151915281565b3480156103fb57600080fd5b5061040f61040a366004613bf6565b610abe565b005b34801561041d57600080fd5b5061013354610432906001600160a01b031681565b6040516001600160a01b039091168152602001610298565b34801561045657600080fd5b5061040f610465366004613bf6565b610ae8565b34801561047657600080fd5b5061040f610485366004613c26565b610b76565b34801561049657600080fd5b506102b66104a5366004613bf6565b610c56565b61040f6104b8366004613c43565b610e37565b3480156104c957600080fd5b506102b6610f04565b61040f6104e0366004613bf6565b610fb8565b3480156104f157600080fd5b50610505610500366004613c26565b61114e565b6040516102989190613cd6565b61040f610520366004613bf6565b611402565b34801561053157600080fd5b50610505610540366004613c26565b61169c565b34801561055157600080fd5b5061040f610560366004613db6565b6118e5565b34801561057157600080fd5b5061040f610580366004613a7f565b611b26565b34801561059157600080fd5b506105056105a0366004613c26565b611b67565b61028c611e1a565b3480156105b957600080fd5b50610134546001600160a01b0316610432565b3480156105d857600080fd5b5061028c6105e7366004613bf6565b611e94565b3480156105f857600080fd5b50610505611ebf565b34801561060d57600080fd5b506102b6600081565b34801561062257600080fd5b5061040f610631366004613bf6565b612059565b34801561064257600080fd5b5061040f610651366004613c26565b61219e565b34801561066257600080fd5b5061040f610671366004613a7f565b6121f7565b34801561068257600080fd5b506102b66101315481565b61040f61069b366004613e6d565b6122ca565b3480156106ac57600080fd5b506104326106bb366004613a7f565b600090815261013560205260409020600301546001600160a01b031690565b3480156106e657600080fd5b5061040f6106f5366004613ea5565b6124bc565b34801561070657600080fd5b506102b66101325481565b34801561071d57600080fd5b506102b660975481565b34801561073357600080fd5b50610505610742366004613c26565b6125b0565b34801561075357600080fd5b5061040f610762366004613bf6565b612857565b34801561077357600080fd5b5061050561287c565b61040f61078a366004613ef7565b6000928352610135602052604090922060088101805460ff191660011790556004810180546001600160a01b039094166001600160a01b031990941693909317909255600690910155565b3480156107e157600080fd5b506102b6612ab7565b3480156107f657600080fd5b5061028c610805366004613f30565b6001600160a01b03919091166000908152609860209081526040808320938352929052205460ff1690565b34801561083c57600080fd5b5061040f61084b366004613f5c565b612ada565b60006001600160e01b03198216637965db0b60e01b148061088157506301ffc9a760e01b6001600160e01b03198316145b92915050565b604051806060016040528060358152602001614316603591398051906020012081565b60006108b889898989612c81565b60006040518060a001604052808a81526020018981526020018881526020018b6001600160a01b0316815260200187815250905060006040518060a001604052806071815260200161434b6071913980516020918201208351848301516040808701516060808901516080808b01518051908a01208551998a0198909852938801959095528601929092528401526001600160a01b031660a083015260c082015260e0016040516020818303038152906040528051906020012090506109818b82888888612d58565b6109d25760405162461bcd60e51b815260206004820152601d60248201527f4d6574614b6565704c616d6264613a20536967206e6f74206d6174636800000060448201526064015b60405180910390fd5b6001609860008d6001600160a01b03166001600160a01b0316815260200190815260200160002060008c815260200190815260200160002060006101000a81548160ff021916908315150217905550600080306001600160a01b0316898e604051602001610a41929190613fb5565b60408051601f1981840301815290829052610a5b91613fec565b6000604051808303816000865af19150503d8060008114610a98576040519150601f19603f3d011682016040523d82523d6000602084013e610a9d565b606091505b509150915081610aae578060208201fd5b509b9a5050505050505050505050565b600082815260656020526040902060010154610ad981612e70565b610ae38383612e81565b505050565b610af0612f08565b6001600160a01b0316816001600160a01b031614610b685760405162461bcd60e51b815260206004820152602f60248201527f416363657373436f6e74726f6c3a2063616e206f6e6c792072656e6f756e636560448201526e103937b632b9903337b91039b2b63360891b60648201526084016109c9565b610b728282612f17565b5050565b306001600160a01b037f0000000000000000000000000000000000000000000000000000000000000000161415610bbf5760405162461bcd60e51b81526004016109c990614008565b7f00000000000000000000000000000000000000000000000000000000000000006001600160a01b0316610c086000805160206142f6833981519152546001600160a01b031690565b6001600160a01b031614610c2e5760405162461bcd60e51b81526004016109c990614054565b610c3781612f9c565b60408051600080825260208201909252610c5391839190612fd2565b50565b6040516331a9108f60e11b81526004810183905260009033906001600160a01b03841690636352211e90602401602060405180830381865afa158015610ca0573d6000803e3d6000fd5b505050506040513d601f19601f82011682018060405250810190610cc491906140a0565b6001600160a01b031614610d1a5760405162461bcd60e51b815260206004820152601d60248201527f4f6e6c79206f776e65722063616e206c697374206e6577204974656d7300000060448201526064016109c9565b610d2961012f80546001019055565b6000610d3561012f5490565b604080516101208101825282815260208082018881526001600160a01b0380891684860190815233606086810191825260006080880181815260a0890183815260c08a0183905260e08a018390526101008a018390528b8352610135895299909120885181559551600187015592516002860180549186166001600160a01b0319928316179055915160038601805491861691841691909117905591516004850180549190941691161790915593518051959650939492939092610dff9260058501920190613836565b5060c0820151600682015560e08201516007820155610100909101516008909101805460ff1916911515919091179055509392505050565b306001600160a01b037f0000000000000000000000000000000000000000000000000000000000000000161415610e805760405162461bcd60e51b81526004016109c990614008565b7f00000000000000000000000000000000000000000000000000000000000000006001600160a01b0316610ec96000805160206142f6833981519152546001600160a01b031690565b6001600160a01b031614610eef5760405162461bcd60e51b81526004016109c990614054565b610ef882612f9c565b610b7282826001612fd2565b6000306001600160a01b037f00000000000000000000000000000000000000000000000000000000000000001614610fa45760405162461bcd60e51b815260206004820152603860248201527f555550535570677261646561626c653a206d757374206e6f742062652063616c60448201527f6c6564207468726f7567682064656c656761746563616c6c000000000000000060648201526084016109c9565b506000805160206142f68339815191525b90565b600082815261013560205260409020600301546001600160a01b031633148015610ff457506000828152610135602052604090206008015460ff165b6110505760405162461bcd60e51b815260206004820152602760248201527f6f6e6c79206f776e65722063616e2063616e63656c2074686973206974656d206044820152666f6e2073616c6560c81b60648201526084016109c9565b6000828152610135602052604090819020600101549051632142170760e11b815230600482015233602482015260448101919091526001600160a01b038216906342842e0e90606401600060405180830381600087803b1580156110b357600080fd5b505af11580156110c7573d6000803e3d6000fd5b50505060008381526101356020908152604080832060088101805460ff191690556006810193909355600383015460019093015481516001600160a01b0390941680855292840192909252820185905260608201527f98e55545b671712989c02775721fbd580cad374634f412902b0711ab2433e6fe915060800160405180910390a15050565b6060600061115c61012f5490565b90506000805b828110156111f7576001600160a01b03851661013560006111848460016140d3565b81526020810191909152604001600020600301546001600160a01b03161480156111d2575061013560006111b98360016140d3565b815260208101919091526040016000206008015460ff16155b156111e557816111e1816140eb565b9250505b806111ef816140eb565b915050611162565b506000816001600160401b0381111561121257611212613a98565b60405190808252806020026020018201604052801561124b57816020015b61123861389b565b8152602001906001900390816112305790505b5090506000805b848110156113f7576001600160a01b03871661013560006112748460016140d3565b81526020810191909152604001600020600301546001600160a01b03161480156112c2575061013560006112a98360016140d3565b815260208101919091526040016000206008015460ff16155b156113e5576000610135816112d88460016140d3565b815260208082019290925260409081016000208151610120810183528154815260018201548185015260028201546001600160a01b039081168285015260038301548116606083015260048301541660808201526005820180548451818702810187019095528085529295509093859360a086019390929183018282801561138957602002820191906000526020600020905b81546001600160a01b0316815260019091019060200180831161136b575b5050509183525050600682015460208201526007820154604082015260089091015460ff16151560609091015284518590859081106113ca576113ca614106565b602002602001018190525082806113e0906140eb565b935050505b806113ef816140eb565b915050611252565b509095945050505050565b61140a61313d565b60008281526101356020526040902060060154341461146b5760405162461bcd60e51b815260206004820152601d60248201527f416d6f756e74206d75737420626520657175616c20746f20707269636500000060448201526064016109c9565b600082815261013560205260409020600301546001600160a01b03163314156114d65760405162461bcd60e51b815260206004820152601e60248201527f4f776e65722073686f756c646e277420627579207468656972204e465473000060448201526064016109c9565b6000828152610135602052604090819020600101549051632142170760e11b815230600482015233602482015260448101919091526001600160a01b038216906342842e0e90606401600060405180830381600087803b15801561153957600080fd5b505af115801561154d573d6000803e3d6000fd5b505050600083815261013560205260408082206003015490516001600160a01b0390911692503480156108fc0292909190818181858888f1935050505015801561159b573d6000803e3d6000fd5b5061013454600083815261013560205260409020600301546001600160a01b03908116911614156115da5734610131546115d591906140d3565b610131555b600082815261013560209081526040808320600381018054600583018054600180820183559188528688200180546001600160a01b039093166001600160a01b03199384161790558887528254339216821790925560068301805460078501559590955560088201805460ff191690550154815184815292830193909352810184905260608101919091527f98e55545b671712989c02775721fbd580cad374634f412902b0711ab2433e6fe9060800160405180910390a1610b726001609955565b606060006116aa61012f5490565b90506000805b82811015611715576001600160a01b03851661013560006116d28460016140d3565b81526020810191909152604001600020600301546001600160a01b0316141561170357816116ff816140eb565b9250505b8061170d816140eb565b9150506116b0565b506000816001600160401b0381111561173057611730613a98565b60405190808252806020026020018201604052801561176957816020015b61175661389b565b81526020019060019003908161174e5790505b5090506000805b848110156113f7576001600160a01b03871661013560006117928460016140d3565b81526020810191909152604001600020600301546001600160a01b031614156118d3576000610135816117c68460016140d3565b815260208082019290925260409081016000208151610120810183528154815260018201548185015260028201546001600160a01b039081168285015260038301548116606083015260048301541660808201526005820180548451818702810187019095528085529295509093859360a086019390929183018282801561187757602002820191906000526020600020905b81546001600160a01b03168152600190910190602001808311611859575b5050509183525050600682015460208201526007820154604082015260089091015460ff16151560609091015284518590859081106118b8576118b8614106565b602002602001018190525082806118ce906140eb565b935050505b806118dd816140eb565b915050611770565b60005b8251811015610ae357336001600160a01b0316826001600160a01b0316636352211e85848151811061191c5761191c614106565b60200260200101516040518263ffffffff1660e01b815260040161194291815260200190565b602060405180830381865afa15801561195f573d6000803e3d6000fd5b505050506040513d601f19601f8201168201806040525081019061198391906140a0565b6001600160a01b0316146119d95760405162461bcd60e51b815260206004820152601d60248201527f4f6e6c79206f776e65722063616e206c697374206e6577204974656d7300000060448201526064016109c9565b6119e861012f80546001019055565b60006119f461012f5490565b90506060604051806101200160405280838152602001868581518110611a1c57611a1c614106565b60209081029190910181015182526001600160a01b03808816838301523360408085019190915260006060808601829052608080870189905260a080880184905260c0880184905260e090970183905289835261013586529183902087518155878601516001820155928701516002840180549186166001600160a01b0319928316179055908701516003840180549186169183169190911790559086015160048301805491909416911617909155918301518051611ae19260058501920190613836565b5060c0820151600682015560e08201516007820155610100909101516008909101805460ff191691151591909117905550819050611b1e816140eb565b9150506118e8565b610133546001600160a01b03163314611b515760405162461bcd60e51b81526004016109c99061411c565b8061013254611b6091906140d3565b6101325550565b60606000611b7561012f5490565b90506000805b82811015611c15576101356000611b938360016140d3565b815260208101919091526040016000206008015460ff1615156001148015611bf057506001600160a01b0385166101356000611bd08460016140d3565b81526020810191909152604001600020600301546001600160a01b031614155b15611c035781611bff816140eb565b9250505b80611c0d816140eb565b915050611b7b565b506000816001600160401b03811115611c3057611c30613a98565b604051908082528060200260200182016040528015611c6957816020015b611c5661389b565b815260200190600190039081611c4e5790505b5090506000805b848110156113f7576101356000611c888360016140d3565b815260208101919091526040016000206008015460ff1615156001148015611ce557506001600160a01b0387166101356000611cc58460016140d3565b81526020810191909152604001600020600301546001600160a01b031614155b15611e0857600061013581611cfb8460016140d3565b815260208082019290925260409081016000208151610120810183528154815260018201548185015260028201546001600160a01b039081168285015260038301548116606083015260048301541660808201526005820180548451818702810187019095528085529295509093859360a0860193909291830182828015611dac57602002820191906000526020600020905b81546001600160a01b03168152600190910190602001808311611d8e575b5050509183525050600682015460208201526007820154604082015260089091015460ff1615156060909101528451859085908110611ded57611ded614106565b60200260200101819052508280611e03906140eb565b935050505b80611e12816140eb565b915050611c70565b6000611e366000805160206143bc8339815191526105e7612c25565b611e525760405162461bcd60e51b81526004016109c990614160565b610134546040516001600160a01b03909116904780156108fc02916000818181858888f19350505050158015611e8c573d6000803e3d6000fd5b506001905090565b60009182526065602090815260408084206001600160a01b0393909316845291905290205460ff1690565b60606000611ecd61012f5490565b90506000816001600160401b03811115611ee957611ee9613a98565b604051908082528060200260200182016040528015611f2257816020015b611f0f61389b565b815260200190600190039081611f075790505b50905060005b8281101561205257600061013581611f418460016140d3565b815260208082019290925260409081016000208151610120810183528154815260018201548185015260028201546001600160a01b039081168285015260038301548116606083015260048301541660808201526005820180548451818702810187019095528085529295509093859360a0860193909291830182828015611ff257602002820191906000526020600020905b81546001600160a01b03168152600190910190602001808311611fd4575b5050509183525050600682015460208201526007820154604082015260089091015460ff161515606090910152835184908490811061203357612033614106565b602002602001018190525050808061204a906140eb565b915050611f28565b5092915050565b610133546001600160a01b031633146120845760405162461bcd60e51b81526004016109c99061411c565b61209361012f80546001019055565b600061209f61012f5490565b60408051610120810182528281526020808201878152338385019081526001600160a01b03888116606086810191825260006080880181815260a0890183815260c08a0183905260e08a018390526101008a018390528b8352610135895299909120885181559551600187015593516002860180549185166001600160a01b031992831617905591516003860180549185169184169190911790559251600485018054919093169116179055935180519596509394929390926121689260058501920190613836565b5060c0820151600682015560e08201516007820155610100909101516008909101805460ff191691151591909117905550505050565b6121b86000805160206143bc8339815191526105e7612c25565b6121d45760405162461bcd60e51b81526004016109c990614160565b61013380546001600160a01b0319166001600160a01b0392909216919091179055565b610133546001600160a01b0316331461225c5760405162461bcd60e51b815260206004820152602160248201527f4f6e6c79204e465420636f6e74726163742063616e2064656c657465204974656044820152606d60f81b60648201526084016109c9565b600081815261013560205260408120818155600181018290556002810180546001600160a01b0319908116909155600382018054821690556004820180549091169055906122ad6005830182613904565b506000600682018190556007820155600801805460ff1916905550565b600083815261013560205260409020600301546001600160a01b031633146123405760405162461bcd60e51b8152602060048201526024808201527f6f6e6c79206f776e65722063616e207075742074686973206974656d206f6e2060448201526373616c6560e01b60648201526084016109c9565b6101305434146123b85760405162461bcd60e51b815260206004820152603860248201527f416d6f756e7420646f65736e2774206d656574206c697374696e67206665657360448201527f20726571756972656d656e747320282e3030323565746829000000000000000060648201526084016109c9565b6000838152610135602052604090819020600101549051632142170760e11b815233600482015230602482015260448101919091526001600160a01b038316906342842e0e90606401600060405180830381600087803b15801561241b57600080fd5b505af115801561242f573d6000803e3d6000fd5b50505050612446610134546001600160a01b031690565b6001600160a01b03166108fc349081150290604051600060405180830381858888f1935050505015801561247e573d6000803e3d6000fd5b506000928352610135602052604090922060088101805460ff191660011790556004810180546001600160a01b031916331790556006019190915550565b6124c68585613197565b6000604051806060016040528060358152602001614316603591398051602091820120604080519283019190915281018690526001600160a01b03871660608201526080016040516020818303038152906040528051906020012090506125308682868686612d58565b61257c5760405162461bcd60e51b815260206004820152601d60248201527f4d6574614b6565704c616d6264613a20536967206e6f74206d6174636800000060448201526064016109c9565b5050506001600160a01b03909216600090815260986020908152604080832093835292905220805460ff1916600117905550565b606060006125be61012f5490565b90506000805b82811015612658576001600160a01b03851661013560006125e68460016140d3565b81526020810191909152604001600020600301546001600160a01b03161480156126335750610135600061261b8360016140d3565b815260208101919091526040016000206008015460ff165b156126465781612642816140eb565b9250505b80612650816140eb565b9150506125c4565b506000816001600160401b0381111561267357612673613a98565b6040519080825280602002602001820160405280156126ac57816020015b61269961389b565b8152602001906001900390816126915790505b5090506000805b848110156113f7576001600160a01b03871661013560006126d58460016140d3565b81526020810191909152604001600020600301546001600160a01b03161480156127225750610135600061270a8360016140d3565b815260208101919091526040016000206008015460ff165b15612845576000610135816127388460016140d3565b815260208082019290925260409081016000208151610120810183528154815260018201548185015260028201546001600160a01b039081168285015260038301548116606083015260048301541660808201526005820180548451818702810187019095528085529295509093859360a08601939092918301828280156127e957602002820191906000526020600020905b81546001600160a01b031681526001909101906020018083116127cb575b5050509183525050600682015460208201526007820154604082015260089091015460ff161515606090910152845185908590811061282a5761282a614106565b60200260200101819052508280612840906140eb565b935050505b8061284f816140eb565b9150506126b3565b60008281526065602052604090206001015461287281612e70565b610ae38383612f17565b6060600061288a61012f5490565b90506000805b828110156128e95761013560006128a88360016140d3565b815260208101919091526040016000206008015460ff161515600114156128d757816128d3816140eb565b9250505b806128e1816140eb565b915050612890565b506000816001600160401b0381111561290457612904613a98565b60405190808252806020026020018201604052801561293d57816020015b61292a61389b565b8152602001906001900390816129225790505b5090506000805b84811015612aad57610135600061295c8360016140d3565b815260208101919091526040016000206008015460ff16151560011415612a9b5760006101358161298e8460016140d3565b815260208082019290925260409081016000208151610120810183528154815260018201548185015260028201546001600160a01b039081168285015260038301548116606083015260048301541660808201526005820180548451818702810187019095528085529295509093859360a0860193909291830182828015612a3f57602002820191906000526020600020905b81546001600160a01b03168152600190910190602001808311612a21575b5050509183525050600682015460208201526007820154604082015260089091015460ff1615156060909101528451859085908110612a8057612a80614106565b60200260200101819052508280612a96906140eb565b935050505b80612aa5816140eb565b915050612944565b5090949350505050565b6040518060a001604052806071815260200161434b607191398051906020012081565b600054610100900460ff1615808015612afa5750600054600160ff909116105b80612b145750303b158015612b14575060005460ff166001145b612b775760405162461bcd60e51b815260206004820152602e60248201527f496e697469616c697a61626c653a20636f6e747261637420697320616c72656160448201526d191e481a5b9a5d1a585b1a5e995960921b60648201526084016109c9565b6000805460ff191660011790558015612b9a576000805461ff0019166101001790555b6608e1bc9bf040006101305561013480546001600160a01b0319166001600160a01b038516179055612bcc838361320b565b8015610ae3576000805461ff0019169055604051600181527f7f26b83ff96e1f2b6a682f133852f6798a09c465da95921460cefb38474024989060200160405180910390a1505050565b6001600160a01b03163b151590565b600033301415612c7c57600080368080601f0160208091040260200160405190810160405280939291908181526020018383808284376000920191909152505050503601516001600160a01b03169150610fb59050565b503390565b814211612ce75760405162461bcd60e51b815260206004820152602e60248201527f4d6574614b6565704c616d6264613a20417574686f72697a6174696f6e20697360448201526d103737ba103cb2ba1033b4bb32b760911b60648201526084016109c9565b804210612d485760405162461bcd60e51b815260206004820152602960248201527f4d6574614b6565704c616d6264613a20417574686f72697a6174696f6e2068616044820152681cc8195e1c1a5c995960ba1b60648201526084016109c9565b612d528484613197565b50505050565b60006001600160a01b038616612db05760405162461bcd60e51b815260206004820152601e60248201527f4d6574614b6565704c616d6264613a20494e56414c49445f5349474e4552000060448201526064016109c9565b6001612df98660975460405161190160f01b6020820152602281019190915260428101829052600090606201604051602081830303815290604052805190602001209050919050565b6040805160008152602081018083529290925260ff851690820152606081018690526080810185905260a0016020604051602081039080840390855afa158015612e47573d6000803e3d6000fd5b505050602060405103516001600160a01b0316866001600160a01b031614905095945050505050565b610c5381612e7c612f08565b613244565b612e8b8282611e94565b610b725760008281526065602090815260408083206001600160a01b03851684529091529020805460ff19166001179055612ec4612f08565b6001600160a01b0316816001600160a01b0316837f2f8788117e7eff1d82e926ec794901d17c78024a50270940304540a733656f0d60405160405180910390a45050565b6000612f12612c25565b905090565b612f218282611e94565b15610b725760008281526065602090815260408083206001600160a01b03851684529091529020805460ff19169055612f58612f08565b6001600160a01b0316816001600160a01b0316837ff6391f5c32d9c69d2a47ea670b442974b53935d1edc7fd64eb21e047a839171b60405160405180910390a45050565b612fb66000805160206143bc8339815191526105e7612c25565b610c535760405162461bcd60e51b81526004016109c990614160565b7f4910fdfa16fed3260ed0e7147f7cc6da11a60208b5b9406d12a635614ffd91435460ff161561300557610ae38361329d565b826001600160a01b03166352d1902d6040518163ffffffff1660e01b8152600401602060405180830381865afa92505050801561305f575060408051601f3d908101601f1916820190925261305c91810190614197565b60015b6130c25760405162461bcd60e51b815260206004820152602e60248201527f45524331393637557067726164653a206e657720696d706c656d656e7461746960448201526d6f6e206973206e6f74205555505360901b60648201526084016109c9565b6000805160206142f683398151915281146131315760405162461bcd60e51b815260206004820152602960248201527f45524331393637557067726164653a20756e737570706f727465642070726f786044820152681a58589b195555525160ba1b60648201526084016109c9565b50610ae3838383613339565b600260995414156131905760405162461bcd60e51b815260206004820152601f60248201527f5265656e7472616e637947756172643a207265656e7472616e742063616c6c0060448201526064016109c9565b6002609955565b6001600160a01b038216600090815260986020908152604080832084845290915290205460ff1615610b725760405162461bcd60e51b815260206004820152601a60248201527f4d6574614b6565704c616d6264613a204e6f6e6365205573656400000000000060448201526064016109c9565b600054610100900460ff166132325760405162461bcd60e51b81526004016109c9906141b0565b61323b8261335e565b610b72816133b5565b61324e8282611e94565b610b725761325b816134bb565b6132668360206134cd565b6040516020016132779291906141fb565b60408051601f198184030181529082905262461bcd60e51b82526109c991600401613989565b6001600160a01b0381163b61330a5760405162461bcd60e51b815260206004820152602d60248201527f455243313936373a206e657720696d706c656d656e746174696f6e206973206e60448201526c1bdd08184818dbdb9d1c9858dd609a1b60648201526084016109c9565b6000805160206142f683398151915280546001600160a01b0319166001600160a01b0392909216919091179055565b6133428361366f565b60008251118061334f5750805b15610ae357612d5283836136af565b600054610100900460ff166133855760405162461bcd60e51b81526004016109c9906141b0565b61339d6000805160206143bc833981519152826137a3565b610c536000805160206143bc833981519152806137ad565b6097541561341a5760405162461bcd60e51b815260206004820152602c60248201527f4d6574614b6565704c616d6264613a20446f6d61696e20736570657261746f7260448201526b08185b1c9958591e481cd95d60a21b60648201526084016109c9565b6040518060800160405280604f81526020016142a7604f9139805160209182012082519282019290922060408051808201825260018152603160f81b90840152805180840194909452838101919091527fc89efdaa54c0f20c7adf612882df0950f5a951637e0307cdcb4c672f298b8bc660608401523060808401524660a0808501919091528151808503909101815260c090930190528151910120609755565b60606108816001600160a01b03831660145b606060006134dc836002614270565b6134e79060026140d3565b6001600160401b038111156134fe576134fe613a98565b6040519080825280601f01601f191660200182016040528015613528576020820181803683370190505b509050600360fc1b8160008151811061354357613543614106565b60200101906001600160f81b031916908160001a905350600f60fb1b8160018151811061357257613572614106565b60200101906001600160f81b031916908160001a9053506000613596846002614270565b6135a19060016140d3565b90505b6001811115613619576f181899199a1a9b1b9c1cb0b131b232b360811b85600f16601081106135d5576135d5614106565b1a60f81b8282815181106135eb576135eb614106565b60200101906001600160f81b031916908160001a90535060049490941c936136128161428f565b90506135a4565b5083156136685760405162461bcd60e51b815260206004820181905260248201527f537472696e67733a20686578206c656e67746820696e73756666696369656e7460448201526064016109c9565b9392505050565b6136788161329d565b6040516001600160a01b038216907fbc7cd75a20ee27fd9adebab32041f755214dbc6bffa90cc0225b39da2e5c2d3b90600090a250565b60606001600160a01b0383163b6137175760405162461bcd60e51b815260206004820152602660248201527f416464726573733a2064656c65676174652063616c6c20746f206e6f6e2d636f6044820152651b9d1c9858dd60d21b60648201526084016109c9565b600080846001600160a01b0316846040516137329190613fec565b600060405180830381855af49150503d806000811461376d576040519150601f19603f3d011682016040523d82523d6000602084013e613772565b606091505b509150915061379a82826040518060600160405280602781526020016143dc602791396137f8565b95945050505050565b610b728282612e81565b600082815260656020526040808220600101805490849055905190918391839186917fbd79b86ffe0ab8e8776151514217cd7cacd52c909f66475c3af44e129f0b00ff9190a4505050565b60608315613807575081613668565b613668838381511561381c5781518083602001fd5b8060405162461bcd60e51b81526004016109c99190613989565b82805482825590600052602060002090810192821561388b579160200282015b8281111561388b57825182546001600160a01b0319166001600160a01b03909116178255602090920191600190910190613856565b5061389792915061391e565b5090565b604051806101200160405280600081526020016000815260200160006001600160a01b0316815260200160006001600160a01b0316815260200160006001600160a01b031681526020016060815260200160008152602001600081526020016000151581525090565b5080546000825590600052602060002090810190610c5391905b5b80821115613897576000815560010161391f565b60006020828403121561394557600080fd5b81356001600160e01b03198116811461366857600080fd5b60005b83811015613978578181015183820152602001613960565b83811115612d525750506000910152565b60208152600082518060208401526139a881604085016020870161395d565b601f01601f19169190910160400192915050565b6001600160a01b0381168114610c5357600080fd5b80356139dc816139bc565b919050565b6000806000806000608086880312156139f957600080fd5b8535613a04816139bc565b94506020860135613a14816139bc565b93506040860135925060608601356001600160401b0380821115613a3757600080fd5b818801915088601f830112613a4b57600080fd5b813581811115613a5a57600080fd5b896020828501011115613a6c57600080fd5b9699959850939650602001949392505050565b600060208284031215613a9157600080fd5b5035919050565b634e487b7160e01b600052604160045260246000fd5b604051601f8201601f191681016001600160401b0381118282101715613ad657613ad6613a98565b604052919050565b60006001600160401b03831115613af757613af7613a98565b613b0a601f8401601f1916602001613aae565b9050828152838383011115613b1e57600080fd5b828260208301376000602084830101529392505050565b600082601f830112613b4657600080fd5b61366883833560208501613ade565b803560ff811681146139dc57600080fd5b600080600080600080600080610100898b031215613b8357600080fd5b8835613b8e816139bc565b975060208901359650604089013595506060890135945060808901356001600160401b03811115613bbe57600080fd5b613bca8b828c01613b35565b94505060a0890135925060c08901359150613be760e08a01613b55565b90509295985092959890939650565b60008060408385031215613c0957600080fd5b823591506020830135613c1b816139bc565b809150509250929050565b600060208284031215613c3857600080fd5b8135613668816139bc565b60008060408385031215613c5657600080fd5b8235613c61816139bc565b915060208301356001600160401b03811115613c7c57600080fd5b613c8885828601613b35565b9150509250929050565b600081518084526020808501945080840160005b83811015613ccb5781516001600160a01b031687529582019590820190600101613ca6565b509495945050505050565b60006020808301818452808551808352604092508286019150828160051b87010184880160005b83811015613da857603f198984030185528151805184528781015188850152868101516001600160a01b03908116888601526060808301518216908601526080808301519091169085015260a0808201516101208287018190529190613d6583880182613c92565b60c0858101519089015260e0808601519089015261010094850151801515868a0152949093509150613d949050565b509588019593505090860190600101613cfd565b509098975050505050505050565b60008060408385031215613dc957600080fd5b82356001600160401b0380821115613de057600080fd5b818501915085601f830112613df457600080fd5b8135602082821115613e0857613e08613a98565b8160051b9250613e19818401613aae565b8281529284018101928181019089851115613e3357600080fd5b948201945b84861015613e5157853582529482019490820190613e38565b9650613e6090508782016139d1565b9450505050509250929050565b600080600060608486031215613e8257600080fd5b833592506020840135613e94816139bc565b929592945050506040919091013590565b600080600080600060a08688031215613ebd57600080fd5b8535613ec8816139bc565b9450602086013593506040860135925060608601359150613eeb60808701613b55565b90509295509295909350565b600080600060608486031215613f0c57600080fd5b83359250602084013591506040840135613f25816139bc565b809150509250925092565b60008060408385031215613f4357600080fd5b8235613f4e816139bc565b946020939093013593505050565b60008060408385031215613f6f57600080fd5b8235613f7a816139bc565b915060208301356001600160401b03811115613f9557600080fd5b8301601f81018513613fa657600080fd5b613c8885823560208401613ade565b60008351613fc781846020880161395d565b60609390931b6bffffffffffffffffffffffff19169190920190815260140192915050565b60008251613ffe81846020870161395d565b9190910192915050565b6020808252602c908201527f46756e6374696f6e206d7573742062652063616c6c6564207468726f7567682060408201526b19195b1959d85d1958d85b1b60a21b606082015260800190565b6020808252602c908201527f46756e6374696f6e206d7573742062652063616c6c6564207468726f7567682060408201526b6163746976652070726f787960a01b606082015260800190565b6000602082840312156140b257600080fd5b8151613668816139bc565b634e487b7160e01b600052601160045260246000fd5b600082198211156140e6576140e66140bd565b500190565b60006000198214156140ff576140ff6140bd565b5060010190565b634e487b7160e01b600052603260045260246000fd5b60208082526024908201527f4f6e6c79204e465420436f6e74726163742063616e206c697374206e6577204960408201526374656d7360e01b606082015260800190565b60208082526019908201527f4d6574614b6565704c616d6264613a204e6f74206f776e657200000000000000604082015260600190565b6000602082840312156141a957600080fd5b5051919050565b6020808252602b908201527f496e697469616c697a61626c653a20636f6e7472616374206973206e6f74206960408201526a6e697469616c697a696e6760a81b606082015260800190565b7f416363657373436f6e74726f6c3a206163636f756e742000000000000000000081526000835161423381601785016020880161395d565b7001034b99036b4b9b9b4b733903937b6329607d1b601791840191820152835161426481602884016020880161395d565b01602801949350505050565b600081600019048311821515161561428a5761428a6140bd565b500290565b60008161429e5761429e6140bd565b50600019019056fe454950373132446f6d61696e28737472696e67206e616d652c737472696e672076657273696f6e2c6164647265737320766572696679696e67436f6e74726163742c627974657333322073616c7429360894a13ba1a3210667c828492db98dca3e2076cc3735a920a3ca505d382bbc4d6574614b6565704c616d62646143616e63656c4e6f6e63652875696e74323536206e6f6e63652c616464726573732066726f6d294d6574614b6565704c616d6264615472616e73616374696f6e2875696e74323536206e6f6e63652c75696e743235362076616c696446726f6d2c75696e743235362076616c69645570746f2c616464726573732066726f6d2c62797465732066756e6374696f6e5369676e617475726529f3a68b3f49a13367480fd7bc507b2776cef106fb7cff6b2af48f699790f77014416464726573733a206c6f772d6c6576656c2064656c65676174652063616c6c206661696c6564a26469706673582212203b9667436e6435fdc7918d2bc30a14fca95959730f75162e2dd3e75ce2cb58c364736f6c634300080a0033454950373132446f6d61696e28737472696e67206e616d652c737472696e672076657273696f6e2c6164647265737320766572696679696e67436f6e74726163742c627974657333322073616c7429496e697469616c697a61626c653a20636f6e7472616374206973206e6f742069f3a68b3f49a13367480fd7bc507b2776cef106fb7cff6b2af48f699790f77014",
  "linkReferences": {},
  "deployedLinkReferences": {}
}