{
  "_format": "hh-sol-artifact-1",
  "contractName": "NFTBet",
  "sourceName": "contracts/nftbet.sol",
  "abi": [
    {
      "inputs": [
        {
          "internalType": "address",
          "name": "_sport",
          "type": "address"
        },
        {
          "internalType": "address",
          "name": "_bet",
          "type": "address"
        },
        {
          "internalType": "address",
          "name": "lambdaOwner",
          "type": "address"
        },
        {
          "internalType": "string",
          "name": "lambdaName",
          "type": "string"
        }
      ],
      "stateMutability": "nonpayable",
      "type": "constructor"
    },
    {
      "anonymous": false,
      "inputs": [
        {
          "indexed": true,
          "internalType": "bytes32",
          "name": "role",
          "type": "bytes32"
        },
        {
          "indexed": true,
          "internalType": "bytes32",
          "name": "previousAdminRole",
          "type": "bytes32"
        },
        {
          "indexed": true,
          "internalType": "bytes32",
          "name": "newAdminRole",
          "type": "bytes32"
        }
      ],
      "name": "RoleAdminChanged",
      "type": "event"
    },
    {
      "anonymous": false,
      "inputs": [
        {
          "indexed": true,
          "internalType": "bytes32",
          "name": "role",
          "type": "bytes32"
        },
        {
          "indexed": true,
          "internalType": "address",
          "name": "account",
          "type": "address"
        },
        {
          "indexed": true,
          "internalType": "address",
          "name": "sender",
          "type": "address"
        }
      ],
      "name": "RoleGranted",
      "type": "event"
    },
    {
      "anonymous": false,
      "inputs": [
        {
          "indexed": true,
          "internalType": "bytes32",
          "name": "role",
          "type": "bytes32"
        },
        {
          "indexed": true,
          "internalType": "address",
          "name": "account",
          "type": "address"
        },
        {
          "indexed": true,
          "internalType": "address",
          "name": "sender",
          "type": "address"
        }
      ],
      "name": "RoleRevoked",
      "type": "event"
    },
    {
      "inputs": [],
      "name": "BetAddress",
      "outputs": [
        {
          "internalType": "address",
          "name": "",
          "type": "address"
        }
      ],
      "stateMutability": "view",
      "type": "function"
    },
    {
      "inputs": [
        {
          "internalType": "address",
          "name": "_sender",
          "type": "address"
        },
        {
          "internalType": "uint256",
          "name": "amount",
          "type": "uint256"
        },
        {
          "internalType": "address",
          "name": "prizeAddr",
          "type": "address"
        },
        {
          "internalType": "uint256[]",
          "name": "nftIDs",
          "type": "uint256[]"
        },
        {
          "internalType": "address[]",
          "name": "nftContracts",
          "type": "address[]"
        }
      ],
      "name": "CreateMPGameForNFT",
      "outputs": [],
      "stateMutability": "nonpayable",
      "type": "function"
    },
    {
      "inputs": [],
      "name": "DEFAULT_ADMIN_ROLE",
      "outputs": [
        {
          "internalType": "bytes32",
          "name": "",
          "type": "bytes32"
        }
      ],
      "stateMutability": "view",
      "type": "function"
    },
    {
      "inputs": [],
      "name": "ERC712_VERSION",
      "outputs": [
        {
          "internalType": "string",
          "name": "",
          "type": "string"
        }
      ],
      "stateMutability": "view",
      "type": "function"
    },
    {
      "inputs": [
        {
          "internalType": "address",
          "name": "_sender",
          "type": "address"
        },
        {
          "internalType": "uint256",
          "name": "gameID",
          "type": "uint256"
        },
        {
          "internalType": "uint256",
          "name": "amount",
          "type": "uint256"
        },
        {
          "internalType": "address",
          "name": "prizeAddr",
          "type": "address"
        },
        {
          "internalType": "uint256[]",
          "name": "nftIDs",
          "type": "uint256[]"
        },
        {
          "internalType": "address[]",
          "name": "nftContracts",
          "type": "address[]"
        }
      ],
      "name": "JoinMPGameForNFT",
      "outputs": [],
      "stateMutability": "nonpayable",
      "type": "function"
    },
    {
      "inputs": [],
      "name": "METAKEEP_LAMBDA_CANCEL_NONCE_TYPEHASH",
      "outputs": [
        {
          "internalType": "bytes32",
          "name": "",
          "type": "bytes32"
        }
      ],
      "stateMutability": "view",
      "type": "function"
    },
    {
      "inputs": [],
      "name": "METAKEEP_LAMBDA_OWNER_ROLE",
      "outputs": [
        {
          "internalType": "bytes32",
          "name": "",
          "type": "bytes32"
        }
      ],
      "stateMutability": "view",
      "type": "function"
    },
    {
      "inputs": [],
      "name": "METAKEEP_LAMBDA_TRANSACTION_TYPEHASH",
      "outputs": [
        {
          "internalType": "bytes32",
          "name": "",
          "type": "bytes32"
        }
      ],
      "stateMutability": "view",
      "type": "function"
    },
    {
      "inputs": [
        {
          "internalType": "address",
          "name": "winner",
          "type": "address"
        },
        {
          "internalType": "uint256",
          "name": "GameID",
          "type": "uint256"
        }
      ],
      "name": "SetMPGameResultForNFT",
      "outputs": [],
      "stateMutability": "nonpayable",
      "type": "function"
    },
    {
      "inputs": [],
      "name": "SportAddress",
      "outputs": [
        {
          "internalType": "address",
          "name": "",
          "type": "address"
        }
      ],
      "stateMutability": "view",
      "type": "function"
    },
    {
      "inputs": [
        {
          "internalType": "address",
          "name": "userAddress",
          "type": "address"
        },
        {
          "internalType": "uint256",
          "name": "nonce",
          "type": "uint256"
        },
        {
          "internalType": "bytes32",
          "name": "sigR",
          "type": "bytes32"
        },
        {
          "internalType": "bytes32",
          "name": "sigS",
          "type": "bytes32"
        },
        {
          "internalType": "uint8",
          "name": "sigV",
          "type": "uint8"
        }
      ],
      "name": "cancelMetaKeepLambdaNonce",
      "outputs": [],
      "stateMutability": "nonpayable",
      "type": "function"
    },
    {
      "inputs": [],
      "name": "domainSeperator",
      "outputs": [
        {
          "internalType": "bytes32",
          "name": "",
          "type": "bytes32"
        }
      ],
      "stateMutability": "view",
      "type": "function"
    },
    {
      "inputs": [
        {
          "internalType": "address",
          "name": "userAddress",
          "type": "address"
        },
        {
          "internalType": "uint256",
          "name": "nonce",
          "type": "uint256"
        },
        {
          "internalType": "uint256",
          "name": "validFrom",
          "type": "uint256"
        },
        {
          "internalType": "uint256",
          "name": "validUpto",
          "type": "uint256"
        },
        {
          "internalType": "bytes",
          "name": "functionSignature",
          "type": "bytes"
        },
        {
          "internalType": "bytes32",
          "name": "sigR",
          "type": "bytes32"
        },
        {
          "internalType": "bytes32",
          "name": "sigS",
          "type": "bytes32"
        },
        {
          "internalType": "uint8",
          "name": "sigV",
          "type": "uint8"
        }
      ],
      "name": "executeMetaKeepLambdaTransaction",
      "outputs": [
        {
          "internalType": "bool",
          "name": "",
          "type": "bool"
        }
      ],
      "stateMutability": "payable",
      "type": "function"
    },
    {
      "inputs": [
        {
          "internalType": "uint256",
          "name": "",
          "type": "uint256"
        },
        {
          "internalType": "uint256",
          "name": "",
          "type": "uint256"
        }
      ],
      "name": "gamebetting",
      "outputs": [
        {
          "internalType": "address",
          "name": "player",
          "type": "address"
        },
        {
          "internalType": "uint256",
          "name": "amount",
          "type": "uint256"
        },
        {
          "internalType": "uint256",
          "name": "gameType",
          "type": "uint256"
        },
        {
          "internalType": "uint256",
          "name": "betType",
          "type": "uint256"
        }
      ],
      "stateMutability": "view",
      "type": "function"
    },
    {
      "inputs": [
        {
          "internalType": "uint256",
          "name": "gameID",
          "type": "uint256"
        }
      ],
      "name": "getGameInfo",
      "outputs": [
        {
          "components": [
            {
              "internalType": "address",
              "name": "player",
              "type": "address"
            },
            {
              "internalType": "uint256",
              "name": "amount",
              "type": "uint256"
            },
            {
              "internalType": "uint256",
              "name": "gameType",
              "type": "uint256"
            },
            {
              "internalType": "uint256",
              "name": "betType",
              "type": "uint256"
            },
            {
              "internalType": "uint256[]",
              "name": "nftids",
              "type": "uint256[]"
            },
            {
              "internalType": "address[]",
              "name": "nftcontracts",
              "type": "address[]"
            }
          ],
          "internalType": "struct NFTBet.Bet[]",
          "name": "",
          "type": "tuple[]"
        }
      ],
      "stateMutability": "view",
      "type": "function"
    },
    {
      "inputs": [
        {
          "internalType": "uint256",
          "name": "game",
          "type": "uint256"
        }
      ],
      "name": "getPlayerLength",
      "outputs": [
        {
          "internalType": "uint256",
          "name": "",
          "type": "uint256"
        }
      ],
      "stateMutability": "view",
      "type": "function"
    },
    {
      "inputs": [
        {
          "internalType": "bytes32",
          "name": "role",
          "type": "bytes32"
        }
      ],
      "name": "getRoleAdmin",
      "outputs": [
        {
          "internalType": "bytes32",
          "name": "",
          "type": "bytes32"
        }
      ],
      "stateMutability": "view",
      "type": "function"
    },
    {
      "inputs": [
        {
          "internalType": "bytes32",
          "name": "role",
          "type": "bytes32"
        },
        {
          "internalType": "address",
          "name": "account",
          "type": "address"
        }
      ],
      "name": "grantRole",
      "outputs": [],
      "stateMutability": "nonpayable",
      "type": "function"
    },
    {
      "inputs": [
        {
          "internalType": "bytes32",
          "name": "role",
          "type": "bytes32"
        },
        {
          "internalType": "address",
          "name": "account",
          "type": "address"
        }
      ],
      "name": "hasRole",
      "outputs": [
        {
          "internalType": "bool",
          "name": "",
          "type": "bool"
        }
      ],
      "stateMutability": "view",
      "type": "function"
    },
    {
      "inputs": [
        {
          "internalType": "address",
          "name": "userAddress",
          "type": "address"
        },
        {
          "internalType": "uint256",
          "name": "nonce",
          "type": "uint256"
        }
      ],
      "name": "metaKeepLambdaNonceState",
      "outputs": [
        {
          "internalType": "bool",
          "name": "",
          "type": "bool"
        }
      ],
      "stateMutability": "view",
      "type": "function"
    },
    {
      "inputs": [
        {
          "internalType": "address",
          "name": "operator",
          "type": "address"
        },
        {
          "internalType": "address",
          "name": "from",
          "type": "address"
        },
        {
          "internalType": "uint256",
          "name": "tokenId",
          "type": "uint256"
        },
        {
          "internalType": "bytes",
          "name": "data",
          "type": "bytes"
        }
      ],
      "name": "onERC721Received",
      "outputs": [
        {
          "internalType": "bytes4",
          "name": "",
          "type": "bytes4"
        }
      ],
      "stateMutability": "pure",
      "type": "function"
    },
    {
      "inputs": [
        {
          "internalType": "bytes32",
          "name": "role",
          "type": "bytes32"
        },
        {
          "internalType": "address",
          "name": "account",
          "type": "address"
        }
      ],
      "name": "renounceRole",
      "outputs": [],
      "stateMutability": "nonpayable",
      "type": "function"
    },
    {
      "inputs": [
        {
          "internalType": "bytes32",
          "name": "role",
          "type": "bytes32"
        },
        {
          "internalType": "address",
          "name": "account",
          "type": "address"
        }
      ],
      "name": "revokeRole",
      "outputs": [],
      "stateMutability": "nonpayable",
      "type": "function"
    },
    {
      "inputs": [
        {
          "internalType": "address",
          "name": "_betaddress",
          "type": "address"
        }
      ],
      "name": "setBetAddress",
      "outputs": [],
      "stateMutability": "nonpayable",
      "type": "function"
    },
    {
      "inputs": [
        {
          "internalType": "address",
          "name": "_sport",
          "type": "address"
        }
      ],
      "name": "setSportAddress",
      "outputs": [],
      "stateMutability": "nonpayable",
      "type": "function"
    },
    {
      "inputs": [
        {
          "internalType": "bytes4",
          "name": "interfaceId",
          "type": "bytes4"
        }
      ],
      "name": "supportsInterface",
      "outputs": [
        {
          "internalType": "bool",
          "name": "",
          "type": "bool"
        }
      ],
      "stateMutability": "view",
      "type": "function"
    }
  ],
  "bytecode": "0x60806040523480156200001157600080fd5b5060405162002aef38038062002aef833981016040819052620000349162000388565b8181816200005260008051602062002acf83398151915282620000c0565b6200006d60008051602062002acf83398151915280620000d0565b5062000079816200011b565b5050600380546001600160a01b03199081166001600160a01b039485161790915560048054821694841694909417909355506005805490921692169190911790556200049d565b620000cc828262000238565b5050565b600082815260208190526040808220600101805490849055905190918391839186917fbd79b86ffe0ab8e8776151514217cd7cacd52c909f66475c3af44e129f0b00ff9190a4505050565b60015415620001855760405162461bcd60e51b815260206004820152602c60248201527f4d6574614b6565704c616d6264613a20446f6d61696e20736570657261746f7260448201526b08185b1c9958591e481cd95d60a21b606482015260840160405180910390fd5b6040518060800160405280604f815260200162002a80604f913980516020918201208251838301206040805180820190915260018152603160f81b930192909252907fc89efdaa54c0f20c7adf612882df0950f5a951637e0307cdcb4c672f298b8bc6304660408051602081019690965285019390935260608401919091526001600160a01b0316608083015260a082015260c00160408051601f19818403018152919052805160209091012060015550565b6000828152602081815260408083206001600160a01b038516845290915290205460ff16620000cc576000828152602081815260408083206001600160a01b03851684529091529020805460ff1916600117905562000296620002da565b6001600160a01b0316816001600160a01b0316837f2f8788117e7eff1d82e926ec794901d17c78024a50270940304540a733656f0d60405160405180910390a45050565b6000620002f1620002f660201b620014f61760201c565b905090565b6000333014156200034f57600080368080601f0160208091040260200160405190810160405280939291908181526020018383808284376000920191909152505050503601516001600160a01b03169150620003529050565b50335b90565b80516001600160a01b03811681146200036d57600080fd5b919050565b634e487b7160e01b600052604160045260246000fd5b600080600080608085870312156200039f57600080fd5b620003aa8562000355565b93506020620003bb81870162000355565b9350620003cb6040870162000355565b60608701519093506001600160401b0380821115620003e957600080fd5b818801915088601f830112620003fe57600080fd5b81518181111562000413576200041362000372565b604051601f8201601f19908116603f011681019083821181831017156200043e576200043e62000372565b816040528281528b868487010111156200045757600080fd5b600093505b828410156200047b57848401860151818501870152928501926200045c565b828411156200048d5760008684830101525b989b979a50959850505050505050565b6125d380620004ad6000396000f3fe6080604052600436106101a15760003560e01c806391d14854116100e1578063cc4d217a1161008a578063e97ff65e11610064578063e97ff65e14610551578063ebe9b0f214610566578063f696649d146105ac578063ffaa4838146105f657600080fd5b8063cc4d217a146104d9578063d547741f14610511578063d7a43f201461053157600080fd5b8063a38e0fcc116100bb578063a38e0fcc14610483578063c0dcaeeb146104a3578063cb73ac56146104c357600080fd5b806391d148541461040a578063985065561461044e578063a217fddf1461046e57600080fd5b8063248a9ca31161014e57806336568abe1161012857806336568abe1461034357806347e1d5501461036357806365e0155214610390578063746f2996146103cd57600080fd5b8063248a9ca3146102bd578063285857ae146102ed5780632f2ff15d1461032157600080fd5b80630f7e59701161017f5780630f7e59701461022b578063150b7a0214610265578063243ed11d146102aa57600080fd5b806301ffc9a7146101a65780630bb93b4b146101db5780630c1f563514610216575b600080fd5b3480156101b257600080fd5b506101c66101c1366004611c9e565b610616565b60405190151581526020015b60405180910390f35b3480156101e757600080fd5b506102086101f6366004611cc8565b60009081526006602052604090205490565b6040519081526020016101d2565b34801561022257600080fd5b5061020861064d565b34801561023757600080fd5b50610258604051806040016040528060018152602001603160f81b81525081565b6040516101d29190611d0d565b34801561027157600080fd5b50610291610280366004611d5c565b630a85bd0160e11b95945050505050565b6040516001600160e01b031990911681526020016101d2565b6101c66102b8366004611e4f565b610670565b3480156102c957600080fd5b506102086102d8366004611cc8565b60009081526020819052604090206001015490565b3480156102f957600080fd5b506102087ff3a68b3f49a13367480fd7bc507b2776cef106fb7cff6b2af48f699790f7701481565b34801561032d57600080fd5b5061034161033c366004611f36565b610884565b005b34801561034f57600080fd5b5061034161035e366004611f36565b6108ae565b34801561036f57600080fd5b5061038361037e366004611cc8565b61094a565b6040516101d29190611fa6565b34801561039c57600080fd5b506103416103ab366004612085565b600580546001600160a01b0319166001600160a01b0392909216919091179055565b3480156103d957600080fd5b506103416103e8366004612085565b600480546001600160a01b0319166001600160a01b0392909216919091179055565b34801561041657600080fd5b506101c6610425366004611f36565b6000918252602082815260408084206001600160a01b0393909316845291905290205460ff1690565b34801561045a57600080fd5b50610341610469366004612191565b610a9f565b34801561047a57600080fd5b50610208600081565b34801561048f57600080fd5b5061034161049e366004612228565b610d2b565b3480156104af57600080fd5b506103416104be366004612252565b611091565b3480156104cf57600080fd5b5061020860015481565b3480156104e557600080fd5b506004546104f9906001600160a01b031681565b6040516001600160a01b0390911681526020016101d2565b34801561051d57600080fd5b5061034161052c366004611f36565b611185565b34801561053d57600080fd5b5061034161054c3660046122a2565b6111aa565b34801561055d57600080fd5b50610208611483565b34801561057257600080fd5b506101c6610581366004612228565b6001600160a01b03919091166000908152600260209081526040808320938352929052205460ff1690565b3480156105b857600080fd5b506105cc6105c7366004612331565b6114a6565b604080516001600160a01b03909516855260208501939093529183015260608201526080016101d2565b34801561060257600080fd5b506005546104f9906001600160a01b031681565b60006001600160e01b03198216637965db0b60e01b148061064757506301ffc9a760e01b6001600160e01b03198316145b92915050565b6040518060600160405280603581526020016124f8603591398051906020012081565b600061067e89898989611553565b60006040518060a001604052808a81526020018981526020018881526020018b6001600160a01b0316815260200187815250905060006040518060a001604052806071815260200161252d6071913980516020918201208351848301516040808701516060808901516080808b01518051908a01208551998a0198909852938801959095528601929092528401526001600160a01b031660a083015260c082015260e0016040516020818303038152906040528051906020012090506107478b82888888611639565b6107985760405162461bcd60e51b815260206004820152601d60248201527f4d6574614b6565704c616d6264613a20536967206e6f74206d6174636800000060448201526064015b60405180910390fd5b6001600260008d6001600160a01b03166001600160a01b0316815260200190815260200160002060008c815260200190815260200160002060006101000a81548160ff021916908315150217905550600080306001600160a01b0316898e604051602001610807929190612353565b60408051601f19818403018152908290526108219161238a565b6000604051808303816000865af19150503d806000811461085e576040519150601f19603f3d011682016040523d82523d6000602084013e610863565b606091505b509150915081610874578060208201fd5b509b9a5050505050505050505050565b60008281526020819052604090206001015461089f81611751565b6108a98383611765565b505050565b6108b6611804565b6001600160a01b0316816001600160a01b03161461093c5760405162461bcd60e51b815260206004820152602f60248201527f416363657373436f6e74726f6c3a2063616e206f6e6c792072656e6f756e636560448201527f20726f6c657320666f722073656c660000000000000000000000000000000000606482015260840161078f565b6109468282611813565b5050565b606060066000838152602001908152602001600020805480602002602001604051908101604052809291908181526020016000905b82821015610a945760008481526020908190206040805160c0810182526006860290920180546001600160a01b031683526001810154838501526002810154838301526003810154606084015260048101805483518187028101870190945280845293949193608086019392830182828015610a1a57602002820191906000526020600020905b815481526020019060010190808311610a06575b5050505050815260200160058201805480602002602001604051908101604052809291908181526020018280548015610a7c57602002820191906000526020600020905b81546001600160a01b03168152600190910190602001808311610a5e575b5050505050815250508152602001906001019061097f565b505050509050919050565b6005546040516323b872dd60e01b81526001600160a01b038881166004830152858116602483015260448201879052909116906323b872dd906064016020604051808303816000875af1158015610afa573d6000803e3d6000fd5b505050506040513d601f19601f82011682018060405250810190610b1e91906123a6565b50600480546040516338ad0b4560e11b81526001600160a01b0389811693820193909352602481018890526044810187905291169063715a168a90606401600060405180830381600087803b158015610b7657600080fd5b505af1158015610b8a573d6000803e3d6000fd5b5050505060005b8251811015610c5b57818181518110610bac57610bac6123c8565b60200260200101516001600160a01b03166342842e0e8830868581518110610bd657610bd66123c8565b60209081029190910101516040516001600160e01b031960e086901b1681526001600160a01b0393841660048201529290911660248301526044820152606401600060405180830381600087803b158015610c3057600080fd5b505af1158015610c44573d6000803e3d6000fd5b505050508080610c53906123f4565b915050610b91565b506000858152600660208181526040808420815160c0810183526001600160a01b038c811682528185018b81526001948301858152600260608501818152608086018d815260a087018d90528754808a018955978c529a899020865197909a0290990180546001600160a01b031916969094169590951783559051948201949094559251918301919091559251600382015592518051929392610d049260048501920190611b59565b5060a08201518051610d20916005840191602090910190611ba4565b505050505050505050565b600480546040516328e383f360e21b81526001600160a01b03858116938201939093526024810184905291169063a38e0fcc90604401600060405180830381600087803b158015610d7b57600080fd5b505af1158015610d8f573d6000803e3d6000fd5b5050505060005b60008281526006602052604081208054909190610db557610db56123c8565b906000526020600020906006020160040180549050811015610efa5760008281526006602052604081208054909190610df057610df06123c8565b90600052602060002090600602016005018181548110610e1257610e126123c8565b600091825260208083209091015484835260069091526040822080546001600160a01b03909216926342842e0e92309288929091610e5257610e526123c8565b90600052602060002090600602016004018581548110610e7457610e746123c8565b6000918252602090912001546040516001600160e01b031960e086901b1681526001600160a01b0393841660048201529290911660248301526044820152606401600060405180830381600087803b158015610ecf57600080fd5b505af1158015610ee3573d6000803e3d6000fd5b505050508080610ef2906123f4565b915050610d96565b5060005b600082815260066020526040902080546001908110610f1f57610f1f6123c8565b90600052602060002090600602016004018054905081101561107957600082815260066020526040902080546001908110610f5c57610f5c6123c8565b90600052602060002090600602016005018181548110610f7e57610f7e6123c8565b9060005260206000200160009054906101000a90046001600160a01b03166001600160a01b03166342842e0e308560066000878152602001908152602001600020600181548110610fd157610fd16123c8565b90600052602060002090600602016004018581548110610ff357610ff36123c8565b6000918252602090912001546040516001600160e01b031960e086901b1681526001600160a01b0393841660048201529290911660248301526044820152606401600060405180830381600087803b15801561104e57600080fd5b505af1158015611062573d6000803e3d6000fd5b505050508080611071906123f4565b915050610efe565b50600081815260066020526040812061094691611bf9565b61109b85856118b0565b60006040518060600160405280603581526020016124f8603591398051602091820120604080519283019190915281018690526001600160a01b03871660608201526080016040516020818303038152906040528051906020012090506111058682868686611639565b6111515760405162461bcd60e51b815260206004820152601d60248201527f4d6574614b6565704c616d6264613a20536967206e6f74206d61746368000000604482015260640161078f565b5050506001600160a01b03909216600090815260026020908152604080832093835292905220805460ff1916600117905550565b6000828152602081905260409020600101546111a081611751565b6108a98383611813565b6005546040516323b872dd60e01b81526001600160a01b038781166004830152858116602483015260448201879052909116906323b872dd906064016020604051808303816000875af1158015611205573d6000803e3d6000fd5b505050506040513d601f19601f8201168201806040525081019061122991906123a6565b5060048054604051636ab9b2d760e01b81526001600160a01b038881169382019390935260248101879052911690636ab9b2d790604401600060405180830381600087803b15801561127a57600080fd5b505af115801561128e573d6000803e3d6000fd5b505050506000600460009054906101000a90046001600160a01b03166001600160a01b031663fddc3d196040518163ffffffff1660e01b8152600401602060405180830381865afa1580156112e7573d6000803e3d6000fd5b505050506040513d601f19601f8201168201806040525081019061130b919061240f565b905060005b83518110156113da5782818151811061132b5761132b6123c8565b60200260200101516001600160a01b03166342842e0e8830878581518110611355576113556123c8565b60209081029190910101516040516001600160e01b031960e086901b1681526001600160a01b0393841660048201529290911660248301526044820152606401600060405180830381600087803b1580156113af57600080fd5b505af11580156113c3573d6000803e3d6000fd5b5050505080806113d2906123f4565b915050611310565b506000818152600660208181526040808420815160c0810183526001600160a01b038c811682528185018c81526001948301858152600260608501818152608086018e815260a087018e90528754808a018955978c529a899020865197909a0290990180546001600160a01b031916969094169590951783559051948201949094559251918301919091559251600382015592518051929392610d049260048501920190611b59565b6040518060a001604052806071815260200161252d607191398051906020012081565b600660205281600052604060002081815481106114c257600080fd5b600091825260209091206006909102018054600182015460028301546003909301546001600160a01b039092169450925084565b60003330141561154d57600080368080601f0160208091040260200160405190810160405280939291908181526020018383808284376000920191909152505050503601516001600160a01b031691506115509050565b50335b90565b8142116115c85760405162461bcd60e51b815260206004820152602e60248201527f4d6574614b6565704c616d6264613a20417574686f72697a6174696f6e20697360448201527f206e6f742079657420676976656e000000000000000000000000000000000000606482015260840161078f565b8042106116295760405162461bcd60e51b815260206004820152602960248201527f4d6574614b6565704c616d6264613a20417574686f72697a6174696f6e2068616044820152681cc8195e1c1a5c995960ba1b606482015260840161078f565b61163384846118b0565b50505050565b60006001600160a01b0386166116915760405162461bcd60e51b815260206004820152601e60248201527f4d6574614b6565704c616d6264613a20494e56414c49445f5349474e45520000604482015260640161078f565b60016116da8660015460405161190160f01b6020820152602281019190915260428101829052600090606201604051602081830303815290604052805190602001209050919050565b6040805160008152602081018083529290925260ff851690820152606081018690526080810185905260a0016020604051602081039080840390855afa158015611728573d6000803e3d6000fd5b505050602060405103516001600160a01b0316866001600160a01b031614905095945050505050565b6117628161175d611804565b611924565b50565b6000828152602081815260408083206001600160a01b038516845290915290205460ff16610946576000828152602081815260408083206001600160a01b03851684529091529020805460ff191660011790556117c0611804565b6001600160a01b0316816001600160a01b0316837f2f8788117e7eff1d82e926ec794901d17c78024a50270940304540a733656f0d60405160405180910390a45050565b600061180e6114f6565b905090565b6000828152602081815260408083206001600160a01b038516845290915290205460ff1615610946576000828152602081815260408083206001600160a01b03851684529091529020805460ff1916905561186c611804565b6001600160a01b0316816001600160a01b0316837ff6391f5c32d9c69d2a47ea670b442974b53935d1edc7fd64eb21e047a839171b60405160405180910390a45050565b6001600160a01b038216600090815260026020908152604080832084845290915290205460ff16156109465760405162461bcd60e51b815260206004820152601a60248201527f4d6574614b6565704c616d6264613a204e6f6e63652055736564000000000000604482015260640161078f565b6000828152602081815260408083206001600160a01b038516845290915290205460ff166109465761195581611997565b6119608360206119a9565b604051602001611971929190612428565b60408051601f198184030181529082905262461bcd60e51b825261078f91600401611d0d565b60606106476001600160a01b03831660145b606060006119b88360026124a9565b6119c39060026124c8565b67ffffffffffffffff8111156119db576119db611df7565b6040519080825280601f01601f191660200182016040528015611a05576020820181803683370190505b509050600360fc1b81600081518110611a2057611a206123c8565b60200101906001600160f81b031916908160001a905350600f60fb1b81600181518110611a4f57611a4f6123c8565b60200101906001600160f81b031916908160001a9053506000611a738460026124a9565b611a7e9060016124c8565b90505b6001811115611b03577f303132333435363738396162636465660000000000000000000000000000000085600f1660108110611abf57611abf6123c8565b1a60f81b828281518110611ad557611ad56123c8565b60200101906001600160f81b031916908160001a90535060049490941c93611afc816124e0565b9050611a81565b508315611b525760405162461bcd60e51b815260206004820181905260248201527f537472696e67733a20686578206c656e67746820696e73756666696369656e74604482015260640161078f565b9392505050565b828054828255906000526020600020908101928215611b94579160200282015b82811115611b94578251825591602001919060010190611b79565b50611ba0929150611c1a565b5090565b828054828255906000526020600020908101928215611b94579160200282015b82811115611b9457825182546001600160a01b0319166001600160a01b03909116178255602090920191600190910190611bc4565b50805460008255600602906000526020600020908101906117629190611c2f565b5b80821115611ba05760008155600101611c1b565b80821115611ba05780546001600160a01b03191681556000600182018190556002820181905560038201819055611c696004830182611c80565b611c77600583016000611c80565b50600601611c2f565b50805460008255906000526020600020908101906117629190611c1a565b600060208284031215611cb057600080fd5b81356001600160e01b031981168114611b5257600080fd5b600060208284031215611cda57600080fd5b5035919050565b60005b83811015611cfc578181015183820152602001611ce4565b838111156116335750506000910152565b6020815260008251806020840152611d2c816040850160208701611ce1565b601f01601f19169190910160400192915050565b80356001600160a01b0381168114611d5757600080fd5b919050565b600080600080600060808688031215611d7457600080fd5b611d7d86611d40565b9450611d8b60208701611d40565b935060408601359250606086013567ffffffffffffffff80821115611daf57600080fd5b818801915088601f830112611dc357600080fd5b813581811115611dd257600080fd5b896020828501011115611de457600080fd5b9699959850939650602001949392505050565b634e487b7160e01b600052604160045260246000fd5b604051601f8201601f1916810167ffffffffffffffff81118282101715611e3657611e36611df7565b604052919050565b803560ff81168114611d5757600080fd5b600080600080600080600080610100898b031215611e6c57600080fd5b611e7589611d40565b97506020808a0135975060408a0135965060608a0135955060808a013567ffffffffffffffff80821115611ea857600080fd5b818c0191508c601f830112611ebc57600080fd5b813581811115611ece57611ece611df7565b611ee0601f8201601f19168501611e0d565b91508082528d84828501011115611ef657600080fd5b808484018584013760008482840101525080965050505060a0890135925060c08901359150611f2760e08a01611e3e565b90509295985092959890939650565b60008060408385031215611f4957600080fd5b82359150611f5960208401611d40565b90509250929050565b600081518084526020808501945080840160005b83811015611f9b5781516001600160a01b031687529582019590820190600101611f76565b509495945050505050565b60006020808301818452808551808352604092508286019150828160051b8701018488016000805b8481101561207657898403603f19018652825180516001600160a01b03168552888101518986015287810151888601526060808201519086015260808082015160c0918701829052805191870182905260e0870191908b0190855b818110156120455782518452928c0192918c0191600101612029565b50505060a080830151925086820381880152506120628183611f62565b978a01979550505091870191600101611fce565b50919998505050505050505050565b60006020828403121561209757600080fd5b611b5282611d40565b600067ffffffffffffffff8211156120ba576120ba611df7565b5060051b60200190565b600082601f8301126120d557600080fd5b813560206120ea6120e5836120a0565b611e0d565b82815260059290921b8401810191818101908684111561210957600080fd5b8286015b84811015612124578035835291830191830161210d565b509695505050505050565b600082601f83011261214057600080fd5b813560206121506120e5836120a0565b82815260059290921b8401810191818101908684111561216f57600080fd5b8286015b848110156121245761218481611d40565b8352918301918301612173565b60008060008060008060c087890312156121aa57600080fd5b6121b387611d40565b955060208701359450604087013593506121cf60608801611d40565b9250608087013567ffffffffffffffff808211156121ec57600080fd5b6121f88a838b016120c4565b935060a089013591508082111561220e57600080fd5b5061221b89828a0161212f565b9150509295509295509295565b6000806040838503121561223b57600080fd5b61224483611d40565b946020939093013593505050565b600080600080600060a0868803121561226a57600080fd5b61227386611d40565b945060208601359350604086013592506060860135915061229660808701611e3e565b90509295509295909350565b600080600080600060a086880312156122ba57600080fd5b6122c386611d40565b9450602086013593506122d860408701611d40565b9250606086013567ffffffffffffffff808211156122f557600080fd5b61230189838a016120c4565b9350608088013591508082111561231757600080fd5b506123248882890161212f565b9150509295509295909350565b6000806040838503121561234457600080fd5b50508035926020909101359150565b60008351612365818460208801611ce1565b60609390931b6bffffffffffffffffffffffff19169190920190815260140192915050565b6000825161239c818460208701611ce1565b9190910192915050565b6000602082840312156123b857600080fd5b81518015158114611b5257600080fd5b634e487b7160e01b600052603260045260246000fd5b634e487b7160e01b600052601160045260246000fd5b6000600019821415612408576124086123de565b5060010190565b60006020828403121561242157600080fd5b5051919050565b7f416363657373436f6e74726f6c3a206163636f756e7420000000000000000000815260008351612460816017850160208801611ce1565b7f206973206d697373696e6720726f6c6520000000000000000000000000000000601791840191820152835161249d816028840160208801611ce1565b01602801949350505050565b60008160001904831182151516156124c3576124c36123de565b500290565b600082198211156124db576124db6123de565b500190565b6000816124ef576124ef6123de565b50600019019056fe4d6574614b6565704c616d62646143616e63656c4e6f6e63652875696e74323536206e6f6e63652c616464726573732066726f6d294d6574614b6565704c616d6264615472616e73616374696f6e2875696e74323536206e6f6e63652c75696e743235362076616c696446726f6d2c75696e743235362076616c69645570746f2c616464726573732066726f6d2c62797465732066756e6374696f6e5369676e617475726529a2646970667358221220b933e73dd05a857e719e3cf56252e29cb606a83f11fa19e8f88ef4ce4904677e64736f6c634300080a0033454950373132446f6d61696e28737472696e67206e616d652c737472696e672076657273696f6e2c6164647265737320766572696679696e67436f6e74726163742c627974657333322073616c7429f3a68b3f49a13367480fd7bc507b2776cef106fb7cff6b2af48f699790f77014",
  "linkReferences": {},
  "deployedLinkReferences": {}
}