{
  "_format": "hh-sol-artifact-1",
  "contractName": "NFTMarket",
  "sourceName": "contracts/MarketPlace.sol",
  "abi": [
    {
      "anonymous": false,
      "inputs": [
        {
          "indexed": false,
          "internalType": "address",
          "name": "previousAdmin",
          "type": "address"
        },
        {
          "indexed": false,
          "internalType": "address",
          "name": "newAdmin",
          "type": "address"
        }
      ],
      "name": "AdminChanged",
      "type": "event"
    },
    {
      "anonymous": false,
      "inputs": [
        {
          "indexed": true,
          "internalType": "address",
          "name": "beacon",
          "type": "address"
        }
      ],
      "name": "BeaconUpgraded",
      "type": "event"
    },
    {
      "anonymous": false,
      "inputs": [
        {
          "indexed": false,
          "internalType": "uint8",
          "name": "version",
          "type": "uint8"
        }
      ],
      "name": "Initialized",
      "type": "event"
    },
    {
      "anonymous": false,
      "inputs": [
        {
          "indexed": false,
          "internalType": "address",
          "name": "_from",
          "type": "address"
        },
        {
          "indexed": false,
          "internalType": "address",
          "name": "to",
          "type": "address"
        },
        {
          "indexed": false,
          "internalType": "uint256",
          "name": "ItemID",
          "type": "uint256"
        },
        {
          "indexed": false,
          "internalType": "uint256",
          "name": "TokenID",
          "type": "uint256"
        }
      ],
      "name": "MarketItemChanged",
      "type": "event"
    },
    {
      "anonymous": false,
      "inputs": [
        {
          "indexed": true,
          "internalType": "address",
          "name": "previousOwner",
          "type": "address"
        },
        {
          "indexed": true,
          "internalType": "address",
          "name": "newOwner",
          "type": "address"
        }
      ],
      "name": "OwnershipTransferred",
      "type": "event"
    },
    {
      "anonymous": false,
      "inputs": [
        {
          "indexed": true,
          "internalType": "address",
          "name": "implementation",
          "type": "address"
        }
      ],
      "name": "Upgraded",
      "type": "event"
    },
    {
      "inputs": [],
      "name": "NFTContract",
      "outputs": [
        {
          "internalType": "address",
          "name": "",
          "type": "address"
        }
      ],
      "stateMutability": "view",
      "type": "function"
    },
    {
      "inputs": [
        {
          "internalType": "uint256",
          "name": "amount",
          "type": "uint256"
        }
      ],
      "name": "calcEarnedFeeAmounts",
      "outputs": [],
      "stateMutability": "nonpayable",
      "type": "function"
    },
    {
      "inputs": [
        {
          "internalType": "uint256",
          "name": "tokenId",
          "type": "uint256"
        },
        {
          "internalType": "address",
          "name": "nftContract",
          "type": "address"
        }
      ],
      "name": "createMarketItem",
      "outputs": [
        {
          "internalType": "uint256",
          "name": "",
          "type": "uint256"
        }
      ],
      "stateMutability": "nonpayable",
      "type": "function"
    },
    {
      "inputs": [
        {
          "internalType": "uint256",
          "name": "tokenId",
          "type": "uint256"
        },
        {
          "internalType": "address",
          "name": "_owner",
          "type": "address"
        }
      ],
      "name": "createMarketItemFromNFTContract",
      "outputs": [],
      "stateMutability": "nonpayable",
      "type": "function"
    },
    {
      "inputs": [
        {
          "internalType": "uint256[]",
          "name": "tokenIds",
          "type": "uint256[]"
        },
        {
          "internalType": "address",
          "name": "nftContract",
          "type": "address"
        }
      ],
      "name": "createMarketItems",
      "outputs": [],
      "stateMutability": "nonpayable",
      "type": "function"
    },
    {
      "inputs": [
        {
          "internalType": "uint256",
          "name": "itemId",
          "type": "uint256"
        }
      ],
      "name": "deleteMarketItem",
      "outputs": [],
      "stateMutability": "nonpayable",
      "type": "function"
    },
    {
      "inputs": [],
      "name": "erc20token",
      "outputs": [
        {
          "internalType": "address",
          "name": "",
          "type": "address"
        }
      ],
      "stateMutability": "view",
      "type": "function"
    },
    {
      "inputs": [],
      "name": "fetchAllItems",
      "outputs": [
        {
          "components": [
            {
              "internalType": "uint256",
              "name": "itemId",
              "type": "uint256"
            },
            {
              "internalType": "uint256",
              "name": "tokenId",
              "type": "uint256"
            },
            {
              "internalType": "address",
              "name": "nftContract",
              "type": "address"
            },
            {
              "internalType": "address payable",
              "name": "owner",
              "type": "address"
            },
            {
              "internalType": "address",
              "name": "lastSeller",
              "type": "address"
            },
            {
              "internalType": "address[]",
              "name": "prevOwners",
              "type": "address[]"
            },
            {
              "internalType": "uint256",
              "name": "price",
              "type": "uint256"
            },
            {
              "internalType": "uint256",
              "name": "lastPrice",
              "type": "uint256"
            },
            {
              "internalType": "bool",
              "name": "onSale",
              "type": "bool"
            }
          ],
          "internalType": "struct NFTMarket.MarketItem[]",
          "name": "",
          "type": "tuple[]"
        }
      ],
      "stateMutability": "view",
      "type": "function"
    },
    {
      "inputs": [
        {
          "internalType": "address",
          "name": "owner",
          "type": "address"
        }
      ],
      "name": "fetchAllItemsOfOwner",
      "outputs": [
        {
          "components": [
            {
              "internalType": "uint256",
              "name": "itemId",
              "type": "uint256"
            },
            {
              "internalType": "uint256",
              "name": "tokenId",
              "type": "uint256"
            },
            {
              "internalType": "address",
              "name": "nftContract",
              "type": "address"
            },
            {
              "internalType": "address payable",
              "name": "owner",
              "type": "address"
            },
            {
              "internalType": "address",
              "name": "lastSeller",
              "type": "address"
            },
            {
              "internalType": "address[]",
              "name": "prevOwners",
              "type": "address[]"
            },
            {
              "internalType": "uint256",
              "name": "price",
              "type": "uint256"
            },
            {
              "internalType": "uint256",
              "name": "lastPrice",
              "type": "uint256"
            },
            {
              "internalType": "bool",
              "name": "onSale",
              "type": "bool"
            }
          ],
          "internalType": "struct NFTMarket.MarketItem[]",
          "name": "",
          "type": "tuple[]"
        }
      ],
      "stateMutability": "view",
      "type": "function"
    },
    {
      "inputs": [],
      "name": "fetchAllItemsOnSale",
      "outputs": [
        {
          "components": [
            {
              "internalType": "uint256",
              "name": "itemId",
              "type": "uint256"
            },
            {
              "internalType": "uint256",
              "name": "tokenId",
              "type": "uint256"
            },
            {
              "internalType": "address",
              "name": "nftContract",
              "type": "address"
            },
            {
              "internalType": "address payable",
              "name": "owner",
              "type": "address"
            },
            {
              "internalType": "address",
              "name": "lastSeller",
              "type": "address"
            },
            {
              "internalType": "address[]",
              "name": "prevOwners",
              "type": "address[]"
            },
            {
              "internalType": "uint256",
              "name": "price",
              "type": "uint256"
            },
            {
              "internalType": "uint256",
              "name": "lastPrice",
              "type": "uint256"
            },
            {
              "internalType": "bool",
              "name": "onSale",
              "type": "bool"
            }
          ],
          "internalType": "struct NFTMarket.MarketItem[]",
          "name": "",
          "type": "tuple[]"
        }
      ],
      "stateMutability": "view",
      "type": "function"
    },
    {
      "inputs": [
        {
          "internalType": "address",
          "name": "owner",
          "type": "address"
        }
      ],
      "name": "fetchAllItemsOnSaleOfNotOwner",
      "outputs": [
        {
          "components": [
            {
              "internalType": "uint256",
              "name": "itemId",
              "type": "uint256"
            },
            {
              "internalType": "uint256",
              "name": "tokenId",
              "type": "uint256"
            },
            {
              "internalType": "address",
              "name": "nftContract",
              "type": "address"
            },
            {
              "internalType": "address payable",
              "name": "owner",
              "type": "address"
            },
            {
              "internalType": "address",
              "name": "lastSeller",
              "type": "address"
            },
            {
              "internalType": "address[]",
              "name": "prevOwners",
              "type": "address[]"
            },
            {
              "internalType": "uint256",
              "name": "price",
              "type": "uint256"
            },
            {
              "internalType": "uint256",
              "name": "lastPrice",
              "type": "uint256"
            },
            {
              "internalType": "bool",
              "name": "onSale",
              "type": "bool"
            }
          ],
          "internalType": "struct NFTMarket.MarketItem[]",
          "name": "",
          "type": "tuple[]"
        }
      ],
      "stateMutability": "view",
      "type": "function"
    },
    {
      "inputs": [
        {
          "internalType": "address",
          "name": "owner",
          "type": "address"
        }
      ],
      "name": "fetchAllItemsOnSaleOfOwner",
      "outputs": [
        {
          "components": [
            {
              "internalType": "uint256",
              "name": "itemId",
              "type": "uint256"
            },
            {
              "internalType": "uint256",
              "name": "tokenId",
              "type": "uint256"
            },
            {
              "internalType": "address",
              "name": "nftContract",
              "type": "address"
            },
            {
              "internalType": "address payable",
              "name": "owner",
              "type": "address"
            },
            {
              "internalType": "address",
              "name": "lastSeller",
              "type": "address"
            },
            {
              "internalType": "address[]",
              "name": "prevOwners",
              "type": "address[]"
            },
            {
              "internalType": "uint256",
              "name": "price",
              "type": "uint256"
            },
            {
              "internalType": "uint256",
              "name": "lastPrice",
              "type": "uint256"
            },
            {
              "internalType": "bool",
              "name": "onSale",
              "type": "bool"
            }
          ],
          "internalType": "struct NFTMarket.MarketItem[]",
          "name": "",
          "type": "tuple[]"
        }
      ],
      "stateMutability": "view",
      "type": "function"
    },
    {
      "inputs": [
        {
          "internalType": "address",
          "name": "owner",
          "type": "address"
        }
      ],
      "name": "fetchAllItemsOnUseOfOwner",
      "outputs": [
        {
          "components": [
            {
              "internalType": "uint256",
              "name": "itemId",
              "type": "uint256"
            },
            {
              "internalType": "uint256",
              "name": "tokenId",
              "type": "uint256"
            },
            {
              "internalType": "address",
              "name": "nftContract",
              "type": "address"
            },
            {
              "internalType": "address payable",
              "name": "owner",
              "type": "address"
            },
            {
              "internalType": "address",
              "name": "lastSeller",
              "type": "address"
            },
            {
              "internalType": "address[]",
              "name": "prevOwners",
              "type": "address[]"
            },
            {
              "internalType": "uint256",
              "name": "price",
              "type": "uint256"
            },
            {
              "internalType": "uint256",
              "name": "lastPrice",
              "type": "uint256"
            },
            {
              "internalType": "bool",
              "name": "onSale",
              "type": "bool"
            }
          ],
          "internalType": "struct NFTMarket.MarketItem[]",
          "name": "",
          "type": "tuple[]"
        }
      ],
      "stateMutability": "view",
      "type": "function"
    },
    {
      "inputs": [
        {
          "internalType": "uint256",
          "name": "itemId",
          "type": "uint256"
        }
      ],
      "name": "getIdToMarketItemOwner",
      "outputs": [
        {
          "internalType": "address",
          "name": "",
          "type": "address"
        }
      ],
      "stateMutability": "view",
      "type": "function"
    },
    {
      "inputs": [
        {
          "internalType": "uint256",
          "name": "itemId",
          "type": "uint256"
        }
      ],
      "name": "getIdToMarketItemTokenID",
      "outputs": [
        {
          "internalType": "uint256",
          "name": "",
          "type": "uint256"
        }
      ],
      "stateMutability": "view",
      "type": "function"
    },
    {
      "inputs": [],
      "name": "getListingPrice",
      "outputs": [
        {
          "internalType": "uint256",
          "name": "",
          "type": "uint256"
        }
      ],
      "stateMutability": "view",
      "type": "function"
    },
    {
      "inputs": [
        {
          "internalType": "address",
          "name": "_erec20Token",
          "type": "address"
        }
      ],
      "name": "initialize",
      "outputs": [],
      "stateMutability": "nonpayable",
      "type": "function"
    },
    {
      "inputs": [
        {
          "internalType": "uint256",
          "name": "itemId",
          "type": "uint256"
        },
        {
          "internalType": "address",
          "name": "nftContract",
          "type": "address"
        }
      ],
      "name": "listItemCancelOnSale",
      "outputs": [],
      "stateMutability": "payable",
      "type": "function"
    },
    {
      "inputs": [
        {
          "internalType": "uint256",
          "name": "itemId",
          "type": "uint256"
        },
        {
          "internalType": "address",
          "name": "nftContract",
          "type": "address"
        },
        {
          "internalType": "uint256",
          "name": "price",
          "type": "uint256"
        }
      ],
      "name": "listItemOnSale",
      "outputs": [],
      "stateMutability": "payable",
      "type": "function"
    },
    {
      "inputs": [
        {
          "internalType": "uint256",
          "name": "itemId",
          "type": "uint256"
        },
        {
          "internalType": "uint256",
          "name": "price",
          "type": "uint256"
        },
        {
          "internalType": "address",
          "name": "_owner",
          "type": "address"
        }
      ],
      "name": "listItemOnSaleFromNFTContract",
      "outputs": [],
      "stateMutability": "payable",
      "type": "function"
    },
    {
      "inputs": [
        {
          "internalType": "address",
          "name": "operator",
          "type": "address"
        },
        {
          "internalType": "address",
          "name": "from",
          "type": "address"
        },
        {
          "internalType": "uint256",
          "name": "tokenId",
          "type": "uint256"
        },
        {
          "internalType": "bytes",
          "name": "data",
          "type": "bytes"
        }
      ],
      "name": "onERC721Received",
      "outputs": [
        {
          "internalType": "bytes4",
          "name": "",
          "type": "bytes4"
        }
      ],
      "stateMutability": "pure",
      "type": "function"
    },
    {
      "inputs": [],
      "name": "owner",
      "outputs": [
        {
          "internalType": "address",
          "name": "",
          "type": "address"
        }
      ],
      "stateMutability": "view",
      "type": "function"
    },
    {
      "inputs": [],
      "name": "proxiableUUID",
      "outputs": [
        {
          "internalType": "bytes32",
          "name": "",
          "type": "bytes32"
        }
      ],
      "stateMutability": "view",
      "type": "function"
    },
    {
      "inputs": [],
      "name": "renounceOwnership",
      "outputs": [],
      "stateMutability": "nonpayable",
      "type": "function"
    },
    {
      "inputs": [
        {
          "internalType": "uint256",
          "name": "itemId",
          "type": "uint256"
        },
        {
          "internalType": "address",
          "name": "nftContract",
          "type": "address"
        }
      ],
      "name": "sellMarketItem",
      "outputs": [],
      "stateMutability": "payable",
      "type": "function"
    },
    {
      "inputs": [
        {
          "internalType": "address",
          "name": "_TokenAdddress",
          "type": "address"
        }
      ],
      "name": "setERC20Token",
      "outputs": [],
      "stateMutability": "nonpayable",
      "type": "function"
    },
    {
      "inputs": [
        {
          "internalType": "address",
          "name": "_NFTAddress",
          "type": "address"
        }
      ],
      "name": "setNFTContract",
      "outputs": [],
      "stateMutability": "nonpayable",
      "type": "function"
    },
    {
      "inputs": [],
      "name": "totalEarnedAmounts",
      "outputs": [
        {
          "internalType": "uint256",
          "name": "",
          "type": "uint256"
        }
      ],
      "stateMutability": "view",
      "type": "function"
    },
    {
      "inputs": [],
      "name": "totalEarnedFeeAmounts",
      "outputs": [
        {
          "internalType": "uint256",
          "name": "",
          "type": "uint256"
        }
      ],
      "stateMutability": "view",
      "type": "function"
    },
    {
      "inputs": [
        {
          "internalType": "address",
          "name": "newOwner",
          "type": "address"
        }
      ],
      "name": "transferOwnership",
      "outputs": [],
      "stateMutability": "nonpayable",
      "type": "function"
    },
    {
      "inputs": [
        {
          "internalType": "address",
          "name": "newImplementation",
          "type": "address"
        }
      ],
      "name": "upgradeTo",
      "outputs": [],
      "stateMutability": "nonpayable",
      "type": "function"
    },
    {
      "inputs": [
        {
          "internalType": "address",
          "name": "newImplementation",
          "type": "address"
        },
        {
          "internalType": "bytes",
          "name": "data",
          "type": "bytes"
        }
      ],
      "name": "upgradeToAndCall",
      "outputs": [],
      "stateMutability": "payable",
      "type": "function"
    },
    {
      "inputs": [],
      "name": "withdrawAll",
      "outputs": [
        {
          "internalType": "bool",
          "name": "",
          "type": "bool"
        }
      ],
      "stateMutability": "payable",
      "type": "function"
    }
  ],
  "bytecode": "0x60a06040523060805234801561001457600080fd5b506080516133d361004c600039600081816106550152818161069e0152818161091d0152818161095d01526109f001526133d36000f3fe6080604052600436106101ee5760003560e01c806384a3c95e1161010d578063b161500c116100a0578063cce880cf1161006f578063cce880cf1461057c578063d8ad0cc71461059c578063ddfe99d9146105b1578063de5624871461060a578063f2fde38b1461062a57600080fd5b8063b161500c146104f9578063c0534ab01461050c578063c4d66de814610546578063c8c930be1461056657600080fd5b8063a5c1344b116100dc578063a5c1344b14610483578063a7ccabdf146104a3578063a9c07145146104c3578063ac9dfacb146104e357600080fd5b806384a3c95e14610418578063853828b6146104385780638da5cb5b1461045057806397598cc31461046e57600080fd5b806352d1902d11610185578063715018a611610154578063715018a6146103a3578063746aea9b146103b85780637a4151a1146103d85780637dd3eeb9146103f857600080fd5b806352d1902d1461033b578063539c2302146103505780635c8e937c146103635780635f5e637f1461039057600080fd5b806331c2273b116101c157806331c2273b146102c55780633659cfe6146102e65780633e339590146103085780634f1ef2861461032857600080fd5b806312e85585146101f3578063150b7a02146102175780631dcea4271461025c5780632147f68b14610294575b600080fd5b3480156101ff57600080fd5b5060fd545b6040519081526020015b60405180910390f35b34801561022357600080fd5b50610243610232366004612c5b565b630a85bd0160e11b95945050505050565b6040516001600160e01b0319909116815260200161020e565b34801561026857600080fd5b5060fc5461027c906001600160a01b031681565b6040516001600160a01b03909116815260200161020e565b3480156102a057600080fd5b506102046102af366004612cfa565b6000908152610101602052604090206001015490565b3480156102d157600080fd5b506101005461027c906001600160a01b031681565b3480156102f257600080fd5b50610306610301366004612d13565b61064a565b005b34801561031457600080fd5b50610204610323366004612d30565b610733565b610306610336366004612da7565b610912565b34801561034757600080fd5b506102046109e3565b61030661035e366004612d30565b610a96565b34801561036f57600080fd5b5061038361037e366004612d13565b610c2d565b60405161020e9190612e93565b61030661039e366004612d30565b610ee1565b3480156103af57600080fd5b506103066111c6565b3480156103c457600080fd5b506103836103d3366004612d13565b6111fc565b3480156103e457600080fd5b506103066103f3366004612f73565b611445565b34801561040457600080fd5b50610306610413366004612cfa565b611689565b34801561042457600080fd5b50610383610433366004612d13565b6116c8565b61044061197b565b604051901515815260200161020e565b34801561045c57600080fd5b5060c9546001600160a01b031661027c565b34801561047a57600080fd5b506103836119e9565b34801561048f57600080fd5b5061030661049e366004612d30565b611b83565b3480156104af57600080fd5b506103066104be366004612d13565b611cc6565b3480156104cf57600080fd5b506103066104de366004612cfa565b611d13565b3480156104ef57600080fd5b5061020460fe5481565b61030661050736600461302b565b611de6565b34801561051857600080fd5b5061027c610527366004612cfa565b600090815261010160205260409020600301546001600160a01b031690565b34801561055257600080fd5b50610306610561366004612d13565b611fd6565b34801561057257600080fd5b5061020460ff5481565b34801561058857600080fd5b50610383610597366004612d13565b61206a565b3480156105a857600080fd5b50610383612311565b6103066105bf366004613063565b6000928352610101602052604090922060088101805460ff191660011790556004810180546001600160a01b039094166001600160a01b031990941693909317909255600690910155565b34801561061657600080fd5b50610306610625366004612d13565b61254c565b34801561063657600080fd5b50610306610645366004612d13565b612598565b306001600160a01b037f000000000000000000000000000000000000000000000000000000000000000016141561069c5760405162461bcd60e51b81526004016106939061309c565b60405180910390fd5b7f00000000000000000000000000000000000000000000000000000000000000006001600160a01b03166106e5600080516020613357833981519152546001600160a01b031690565b6001600160a01b03161461070b5760405162461bcd60e51b8152600401610693906130e8565b61071481612630565b604080516000808252602082019092526107309183919061265a565b50565b6040516331a9108f60e11b81526004810183905260009033906001600160a01b03841690636352211e90602401602060405180830381865afa15801561077d573d6000803e3d6000fd5b505050506040513d601f19601f820116820180604052508101906107a19190613134565b6001600160a01b0316146107f75760405162461bcd60e51b815260206004820152601d60248201527f4f6e6c79206f776e65722063616e206c697374206e6577204974656d730000006044820152606401610693565b61080560fb80546001019055565b600061081060fb5490565b604080516101208101825282815260208082018881526001600160a01b0380891684860190815233606086810191825260006080880181815260a0890183815260c08a0183905260e08a018390526101008a018390528b8352610101895299909120885181559551600187015592516002860180549186166001600160a01b03199283161790559151600386018054918616918416919091179055915160048501805491909416911617909155935180519596509394929390926108da9260058501920190612b3e565b5060c0820151600682015560e08201516007820155610100909101516008909101805460ff1916911515919091179055509392505050565b306001600160a01b037f000000000000000000000000000000000000000000000000000000000000000016141561095b5760405162461bcd60e51b81526004016106939061309c565b7f00000000000000000000000000000000000000000000000000000000000000006001600160a01b03166109a4600080516020613357833981519152546001600160a01b031690565b6001600160a01b0316146109ca5760405162461bcd60e51b8152600401610693906130e8565b6109d382612630565b6109df8282600161265a565b5050565b6000306001600160a01b037f00000000000000000000000000000000000000000000000000000000000000001614610a835760405162461bcd60e51b815260206004820152603860248201527f555550535570677261646561626c653a206d757374206e6f742062652063616c60448201527f6c6564207468726f7567682064656c656761746563616c6c00000000000000006064820152608401610693565b5060008051602061335783398151915290565b600082815261010160205260409020600301546001600160a01b031633148015610ad257506000828152610101602052604090206008015460ff165b610b2e5760405162461bcd60e51b815260206004820152602760248201527f6f6e6c79206f776e65722063616e2063616e63656c2074686973206974656d206044820152666f6e2073616c6560c81b6064820152608401610693565b6000828152610101602052604090819020600101549051632142170760e11b815230600482015233602482015260448101919091526001600160a01b038216906342842e0e90606401600060405180830381600087803b158015610b9157600080fd5b505af1158015610ba5573d6000803e3d6000fd5b50505060008381526101016020908152604080832060088101805460ff191690556006810193909355600383015460019093015481516001600160a01b0390941680855292840192909252820185905260608201527f98e55545b671712989c02775721fbd580cad374634f412902b0711ab2433e6fe91506080015b60405180910390a15050565b60606000610c3a60fb5490565b90506000805b82811015610cd5576001600160a01b0385166101016000610c62846001613167565b81526020810191909152604001600020600301546001600160a01b0316148015610cb057506101016000610c97836001613167565b815260208101919091526040016000206008015460ff16155b15610cc35781610cbf8161317f565b9250505b80610ccd8161317f565b915050610c40565b5060008167ffffffffffffffff811115610cf157610cf1612d60565b604051908082528060200260200182016040528015610d2a57816020015b610d17612ba3565b815260200190600190039081610d0f5790505b5090506000805b84811015610ed6576001600160a01b0387166101016000610d53846001613167565b81526020810191909152604001600020600301546001600160a01b0316148015610da157506101016000610d88836001613167565b815260208101919091526040016000206008015460ff16155b15610ec457600061010181610db7846001613167565b815260208082019290925260409081016000208151610120810183528154815260018201548185015260028201546001600160a01b039081168285015260038301548116606083015260048301541660808201526005820180548451818702810187019095528085529295509093859360a0860193909291830182828015610e6857602002820191906000526020600020905b81546001600160a01b03168152600190910190602001808311610e4a575b5050509183525050600682015460208201526007820154604082015260089091015460ff1615156060909101528451859085908110610ea957610ea961319a565b60200260200101819052508280610ebf9061317f565b935050505b80610ece8161317f565b915050610d31565b509095945050505050565b60026001541415610f345760405162461bcd60e51b815260206004820152601f60248201527f5265656e7472616e637947756172643a207265656e7472616e742063616c6c006044820152606401610693565b6002600155600082815261010160205260409020600601543414610f9a5760405162461bcd60e51b815260206004820152601d60248201527f416d6f756e74206d75737420626520657175616c20746f2070726963650000006044820152606401610693565b600082815261010160205260409020600301546001600160a01b03163314156110055760405162461bcd60e51b815260206004820152601e60248201527f4f776e65722073686f756c646e277420627579207468656972204e46547300006044820152606401610693565b6000828152610101602052604090819020600101549051632142170760e11b815230600482015233602482015260448101919091526001600160a01b038216906342842e0e90606401600060405180830381600087803b15801561106857600080fd5b505af115801561107c573d6000803e3d6000fd5b505050600083815261010160205260408082206003015490516001600160a01b0390911692503480156108fc0292909190818181858888f193505050501580156110ca573d6000803e3d6000fd5b5060c954600083815261010160205260409020600301546001600160a01b0390811691161415611106573460fe546111029190613167565b60fe555b600082815261010160209081526040808320600381018054600583018054600180820183559188528688200180546001600160a01b039093166001600160a01b03199384161790558887528254339216821790925560068301805460078501559590955560088201805460ff191690550154815184815292830193909352810184905260608101919091527f98e55545b671712989c02775721fbd580cad374634f412902b0711ab2433e6fe9060800160405180910390a1505060018055565b60c9546001600160a01b031633146111f05760405162461bcd60e51b8152600401610693906131b0565b6111fa60006127c5565b565b6060600061120960fb5490565b90506000805b82811015611274576001600160a01b0385166101016000611231846001613167565b81526020810191909152604001600020600301546001600160a01b03161415611262578161125e8161317f565b9250505b8061126c8161317f565b91505061120f565b5060008167ffffffffffffffff81111561129057611290612d60565b6040519080825280602002602001820160405280156112c957816020015b6112b6612ba3565b8152602001906001900390816112ae5790505b5090506000805b84811015610ed6576001600160a01b03871661010160006112f2846001613167565b81526020810191909152604001600020600301546001600160a01b0316141561143357600061010181611326846001613167565b815260208082019290925260409081016000208151610120810183528154815260018201548185015260028201546001600160a01b039081168285015260038301548116606083015260048301541660808201526005820180548451818702810187019095528085529295509093859360a08601939092918301828280156113d757602002820191906000526020600020905b81546001600160a01b031681526001909101906020018083116113b9575b5050509183525050600682015460208201526007820154604082015260089091015460ff16151560609091015284518590859081106114185761141861319a565b6020026020010181905250828061142e9061317f565b935050505b8061143d8161317f565b9150506112d0565b60005b825181101561168457336001600160a01b0316826001600160a01b0316636352211e85848151811061147c5761147c61319a565b60200260200101516040518263ffffffff1660e01b81526004016114a291815260200190565b602060405180830381865afa1580156114bf573d6000803e3d6000fd5b505050506040513d601f19601f820116820180604052508101906114e39190613134565b6001600160a01b0316146115395760405162461bcd60e51b815260206004820152601d60248201527f4f6e6c79206f776e65722063616e206c697374206e6577204974656d730000006044820152606401610693565b61154760fb80546001019055565b600061155260fb5490565b9050606060405180610120016040528083815260200186858151811061157a5761157a61319a565b60209081029190910181015182526001600160a01b03808816838301523360408085019190915260006060808601829052608080870189905260a080880184905260c0880184905260e090970183905289835261010186529183902087518155878601516001820155928701516002840180549186166001600160a01b031992831617905590870151600384018054918616918316919091179055908601516004830180549190941691161790915591830151805161163f9260058501920190612b3e565b5060c0820151600682015560e08201516007820155610100909101516008909101805460ff19169115159190911790555081905061167c8161317f565b915050611448565b505050565b610100546001600160a01b031633146116b45760405162461bcd60e51b8152600401610693906131e5565b8060ff546116c29190613167565b60ff5550565b606060006116d560fb5490565b90506000805b828110156117755761010160006116f3836001613167565b815260208101919091526040016000206008015460ff161515600114801561175057506001600160a01b0385166101016000611730846001613167565b81526020810191909152604001600020600301546001600160a01b031614155b15611763578161175f8161317f565b9250505b8061176d8161317f565b9150506116db565b5060008167ffffffffffffffff81111561179157611791612d60565b6040519080825280602002602001820160405280156117ca57816020015b6117b7612ba3565b8152602001906001900390816117af5790505b5090506000805b84811015610ed65761010160006117e9836001613167565b815260208101919091526040016000206008015460ff161515600114801561184657506001600160a01b0387166101016000611826846001613167565b81526020810191909152604001600020600301546001600160a01b031614155b156119695760006101018161185c846001613167565b815260208082019290925260409081016000208151610120810183528154815260018201548185015260028201546001600160a01b039081168285015260038301548116606083015260048301541660808201526005820180548451818702810187019095528085529295509093859360a086019390929183018282801561190d57602002820191906000526020600020905b81546001600160a01b031681526001909101906020018083116118ef575b5050509183525050600682015460208201526007820154604082015260089091015460ff161515606090910152845185908590811061194e5761194e61319a565b602002602001018190525082806119649061317f565b935050505b806119738161317f565b9150506117d1565b60c9546000906001600160a01b031633146119a85760405162461bcd60e51b8152600401610693906131b0565b60c9546040516001600160a01b03909116904780156108fc02916000818181858888f193505050501580156119e1573d6000803e3d6000fd5b506001905090565b606060006119f660fb5490565b905060008167ffffffffffffffff811115611a1357611a13612d60565b604051908082528060200260200182016040528015611a4c57816020015b611a39612ba3565b815260200190600190039081611a315790505b50905060005b82811015611b7c57600061010181611a6b846001613167565b815260208082019290925260409081016000208151610120810183528154815260018201548185015260028201546001600160a01b039081168285015260038301548116606083015260048301541660808201526005820180548451818702810187019095528085529295509093859360a0860193909291830182828015611b1c57602002820191906000526020600020905b81546001600160a01b03168152600190910190602001808311611afe575b5050509183525050600682015460208201526007820154604082015260089091015460ff1615156060909101528351849084908110611b5d57611b5d61319a565b6020026020010181905250508080611b749061317f565b915050611a52565b5092915050565b610100546001600160a01b03163314611bae5760405162461bcd60e51b8152600401610693906131e5565b611bbc60fb80546001019055565b6000611bc760fb5490565b60408051610120810182528281526020808201878152338385019081526001600160a01b03888116606086810191825260006080880181815260a0890183815260c08a0183905260e08a018390526101008a018390528b8352610101895299909120885181559551600187015593516002860180549185166001600160a01b03199283161790559151600386018054918516918416919091179055925160048501805491909316911617905593518051959650939492939092611c909260058501920190612b3e565b5060c0820151600682015560e08201516007820155610100909101516008909101805460ff191691151591909117905550505050565b60c9546001600160a01b03163314611cf05760405162461bcd60e51b8152600401610693906131b0565b61010080546001600160a01b0319166001600160a01b0392909216919091179055565b610100546001600160a01b03163314611d785760405162461bcd60e51b815260206004820152602160248201527f4f6e6c79204e465420636f6e74726163742063616e2064656c657465204974656044820152606d60f81b6064820152608401610693565b600081815261010160205260408120818155600181018290556002810180546001600160a01b031990811690915560038201805482169055600482018054909116905590611dc96005830182612c0c565b506000600682018190556007820155600801805460ff1916905550565b600083815261010160205260409020600301546001600160a01b03163314611e5c5760405162461bcd60e51b8152602060048201526024808201527f6f6e6c79206f776e65722063616e207075742074686973206974656d206f6e2060448201526373616c6560e01b6064820152608401610693565b60fd543414611ed35760405162461bcd60e51b815260206004820152603860248201527f416d6f756e7420646f65736e2774206d656574206c697374696e67206665657360448201527f20726571756972656d656e747320282e303032356574682900000000000000006064820152608401610693565b6000838152610101602052604090819020600101549051632142170760e11b815233600482015230602482015260448101919091526001600160a01b038316906342842e0e90606401600060405180830381600087803b158015611f3657600080fd5b505af1158015611f4a573d6000803e3d6000fd5b50505050611f6060c9546001600160a01b031690565b6001600160a01b03166108fc349081150290604051600060405180830381858888f19350505050158015611f98573d6000803e3d6000fd5b506000928352610101602052604090922060088101805460ff191660011790556004810180546001600160a01b031916331790556006019190915550565b6000611fe26001612817565b90508015611ffa576000805461ff0019166101001790555b6608e1bc9bf0400060fd5560fc80546001600160a01b0319166001600160a01b0384161790556120286128a4565b80156109df576000805461ff0019169055604051600181527f7f26b83ff96e1f2b6a682f133852f6798a09c465da95921460cefb384740249890602001610c21565b6060600061207760fb5490565b90506000805b82811015612111576001600160a01b038516610101600061209f846001613167565b81526020810191909152604001600020600301546001600160a01b03161480156120ec575061010160006120d4836001613167565b815260208101919091526040016000206008015460ff165b156120ff57816120fb8161317f565b9250505b806121098161317f565b91505061207d565b5060008167ffffffffffffffff81111561212d5761212d612d60565b60405190808252806020026020018201604052801561216657816020015b612153612ba3565b81526020019060019003908161214b5790505b5090506000805b84811015610ed6576001600160a01b038716610101600061218f846001613167565b81526020810191909152604001600020600301546001600160a01b03161480156121dc575061010160006121c4836001613167565b815260208101919091526040016000206008015460ff165b156122ff576000610101816121f2846001613167565b815260208082019290925260409081016000208151610120810183528154815260018201548185015260028201546001600160a01b039081168285015260038301548116606083015260048301541660808201526005820180548451818702810187019095528085529295509093859360a08601939092918301828280156122a357602002820191906000526020600020905b81546001600160a01b03168152600190910190602001808311612285575b5050509183525050600682015460208201526007820154604082015260089091015460ff16151560609091015284518590859081106122e4576122e461319a565b602002602001018190525082806122fa9061317f565b935050505b806123098161317f565b91505061216d565b6060600061231e60fb5490565b90506000805b8281101561237d57610101600061233c836001613167565b815260208101919091526040016000206008015460ff1615156001141561236b57816123678161317f565b9250505b806123758161317f565b915050612324565b5060008167ffffffffffffffff81111561239957612399612d60565b6040519080825280602002602001820160405280156123d257816020015b6123bf612ba3565b8152602001906001900390816123b75790505b5090506000805b848110156125425761010160006123f1836001613167565b815260208101919091526040016000206008015460ff1615156001141561253057600061010181612423846001613167565b815260208082019290925260409081016000208151610120810183528154815260018201548185015260028201546001600160a01b039081168285015260038301548116606083015260048301541660808201526005820180548451818702810187019095528085529295509093859360a08601939092918301828280156124d457602002820191906000526020600020905b81546001600160a01b031681526001909101906020018083116124b6575b5050509183525050600682015460208201526007820154604082015260089091015460ff16151560609091015284518590859081106125155761251561319a565b6020026020010181905250828061252b9061317f565b935050505b8061253a8161317f565b9150506123d9565b5090949350505050565b60c9546001600160a01b031633146125765760405162461bcd60e51b8152600401610693906131b0565b60fc80546001600160a01b0319166001600160a01b0392909216919091179055565b60c9546001600160a01b031633146125c25760405162461bcd60e51b8152600401610693906131b0565b6001600160a01b0381166126275760405162461bcd60e51b815260206004820152602660248201527f4f776e61626c653a206e6577206f776e657220697320746865207a65726f206160448201526564647265737360d01b6064820152608401610693565b610730816127c5565b60c9546001600160a01b031633146107305760405162461bcd60e51b8152600401610693906131b0565b7f4910fdfa16fed3260ed0e7147f7cc6da11a60208b5b9406d12a635614ffd91435460ff161561268d57611684836128d3565b826001600160a01b03166352d1902d6040518163ffffffff1660e01b8152600401602060405180830381865afa9250505080156126e7575060408051601f3d908101601f191682019092526126e491810190613229565b60015b61274a5760405162461bcd60e51b815260206004820152602e60248201527f45524331393637557067726164653a206e657720696d706c656d656e7461746960448201526d6f6e206973206e6f74205555505360901b6064820152608401610693565b60008051602061335783398151915281146127b95760405162461bcd60e51b815260206004820152602960248201527f45524331393637557067726164653a20756e737570706f727465642070726f786044820152681a58589b195555525160ba1b6064820152608401610693565b5061168483838361296f565b60c980546001600160a01b038381166001600160a01b0319831681179093556040519116919082907f8be0079c531659141344cd1fd0a4f28419497f9722a3daafe3b4186f6b6457e090600090a35050565b60008054610100900460ff161561285e578160ff16600114801561283a5750303b155b6128565760405162461bcd60e51b815260040161069390613242565b506000919050565b60005460ff8084169116106128855760405162461bcd60e51b815260040161069390613242565b506000805460ff191660ff92909216919091179055600190565b919050565b600054610100900460ff166128cb5760405162461bcd60e51b815260040161069390613290565b6111fa61299a565b6001600160a01b0381163b6129405760405162461bcd60e51b815260206004820152602d60248201527f455243313936373a206e657720696d706c656d656e746174696f6e206973206e60448201526c1bdd08184818dbdb9d1c9858dd609a1b6064820152608401610693565b60008051602061335783398151915280546001600160a01b0319166001600160a01b0392909216919091179055565b612978836129ca565b6000825111806129855750805b15611684576129948383612a0a565b50505050565b600054610100900460ff166129c15760405162461bcd60e51b815260040161069390613290565b6111fa336127c5565b6129d3816128d3565b6040516001600160a01b038216907fbc7cd75a20ee27fd9adebab32041f755214dbc6bffa90cc0225b39da2e5c2d3b90600090a250565b60606001600160a01b0383163b612a725760405162461bcd60e51b815260206004820152602660248201527f416464726573733a2064656c65676174652063616c6c20746f206e6f6e2d636f6044820152651b9d1c9858dd60d21b6064820152608401610693565b600080846001600160a01b031684604051612a8d9190613307565b600060405180830381855af49150503d8060008114612ac8576040519150601f19603f3d011682016040523d82523d6000602084013e612acd565b606091505b5091509150612af5828260405180606001604052806027815260200161337760279139612afe565b95945050505050565b60608315612b0d575081612b37565b825115612b1d5782518084602001fd5b8160405162461bcd60e51b81526004016106939190613323565b9392505050565b828054828255906000526020600020908101928215612b93579160200282015b82811115612b9357825182546001600160a01b0319166001600160a01b03909116178255602090920191600190910190612b5e565b50612b9f929150612c26565b5090565b604051806101200160405280600081526020016000815260200160006001600160a01b0316815260200160006001600160a01b0316815260200160006001600160a01b031681526020016060815260200160008152602001600081526020016000151581525090565b508054600082559060005260206000209081019061073091905b5b80821115612b9f5760008155600101612c27565b6001600160a01b038116811461073057600080fd5b803561289f81612c3b565b600080600080600060808688031215612c7357600080fd5b8535612c7e81612c3b565b94506020860135612c8e81612c3b565b935060408601359250606086013567ffffffffffffffff80821115612cb257600080fd5b818801915088601f830112612cc657600080fd5b813581811115612cd557600080fd5b896020828501011115612ce757600080fd5b9699959850939650602001949392505050565b600060208284031215612d0c57600080fd5b5035919050565b600060208284031215612d2557600080fd5b8135612b3781612c3b565b60008060408385031215612d4357600080fd5b823591506020830135612d5581612c3b565b809150509250929050565b634e487b7160e01b600052604160045260246000fd5b604051601f8201601f1916810167ffffffffffffffff81118282101715612d9f57612d9f612d60565b604052919050565b60008060408385031215612dba57600080fd5b8235612dc581612c3b565b915060208381013567ffffffffffffffff80821115612de357600080fd5b818601915086601f830112612df757600080fd5b813581811115612e0957612e09612d60565b612e1b601f8201601f19168501612d76565b91508082528784828501011115612e3157600080fd5b80848401858401376000848284010152508093505050509250929050565b600081518084526020808501945080840160005b83811015612e885781516001600160a01b031687529582019590820190600101612e63565b509495945050505050565b60006020808301818452808551808352604092508286019150828160051b87010184880160005b83811015612f6557603f198984030185528151805184528781015188850152868101516001600160a01b03908116888601526060808301518216908601526080808301519091169085015260a0808201516101208287018190529190612f2283880182612e4f565b60c0858101519089015260e0808601519089015261010094850151801515868a0152949093509150612f519050565b509588019593505090860190600101612eba565b509098975050505050505050565b60008060408385031215612f8657600080fd5b823567ffffffffffffffff80821115612f9e57600080fd5b818501915085601f830112612fb257600080fd5b8135602082821115612fc657612fc6612d60565b8160051b9250612fd7818401612d76565b8281529284018101928181019089851115612ff157600080fd5b948201945b8486101561300f57853582529482019490820190612ff6565b965061301e9050878201612c50565b9450505050509250929050565b60008060006060848603121561304057600080fd5b83359250602084013561305281612c3b565b929592945050506040919091013590565b60008060006060848603121561307857600080fd5b8335925060208401359150604084013561309181612c3b565b809150509250925092565b6020808252602c908201527f46756e6374696f6e206d7573742062652063616c6c6564207468726f7567682060408201526b19195b1959d85d1958d85b1b60a21b606082015260800190565b6020808252602c908201527f46756e6374696f6e206d7573742062652063616c6c6564207468726f7567682060408201526b6163746976652070726f787960a01b606082015260800190565b60006020828403121561314657600080fd5b8151612b3781612c3b565b634e487b7160e01b600052601160045260246000fd5b6000821982111561317a5761317a613151565b500190565b600060001982141561319357613193613151565b5060010190565b634e487b7160e01b600052603260045260246000fd5b6020808252818101527f4f776e61626c653a2063616c6c6572206973206e6f7420746865206f776e6572604082015260600190565b60208082526024908201527f4f6e6c79204e465420436f6e74726163742063616e206c697374206e6577204960408201526374656d7360e01b606082015260800190565b60006020828403121561323b57600080fd5b5051919050565b6020808252602e908201527f496e697469616c697a61626c653a20636f6e747261637420697320616c72656160408201526d191e481a5b9a5d1a585b1a5e995960921b606082015260800190565b6020808252602b908201527f496e697469616c697a61626c653a20636f6e7472616374206973206e6f74206960408201526a6e697469616c697a696e6760a81b606082015260800190565b60005b838110156132f65781810151838201526020016132de565b838111156129945750506000910152565b600082516133198184602087016132db565b9190910192915050565b60208152600082518060208401526133428160408501602087016132db565b601f01601f1916919091016040019291505056fe360894a13ba1a3210667c828492db98dca3e2076cc3735a920a3ca505d382bbc416464726573733a206c6f772d6c6576656c2064656c65676174652063616c6c206661696c6564a264697066735822122096583e52c935ba0dd4c6c939275b44d5c913041ab530367b4f23fa65be41a47f64736f6c634300080a0033",
  "linkReferences": {},
  "deployedLinkReferences": {}
}