{
  "_format": "hh-sol-artifact-1",
  "contractName": "Tournament",
  "sourceName": "contracts/Tournament.sol",
  "abi": [
    {
      "inputs": [
        {
          "internalType": "address",
          "name": "_sport",
          "type": "address"
        },
        {
          "internalType": "address",
          "name": "lambdaOwner",
          "type": "address"
        },
        {
          "internalType": "string",
          "name": "lambdaName",
          "type": "string"
        }
      ],
      "stateMutability": "nonpayable",
      "type": "constructor"
    },
    {
      "anonymous": false,
      "inputs": [
        {
          "indexed": true,
          "internalType": "bytes32",
          "name": "role",
          "type": "bytes32"
        },
        {
          "indexed": true,
          "internalType": "bytes32",
          "name": "previousAdminRole",
          "type": "bytes32"
        },
        {
          "indexed": true,
          "internalType": "bytes32",
          "name": "newAdminRole",
          "type": "bytes32"
        }
      ],
      "name": "RoleAdminChanged",
      "type": "event"
    },
    {
      "anonymous": false,
      "inputs": [
        {
          "indexed": true,
          "internalType": "bytes32",
          "name": "role",
          "type": "bytes32"
        },
        {
          "indexed": true,
          "internalType": "address",
          "name": "account",
          "type": "address"
        },
        {
          "indexed": true,
          "internalType": "address",
          "name": "sender",
          "type": "address"
        }
      ],
      "name": "RoleGranted",
      "type": "event"
    },
    {
      "anonymous": false,
      "inputs": [
        {
          "indexed": true,
          "internalType": "bytes32",
          "name": "role",
          "type": "bytes32"
        },
        {
          "indexed": true,
          "internalType": "address",
          "name": "account",
          "type": "address"
        },
        {
          "indexed": true,
          "internalType": "address",
          "name": "sender",
          "type": "address"
        }
      ],
      "name": "RoleRevoked",
      "type": "event"
    },
    {
      "anonymous": false,
      "inputs": [
        {
          "indexed": false,
          "internalType": "uint256",
          "name": "id",
          "type": "uint256"
        },
        {
          "indexed": false,
          "internalType": "string",
          "name": "name",
          "type": "string"
        },
        {
          "indexed": false,
          "internalType": "uint256",
          "name": "startDate",
          "type": "uint256"
        }
      ],
      "name": "onCreation",
      "type": "event"
    },
    {
      "anonymous": false,
      "inputs": [
        {
          "indexed": false,
          "internalType": "uint256",
          "name": "id",
          "type": "uint256"
        },
        {
          "indexed": false,
          "internalType": "string",
          "name": "name",
          "type": "string"
        },
        {
          "indexed": false,
          "internalType": "address",
          "name": "player",
          "type": "address"
        }
      ],
      "name": "onEnterLobby",
      "type": "event"
    },
    {
      "anonymous": false,
      "inputs": [
        {
          "indexed": false,
          "internalType": "uint256",
          "name": "id",
          "type": "uint256"
        },
        {
          "indexed": false,
          "internalType": "string",
          "name": "name",
          "type": "string"
        },
        {
          "indexed": false,
          "internalType": "address",
          "name": "player",
          "type": "address"
        },
        {
          "indexed": false,
          "internalType": "uint256",
          "name": "amount",
          "type": "uint256"
        }
      ],
      "name": "onPlayGame",
      "type": "event"
    },
    {
      "anonymous": false,
      "inputs": [
        {
          "indexed": false,
          "internalType": "enum Tournament.statuses",
          "name": "status",
          "type": "uint8"
        }
      ],
      "name": "onTermination",
      "type": "event"
    },
    {
      "anonymous": false,
      "inputs": [
        {
          "indexed": false,
          "internalType": "uint256",
          "name": "id",
          "type": "uint256"
        },
        {
          "indexed": false,
          "internalType": "address",
          "name": "winner1",
          "type": "address"
        },
        {
          "indexed": false,
          "internalType": "address",
          "name": "winner2",
          "type": "address"
        },
        {
          "indexed": false,
          "internalType": "address",
          "name": "winner3",
          "type": "address"
        }
      ],
      "name": "onWinnerAnnouncement",
      "type": "event"
    },
    {
      "anonymous": false,
      "inputs": [
        {
          "indexed": false,
          "internalType": "uint256",
          "name": "amount",
          "type": "uint256"
        }
      ],
      "name": "onWithdrawal",
      "type": "event"
    },
    {
      "inputs": [],
      "name": "DEFAULT_ADMIN_ROLE",
      "outputs": [
        {
          "internalType": "bytes32",
          "name": "",
          "type": "bytes32"
        }
      ],
      "stateMutability": "view",
      "type": "function"
    },
    {
      "inputs": [],
      "name": "ERC712_VERSION",
      "outputs": [
        {
          "internalType": "string",
          "name": "",
          "type": "string"
        }
      ],
      "stateMutability": "view",
      "type": "function"
    },
    {
      "inputs": [],
      "name": "METAKEEP_LAMBDA_CANCEL_NONCE_TYPEHASH",
      "outputs": [
        {
          "internalType": "bytes32",
          "name": "",
          "type": "bytes32"
        }
      ],
      "stateMutability": "view",
      "type": "function"
    },
    {
      "inputs": [],
      "name": "METAKEEP_LAMBDA_OWNER_ROLE",
      "outputs": [
        {
          "internalType": "bytes32",
          "name": "",
          "type": "bytes32"
        }
      ],
      "stateMutability": "view",
      "type": "function"
    },
    {
      "inputs": [],
      "name": "METAKEEP_LAMBDA_TRANSACTION_TYPEHASH",
      "outputs": [
        {
          "internalType": "bytes32",
          "name": "",
          "type": "bytes32"
        }
      ],
      "stateMutability": "view",
      "type": "function"
    },
    {
      "inputs": [
        {
          "internalType": "uint256",
          "name": "id",
          "type": "uint256"
        },
        {
          "internalType": "address",
          "name": "winner1",
          "type": "address"
        },
        {
          "internalType": "address",
          "name": "winner2",
          "type": "address"
        },
        {
          "internalType": "address",
          "name": "winner3",
          "type": "address"
        }
      ],
      "name": "announceWinner",
      "outputs": [],
      "stateMutability": "nonpayable",
      "type": "function"
    },
    {
      "inputs": [
        {
          "internalType": "address",
          "name": "userAddress",
          "type": "address"
        },
        {
          "internalType": "uint256",
          "name": "nonce",
          "type": "uint256"
        },
        {
          "internalType": "bytes32",
          "name": "sigR",
          "type": "bytes32"
        },
        {
          "internalType": "bytes32",
          "name": "sigS",
          "type": "bytes32"
        },
        {
          "internalType": "uint8",
          "name": "sigV",
          "type": "uint8"
        }
      ],
      "name": "cancelMetaKeepLambdaNonce",
      "outputs": [],
      "stateMutability": "nonpayable",
      "type": "function"
    },
    {
      "inputs": [
        {
          "internalType": "address",
          "name": "creator",
          "type": "address"
        },
        {
          "internalType": "string",
          "name": "_name",
          "type": "string"
        },
        {
          "internalType": "uint256",
          "name": "_minNumOfPlayers",
          "type": "uint256"
        },
        {
          "internalType": "uint256",
          "name": "_maxNumOfPlayers",
          "type": "uint256"
        },
        {
          "internalType": "uint256",
          "name": "_entryFee",
          "type": "uint256"
        },
        {
          "internalType": "uint256",
          "name": "_startDate",
          "type": "uint256"
        },
        {
          "internalType": "uint256",
          "name": "_prize1",
          "type": "uint256"
        },
        {
          "internalType": "uint256",
          "name": "_prize2",
          "type": "uint256"
        },
        {
          "internalType": "uint256",
          "name": "_prize3",
          "type": "uint256"
        },
        {
          "internalType": "uint256",
          "name": "_prizeAmount",
          "type": "uint256"
        }
      ],
      "name": "createTournament",
      "outputs": [
        {
          "internalType": "uint256",
          "name": "",
          "type": "uint256"
        }
      ],
      "stateMutability": "nonpayable",
      "type": "function"
    },
    {
      "inputs": [],
      "name": "domainSeperator",
      "outputs": [
        {
          "internalType": "bytes32",
          "name": "",
          "type": "bytes32"
        }
      ],
      "stateMutability": "view",
      "type": "function"
    },
    {
      "inputs": [
        {
          "internalType": "uint256",
          "name": "id",
          "type": "uint256"
        },
        {
          "internalType": "address",
          "name": "player",
          "type": "address"
        }
      ],
      "name": "enterLobby",
      "outputs": [],
      "stateMutability": "nonpayable",
      "type": "function"
    },
    {
      "inputs": [
        {
          "internalType": "address",
          "name": "userAddress",
          "type": "address"
        },
        {
          "internalType": "uint256",
          "name": "nonce",
          "type": "uint256"
        },
        {
          "internalType": "uint256",
          "name": "validFrom",
          "type": "uint256"
        },
        {
          "internalType": "uint256",
          "name": "validUpto",
          "type": "uint256"
        },
        {
          "internalType": "bytes",
          "name": "functionSignature",
          "type": "bytes"
        },
        {
          "internalType": "bytes32",
          "name": "sigR",
          "type": "bytes32"
        },
        {
          "internalType": "bytes32",
          "name": "sigS",
          "type": "bytes32"
        },
        {
          "internalType": "uint8",
          "name": "sigV",
          "type": "uint8"
        }
      ],
      "name": "executeMetaKeepLambdaTransaction",
      "outputs": [
        {
          "internalType": "bool",
          "name": "",
          "type": "bool"
        }
      ],
      "stateMutability": "payable",
      "type": "function"
    },
    {
      "inputs": [],
      "name": "formatTournamentId",
      "outputs": [],
      "stateMutability": "nonpayable",
      "type": "function"
    },
    {
      "inputs": [],
      "name": "getCurrentId",
      "outputs": [
        {
          "internalType": "uint256",
          "name": "",
          "type": "uint256"
        }
      ],
      "stateMutability": "view",
      "type": "function"
    },
    {
      "inputs": [
        {
          "internalType": "uint256",
          "name": "id",
          "type": "uint256"
        },
        {
          "internalType": "address",
          "name": "player",
          "type": "address"
        }
      ],
      "name": "getIsExistPlayer",
      "outputs": [
        {
          "internalType": "bool",
          "name": "",
          "type": "bool"
        }
      ],
      "stateMutability": "view",
      "type": "function"
    },
    {
      "inputs": [
        {
          "internalType": "bytes32",
          "name": "role",
          "type": "bytes32"
        }
      ],
      "name": "getRoleAdmin",
      "outputs": [
        {
          "internalType": "bytes32",
          "name": "",
          "type": "bytes32"
        }
      ],
      "stateMutability": "view",
      "type": "function"
    },
    {
      "inputs": [
        {
          "internalType": "uint256",
          "name": "id",
          "type": "uint256"
        }
      ],
      "name": "getTournamentInfo",
      "outputs": [
        {
          "components": [
            {
              "internalType": "uint256",
              "name": "tournamentId",
              "type": "uint256"
            },
            {
              "internalType": "string",
              "name": "name",
              "type": "string"
            },
            {
              "internalType": "address",
              "name": "creator",
              "type": "address"
            },
            {
              "internalType": "uint256",
              "name": "minNumOfPlayers",
              "type": "uint256"
            },
            {
              "internalType": "uint256",
              "name": "maxNumOfPlayers",
              "type": "uint256"
            },
            {
              "internalType": "uint256",
              "name": "entryFee",
              "type": "uint256"
            },
            {
              "internalType": "uint256",
              "name": "startDate",
              "type": "uint256"
            },
            {
              "internalType": "address[]",
              "name": "playerList",
              "type": "address[]"
            },
            {
              "internalType": "uint256",
              "name": "prize1",
              "type": "uint256"
            },
            {
              "internalType": "uint256",
              "name": "prize2",
              "type": "uint256"
            },
            {
              "internalType": "uint256",
              "name": "prize3",
              "type": "uint256"
            },
            {
              "internalType": "uint256",
              "name": "prizeAmount",
              "type": "uint256"
            },
            {
              "internalType": "address",
              "name": "winner1",
              "type": "address"
            },
            {
              "internalType": "address",
              "name": "winner2",
              "type": "address"
            },
            {
              "internalType": "address",
              "name": "winner3",
              "type": "address"
            },
            {
              "internalType": "enum Tournament.statuses",
              "name": "status",
              "type": "uint8"
            }
          ],
          "internalType": "struct Tournament.TournamentInfo",
          "name": "",
          "type": "tuple"
        }
      ],
      "stateMutability": "view",
      "type": "function"
    },
    {
      "inputs": [
        {
          "internalType": "bytes32",
          "name": "role",
          "type": "bytes32"
        },
        {
          "internalType": "address",
          "name": "account",
          "type": "address"
        }
      ],
      "name": "grantRole",
      "outputs": [],
      "stateMutability": "nonpayable",
      "type": "function"
    },
    {
      "inputs": [
        {
          "internalType": "bytes32",
          "name": "role",
          "type": "bytes32"
        },
        {
          "internalType": "address",
          "name": "account",
          "type": "address"
        }
      ],
      "name": "hasRole",
      "outputs": [
        {
          "internalType": "bool",
          "name": "",
          "type": "bool"
        }
      ],
      "stateMutability": "view",
      "type": "function"
    },
    {
      "inputs": [
        {
          "internalType": "address",
          "name": "userAddress",
          "type": "address"
        },
        {
          "internalType": "uint256",
          "name": "nonce",
          "type": "uint256"
        }
      ],
      "name": "metaKeepLambdaNonceState",
      "outputs": [
        {
          "internalType": "bool",
          "name": "",
          "type": "bool"
        }
      ],
      "stateMutability": "view",
      "type": "function"
    },
    {
      "inputs": [
        {
          "internalType": "uint256",
          "name": "id",
          "type": "uint256"
        },
        {
          "internalType": "address",
          "name": "player",
          "type": "address"
        },
        {
          "internalType": "uint256",
          "name": "amount",
          "type": "uint256"
        }
      ],
      "name": "playGame",
      "outputs": [],
      "stateMutability": "nonpayable",
      "type": "function"
    },
    {
      "inputs": [
        {
          "internalType": "bytes32",
          "name": "role",
          "type": "bytes32"
        },
        {
          "internalType": "address",
          "name": "account",
          "type": "address"
        }
      ],
      "name": "renounceRole",
      "outputs": [],
      "stateMutability": "nonpayable",
      "type": "function"
    },
    {
      "inputs": [
        {
          "internalType": "bytes32",
          "name": "role",
          "type": "bytes32"
        },
        {
          "internalType": "address",
          "name": "account",
          "type": "address"
        }
      ],
      "name": "revokeRole",
      "outputs": [],
      "stateMutability": "nonpayable",
      "type": "function"
    },
    {
      "inputs": [
        {
          "internalType": "address",
          "name": "_sport",
          "type": "address"
        }
      ],
      "name": "setSportAddress",
      "outputs": [],
      "stateMutability": "nonpayable",
      "type": "function"
    },
    {
      "inputs": [],
      "name": "sport",
      "outputs": [
        {
          "internalType": "address",
          "name": "",
          "type": "address"
        }
      ],
      "stateMutability": "view",
      "type": "function"
    },
    {
      "inputs": [
        {
          "internalType": "bytes4",
          "name": "interfaceId",
          "type": "bytes4"
        }
      ],
      "name": "supportsInterface",
      "outputs": [
        {
          "internalType": "bool",
          "name": "",
          "type": "bool"
        }
      ],
      "stateMutability": "view",
      "type": "function"
    },
    {
      "inputs": [
        {
          "internalType": "address",
          "name": "creator",
          "type": "address"
        },
        {
          "internalType": "uint256",
          "name": "id",
          "type": "uint256"
        },
        {
          "internalType": "enum Tournament.statuses",
          "name": "newStatus",
          "type": "uint8"
        }
      ],
      "name": "terminate",
      "outputs": [],
      "stateMutability": "nonpayable",
      "type": "function"
    },
    {
      "inputs": [
        {
          "internalType": "address",
          "name": "to",
          "type": "address"
        }
      ],
      "name": "withdraw",
      "outputs": [],
      "stateMutability": "nonpayable",
      "type": "function"
    }
  ],
  "bytecode": "0x60806040523480156200001157600080fd5b5060405162003334380380620033348339810160408190526200003491620003db565b81818162000052600080516020620033148339815191528262000113565b6200006d600080516020620033148339815191528062000123565b5062000079816200016e565b5050600380546001600160a01b0319166001600160a01b03851690811790915560405163095ea7b360e01b8152306004820152670de0b6b3a7640000602482015263095ea7b3906044016020604051808303816000875af1158015620000e3573d6000803e3d6000fd5b505050506040513d601f19601f82011682018060405250810190620001099190620004df565b505050506200050a565b6200011f82826200028b565b5050565b600082815260208190526040808220600101805490849055905190918391839186917fbd79b86ffe0ab8e8776151514217cd7cacd52c909f66475c3af44e129f0b00ff9190a4505050565b60015415620001d85760405162461bcd60e51b815260206004820152602c60248201527f4d6574614b6565704c616d6264613a20446f6d61696e20736570657261746f7260448201526b08185b1c9958591e481cd95d60a21b606482015260840160405180910390fd5b6040518060800160405280604f8152602001620032c5604f913980516020918201208251838301206040805180820190915260018152603160f81b930192909252907fc89efdaa54c0f20c7adf612882df0950f5a951637e0307cdcb4c672f298b8bc6304660408051602081019690965285019390935260608401919091526001600160a01b0316608083015260a082015260c00160408051601f19818403018152919052805160209091012060015550565b6000828152602081815260408083206001600160a01b038516845290915290205460ff166200011f576000828152602081815260408083206001600160a01b03851684529091529020805460ff19166001179055620002e96200032d565b6001600160a01b0316816001600160a01b0316837f2f8788117e7eff1d82e926ec794901d17c78024a50270940304540a733656f0d60405160405180910390a45050565b6000620003446200034960201b62001c351760201c565b905090565b600033301415620003a257600080368080601f0160208091040260200160405190810160405280939291908181526020018383808284376000920191909152505050503601516001600160a01b03169150620003a59050565b50335b90565b80516001600160a01b0381168114620003c057600080fd5b919050565b634e487b7160e01b600052604160045260246000fd5b600080600060608486031215620003f157600080fd5b620003fc84620003a8565b925060206200040d818601620003a8565b60408601519093506001600160401b03808211156200042b57600080fd5b818701915087601f8301126200044057600080fd5b815181811115620004555762000455620003c5565b604051601f8201601f19908116603f01168101908382118183101715620004805762000480620003c5565b816040528281528a868487010111156200049957600080fd5b600093505b82841015620004bd57848401860151818501870152928501926200049e565b82841115620004cf5760008684830101525b8096505050505050509250925092565b600060208284031215620004f257600080fd5b815180151581146200050357600080fd5b9392505050565b612dab806200051a6000396000f3fe6080604052600436106101ac5760003560e01c806385324b63116100ec578063c59f72dd1161008a578063d547741f11610064578063d547741f1461053f578063e15848341461055f578063e97ff65e1461057f578063ebe9b0f21461059457600080fd5b8063c59f72dd146104dc578063cac766d2146104fc578063cb73ac561461052957600080fd5b806391d14854116100c657806391d1485414610443578063a217fddf14610487578063b8b0d43b1461049c578063c0dcaeeb146104bc57600080fd5b806385324b63146103ec578063883bffff1461040357806389bbe5381461042357600080fd5b8063285857ae116101595780633f5c0d3f116101335780633f5c0d3f1461034257806351cff8d91461037a57806365e015521461039a5780636c143862146103d757600080fd5b8063285857ae146102cc5780632f2ff15d1461030057806336568abe1461032257600080fd5b80631399b9a91161018a5780631399b9a914610243578063243ed11d14610289578063248a9ca31461029c57600080fd5b806301ffc9a7146101b15780630c1f5635146101e65780630f7e597014610209575b600080fd5b3480156101bd57600080fd5b506101d16101cc3660046123dd565b6105da565b60405190151581526020015b60405180910390f35b3480156101f257600080fd5b506101fb610611565b6040519081526020016101dd565b34801561021557600080fd5b50610236604051806040016040528060018152602001603160f81b81525081565b6040516101dd919061245f565b34801561024f57600080fd5b506101d161025e36600461248e565b60009182526004602090815260408084206001600160a01b0393909316845291905290205460ff1690565b6101d1610297366004612557565b610634565b3480156102a857600080fd5b506101fb6102b73660046125fa565b60009081526020819052604090206001015490565b3480156102d857600080fd5b506101fb7ff3a68b3f49a13367480fd7bc507b2776cef106fb7cff6b2af48f699790f7701481565b34801561030c57600080fd5b5061032061031b36600461248e565b610848565b005b34801561032e57600080fd5b5061032061033d36600461248e565b610872565b34801561034e57600080fd5b50600354610362906001600160a01b031681565b6040516001600160a01b0390911681526020016101dd565b34801561038657600080fd5b50610320610395366004612613565b61090e565b3480156103a657600080fd5b506103206103b5366004612613565b600380546001600160a01b0319166001600160a01b0392909216919091179055565b3480156103e357600080fd5b506101fb610a33565b3480156103f857600080fd5b506103206000600555565b34801561040f57600080fd5b5061032061041e36600461262e565b610a43565b34801561042f57600080fd5b506101fb61043e36600461267b565b610d19565b34801561044f57600080fd5b506101d161045e36600461248e565b6000918252602082815260408084206001600160a01b0393909316845291905290205460ff1690565b34801561049357600080fd5b506101fb600081565b3480156104a857600080fd5b506103206104b7366004612725565b610efb565b3480156104c857600080fd5b506103206104d7366004612769565b611207565b3480156104e857600080fd5b506103206104f73660046127b9565b6112fb565b34801561050857600080fd5b5061051c6105173660046125fa565b6116ba565b6040516101dd919061286a565b34801561053557600080fd5b506101fb60015481565b34801561054b57600080fd5b5061032061055a36600461248e565b6118c7565b34801561056b57600080fd5b5061032061057a36600461248e565b6118ec565b34801561058b57600080fd5b506101fb611c12565b3480156105a057600080fd5b506101d16105af36600461299c565b6001600160a01b03919091166000908152600260209081526040808320938352929052205460ff1690565b60006001600160e01b03198216637965db0b60e01b148061060b57506301ffc9a760e01b6001600160e01b03198316145b92915050565b604051806060016040528060358152602001612cb0603591398051906020012081565b600061064289898989611c92565b60006040518060a001604052808a81526020018981526020018881526020018b6001600160a01b0316815260200187815250905060006040518060a0016040528060718152602001612ce56071913980516020918201208351848301516040808701516060808901516080808b01518051908a01208551998a0198909852938801959095528601929092528401526001600160a01b031660a083015260c082015260e00160405160208183030381529060405280519060200120905061070b8b82888888611d78565b61075c5760405162461bcd60e51b815260206004820152601d60248201527f4d6574614b6565704c616d6264613a20536967206e6f74206d6174636800000060448201526064015b60405180910390fd5b6001600260008d6001600160a01b03166001600160a01b0316815260200190815260200160002060008c815260200190815260200160002060006101000a81548160ff021916908315150217905550600080306001600160a01b0316898e6040516020016107cb9291906129c6565b60408051601f19818403018152908290526107e5916129fd565b6000604051808303816000865af19150503d8060008114610822576040519150601f19603f3d011682016040523d82523d6000602084013e610827565b606091505b509150915081610838578060208201fd5b509b9a5050505050505050505050565b60008281526020819052604090206001015461086381611e90565b61086d8383611ea4565b505050565b61087a611f43565b6001600160a01b0316816001600160a01b0316146109005760405162461bcd60e51b815260206004820152602f60248201527f416363657373436f6e74726f6c3a2063616e206f6e6c792072656e6f756e636560448201527f20726f6c657320666f722073656c6600000000000000000000000000000000006064820152608401610753565b61090a8282611f4d565b5050565b61093a7ff3a68b3f49a13367480fd7bc507b2776cef106fb7cff6b2af48f699790f7701461045e611c35565b6109865760405162461bcd60e51b815260206004820152601960248201527f4d6574614b6565704c616d6264613a204e6f74206f776e6572000000000000006044820152606401610753565b60035460405163a9059cbb60e01b81526001600160a01b0383811660048301524760248301529091169063a9059cbb906044016020604051808303816000875af11580156109d8573d6000803e3d6000fd5b505050506040513d601f19601f820116820180604052508101906109fc9190612a19565b506040514781527f2014b360857edbb6a09193dd50730d00cbeb7abb1603c7896648648f3d2a9e749060200160405180910390a150565b6000610a3e60055490565b905090565b6000848152600660205260409020600e01548490600160a01b900460ff166001816004811115610a7557610a75612832565b1415610ad35760405162461bcd60e51b81526020600482015260396024820152600080516020612d5683398151915260448201527865642064756520746f206c61636b206f6620706c617965727360381b6064820152608401610753565b6002816004811115610ae757610ae7612832565b1480610b0457506003816004811115610b0257610b02612832565b145b15610b5b5760405162461bcd60e51b81526020600482015260336024820152600080516020612d5683398151915260448201527232b210313c903a34329037b933b0b734bd32b960691b6064820152608401610753565b6004816004811115610b6f57610b6f612832565b1415610bdf5760405162461bcd60e51b815260206004820152603960248201527f54686520746f75726e616d656e7420686173206265656e2066696e6973686564604482015278081dda5d1a081dda5b9b995c88185b9b9bdd5b98d95b595b9d603a1b6064820152608401610753565b610be7611f43565b6000878152600660205260409020600201546001600160a01b03908116911614610c5f5760405162461bcd60e51b8152602060048201526024808201527f5468652063726561746f722063616e206f6e6c7920616e6e6f7563652077696e6044820152633732b91760e11b6064820152608401610753565b600086815260066020908152604091829020600c810180546001600160a01b038a81166001600160a01b03199283168117909355600d840180548b8316931683179055600e909301805493891674ffffffffffffffffffffffffffffffffffffffffff199094168417600160a21b17905584518b81529384019190915282840152606082015290517f3f13eb63d138231c5d939375cfb9c9bf638b3a7dd67016ec40d0be4a1996b6679181900360800190a1505050505050565b6000610d29600580546001019055565b6000610d3460055490565b60008181526006602090815260409091208281558d51929350610d5f926001909101918e0190612293565b508b6006600083815260200190815260200160002060020160006101000a8154816001600160a01b0302191690836001600160a01b031602179055508960066000838152602001908152602001600020600301819055508860066000838152602001908152602001600020600401819055508760066000838152602001908152602001600020600501819055508660066000838152602001908152602001600020600601819055508560066000838152602001908152602001600020600801819055508460066000838152602001908152602001600020600901819055508360066000838152602001908152602001600020600a01819055508260066000838152602001908152602001600020600b0181905550600060066000838152602001908152602001600020600e0160146101000a81548160ff02191690836004811115610eac57610eac612832565b02179055507f56ac92efbe9a62e849db1ec7fc89505726b621322bbf11daba33464fbf47add5818c89604051610ee493929190612a3b565b60405180910390a19b9a5050505050505050505050565b6000828152600660205260409020600e01548290600160a01b900460ff166001816004811115610f2d57610f2d612832565b1415610f8b5760405162461bcd60e51b81526020600482015260396024820152600080516020612d5683398151915260448201527865642064756520746f206c61636b206f6620706c617965727360381b6064820152608401610753565b6002816004811115610f9f57610f9f612832565b1480610fbc57506003816004811115610fba57610fba612832565b145b156110135760405162461bcd60e51b81526020600482015260336024820152600080516020612d5683398151915260448201527232b210313c903a34329037b933b0b734bd32b960691b6064820152608401610753565b600481600481111561102757611027612832565b14156110975760405162461bcd60e51b815260206004820152603960248201527f54686520746f75726e616d656e7420686173206265656e2066696e6973686564604482015278081dda5d1a081dda5b9b995c88185b9b9bdd5b98d95b595b9d603a1b6064820152608401610753565b6000848152600660205260409020600201546001600160a01b038681169116146111135760405162461bcd60e51b815260206004820152602760248201527f5468652063726561746f722063616e206f6e6c792063616e63656c20746f75726044820152663730b6b2b73a1760c91b6064820152608401610753565b600283600481111561112757611127612832565b14806111445750600383600481111561114257611142612832565b145b6111905760405162461bcd60e51b815260206004820152601a60248201527f496e76616c6964207465726d696e6174696f6e207374617475730000000000006044820152606401610753565b6000848152600660205260409020600e01805484919060ff60a01b1916600160a01b8360048111156111c4576111c4612832565b02179055507f3945e68be7463f1eeec6db5ae60def425bfd5dfd727a01d29debadb624565d8c836040516111f89190612a64565b60405180910390a15050505050565b6112118585611fea565b6000604051806060016040528060358152602001612cb0603591398051602091820120604080519283019190915281018690526001600160a01b038716606082015260800160405160208183030381529060405280519060200120905061127b8682868686611d78565b6112c75760405162461bcd60e51b815260206004820152601d60248201527f4d6574614b6565704c616d6264613a20536967206e6f74206d617463680000006044820152606401610753565b5050506001600160a01b03909216600090815260026020908152604080832093835292905220805460ff1916600117905550565b6000838152600660205260409020600e01548390600160a01b900460ff16600181600481111561132d5761132d612832565b141561138b5760405162461bcd60e51b81526020600482015260396024820152600080516020612d5683398151915260448201527865642064756520746f206c61636b206f6620706c617965727360381b6064820152608401610753565b600281600481111561139f5761139f612832565b14806113bc575060038160048111156113ba576113ba612832565b145b156114135760405162461bcd60e51b81526020600482015260336024820152600080516020612d5683398151915260448201527232b210313c903a34329037b933b0b734bd32b960691b6064820152608401610753565b600481600481111561142757611427612832565b14156114975760405162461bcd60e51b815260206004820152603960248201527f54686520746f75726e616d656e7420686173206265656e2066696e6973686564604482015278081dda5d1a081dda5b9b995c88185b9b9bdd5b98d95b595b9d603a1b6064820152608401610753565b6000858152600660208190526040909120015442116114f85760405162461bcd60e51b815260206004820152601d60248201527f54686520746f75726e616d656e742069736e277420737461727465642e0000006044820152606401610753565b60008581526004602090815260408083206001600160a01b038816845290915290205460ff16151560011461156f5760405162461bcd60e51b815260206004820152601860248201527f596f7520617265206e6f7420696e20746865204c6f62627900000000000000006044820152606401610753565b60008581526006602052604090206005015483146115f55760405162461bcd60e51b815260206004820152603a60248201527f54686520616d6f756e7420796f75206465706f736974206973206e6f7420657160448201527f75616c20746f2074686520456e74727946656520616d6f756e740000000000006064820152608401610753565b6003546040516323b872dd60e01b81526001600160a01b03868116600483015230602483015260448201869052909116906323b872dd906064016020604051808303816000875af115801561164e573d6000803e3d6000fd5b505050506040513d601f19601f820116820180604052508101906116729190612a19565b506000858152600660205260409081902090517f754b8084eaf4849fe8680051b20f9617433ffccb04d81ad1d93df0fb8605bb4e916111f89188916001019088908890612b4d565b6116c2612317565b6006600083815260200190815260200160002060405180610200016040529081600082015481526020016001820180546116fb90612a72565b80601f016020809104026020016040519081016040528092919081815260200182805461172790612a72565b80156117745780601f1061174957610100808354040283529160200191611774565b820191906000526020600020905b81548152906001019060200180831161175757829003601f168201915b505050505081526020016002820160009054906101000a90046001600160a01b03166001600160a01b03166001600160a01b03168152602001600382015481526020016004820154815260200160058201548152602001600682015481526020016007820180548060200260200160405190810160405280929190818152602001828054801561182d57602002820191906000526020600020905b81546001600160a01b0316815260019091019060200180831161180f575b50505091835250506008820154602082015260098201546040820152600a8201546060820152600b8201546080820152600c8201546001600160a01b0390811660a0830152600d830154811660c0830152600e83015490811660e083015261010090910190600160a01b900460ff1660048111156118ad576118ad612832565b60048111156118be576118be612832565b90525092915050565b6000828152602081905260409020600101546118e281611e90565b61086d8383611f4d565b6000828152600660205260409020600e01548290600160a01b900460ff16600181600481111561191e5761191e612832565b141561197c5760405162461bcd60e51b81526020600482015260396024820152600080516020612d5683398151915260448201527865642064756520746f206c61636b206f6620706c617965727360381b6064820152608401610753565b600281600481111561199057611990612832565b14806119ad575060038160048111156119ab576119ab612832565b145b15611a045760405162461bcd60e51b81526020600482015260336024820152600080516020612d5683398151915260448201527232b210313c903a34329037b933b0b734bd32b960691b6064820152608401610753565b6004816004811115611a1857611a18612832565b1415611a885760405162461bcd60e51b815260206004820152603960248201527f54686520746f75726e616d656e7420686173206265656e2066696e6973686564604482015278081dda5d1a081dda5b9b995c88185b9b9bdd5b98d95b595b9d603a1b6064820152608401610753565b600084815260066020819052604090912001544211611ae95760405162461bcd60e51b815260206004820152601d60248201527f54686520746f75726e616d656e742069736e277420737461727465642e0000006044820152606401610753565b60008481526004602090815260408083206001600160a01b038716845290915290205460ff1615611b6b5760405162461bcd60e51b815260206004820152602660248201527f596f752061726520616c726561647920696e20746865206c697374206f6620706044820152656c617965727360d01b6064820152608401610753565b60008481526004602090815260408083206001600160a01b038716808552908352818420805460ff1916600190811790915588855260068452828520600781018054808401825590875294862090940180546001600160a01b03191690921790915592879052517f5ad6e563b9a560c486421a8184dd1f63feae28881048a853bd9ee54b7b11e50c92611c049288929101908790612b82565b60405180910390a150505050565b6040518060a0016040528060718152602001612ce5607191398051906020012081565b600033301415611c8c57600080368080601f0160208091040260200160405190810160405280939291908181526020018383808284376000920191909152505050503601516001600160a01b03169150611c8f9050565b50335b90565b814211611d075760405162461bcd60e51b815260206004820152602e60248201527f4d6574614b6565704c616d6264613a20417574686f72697a6174696f6e20697360448201527f206e6f742079657420676976656e0000000000000000000000000000000000006064820152608401610753565b804210611d685760405162461bcd60e51b815260206004820152602960248201527f4d6574614b6565704c616d6264613a20417574686f72697a6174696f6e2068616044820152681cc8195e1c1a5c995960ba1b6064820152608401610753565b611d728484611fea565b50505050565b60006001600160a01b038616611dd05760405162461bcd60e51b815260206004820152601e60248201527f4d6574614b6565704c616d6264613a20494e56414c49445f5349474e455200006044820152606401610753565b6001611e198660015460405161190160f01b6020820152602281019190915260428101829052600090606201604051602081830303815290604052805190602001209050919050565b6040805160008152602081018083529290925260ff851690820152606081018690526080810185905260a0016020604051602081039080840390855afa158015611e67573d6000803e3d6000fd5b505050602060405103516001600160a01b0316866001600160a01b031614905095945050505050565b611ea181611e9c611f43565b61205e565b50565b6000828152602081815260408083206001600160a01b038516845290915290205460ff1661090a576000828152602081815260408083206001600160a01b03851684529091529020805460ff19166001179055611eff611f43565b6001600160a01b0316816001600160a01b0316837f2f8788117e7eff1d82e926ec794901d17c78024a50270940304540a733656f0d60405160405180910390a45050565b6000610a3e611c35565b6000828152602081815260408083206001600160a01b038516845290915290205460ff161561090a576000828152602081815260408083206001600160a01b03851684529091529020805460ff19169055611fa6611f43565b6001600160a01b0316816001600160a01b0316837ff6391f5c32d9c69d2a47ea670b442974b53935d1edc7fd64eb21e047a839171b60405160405180910390a45050565b6001600160a01b038216600090815260026020908152604080832084845290915290205460ff161561090a5760405162461bcd60e51b815260206004820152601a60248201527f4d6574614b6565704c616d6264613a204e6f6e636520557365640000000000006044820152606401610753565b6000828152602081815260408083206001600160a01b038516845290915290205460ff1661090a5761208f816120d1565b61209a8360206120e3565b6040516020016120ab929190612bb4565b60408051601f198184030181529082905262461bcd60e51b82526107539160040161245f565b606061060b6001600160a01b03831660145b606060006120f2836002612c4b565b6120fd906002612c6a565b67ffffffffffffffff811115612115576121156124ba565b6040519080825280601f01601f19166020018201604052801561213f576020820181803683370190505b509050600360fc1b8160008151811061215a5761215a612c82565b60200101906001600160f81b031916908160001a905350600f60fb1b8160018151811061218957612189612c82565b60200101906001600160f81b031916908160001a90535060006121ad846002612c4b565b6121b8906001612c6a565b90505b600181111561223d577f303132333435363738396162636465660000000000000000000000000000000085600f16601081106121f9576121f9612c82565b1a60f81b82828151811061220f5761220f612c82565b60200101906001600160f81b031916908160001a90535060049490941c9361223681612c98565b90506121bb565b50831561228c5760405162461bcd60e51b815260206004820181905260248201527f537472696e67733a20686578206c656e67746820696e73756666696369656e746044820152606401610753565b9392505050565b82805461229f90612a72565b90600052602060002090601f0160209004810192826122c15760008555612307565b82601f106122da57805160ff1916838001178555612307565b82800160010185558215612307579182015b828111156123075782518255916020019190600101906122ec565b506123139291506123c8565b5090565b604051806102000160405280600081526020016060815260200160006001600160a01b0316815260200160008152602001600081526020016000815260200160008152602001606081526020016000815260200160008152602001600081526020016000815260200160006001600160a01b0316815260200160006001600160a01b0316815260200160006001600160a01b03168152602001600060048111156123c3576123c3612832565b905290565b5b8082111561231357600081556001016123c9565b6000602082840312156123ef57600080fd5b81356001600160e01b03198116811461228c57600080fd5b60005b8381101561242257818101518382015260200161240a565b83811115611d725750506000910152565b6000815180845261244b816020860160208601612407565b601f01601f19169290920160200192915050565b60208152600061228c6020830184612433565b80356001600160a01b038116811461248957600080fd5b919050565b600080604083850312156124a157600080fd5b823591506124b160208401612472565b90509250929050565b634e487b7160e01b600052604160045260246000fd5b600067ffffffffffffffff808411156124eb576124eb6124ba565b604051601f8501601f19908116603f01168101908282118183101715612513576125136124ba565b8160405280935085815286868601111561252c57600080fd5b858560208301376000602087830101525050509392505050565b803560ff8116811461248957600080fd5b600080600080600080600080610100898b03121561257457600080fd5b61257d89612472565b9750602089013596506040890135955060608901359450608089013567ffffffffffffffff8111156125ae57600080fd5b8901601f81018b136125bf57600080fd5b6125ce8b8235602084016124d0565b94505060a0890135925060c089013591506125eb60e08a01612546565b90509295985092959890939650565b60006020828403121561260c57600080fd5b5035919050565b60006020828403121561262557600080fd5b61228c82612472565b6000806000806080858703121561264457600080fd5b8435935061265460208601612472565b925061266260408601612472565b915061267060608601612472565b905092959194509250565b6000806000806000806000806000806101408b8d03121561269b57600080fd5b6126a48b612472565b995060208b013567ffffffffffffffff8111156126c057600080fd5b8b01601f81018d136126d157600080fd5b6126e08d8235602084016124d0565b9a9d9a9c505050506040890135986060810135986080820135985060a0820135975060c0820135965060e0820135955061010082013594506101209091013592509050565b60008060006060848603121561273a57600080fd5b61274384612472565b92506020840135915060408401356005811061275e57600080fd5b809150509250925092565b600080600080600060a0868803121561278157600080fd5b61278a86612472565b94506020860135935060408601359250606086013591506127ad60808701612546565b90509295509295909350565b6000806000606084860312156127ce57600080fd5b833592506127de60208501612472565b9150604084013590509250925092565b600081518084526020808501945080840160005b838110156128275781516001600160a01b031687529582019590820190600101612802565b509495945050505050565b634e487b7160e01b600052602160045260246000fd5b6005811061286657634e487b7160e01b600052602160045260246000fd5b9052565b602081528151602082015260006020830151610200806040850152612893610220850183612433565b915060408501516128af60608601826001600160a01b03169052565b5060608501516080850152608085015160a085015260a085015160c085015260c085015160e085015260e0850151610100601f1986850301818701526128f584836127ee565b908701516101208781019190915287015161014080880191909152870151610160808801919091528701516101808088019190915287015190935090506101a0612949818701836001600160a01b03169052565b86015190506101c0612965868201836001600160a01b03169052565b86015190506101e0612981868201836001600160a01b03169052565b860151905061299285830182612848565b5090949350505050565b600080604083850312156129af57600080fd5b6129b883612472565b946020939093013593505050565b600083516129d8818460208801612407565b60609390931b6bffffffffffffffffffffffff19169190920190815260140192915050565b60008251612a0f818460208701612407565b9190910192915050565b600060208284031215612a2b57600080fd5b8151801515811461228c57600080fd5b838152606060208201526000612a546060830185612433565b9050826040830152949350505050565b6020810161060b8284612848565b600181811c90821680612a8657607f821691505b60208210811415612aa757634e487b7160e01b600052602260045260246000fd5b50919050565b8054600090600181811c9080831680612ac757607f831692505b6020808410821415612ae957634e487b7160e01b600052602260045260246000fd5b83885260208801828015612b045760018114612b1557612b40565b60ff19871682528282019750612b40565b60008981526020902060005b87811015612b3a57815484820152908601908401612b21565b83019850505b5050505050505092915050565b848152608060208201526000612b666080830186612aad565b6001600160a01b03949094166040830152506060015292915050565b838152606060208201526000612b9b6060830185612aad565b90506001600160a01b0383166040830152949350505050565b7f416363657373436f6e74726f6c3a206163636f756e7420000000000000000000815260008351612bec816017850160208801612407565b7f206973206d697373696e6720726f6c65200000000000000000000000000000006017918401918201528351612c29816028840160208801612407565b01602801949350505050565b634e487b7160e01b600052601160045260246000fd5b6000816000190483118215151615612c6557612c65612c35565b500290565b60008219821115612c7d57612c7d612c35565b500190565b634e487b7160e01b600052603260045260246000fd5b600081612ca757612ca7612c35565b50600019019056fe4d6574614b6565704c616d62646143616e63656c4e6f6e63652875696e74323536206e6f6e63652c616464726573732066726f6d294d6574614b6565704c616d6264615472616e73616374696f6e2875696e74323536206e6f6e63652c75696e743235362076616c696446726f6d2c75696e743235362076616c69645570746f2c616464726573732066726f6d2c62797465732066756e6374696f6e5369676e61747572652954686520746f75726e616d656e7420686173206265656e207465726d696e6174a2646970667358221220dd4da5234b16a5863cf8945b356d5beeb7f5d17af21603d3993ac90f901b96df64736f6c634300080a0033454950373132446f6d61696e28737472696e67206e616d652c737472696e672076657273696f6e2c6164647265737320766572696679696e67436f6e74726163742c627974657333322073616c7429f3a68b3f49a13367480fd7bc507b2776cef106fb7cff6b2af48f699790f77014",
  "linkReferences": {},
  "deployedLinkReferences": {}
}