{
  "_format": "hh-sol-artifact-1",
  "contractName": "VersusX721",
  "sourceName": "contracts/VersusX721.sol",
  "abi": [
    {
      "inputs": [
        {
          "internalType": "string",
          "name": "name_",
          "type": "string"
        },
        {
          "internalType": "string",
          "name": "symbol_",
          "type": "string"
        },
        {
          "internalType": "address",
          "name": "_marketAddress",
          "type": "address"
        }
      ],
      "stateMutability": "nonpayable",
      "type": "constructor"
    },
    {
      "anonymous": false,
      "inputs": [
        {
          "indexed": true,
          "internalType": "address",
          "name": "owner",
          "type": "address"
        },
        {
          "indexed": true,
          "internalType": "address",
          "name": "approved",
          "type": "address"
        },
        {
          "indexed": true,
          "internalType": "uint256",
          "name": "tokenId",
          "type": "uint256"
        }
      ],
      "name": "Approval",
      "type": "event"
    },
    {
      "anonymous": false,
      "inputs": [
        {
          "indexed": true,
          "internalType": "address",
          "name": "owner",
          "type": "address"
        },
        {
          "indexed": true,
          "internalType": "address",
          "name": "operator",
          "type": "address"
        },
        {
          "indexed": false,
          "internalType": "bool",
          "name": "approved",
          "type": "bool"
        }
      ],
      "name": "ApprovalForAll",
      "type": "event"
    },
    {
      "anonymous": false,
      "inputs": [
        {
          "indexed": true,
          "internalType": "address",
          "name": "previousOwner",
          "type": "address"
        },
        {
          "indexed": true,
          "internalType": "address",
          "name": "newOwner",
          "type": "address"
        }
      ],
      "name": "OwnershipTransferred",
      "type": "event"
    },
    {
      "anonymous": false,
      "inputs": [
        {
          "indexed": false,
          "internalType": "address",
          "name": "owner",
          "type": "address"
        },
        {
          "indexed": false,
          "internalType": "uint256",
          "name": "tokenID",
          "type": "uint256"
        },
        {
          "indexed": false,
          "internalType": "string",
          "name": "tokenURI",
          "type": "string"
        }
      ],
      "name": "TokenUriUpdated",
      "type": "event"
    },
    {
      "anonymous": false,
      "inputs": [
        {
          "indexed": true,
          "internalType": "address",
          "name": "from",
          "type": "address"
        },
        {
          "indexed": true,
          "internalType": "address",
          "name": "to",
          "type": "address"
        },
        {
          "indexed": true,
          "internalType": "uint256",
          "name": "tokenId",
          "type": "uint256"
        }
      ],
      "name": "Transfer",
      "type": "event"
    },
    {
      "inputs": [
        {
          "internalType": "address",
          "name": "to",
          "type": "address"
        },
        {
          "internalType": "uint256",
          "name": "tokenId",
          "type": "uint256"
        }
      ],
      "name": "approve",
      "outputs": [],
      "stateMutability": "nonpayable",
      "type": "function"
    },
    {
      "inputs": [
        {
          "internalType": "address",
          "name": "owner",
          "type": "address"
        }
      ],
      "name": "balanceOf",
      "outputs": [
        {
          "internalType": "uint256",
          "name": "",
          "type": "uint256"
        }
      ],
      "stateMutability": "view",
      "type": "function"
    },
    {
      "inputs": [
        {
          "internalType": "string",
          "name": "uri",
          "type": "string"
        }
      ],
      "name": "createToken",
      "outputs": [
        {
          "internalType": "uint256",
          "name": "",
          "type": "uint256"
        }
      ],
      "stateMutability": "nonpayable",
      "type": "function"
    },
    {
      "inputs": [
        {
          "internalType": "address",
          "name": "to",
          "type": "address"
        },
        {
          "internalType": "string",
          "name": "uri",
          "type": "string"
        }
      ],
      "name": "createTokenToUser",
      "outputs": [
        {
          "internalType": "uint256",
          "name": "",
          "type": "uint256"
        }
      ],
      "stateMutability": "nonpayable",
      "type": "function"
    },
    {
      "inputs": [
        {
          "internalType": "uint256",
          "name": "tokenId",
          "type": "uint256"
        }
      ],
      "name": "getApproved",
      "outputs": [
        {
          "internalType": "address",
          "name": "",
          "type": "address"
        }
      ],
      "stateMutability": "view",
      "type": "function"
    },
    {
      "inputs": [
        {
          "internalType": "address",
          "name": "owner",
          "type": "address"
        },
        {
          "internalType": "address",
          "name": "operator",
          "type": "address"
        }
      ],
      "name": "isApprovedForAll",
      "outputs": [
        {
          "internalType": "bool",
          "name": "",
          "type": "bool"
        }
      ],
      "stateMutability": "view",
      "type": "function"
    },
    {
      "inputs": [],
      "name": "name",
      "outputs": [
        {
          "internalType": "string",
          "name": "",
          "type": "string"
        }
      ],
      "stateMutability": "view",
      "type": "function"
    },
    {
      "inputs": [],
      "name": "owner",
      "outputs": [
        {
          "internalType": "address",
          "name": "",
          "type": "address"
        }
      ],
      "stateMutability": "view",
      "type": "function"
    },
    {
      "inputs": [
        {
          "internalType": "uint256",
          "name": "tokenId",
          "type": "uint256"
        }
      ],
      "name": "ownerOf",
      "outputs": [
        {
          "internalType": "address",
          "name": "",
          "type": "address"
        }
      ],
      "stateMutability": "view",
      "type": "function"
    },
    {
      "inputs": [],
      "name": "renounceOwnership",
      "outputs": [],
      "stateMutability": "nonpayable",
      "type": "function"
    },
    {
      "inputs": [
        {
          "internalType": "address",
          "name": "from",
          "type": "address"
        },
        {
          "internalType": "address",
          "name": "to",
          "type": "address"
        },
        {
          "internalType": "uint256",
          "name": "tokenId",
          "type": "uint256"
        }
      ],
      "name": "safeTransferFrom",
      "outputs": [],
      "stateMutability": "nonpayable",
      "type": "function"
    },
    {
      "inputs": [
        {
          "internalType": "address",
          "name": "from",
          "type": "address"
        },
        {
          "internalType": "address",
          "name": "to",
          "type": "address"
        },
        {
          "internalType": "uint256",
          "name": "tokenId",
          "type": "uint256"
        },
        {
          "internalType": "bytes",
          "name": "data",
          "type": "bytes"
        }
      ],
      "name": "safeTransferFrom",
      "outputs": [],
      "stateMutability": "nonpayable",
      "type": "function"
    },
    {
      "inputs": [
        {
          "internalType": "address",
          "name": "operator",
          "type": "address"
        },
        {
          "internalType": "bool",
          "name": "approved",
          "type": "bool"
        }
      ],
      "name": "setApprovalForAll",
      "outputs": [],
      "stateMutability": "nonpayable",
      "type": "function"
    },
    {
      "inputs": [
        {
          "internalType": "address",
          "name": "_marketplaceAddress",
          "type": "address"
        }
      ],
      "name": "setMarketAddress",
      "outputs": [],
      "stateMutability": "nonpayable",
      "type": "function"
    },
    {
      "inputs": [
        {
          "internalType": "bytes4",
          "name": "interfaceId",
          "type": "bytes4"
        }
      ],
      "name": "supportsInterface",
      "outputs": [
        {
          "internalType": "bool",
          "name": "",
          "type": "bool"
        }
      ],
      "stateMutability": "view",
      "type": "function"
    },
    {
      "inputs": [],
      "name": "symbol",
      "outputs": [
        {
          "internalType": "string",
          "name": "",
          "type": "string"
        }
      ],
      "stateMutability": "view",
      "type": "function"
    },
    {
      "inputs": [
        {
          "internalType": "uint256",
          "name": "tokenId",
          "type": "uint256"
        }
      ],
      "name": "tokenURI",
      "outputs": [
        {
          "internalType": "string",
          "name": "",
          "type": "string"
        }
      ],
      "stateMutability": "view",
      "type": "function"
    },
    {
      "inputs": [
        {
          "internalType": "address",
          "name": "from",
          "type": "address"
        },
        {
          "internalType": "address",
          "name": "to",
          "type": "address"
        },
        {
          "internalType": "uint256",
          "name": "tokenId",
          "type": "uint256"
        }
      ],
      "name": "transferFrom",
      "outputs": [],
      "stateMutability": "nonpayable",
      "type": "function"
    },
    {
      "inputs": [
        {
          "internalType": "address",
          "name": "newOwner",
          "type": "address"
        }
      ],
      "name": "transferOwnership",
      "outputs": [],
      "stateMutability": "nonpayable",
      "type": "function"
    },
    {
      "inputs": [
        {
          "internalType": "address",
          "name": "tokenOwner",
          "type": "address"
        },
        {
          "internalType": "uint256",
          "name": "tokenId",
          "type": "uint256"
        },
        {
          "internalType": "string",
          "name": "_tokenURI",
          "type": "string"
        }
      ],
      "name": "updateTokenUri",
      "outputs": [],
      "stateMutability": "nonpayable",
      "type": "function"
    }
  ],
  "bytecode": "0x60806040523480156200001157600080fd5b5060405162001e1e38038062001e1e833981016040819052620000349162000272565b8251839083906200004d906000906020850190620000ff565b50805162000063906001906020840190620000ff565b505050620000806200007a620000a960201b60201c565b620000ad565b600980546001600160a01b0319166001600160a01b0392909216919091179055506200033c9050565b3390565b600780546001600160a01b038381166001600160a01b0319831681179093556040519116919082907f8be0079c531659141344cd1fd0a4f28419497f9722a3daafe3b4186f6b6457e090600090a35050565b8280546200010d90620002ff565b90600052602060002090601f0160209004810192826200013157600085556200017c565b82601f106200014c57805160ff19168380011785556200017c565b828001600101855582156200017c579182015b828111156200017c5782518255916020019190600101906200015f565b506200018a9291506200018e565b5090565b5b808211156200018a57600081556001016200018f565b634e487b7160e01b600052604160045260246000fd5b600082601f830112620001cd57600080fd5b81516001600160401b0380821115620001ea57620001ea620001a5565b604051601f8301601f19908116603f01168101908282118183101715620002155762000215620001a5565b816040528381526020925086838588010111156200023257600080fd5b600091505b8382101562000256578582018301518183018401529082019062000237565b83821115620002685760008385830101525b9695505050505050565b6000806000606084860312156200028857600080fd5b83516001600160401b0380821115620002a057600080fd5b620002ae87838801620001bb565b94506020860151915080821115620002c557600080fd5b50620002d486828701620001bb565b604086015190935090506001600160a01b0381168114620002f457600080fd5b809150509250925092565b600181811c908216806200031457607f821691505b602082108114156200033657634e487b7160e01b600052602260045260246000fd5b50919050565b611ad2806200034c6000396000f3fe608060405234801561001057600080fd5b506004361061012c5760003560e01c80638da5cb5b116100ad578063c87b56dd11610071578063c87b56dd14610275578063e0ce48b314610288578063e985e9c51461029b578063f2fde38b146102d7578063fae92612146102ea57600080fd5b80638da5cb5b1461022357806395d89b4114610234578063a22cb4651461023c578063b88d4fde1461024f578063bcada6cc1461026257600080fd5b806342842e0e116100f457806342842e0e146101c157806345576f94146101d45780636352211e146101f557806370a0823114610208578063715018a61461021b57600080fd5b806301ffc9a71461013157806306fdde0314610159578063081812fc1461016e578063095ea7b31461019957806323b872dd146101ae575b600080fd5b61014461013f3660046115fe565b6102fd565b60405190151581526020015b60405180910390f35b61016161034f565b6040516101509190611673565b61018161017c366004611686565b6103e1565b6040516001600160a01b039091168152602001610150565b6101ac6101a73660046116b6565b610408565b005b6101ac6101bc3660046116e0565b610523565b6101ac6101cf3660046116e0565b61059a565b6101e76101e23660046117c8565b6105b5565b604051908152602001610150565b610181610203366004611686565b61060d565b6101e76102163660046117fd565b610672565b6101ac6106f8565b6007546001600160a01b0316610181565b61016161070c565b6101ac61024a366004611818565b61071b565b6101ac61025d366004611854565b61072a565b6101e76102703660046118d0565b6107a8565b610161610283366004611686565b6107ff565b6101ac61029636600461191e565b610910565b6101446102a9366004611975565b6001600160a01b03918216600090815260056020908152604080832093909416825291909152205460ff1690565b6101ac6102e53660046117fd565b610a07565b6101ac6102f83660046117fd565b610a80565b60006001600160e01b031982166380ac58cd60e01b148061032e57506001600160e01b03198216635b5e139f60e01b145b8061034957506301ffc9a760e01b6001600160e01b03198316145b92915050565b60606000805461035e906119a8565b80601f016020809104026020016040519081016040528092919081815260200182805461038a906119a8565b80156103d75780601f106103ac576101008083540402835291602001916103d7565b820191906000526020600020905b8154815290600101906020018083116103ba57829003601f168201915b5050505050905090565b60006103ec82610aaa565b506000908152600460205260409020546001600160a01b031690565b60006104138261060d565b9050806001600160a01b0316836001600160a01b031614156104865760405162461bcd60e51b815260206004820152602160248201527f4552433732313a20617070726f76616c20746f2063757272656e74206f776e656044820152603960f91b60648201526084015b60405180910390fd5b336001600160a01b03821614806104a257506104a281336102a9565b6105145760405162461bcd60e51b815260206004820152603d60248201527f4552433732313a20617070726f76652063616c6c6572206973206e6f7420746f60448201527f6b656e206f776e6572206f7220617070726f76656420666f7220616c6c000000606482015260840161047d565b61051e8383610b0e565b505050565b61052d3382610b7c565b61058f5760405162461bcd60e51b815260206004820152602d60248201527f4552433732313a2063616c6c6572206973206e6f7420746f6b656e206f776e6560448201526c1c881bdc88185c1c1c9bdd9959609a1b606482015260840161047d565b61051e838383610bfa565b61051e8383836040518060200160405280600081525061072a565b60006105bf610dda565b6105cd600880546001019055565b60006105d860085490565b90506105e43382610e34565b6105ee8184610fbf565b600954610605906001600160a01b0316600161071b565b90505b919050565b6000818152600260205260408120546001600160a01b0316806106055760405162461bcd60e51b815260206004820152601860248201527f4552433732313a20696e76616c696420746f6b656e2049440000000000000000604482015260640161047d565b60006001600160a01b0382166106dc5760405162461bcd60e51b815260206004820152602960248201527f4552433732313a2061646472657373207a65726f206973206e6f7420612076616044820152683634b21037bbb732b960b91b606482015260840161047d565b506001600160a01b031660009081526003602052604090205490565b610700610dda565b61070a6000611068565b565b60606001805461035e906119a8565b6107263383836110ba565b5050565b6107343383610b7c565b6107965760405162461bcd60e51b815260206004820152602d60248201527f4552433732313a2063616c6c6572206973206e6f7420746f6b656e206f776e6560448201526c1c881bdc88185c1c1c9bdd9959609a1b606482015260840161047d565b6107a284848484611189565b50505050565b60006107b2610dda565b6107c0600880546001019055565b60006107cb60085490565b90506107d78482610e34565b6107e18184610fbf565b6009546107f8906001600160a01b0316600161071b565b9392505050565b606061080a82610aaa565b60008281526006602052604081208054610823906119a8565b80601f016020809104026020016040519081016040528092919081815260200182805461084f906119a8565b801561089c5780601f106108715761010080835404028352916020019161089c565b820191906000526020600020905b81548152906001019060200180831161087f57829003601f168201915b5050505050905060006108ba60408051602081019091526000815290565b90508051600014156108cd575092915050565b8151156108ff5780826040516020016108e79291906119e3565b60405160208183030381529060405292505050919050565b61090884611207565b949350505050565b610918610dda565b6109218261060d565b6001600160a01b0316836001600160a01b0316146109bd5760405162461bcd60e51b815260206004820152604d60248201527f4d6573736167652073656e646572206973206e6f74206f776e6572206f66207460448201527f6f6b656e2e204f6e6c79206f776e65722063616e20757064617465207468652060648201526c2aa9249037b3103a37b5b2b71760991b608482015260a40161047d565b6109c78282610fbf565b7fa2a005d89293f74f02821cfa9d27ac0f97316b75df160545307ba9b948aa8a238383836040516109fa93929190611a12565b60405180910390a1505050565b610a0f610dda565b6001600160a01b038116610a745760405162461bcd60e51b815260206004820152602660248201527f4f776e61626c653a206e6577206f776e657220697320746865207a65726f206160448201526564647265737360d01b606482015260840161047d565b610a7d81611068565b50565b610a88610dda565b600980546001600160a01b0319166001600160a01b0392909216919091179055565b6000818152600260205260409020546001600160a01b0316610a7d5760405162461bcd60e51b815260206004820152601860248201527f4552433732313a20696e76616c696420746f6b656e2049440000000000000000604482015260640161047d565b600081815260046020526040902080546001600160a01b0319166001600160a01b0384169081179091558190610b438261060d565b6001600160a01b03167f8c5be1e5ebec7d5bd14f71427d1e84f3dd0314c0f7b2291e5b200ac8c7c3b92560405160405180910390a45050565b600080610b888361060d565b9050806001600160a01b0316846001600160a01b03161480610bcf57506001600160a01b0380821660009081526005602090815260408083209388168352929052205460ff165b806109085750836001600160a01b0316610be8846103e1565b6001600160a01b031614949350505050565b826001600160a01b0316610c0d8261060d565b6001600160a01b031614610c715760405162461bcd60e51b815260206004820152602560248201527f4552433732313a207472616e736665722066726f6d20696e636f72726563742060448201526437bbb732b960d91b606482015260840161047d565b6001600160a01b038216610cd35760405162461bcd60e51b8152602060048201526024808201527f4552433732313a207472616e7366657220746f20746865207a65726f206164646044820152637265737360e01b606482015260840161047d565b826001600160a01b0316610ce68261060d565b6001600160a01b031614610d4a5760405162461bcd60e51b815260206004820152602560248201527f4552433732313a207472616e736665722066726f6d20696e636f72726563742060448201526437bbb732b960d91b606482015260840161047d565b600081815260046020908152604080832080546001600160a01b03199081169091556001600160a01b0387811680865260038552838620805460001901905590871680865283862080546001019055868652600290945282852080549092168417909155905184937fddf252ad1be2c89b69c2b068fc378daa952ba7f163c4a11628f55a4df523b3ef91a4505050565b6007546001600160a01b0316331461070a5760405162461bcd60e51b815260206004820181905260248201527f4f776e61626c653a2063616c6c6572206973206e6f7420746865206f776e6572604482015260640161047d565b6001600160a01b038216610e8a5760405162461bcd60e51b815260206004820181905260248201527f4552433732313a206d696e7420746f20746865207a65726f2061646472657373604482015260640161047d565b6000818152600260205260409020546001600160a01b031615610eef5760405162461bcd60e51b815260206004820152601c60248201527f4552433732313a20746f6b656e20616c7265616479206d696e74656400000000604482015260640161047d565b6000818152600260205260409020546001600160a01b031615610f545760405162461bcd60e51b815260206004820152601c60248201527f4552433732313a20746f6b656e20616c7265616479206d696e74656400000000604482015260640161047d565b6001600160a01b038216600081815260036020908152604080832080546001019055848352600290915280822080546001600160a01b0319168417905551839291907fddf252ad1be2c89b69c2b068fc378daa952ba7f163c4a11628f55a4df523b3ef908290a45050565b6000828152600260205260409020546001600160a01b03166110495760405162461bcd60e51b815260206004820152602e60248201527f45524337323155524953746f726167653a2055524920736574206f66206e6f6e60448201527f6578697374656e7420746f6b656e000000000000000000000000000000000000606482015260840161047d565b6000828152600660209081526040909120825161051e9284019061154f565b600780546001600160a01b038381166001600160a01b0319831681179093556040519116919082907f8be0079c531659141344cd1fd0a4f28419497f9722a3daafe3b4186f6b6457e090600090a35050565b816001600160a01b0316836001600160a01b0316141561111c5760405162461bcd60e51b815260206004820152601960248201527f4552433732313a20617070726f766520746f2063616c6c657200000000000000604482015260640161047d565b6001600160a01b03838116600081815260056020908152604080832094871680845294825291829020805460ff191686151590811790915591519182527f17307eab39ab6107e8899845ad3d59bd9653f200f220920489ca2b5937696c31910160405180910390a3505050565b611194848484610bfa565b6111a08484848461127a565b6107a25760405162461bcd60e51b815260206004820152603260248201527f4552433732313a207472616e7366657220746f206e6f6e20455243373231526560448201527131b2b4bb32b91034b6b83632b6b2b73a32b960711b606482015260840161047d565b606061121282610aaa565b600061122960408051602081019091526000815290565b9050600081511161124957604051806020016040528060008152506107f8565b80611253846113c3565b6040516020016112649291906119e3565b6040516020818303038152906040529392505050565b60006001600160a01b0384163b156113b857604051630a85bd0160e11b81526001600160a01b0385169063150b7a02906112be903390899088908890600401611a43565b6020604051808303816000875af19250505080156112f9575060408051601f3d908101601f191682019092526112f691810190611a7f565b60015b61139e573d808015611327576040519150601f19603f3d011682016040523d82523d6000602084013e61132c565b606091505b5080516113965760405162461bcd60e51b815260206004820152603260248201527f4552433732313a207472616e7366657220746f206e6f6e20455243373231526560448201527131b2b4bb32b91034b6b83632b6b2b73a32b960711b606482015260840161047d565b805181602001fd5b6001600160e01b031916630a85bd0160e11b149050610908565b506001949350505050565b606060006113d08361146d565b600101905060008167ffffffffffffffff8111156113f0576113f061171c565b6040519080825280601f01601f19166020018201604052801561141a576020820181803683370190505b5090508181016020015b600019017f3031323334353637383961626364656600000000000000000000000000000000600a86061a8153600a850494508461146057611465565b611424565b509392505050565b6000807a184f03e93ff9f4daa797ed6e38ed64bf6a1f01000000000000000083106114b6577a184f03e93ff9f4daa797ed6e38ed64bf6a1f010000000000000000830492506040015b6d04ee2d6d415b85acef810000000083106114e2576d04ee2d6d415b85acef8100000000830492506020015b662386f26fc10000831061150057662386f26fc10000830492506010015b6305f5e1008310611518576305f5e100830492506008015b612710831061152c57612710830492506004015b6064831061153e576064830492506002015b600a83106106055760010192915050565b82805461155b906119a8565b90600052602060002090601f01602090048101928261157d57600085556115c3565b82601f1061159657805160ff19168380011785556115c3565b828001600101855582156115c3579182015b828111156115c35782518255916020019190600101906115a8565b506115cf9291506115d3565b5090565b5b808211156115cf57600081556001016115d4565b6001600160e01b031981168114610a7d57600080fd5b60006020828403121561161057600080fd5b81356107f8816115e8565b60005b8381101561163657818101518382015260200161161e565b838111156107a25750506000910152565b6000815180845261165f81602086016020860161161b565b601f01601f19169290920160200192915050565b6020815260006107f86020830184611647565b60006020828403121561169857600080fd5b5035919050565b80356001600160a01b038116811461060857600080fd5b600080604083850312156116c957600080fd5b6116d28361169f565b946020939093013593505050565b6000806000606084860312156116f557600080fd5b6116fe8461169f565b925061170c6020850161169f565b9150604084013590509250925092565b634e487b7160e01b600052604160045260246000fd5b600067ffffffffffffffff8084111561174d5761174d61171c565b604051601f8501601f19908116603f011681019082821181831017156117755761177561171c565b8160405280935085815286868601111561178e57600080fd5b858560208301376000602087830101525050509392505050565b600082601f8301126117b957600080fd5b6107f883833560208501611732565b6000602082840312156117da57600080fd5b813567ffffffffffffffff8111156117f157600080fd5b610908848285016117a8565b60006020828403121561180f57600080fd5b6107f88261169f565b6000806040838503121561182b57600080fd5b6118348361169f565b91506020830135801515811461184957600080fd5b809150509250929050565b6000806000806080858703121561186a57600080fd5b6118738561169f565b93506118816020860161169f565b925060408501359150606085013567ffffffffffffffff8111156118a457600080fd5b8501601f810187136118b557600080fd5b6118c487823560208401611732565b91505092959194509250565b600080604083850312156118e357600080fd5b6118ec8361169f565b9150602083013567ffffffffffffffff81111561190857600080fd5b611914858286016117a8565b9150509250929050565b60008060006060848603121561193357600080fd5b61193c8461169f565b925060208401359150604084013567ffffffffffffffff81111561195f57600080fd5b61196b868287016117a8565b9150509250925092565b6000806040838503121561198857600080fd5b6119918361169f565b915061199f6020840161169f565b90509250929050565b600181811c908216806119bc57607f821691505b602082108114156119dd57634e487b7160e01b600052602260045260246000fd5b50919050565b600083516119f581846020880161161b565b835190830190611a0981836020880161161b565b01949350505050565b6001600160a01b0384168152826020820152606060408201526000611a3a6060830184611647565b95945050505050565b60006001600160a01b03808716835280861660208401525083604083015260806060830152611a756080830184611647565b9695505050505050565b600060208284031215611a9157600080fd5b81516107f8816115e856fea2646970667358221220135b8888ef87b1841311600367d6c80280c16553e49aa82a85ad3f76f16a29d964736f6c634300080a0033",
  "linkReferences": {},
  "deployedLinkReferences": {}
}