{
  "_format": "hh-sol-artifact-1",
  "contractName": "VersusXMarket",
  "sourceName": "contracts/VersusXMarket.sol",
  "abi": [
    {
      "anonymous": false,
      "inputs": [
        {
          "indexed": false,
          "internalType": "address",
          "name": "previousAdmin",
          "type": "address"
        },
        {
          "indexed": false,
          "internalType": "address",
          "name": "newAdmin",
          "type": "address"
        }
      ],
      "name": "AdminChanged",
      "type": "event"
    },
    {
      "anonymous": false,
      "inputs": [
        {
          "indexed": true,
          "internalType": "address",
          "name": "beacon",
          "type": "address"
        }
      ],
      "name": "BeaconUpgraded",
      "type": "event"
    },
    {
      "anonymous": false,
      "inputs": [
        {
          "indexed": false,
          "internalType": "uint8",
          "name": "version",
          "type": "uint8"
        }
      ],
      "name": "Initialized",
      "type": "event"
    },
    {
      "anonymous": false,
      "inputs": [
        {
          "indexed": false,
          "internalType": "address",
          "name": "_from",
          "type": "address"
        },
        {
          "indexed": false,
          "internalType": "address",
          "name": "to",
          "type": "address"
        },
        {
          "indexed": false,
          "internalType": "uint256",
          "name": "ItemID",
          "type": "uint256"
        },
        {
          "indexed": false,
          "internalType": "uint256",
          "name": "TokenID",
          "type": "uint256"
        }
      ],
      "name": "MarketItemChanged",
      "type": "event"
    },
    {
      "anonymous": false,
      "inputs": [
        {
          "indexed": true,
          "internalType": "address",
          "name": "previousOwner",
          "type": "address"
        },
        {
          "indexed": true,
          "internalType": "address",
          "name": "newOwner",
          "type": "address"
        }
      ],
      "name": "OwnershipTransferred",
      "type": "event"
    },
    {
      "anonymous": false,
      "inputs": [
        {
          "indexed": true,
          "internalType": "address",
          "name": "implementation",
          "type": "address"
        }
      ],
      "name": "Upgraded",
      "type": "event"
    },
    {
      "anonymous": false,
      "inputs": [
        {
          "indexed": false,
          "internalType": "contract VersusX1155",
          "name": "newNFT",
          "type": "address"
        }
      ],
      "name": "VersusX1155Created",
      "type": "event"
    },
    {
      "anonymous": false,
      "inputs": [
        {
          "indexed": false,
          "internalType": "contract VersusX721",
          "name": "newNFT",
          "type": "address"
        }
      ],
      "name": "VersusX721Created",
      "type": "event"
    },
    {
      "inputs": [
        {
          "internalType": "uint256",
          "name": "nftType",
          "type": "uint256"
        },
        {
          "internalType": "string",
          "name": "name",
          "type": "string"
        },
        {
          "internalType": "string",
          "name": "symbol",
          "type": "string"
        }
      ],
      "name": "addCollection",
      "outputs": [],
      "stateMutability": "nonpayable",
      "type": "function"
    },
    {
      "inputs": [
        {
          "internalType": "uint256",
          "name": "amount",
          "type": "uint256"
        }
      ],
      "name": "calcEarnedFeeAmounts",
      "outputs": [],
      "stateMutability": "nonpayable",
      "type": "function"
    },
    {
      "inputs": [
        {
          "internalType": "uint256",
          "name": "itemId",
          "type": "uint256"
        }
      ],
      "name": "deleteMarketItem",
      "outputs": [],
      "stateMutability": "nonpayable",
      "type": "function"
    },
    {
      "inputs": [
        {
          "internalType": "address",
          "name": "_nftAddr",
          "type": "address"
        }
      ],
      "name": "fetchMarketItems",
      "outputs": [
        {
          "components": [
            {
              "internalType": "uint256",
              "name": "itemId",
              "type": "uint256"
            },
            {
              "internalType": "uint256",
              "name": "tokenId",
              "type": "uint256"
            },
            {
              "internalType": "uint256",
              "name": "nftType",
              "type": "uint256"
            },
            {
              "internalType": "address",
              "name": "nftContract",
              "type": "address"
            },
            {
              "internalType": "address payable",
              "name": "seller",
              "type": "address"
            },
            {
              "internalType": "address payable",
              "name": "owner",
              "type": "address"
            },
            {
              "internalType": "uint256",
              "name": "price",
              "type": "uint256"
            },
            {
              "internalType": "bool",
              "name": "sold",
              "type": "bool"
            }
          ],
          "internalType": "struct VersusXMarket.MarketItem[]",
          "name": "",
          "type": "tuple[]"
        }
      ],
      "stateMutability": "view",
      "type": "function"
    },
    {
      "inputs": [],
      "name": "getListingPrice",
      "outputs": [
        {
          "internalType": "uint256",
          "name": "",
          "type": "uint256"
        }
      ],
      "stateMutability": "view",
      "type": "function"
    },
    {
      "inputs": [],
      "name": "initialize",
      "outputs": [],
      "stateMutability": "nonpayable",
      "type": "function"
    },
    {
      "inputs": [
        {
          "internalType": "uint256",
          "name": "itemId",
          "type": "uint256"
        }
      ],
      "name": "listItemCancelOnSale",
      "outputs": [],
      "stateMutability": "nonpayable",
      "type": "function"
    },
    {
      "inputs": [
        {
          "internalType": "uint256",
          "name": "tokenId",
          "type": "uint256"
        },
        {
          "internalType": "uint256",
          "name": "nftType",
          "type": "uint256"
        },
        {
          "internalType": "address",
          "name": "nftContract",
          "type": "address"
        },
        {
          "internalType": "uint256",
          "name": "price",
          "type": "uint256"
        }
      ],
      "name": "listItemOnSale",
      "outputs": [],
      "stateMutability": "payable",
      "type": "function"
    },
    {
      "inputs": [
        {
          "internalType": "address",
          "name": "",
          "type": "address"
        },
        {
          "internalType": "address",
          "name": "",
          "type": "address"
        },
        {
          "internalType": "uint256[]",
          "name": "",
          "type": "uint256[]"
        },
        {
          "internalType": "uint256[]",
          "name": "",
          "type": "uint256[]"
        },
        {
          "internalType": "bytes",
          "name": "",
          "type": "bytes"
        }
      ],
      "name": "onERC1155BatchReceived",
      "outputs": [
        {
          "internalType": "bytes4",
          "name": "",
          "type": "bytes4"
        }
      ],
      "stateMutability": "nonpayable",
      "type": "function"
    },
    {
      "inputs": [
        {
          "internalType": "address",
          "name": "",
          "type": "address"
        },
        {
          "internalType": "address",
          "name": "",
          "type": "address"
        },
        {
          "internalType": "uint256",
          "name": "",
          "type": "uint256"
        },
        {
          "internalType": "uint256",
          "name": "",
          "type": "uint256"
        },
        {
          "internalType": "bytes",
          "name": "",
          "type": "bytes"
        }
      ],
      "name": "onERC1155Received",
      "outputs": [
        {
          "internalType": "bytes4",
          "name": "",
          "type": "bytes4"
        }
      ],
      "stateMutability": "nonpayable",
      "type": "function"
    },
    {
      "inputs": [
        {
          "internalType": "address",
          "name": "",
          "type": "address"
        },
        {
          "internalType": "address",
          "name": "",
          "type": "address"
        },
        {
          "internalType": "uint256",
          "name": "",
          "type": "uint256"
        },
        {
          "internalType": "bytes",
          "name": "",
          "type": "bytes"
        }
      ],
      "name": "onERC721Received",
      "outputs": [
        {
          "internalType": "bytes4",
          "name": "",
          "type": "bytes4"
        }
      ],
      "stateMutability": "pure",
      "type": "function"
    },
    {
      "inputs": [],
      "name": "owner",
      "outputs": [
        {
          "internalType": "address",
          "name": "",
          "type": "address"
        }
      ],
      "stateMutability": "view",
      "type": "function"
    },
    {
      "inputs": [],
      "name": "proxiableUUID",
      "outputs": [
        {
          "internalType": "bytes32",
          "name": "",
          "type": "bytes32"
        }
      ],
      "stateMutability": "view",
      "type": "function"
    },
    {
      "inputs": [],
      "name": "renounceOwnership",
      "outputs": [],
      "stateMutability": "nonpayable",
      "type": "function"
    },
    {
      "inputs": [
        {
          "internalType": "uint256",
          "name": "itemId",
          "type": "uint256"
        },
        {
          "internalType": "uint256",
          "name": "nftType",
          "type": "uint256"
        },
        {
          "internalType": "address",
          "name": "nftContract",
          "type": "address"
        }
      ],
      "name": "sellMarketItem",
      "outputs": [],
      "stateMutability": "payable",
      "type": "function"
    },
    {
      "inputs": [
        {
          "internalType": "uint256",
          "name": "val",
          "type": "uint256"
        }
      ],
      "name": "setListingPrice",
      "outputs": [],
      "stateMutability": "nonpayable",
      "type": "function"
    },
    {
      "inputs": [
        {
          "internalType": "bytes4",
          "name": "interfaceId",
          "type": "bytes4"
        }
      ],
      "name": "supportsInterface",
      "outputs": [
        {
          "internalType": "bool",
          "name": "",
          "type": "bool"
        }
      ],
      "stateMutability": "pure",
      "type": "function"
    },
    {
      "inputs": [],
      "name": "totalEarnedAmounts",
      "outputs": [
        {
          "internalType": "uint256",
          "name": "",
          "type": "uint256"
        }
      ],
      "stateMutability": "view",
      "type": "function"
    },
    {
      "inputs": [],
      "name": "totalEarnedFeeAmounts",
      "outputs": [
        {
          "internalType": "uint256",
          "name": "",
          "type": "uint256"
        }
      ],
      "stateMutability": "view",
      "type": "function"
    },
    {
      "inputs": [
        {
          "internalType": "address",
          "name": "newOwner",
          "type": "address"
        }
      ],
      "name": "transferOwnership",
      "outputs": [],
      "stateMutability": "nonpayable",
      "type": "function"
    },
    {
      "inputs": [
        {
          "internalType": "address",
          "name": "newImplementation",
          "type": "address"
        }
      ],
      "name": "upgradeTo",
      "outputs": [],
      "stateMutability": "nonpayable",
      "type": "function"
    },
    {
      "inputs": [
        {
          "internalType": "address",
          "name": "newImplementation",
          "type": "address"
        },
        {
          "internalType": "bytes",
          "name": "data",
          "type": "bytes"
        }
      ],
      "name": "upgradeToAndCall",
      "outputs": [],
      "stateMutability": "payable",
      "type": "function"
    },
    {
      "inputs": [],
      "name": "withdrawAll",
      "outputs": [
        {
          "internalType": "bool",
          "name": "",
          "type": "bool"
        }
      ],
      "stateMutability": "payable",
      "type": "function"
    }
  ],
  "bytecode": "0x60a06040523060805234801561001457600080fd5b50608051615fea61004c6000396000818161078f015281816107db01528181610d6501528181610da80152610e440152615fea6000f3fe6080604052600436106200015b5760003560e01c80637dd3eeb911620000c5578063b0630ca21162000078578063b0630ca214620003b6578063bc197c8114620003db578063c8c930be146200040b578063da6a3c4a1462000423578063f23a6e61146200043a578063f2fde38b146200046a57600080fd5b80637dd3eeb914620003085780638129fc1c146200032d578063853828b614620003455780638da5cb5b146200034f578063a9c071451462000379578063ac9dfacb146200039e57600080fd5b80633c281d90116200011e5780633c281d9014620002605780633cf0f84014620002775780634f1ef286146200029c57806352d1902d14620002b3578063715018a614620002cb5780637c726b6914620002e357600080fd5b806301ffc9a7146200016057806312e85585146200019a578063150b7a0214620001bb5780631f10e57a14620002055780633659cfe61462000239575b600080fd5b3480156200016d57600080fd5b50620001856200017f36600462001d37565b6200048f565b60405190151581526020015b60405180910390f35b348015620001a757600080fd5b5060fd545b60405190815260200162000191565b348015620001c857600080fd5b50620001eb620001da36600462001d79565b630a85bd0160e11b95945050505050565b6040516001600160e01b0319909116815260200162000191565b3480156200021257600080fd5b506200022a6200022436600462001e21565b620004c7565b60405162000191919062001e41565b3480156200024657600080fd5b506200025e6200025836600462001e21565b62000784565b005b6200025e6200027136600462001ee5565b62000879565b3480156200028457600080fd5b506200025e6200029636600462001f21565b62000b1f565b6200025e620002ad36600462001ffc565b62000d5a565b348015620002c057600080fd5b50620001ac62000e37565b348015620002d857600080fd5b506200025e62000eed565b348015620002f057600080fd5b506200025e6200030236600462001f21565b62000f05565b3480156200031557600080fd5b506200025e6200032736600462001f21565b62000f14565b3480156200033a57600080fd5b506200025e62000f2a565b620001856200104e565b3480156200035c57600080fd5b5060c9546040516001600160a01b03909116815260200162000191565b3480156200038657600080fd5b506200025e6200039836600462001f21565b62000cfb565b348015620003ab57600080fd5b50620001ac60fe5481565b348015620003c357600080fd5b506200025e620003d536600462002052565b6200109c565b348015620003e857600080fd5b50620001eb620003fa3660046200214f565b63bc197c8160e01b95945050505050565b3480156200041857600080fd5b50620001ac60ff5481565b6200025e620004343660046200220b565b62001265565b3480156200044757600080fd5b50620001eb620004593660046200224d565b63f23a6e6160e01b95945050505050565b3480156200047757600080fd5b506200025e6200048936600462001e21565b620016e2565b60006001600160e01b03198216630271189760e51b1480620004c157506001600160e01b03198216630a85bd0160e11b145b92915050565b60606000620004d560fb5490565b90506000805b828110156200058357600061010081620004f7846001620022d4565b81526020810191909152604001600020600501546001600160a01b03161480156200055857506001600160a01b038516610100600062000539846001620022d4565b81526020810191909152604001600020600301546001600160a01b0316145b156200056e57816200056a81620022ef565b9250505b806200057a81620022ef565b915050620004db565b5060008167ffffffffffffffff811115620005a257620005a262001f3b565b6040519080825280602002602001820160405280156200061357816020015b604080516101008101825260008082526020808301829052928201819052606082018190526080820181905260a0820181905260c0820181905260e08201528252600019909201910181620005c15790505b5090506000805b84811015620007795760006101008162000636846001620022d4565b81526020810191909152604001600020600501546001600160a01b03161480156200069757506001600160a01b038716610100600062000678846001620022d4565b81526020810191909152604001600020600301546001600160a01b0316145b156200076457600061010081620006b0846001620022d4565b815260208082019290925260409081016000208151610100810183528154815260018201549381019390935260028101549183019190915260038101546001600160a01b03908116606084015260048201548116608084015260058201541660a0830152600681015460c0830152600781015460ff16151560e083015285519092508590859081106200074757620007476200230d565b602002602001018190525082806200075f90620022ef565b935050505b806200077081620022ef565b9150506200061a565b509095945050505050565b306001600160a01b037f0000000000000000000000000000000000000000000000000000000000000000161415620007d95760405162461bcd60e51b8152600401620007d09062002323565b60405180910390fd5b7f00000000000000000000000000000000000000000000000000000000000000006001600160a01b03166200082460008051602062005f6e833981519152546001600160a01b031690565b6001600160a01b0316146200084d5760405162461bcd60e51b8152600401620007d0906200236f565b62000858816200175e565b60408051600080825260208201909252620008769183919062001768565b50565b62000883620018e0565b6000838152610100602052604090206006810154600190910154348214620008ee5760405162461bcd60e51b815260206004820152601d60248201527f416d6f756e74206d75737420626520657175616c20746f2070726963650000006044820152606401620007d0565b600085815261010060205260409020600401546001600160a01b03163314156200095b5760405162461bcd60e51b815260206004820152601e60248201527f4f776e65722073686f756c646e277420627579207468656972204e46547300006044820152606401620007d0565b83620009cf57604051632142170760e11b8152306004820152336024820152604481018290526001600160a01b038416906342842e0e90606401600060405180830381600087803b158015620009b057600080fd5b505af1158015620009c5573d6000803e3d6000fd5b5050505062000a43565b836001141562000a4357604051637921219560e11b81526001600160a01b0384169063f242432a9062000a0e90309033908690600190600401620023bb565b600060405180830381600087803b15801562000a2957600080fd5b505af115801562000a3e573d6000803e3d6000fd5b505050505b600085815261010060205260408082206004015490516001600160a01b03909116913480156108fc02929091818181858888f1935050505015801562000a8d573d6000803e3d6000fd5b506000858152610100602052604090206005810180546001600160a01b03191633179055600701805460ff1916600117905562000ad260c9546001600160a01b031690565b6001600160a01b03166108fc60fd549081150290604051600060405180830381858888f1935050505015801562000b0d573d6000803e3d6000fd5b50505062000b1a60018055565b505050565b600081815261010060205260409020600401546001600160a01b03163314801562000b5d57506000818152610100602052604090206007015460ff16155b62000bbb5760405162461bcd60e51b815260206004820152602760248201527f6f6e6c79206f776e65722063616e2063616e63656c2074686973206974656d206044820152666f6e2073616c6560c81b6064820152608401620007d0565b6000818152610100602052604090206002015462000c5c57600081815261010060205260409081902060038101546001909101549151632142170760e11b815230600482015233602482015260448101929092526001600160a01b0316906342842e0e90606401600060405180830381600087803b15801562000c3d57600080fd5b505af115801562000c52573d6000803e3d6000fd5b5050505062000cfb565b600081815261010060205260409020600201546001141562000cfb57600081815261010060205260409081902060038101546001918201549251637921219560e11b81526001600160a01b039091169263f242432a9262000cc692309233929091600401620023bb565b600060405180830381600087803b15801562000ce157600080fd5b505af115801562000cf6573d6000803e3d6000fd5b505050505b60009081526101006020526040812081815560018101829055600281018290556003810180546001600160a01b03199081169091556004820180548216905560058201805490911690556006810191909155600701805460ff19169055565b306001600160a01b037f000000000000000000000000000000000000000000000000000000000000000016141562000da65760405162461bcd60e51b8152600401620007d09062002323565b7f00000000000000000000000000000000000000000000000000000000000000006001600160a01b031662000df160008051602062005f6e833981519152546001600160a01b031690565b6001600160a01b03161462000e1a5760405162461bcd60e51b8152600401620007d0906200236f565b62000e25826200175e565b62000e338282600162001768565b5050565b6000306001600160a01b037f0000000000000000000000000000000000000000000000000000000000000000161462000ed95760405162461bcd60e51b815260206004820152603860248201527f555550535570677261646561626c653a206d757374206e6f742062652063616c60448201527f6c6564207468726f7567682064656c656761746563616c6c00000000000000006064820152608401620007d0565b5060008051602062005f6e83398151915290565b62000ef76200193c565b62000f03600062001998565b565b62000f0f6200193c565b60fd55565b8060ff5462000f249190620022d4565b60ff5550565b600054610100900460ff161580801562000f4b5750600054600160ff909116105b8062000f675750303b15801562000f67575060005460ff166001145b62000fcc5760405162461bcd60e51b815260206004820152602e60248201527f496e697469616c697a61626c653a20636f6e747261637420697320616c72656160448201526d191e481a5b9a5d1a585b1a5e995960921b6064820152608401620007d0565b6000805460ff19166001179055801562000ff0576000805461ff0019166101001790555b6608e1bc9bf0400060fd5562001005620019ea565b801562000876576000805461ff0019169055604051600181527f7f26b83ff96e1f2b6a682f133852f6798a09c465da95921460cefb38474024989060200160405180910390a150565b60006200105a6200193c565b60c9546040516001600160a01b03909116904780156108fc02916000818181858888f1935050505015801562001094573d6000803e3d6000fd5b506001905090565b620010a66200193c565b826200118d576000828230604051620010bf9062001d1b565b620010cd9392919062002450565b604051809103906000f080158015620010ea573d6000803e3d6000fd5b5060405163f2fde38b60e01b81523360048201529091506001600160a01b0382169063f2fde38b90602401600060405180830381600087803b1580156200113057600080fd5b505af115801562001145573d6000803e3d6000fd5b50506040516001600160a01b03841681527f977f9e0a7c4e5263ca81124373cecb60e0a3135d8de8d9e5c45d743d2088f959925060200190505b60405180910390a150505050565b6000306040516200119e9062001d29565b6001600160a01b039091168152602001604051809103906000f080158015620011cb573d6000803e3d6000fd5b5060405163f2fde38b60e01b81523360048201529091506001600160a01b0382169063f2fde38b90602401600060405180830381600087803b1580156200121157600080fd5b505af115801562001226573d6000803e3d6000fd5b50506040516001600160a01b03841681527f4faf3de27230c1daa6b3aab44a791b9f3f6034124c3a762b0a3eec799f335b52925060200190506200117f565b6200126f620018e0565b8262001341576040516331a9108f60e11b81526004810185905233906001600160a01b03841690636352211e90602401602060405180830381865afa158015620012bd573d6000803e3d6000fd5b505050506040513d601f19601f82011682018060405250810190620012e3919062002492565b6001600160a01b0316146200133b5760405162461bcd60e51b815260206004820152601d60248201527f4f6e6c79206f776e65722063616e206c697374206e6577204974656d730000006044820152606401620007d0565b62001403565b604051627eeac760e11b8152336004820152602481018590526000906001600160a01b0384169062fdd58e90604401602060405180830381865afa1580156200138e573d6000803e3d6000fd5b505050506040513d601f19601f82011682018060405250810190620013b49190620024b2565b11620014035760405162461bcd60e51b815260206004820152601d60248201527f4f6e6c79206f776e65722063616e206c697374206e6577204974656d730000006044820152606401620007d0565b6200143d60405180604001604052806012815260200171436865636b696e67206d73672e76616c756560701b815250333460fd5462001a1e565b60fd543414620014b65760405162461bcd60e51b815260206004820152603860248201527f416d6f756e7420646f65736e2774206d656574206c697374696e67206665657360448201527f20726571756972656d656e747320282e303032356574682900000000000000006064820152608401620007d0565b60008111620015085760405162461bcd60e51b815260206004820152601e60248201527f50726963652073686f756c64206265206174206c6561737420312077656900006044820152606401620007d0565b826200157c57604051632142170760e11b8152336004820152306024820152604481018590526001600160a01b038316906342842e0e90606401600060405180830381600087803b1580156200155d57600080fd5b505af115801562001572573d6000803e3d6000fd5b50505050620015f0565b8260011415620015f057604051637921219560e11b81526001600160a01b0383169063f242432a90620015bb90339030908990600190600401620023bb565b600060405180830381600087803b158015620015d657600080fd5b505af1158015620015eb573d6000803e3d6000fd5b505050505b620015ff60fb80546001019055565b60006200160b60fb5490565b60408051610100808201835283825260208083018a81528385018a81526001600160a01b038a8116606087019081523360808801908152600060a0890181815260c08a018e815260e08b018381529c835298909752989098209651875592516001808801919091559151600287015591516003860180546001600160a01b031990811692851692909217905595516004860180548816918416919091179055915160058501805490961691161790935551600682015591516007909201805460ff1916921515929092179091558055505b50505050565b620016ec6200193c565b6001600160a01b038116620017535760405162461bcd60e51b815260206004820152602660248201527f4f776e61626c653a206e6577206f776e657220697320746865207a65726f206160448201526564647265737360d01b6064820152608401620007d0565b620008768162001998565b620008766200193c565b7f4910fdfa16fed3260ed0e7147f7cc6da11a60208b5b9406d12a635614ffd91435460ff16156200179e5762000b1a8362001a6b565b826001600160a01b03166352d1902d6040518163ffffffff1660e01b8152600401602060405180830381865afa925050508015620017fb575060408051601f3d908101601f19168201909252620017f891810190620024b2565b60015b620018605760405162461bcd60e51b815260206004820152602e60248201527f45524331393637557067726164653a206e657720696d706c656d656e7461746960448201526d6f6e206973206e6f74205555505360901b6064820152608401620007d0565b60008051602062005f6e8339815191528114620018d25760405162461bcd60e51b815260206004820152602960248201527f45524331393637557067726164653a20756e737570706f727465642070726f786044820152681a58589b195555525160ba1b6064820152608401620007d0565b5062000b1a83838362001b0a565b60026001541415620019355760405162461bcd60e51b815260206004820152601f60248201527f5265656e7472616e637947756172643a207265656e7472616e742063616c6c006044820152606401620007d0565b6002600155565b60c9546001600160a01b0316331462000f035760405162461bcd60e51b815260206004820181905260248201527f4f776e61626c653a2063616c6c6572206973206e6f7420746865206f776e65726044820152606401620007d0565b60c980546001600160a01b038381166001600160a01b0319831681179093556040519116919082907f8be0079c531659141344cd1fd0a4f28419497f9722a3daafe3b4186f6b6457e090600090a35050565b600054610100900460ff1662001a145760405162461bcd60e51b8152600401620007d090620024cc565b62000f0362001b35565b620016dc8484848460405160240162001a3b949392919062002517565b60408051601f198184030181529190526020810180516001600160e01b031663daa394bd60e01b17905262001b6a565b6001600160a01b0381163b62001ada5760405162461bcd60e51b815260206004820152602d60248201527f455243313936373a206e657720696d706c656d656e746174696f6e206973206e60448201526c1bdd08184818dbdb9d1c9858dd609a1b6064820152608401620007d0565b60008051602062005f6e83398151915280546001600160a01b0319166001600160a01b0392909216919091179055565b62001b158362001b8b565b60008251118062001b235750805b1562000b1a57620016dc838362001bcd565b600054610100900460ff1662001b5f5760405162461bcd60e51b8152600401620007d090620024cc565b62000f033362001998565b80516a636f6e736f6c652e6c6f67602083016000808483855afa5050505050565b62001b968162001a6b565b6040516001600160a01b038216907fbc7cd75a20ee27fd9adebab32041f755214dbc6bffa90cc0225b39da2e5c2d3b90600090a250565b60606001600160a01b0383163b62001c375760405162461bcd60e51b815260206004820152602660248201527f416464726573733a2064656c65676174652063616c6c20746f206e6f6e2d636f6044820152651b9d1c9858dd60d21b6064820152608401620007d0565b600080846001600160a01b03168460405162001c54919062002551565b600060405180830381855af49150503d806000811462001c91576040519150601f19603f3d011682016040523d82523d6000602084013e62001c96565b606091505b509150915062001cc1828260405180606001604052806027815260200162005f8e6027913962001cca565b95945050505050565b6060831562001cdb57508162001ce7565b62001ce7838362001cee565b9392505050565b81511562001cff5781518083602001fd5b8060405162461bcd60e51b8152600401620007d091906200256f565b611d34806200258583390190565b611cb580620042b983390190565b60006020828403121562001d4a57600080fd5b81356001600160e01b03198116811462001ce757600080fd5b6001600160a01b03811681146200087657600080fd5b60008060008060006080868803121562001d9257600080fd5b853562001d9f8162001d63565b9450602086013562001db18162001d63565b935060408601359250606086013567ffffffffffffffff8082111562001dd657600080fd5b818801915088601f83011262001deb57600080fd5b81358181111562001dfb57600080fd5b89602082850101111562001e0e57600080fd5b9699959850939650602001949392505050565b60006020828403121562001e3457600080fd5b813562001ce78162001d63565b602080825282518282018190526000919060409081850190868401855b8281101562001ed857815180518552868101518786015285810151868601526060808201516001600160a01b039081169187019190915260808083015182169087015260a0808301519091169086015260c0808201519086015260e090810151151590850152610100909301929085019060010162001e5e565b5091979650505050505050565b60008060006060848603121562001efb57600080fd5b8335925060208401359150604084013562001f168162001d63565b809150509250925092565b60006020828403121562001f3457600080fd5b5035919050565b634e487b7160e01b600052604160045260246000fd5b604051601f8201601f1916810167ffffffffffffffff8111828210171562001f7d5762001f7d62001f3b565b604052919050565b600082601f83011262001f9757600080fd5b813567ffffffffffffffff81111562001fb45762001fb462001f3b565b62001fc9601f8201601f191660200162001f51565b81815284602083860101111562001fdf57600080fd5b816020850160208301376000918101602001919091529392505050565b600080604083850312156200201057600080fd5b82356200201d8162001d63565b9150602083013567ffffffffffffffff8111156200203a57600080fd5b620020488582860162001f85565b9150509250929050565b6000806000606084860312156200206857600080fd5b83359250602084013567ffffffffffffffff808211156200208857600080fd5b620020968783880162001f85565b93506040860135915080821115620020ad57600080fd5b50620020bc8682870162001f85565b9150509250925092565b600082601f830112620020d857600080fd5b8135602067ffffffffffffffff821115620020f757620020f762001f3b565b8160051b6200210882820162001f51565b92835284810182019282810190878511156200212357600080fd5b83870192505b84831015620021445782358252918301919083019062002129565b979650505050505050565b600080600080600060a086880312156200216857600080fd5b8535620021758162001d63565b94506020860135620021878162001d63565b9350604086013567ffffffffffffffff80821115620021a557600080fd5b620021b389838a01620020c6565b94506060880135915080821115620021ca57600080fd5b620021d889838a01620020c6565b93506080880135915080821115620021ef57600080fd5b50620021fe8882890162001f85565b9150509295509295909350565b600080600080608085870312156200222257600080fd5b843593506020850135925060408501356200223d8162001d63565b9396929550929360600135925050565b600080600080600060a086880312156200226657600080fd5b8535620022738162001d63565b94506020860135620022858162001d63565b93506040860135925060608601359150608086013567ffffffffffffffff811115620022b057600080fd5b620021fe8882890162001f85565b634e487b7160e01b600052601160045260246000fd5b60008219821115620022ea57620022ea620022be565b500190565b6000600019821415620023065762002306620022be565b5060010190565b634e487b7160e01b600052603260045260246000fd5b6020808252602c908201527f46756e6374696f6e206d7573742062652063616c6c6564207468726f7567682060408201526b19195b1959d85d1958d85b1b60a21b606082015260800190565b6020808252602c908201527f46756e6374696f6e206d7573742062652063616c6c6564207468726f7567682060408201526b6163746976652070726f787960a01b606082015260800190565b6001600160a01b0394851681529290931660208301526040820152606081019190915260a06080820181905260009082015260c00190565b60005b8381101562002410578181015183820152602001620023f6565b83811115620016dc5750506000910152565b600081518084526200243c816020860160208601620023f3565b601f01601f19169290920160200192915050565b60608152600062002465606083018662002422565b828103602084015262002479818662002422565b91505060018060a01b0383166040830152949350505050565b600060208284031215620024a557600080fd5b815162001ce78162001d63565b600060208284031215620024c557600080fd5b5051919050565b6020808252602b908201527f496e697469616c697a61626c653a20636f6e7472616374206973206e6f74206960408201526a6e697469616c697a696e6760a81b606082015260800190565b6080815260006200252c608083018762002422565b6001600160a01b03959095166020830152506040810192909252606090910152919050565b6000825162002565818460208701620023f3565b9190910192915050565b60208152600062001ce760208301846200242256fe60806040523480156200001157600080fd5b5060405162001d3438038062001d34833981016040819052620000349162000272565b8251839083906200004d906000906020850190620000ff565b50805162000063906001906020840190620000ff565b505050620000806200007a620000a960201b60201c565b620000ad565b600980546001600160a01b0319166001600160a01b0392909216919091179055506200033c9050565b3390565b600780546001600160a01b038381166001600160a01b0319831681179093556040519116919082907f8be0079c531659141344cd1fd0a4f28419497f9722a3daafe3b4186f6b6457e090600090a35050565b8280546200010d90620002ff565b90600052602060002090601f0160209004810192826200013157600085556200017c565b82601f106200014c57805160ff19168380011785556200017c565b828001600101855582156200017c579182015b828111156200017c5782518255916020019190600101906200015f565b506200018a9291506200018e565b5090565b5b808211156200018a57600081556001016200018f565b634e487b7160e01b600052604160045260246000fd5b600082601f830112620001cd57600080fd5b81516001600160401b0380821115620001ea57620001ea620001a5565b604051601f8301601f19908116603f01168101908282118183101715620002155762000215620001a5565b816040528381526020925086838588010111156200023257600080fd5b600091505b8382101562000256578582018301518183018401529082019062000237565b83821115620002685760008385830101525b9695505050505050565b6000806000606084860312156200028857600080fd5b83516001600160401b0380821115620002a057600080fd5b620002ae87838801620001bb565b94506020860151915080821115620002c557600080fd5b50620002d486828701620001bb565b604086015190935090506001600160a01b0381168114620002f457600080fd5b809150509250925092565b600181811c908216806200031457607f821691505b602082108114156200033657634e487b7160e01b600052602260045260246000fd5b50919050565b6119e8806200034c6000396000f3fe608060405234801561001057600080fd5b506004361061012c5760003560e01c80638da5cb5b116100ad578063c87b56dd11610071578063c87b56dd14610275578063e0ce48b314610288578063e985e9c51461029b578063f2fde38b146102d7578063fae92612146102ea57600080fd5b80638da5cb5b1461022357806395d89b4114610234578063a22cb4651461023c578063b88d4fde1461024f578063bcada6cc1461026257600080fd5b806342842e0e116100f457806342842e0e146101c157806345576f94146101d45780636352211e146101f557806370a0823114610208578063715018a61461021b57600080fd5b806301ffc9a71461013157806306fdde0314610159578063081812fc1461016e578063095ea7b31461019957806323b872dd146101ae575b600080fd5b61014461013f366004611430565b6102fd565b60405190151581526020015b60405180910390f35b61016161034f565b60405161015091906114a5565b61018161017c3660046114b8565b6103e1565b6040516001600160a01b039091168152602001610150565b6101ac6101a73660046114e8565b610408565b005b6101ac6101bc366004611512565b610523565b6101ac6101cf366004611512565b610554565b6101e76101e23660046115fa565b61056f565b604051908152602001610150565b6101816102033660046114b8565b6105c7565b6101e761021636600461162f565b610627565b6101ac6106ad565b6007546001600160a01b0316610181565b6101616106c1565b6101ac61024a36600461164a565b6106d0565b6101ac61025d366004611686565b6106df565b6101e7610270366004611702565b610717565b6101616102833660046114b8565b61076e565b6101ac610296366004611750565b61087f565b6101446102a93660046117a7565b6001600160a01b03918216600090815260056020908152604080832093909416825291909152205460ff1690565b6101ac6102e536600461162f565b610976565b6101ac6102f836600461162f565b6109ef565b60006001600160e01b031982166380ac58cd60e01b148061032e57506001600160e01b03198216635b5e139f60e01b145b8061034957506301ffc9a760e01b6001600160e01b03198316145b92915050565b60606000805461035e906117da565b80601f016020809104026020016040519081016040528092919081815260200182805461038a906117da565b80156103d75780601f106103ac576101008083540402835291602001916103d7565b820191906000526020600020905b8154815290600101906020018083116103ba57829003601f168201915b5050505050905090565b60006103ec82610a19565b506000908152600460205260409020546001600160a01b031690565b6000610413826105c7565b9050806001600160a01b0316836001600160a01b031614156104865760405162461bcd60e51b815260206004820152602160248201527f4552433732313a20617070726f76616c20746f2063757272656e74206f776e656044820152603960f91b60648201526084015b60405180910390fd5b336001600160a01b03821614806104a257506104a281336102a9565b6105145760405162461bcd60e51b815260206004820152603d60248201527f4552433732313a20617070726f76652063616c6c6572206973206e6f7420746f60448201527f6b656e206f776e6572206f7220617070726f76656420666f7220616c6c000000606482015260840161047d565b61051e8383610a78565b505050565b61052d3382610ae6565b6105495760405162461bcd60e51b815260040161047d90611815565b61051e838383610b64565b61051e838383604051806020016040528060008152506106df565b6000610579610cc8565b610587600880546001019055565b600061059260085490565b905061059e3382610d22565b6105a88184610ead565b6009546105bf906001600160a01b031660016106d0565b90505b919050565b6000818152600260205260408120546001600160a01b0316806105bf5760405162461bcd60e51b8152602060048201526018602482015277115490cdcc8c4e881a5b9d985b1a59081d1bdad95b88125160421b604482015260640161047d565b60006001600160a01b0382166106915760405162461bcd60e51b815260206004820152602960248201527f4552433732313a2061646472657373207a65726f206973206e6f7420612076616044820152683634b21037bbb732b960b91b606482015260840161047d565b506001600160a01b031660009081526003602052604090205490565b6106b5610cc8565b6106bf6000610f47565b565b60606001805461035e906117da565b6106db338383610f99565b5050565b6106e93383610ae6565b6107055760405162461bcd60e51b815260040161047d90611815565b61071184848484611068565b50505050565b6000610721610cc8565b61072f600880546001019055565b600061073a60085490565b90506107468482610d22565b6107508184610ead565b600954610767906001600160a01b031660016106d0565b9392505050565b606061077982610a19565b60008281526006602052604081208054610792906117da565b80601f01602080910402602001604051908101604052809291908181526020018280546107be906117da565b801561080b5780601f106107e05761010080835404028352916020019161080b565b820191906000526020600020905b8154815290600101906020018083116107ee57829003601f168201915b50505050509050600061082960408051602081019091526000815290565b905080516000141561083c575092915050565b81511561086e578082604051602001610856929190611862565b60405160208183030381529060405292505050919050565b6108778461109b565b949350505050565b610887610cc8565b610890826105c7565b6001600160a01b0316836001600160a01b03161461092c5760405162461bcd60e51b815260206004820152604d60248201527f4d6573736167652073656e646572206973206e6f74206f776e6572206f66207460448201527f6f6b656e2e204f6e6c79206f776e65722063616e20757064617465207468652060648201526c2aa9249037b3103a37b5b2b71760991b608482015260a40161047d565b6109368282610ead565b7fa2a005d89293f74f02821cfa9d27ac0f97316b75df160545307ba9b948aa8a2383838360405161096993929190611891565b60405180910390a1505050565b61097e610cc8565b6001600160a01b0381166109e35760405162461bcd60e51b815260206004820152602660248201527f4f776e61626c653a206e6577206f776e657220697320746865207a65726f206160448201526564647265737360d01b606482015260840161047d565b6109ec81610f47565b50565b6109f7610cc8565b600980546001600160a01b0319166001600160a01b0392909216919091179055565b6000818152600260205260409020546001600160a01b03166109ec5760405162461bcd60e51b8152602060048201526018602482015277115490cdcc8c4e881a5b9d985b1a59081d1bdad95b88125160421b604482015260640161047d565b600081815260046020526040902080546001600160a01b0319166001600160a01b0384169081179091558190610aad826105c7565b6001600160a01b03167f8c5be1e5ebec7d5bd14f71427d1e84f3dd0314c0f7b2291e5b200ac8c7c3b92560405160405180910390a45050565b600080610af2836105c7565b9050806001600160a01b0316846001600160a01b03161480610b3957506001600160a01b0380821660009081526005602090815260408083209388168352929052205460ff165b806108775750836001600160a01b0316610b52846103e1565b6001600160a01b031614949350505050565b826001600160a01b0316610b77826105c7565b6001600160a01b031614610b9d5760405162461bcd60e51b815260040161047d906118c1565b6001600160a01b038216610bff5760405162461bcd60e51b8152602060048201526024808201527f4552433732313a207472616e7366657220746f20746865207a65726f206164646044820152637265737360e01b606482015260840161047d565b826001600160a01b0316610c12826105c7565b6001600160a01b031614610c385760405162461bcd60e51b815260040161047d906118c1565b600081815260046020908152604080832080546001600160a01b03199081169091556001600160a01b0387811680865260038552838620805460001901905590871680865283862080546001019055868652600290945282852080549092168417909155905184937fddf252ad1be2c89b69c2b068fc378daa952ba7f163c4a11628f55a4df523b3ef91a4505050565b6007546001600160a01b031633146106bf5760405162461bcd60e51b815260206004820181905260248201527f4f776e61626c653a2063616c6c6572206973206e6f7420746865206f776e6572604482015260640161047d565b6001600160a01b038216610d785760405162461bcd60e51b815260206004820181905260248201527f4552433732313a206d696e7420746f20746865207a65726f2061646472657373604482015260640161047d565b6000818152600260205260409020546001600160a01b031615610ddd5760405162461bcd60e51b815260206004820152601c60248201527f4552433732313a20746f6b656e20616c7265616479206d696e74656400000000604482015260640161047d565b6000818152600260205260409020546001600160a01b031615610e425760405162461bcd60e51b815260206004820152601c60248201527f4552433732313a20746f6b656e20616c7265616479206d696e74656400000000604482015260640161047d565b6001600160a01b038216600081815260036020908152604080832080546001019055848352600290915280822080546001600160a01b0319168417905551839291907fddf252ad1be2c89b69c2b068fc378daa952ba7f163c4a11628f55a4df523b3ef908290a45050565b6000828152600260205260409020546001600160a01b0316610f285760405162461bcd60e51b815260206004820152602e60248201527f45524337323155524953746f726167653a2055524920736574206f66206e6f6e60448201526d32bc34b9ba32b73a103a37b5b2b760911b606482015260840161047d565b6000828152600660209081526040909120825161051e92840190611381565b600780546001600160a01b038381166001600160a01b0319831681179093556040519116919082907f8be0079c531659141344cd1fd0a4f28419497f9722a3daafe3b4186f6b6457e090600090a35050565b816001600160a01b0316836001600160a01b03161415610ffb5760405162461bcd60e51b815260206004820152601960248201527f4552433732313a20617070726f766520746f2063616c6c657200000000000000604482015260640161047d565b6001600160a01b03838116600081815260056020908152604080832094871680845294825291829020805460ff191686151590811790915591519182527f17307eab39ab6107e8899845ad3d59bd9653f200f220920489ca2b5937696c31910160405180910390a3505050565b611073848484610b64565b61107f8484848461110e565b6107115760405162461bcd60e51b815260040161047d90611906565b60606110a682610a19565b60006110bd60408051602081019091526000815290565b905060008151116110dd5760405180602001604052806000815250610767565b806110e78461120c565b6040516020016110f8929190611862565b6040516020818303038152906040529392505050565b60006001600160a01b0384163b1561120157604051630a85bd0160e11b81526001600160a01b0385169063150b7a0290611152903390899088908890600401611958565b6020604051808303816000875af192505050801561118d575060408051601f3d908101601f1916820190925261118a91810190611995565b60015b6111e7573d8080156111bb576040519150601f19603f3d011682016040523d82523d6000602084013e6111c0565b606091505b5080516111df5760405162461bcd60e51b815260040161047d90611906565b805181602001fd5b6001600160e01b031916630a85bd0160e11b149050610877565b506001949350505050565b60606000611219836112a9565b600101905060008167ffffffffffffffff8111156112395761123961154e565b6040519080825280601f01601f191660200182016040528015611263576020820181803683370190505b5090508181016020015b600019016f181899199a1a9b1b9c1cb0b131b232b360811b600a86061a8153600a850494508461129c576112a1565b61126d565b509392505050565b60008072184f03e93ff9f4daa797ed6e38ed64bf6a1f0160401b83106112e85772184f03e93ff9f4daa797ed6e38ed64bf6a1f0160401b830492506040015b6d04ee2d6d415b85acef81000000008310611314576d04ee2d6d415b85acef8100000000830492506020015b662386f26fc10000831061133257662386f26fc10000830492506010015b6305f5e100831061134a576305f5e100830492506008015b612710831061135e57612710830492506004015b60648310611370576064830492506002015b600a83106105bf5760010192915050565b82805461138d906117da565b90600052602060002090601f0160209004810192826113af57600085556113f5565b82601f106113c857805160ff19168380011785556113f5565b828001600101855582156113f5579182015b828111156113f55782518255916020019190600101906113da565b50611401929150611405565b5090565b5b808211156114015760008155600101611406565b6001600160e01b0319811681146109ec57600080fd5b60006020828403121561144257600080fd5b81356107678161141a565b60005b83811015611468578181015183820152602001611450565b838111156107115750506000910152565b6000815180845261149181602086016020860161144d565b601f01601f19169290920160200192915050565b6020815260006107676020830184611479565b6000602082840312156114ca57600080fd5b5035919050565b80356001600160a01b03811681146105c257600080fd5b600080604083850312156114fb57600080fd5b611504836114d1565b946020939093013593505050565b60008060006060848603121561152757600080fd5b611530846114d1565b925061153e602085016114d1565b9150604084013590509250925092565b634e487b7160e01b600052604160045260246000fd5b600067ffffffffffffffff8084111561157f5761157f61154e565b604051601f8501601f19908116603f011681019082821181831017156115a7576115a761154e565b816040528093508581528686860111156115c057600080fd5b858560208301376000602087830101525050509392505050565b600082601f8301126115eb57600080fd5b61076783833560208501611564565b60006020828403121561160c57600080fd5b813567ffffffffffffffff81111561162357600080fd5b610877848285016115da565b60006020828403121561164157600080fd5b610767826114d1565b6000806040838503121561165d57600080fd5b611666836114d1565b91506020830135801515811461167b57600080fd5b809150509250929050565b6000806000806080858703121561169c57600080fd5b6116a5856114d1565b93506116b3602086016114d1565b925060408501359150606085013567ffffffffffffffff8111156116d657600080fd5b8501601f810187136116e757600080fd5b6116f687823560208401611564565b91505092959194509250565b6000806040838503121561171557600080fd5b61171e836114d1565b9150602083013567ffffffffffffffff81111561173a57600080fd5b611746858286016115da565b9150509250929050565b60008060006060848603121561176557600080fd5b61176e846114d1565b925060208401359150604084013567ffffffffffffffff81111561179157600080fd5b61179d868287016115da565b9150509250925092565b600080604083850312156117ba57600080fd5b6117c3836114d1565b91506117d1602084016114d1565b90509250929050565b600181811c908216806117ee57607f821691505b6020821081141561180f57634e487b7160e01b600052602260045260246000fd5b50919050565b6020808252602d908201527f4552433732313a2063616c6c6572206973206e6f7420746f6b656e206f776e6560408201526c1c881bdc88185c1c1c9bdd9959609a1b606082015260800190565b6000835161187481846020880161144d565b83519083019061188881836020880161144d565b01949350505050565b60018060a01b03841681528260208201526060604082015260006118b86060830184611479565b95945050505050565b60208082526025908201527f4552433732313a207472616e736665722066726f6d20696e636f72726563742060408201526437bbb732b960d91b606082015260800190565b60208082526032908201527f4552433732313a207472616e7366657220746f206e6f6e20455243373231526560408201527131b2b4bb32b91034b6b83632b6b2b73a32b960711b606082015260800190565b6001600160a01b038581168252841660208201526040810183905260806060820181905260009061198b90830184611479565b9695505050505050565b6000602082840312156119a757600080fd5b81516107678161141a56fea264697066735822122059db708e1103bf371c2f915f3ca2602a55586373cff011ddbacb69c39c08e5af64736f6c634300080a003360a06040819052600060808190526200001b9160039162000103565b503480156200002957600080fd5b5060405162001cb538038062001cb58339810160408190526200004c91620001a9565b604080516020810190915260008152620000668162000098565b506200007233620000b1565b600780546001600160a01b0319166001600160a01b039290921691909117905562000218565b8051620000ad90600290602084019062000103565b5050565b600580546001600160a01b038381166001600160a01b0319831681179093556040519116919082907f8be0079c531659141344cd1fd0a4f28419497f9722a3daafe3b4186f6b6457e090600090a35050565b8280546200011190620001db565b90600052602060002090601f01602090048101928262000135576000855562000180565b82601f106200015057805160ff191683800117855562000180565b8280016001018555821562000180579182015b828111156200018057825182559160200191906001019062000163565b506200018e92915062000192565b5090565b5b808211156200018e576000815560010162000193565b600060208284031215620001bc57600080fd5b81516001600160a01b0381168114620001d457600080fd5b9392505050565b600181811c90821680620001f057607f821691505b602082108114156200021257634e487b7160e01b600052602260045260246000fd5b50919050565b611a8d80620002286000396000f3fe608060405234801561001057600080fd5b50600436106100ce5760003560e01c806372b3b6201161008c578063c1dea19d11610066578063c1dea19d146101ba578063e985e9c5146101cd578063f242432a14610209578063f2fde38b1461021c57600080fd5b806372b3b620146101795780638da5cb5b1461018c578063a22cb465146101a757600080fd5b8062fdd58e146100d357806301ffc9a7146100f95780630e89341c1461011c5780632eb2c2d61461013c5780634e1273f414610151578063715018a614610171575b600080fd5b6100e66100e13660046110cb565b61022f565b6040519081526020015b60405180910390f35b61010c61010736600461110b565b6102c5565b60405190151581526020016100f0565b61012f61012a366004611128565b610317565b6040516100f0919061119d565b61014f61014a3660046112fc565b6103f7565b005b61016461015f3660046113a6565b610443565b6040516100f091906114ac565b61014f61056d565b6100e66101873660046114bf565b610581565b6005546040516001600160a01b0390911681526020016100f0565b61014f6101b5366004611504565b6105de565b6100e66101c8366004611540565b6105ed565b61010c6101db366004611597565b6001600160a01b03918216600090815260016020908152604080832093909416825291909152205460ff1690565b61014f6102173660046115ca565b610656565b61014f61022a36600461162f565b61069b565b60006001600160a01b03831661029f5760405162461bcd60e51b815260206004820152602a60248201527f455243313135353a2061646472657373207a65726f206973206e6f742061207660448201526930b634b21037bbb732b960b11b60648201526084015b60405180910390fd5b506000908152602081815260408083206001600160a01b03949094168352929052205490565b60006001600160e01b03198216636cdb3d1360e11b14806102f657506001600160e01b031982166303a24d0760e21b145b8061031157506301ffc9a760e01b6001600160e01b03198316145b92915050565b6000818152600460205260408120805460609291906103359061164a565b80601f01602080910402602001604051908101604052809291908181526020018280546103619061164a565b80156103ae5780601f10610383576101008083540402835291602001916103ae565b820191906000526020600020905b81548152906001019060200180831161039157829003601f168201915b5050505050905060008151116103cc576103c783610714565b6103f0565b6003816040516020016103e09291906116a1565b6040516020818303038152906040525b9392505050565b6001600160a01b038516331480610413575061041385336101db565b61042f5760405162461bcd60e51b815260040161029690611748565b61043c85858585856107a8565b5050505050565b606081518351146104a85760405162461bcd60e51b815260206004820152602960248201527f455243313135353a206163636f756e747320616e6420696473206c656e677468604482015268040dad2e6dac2e8c6d60bb1b6064820152608401610296565b6000835167ffffffffffffffff8111156104c4576104c46111b0565b6040519080825280602002602001820160405280156104ed578160200160208202803683370190505b50905060005b84518110156105655761053885828151811061051157610511611796565b602002602001015185838151811061052b5761052b611796565b602002602001015161022f565b82828151811061054a5761054a611796565b602090810291909101015261055e816117c2565b90506104f3565b509392505050565b610575610985565b61057f60006109df565b565b600061058b610985565b610599600680546001019055565b60006105a460065490565b90506105c133828560405180602001604052806000815250610a31565b6105cb8185610b45565b6007546103f0906001600160a01b031660015b6105e9338383610ba9565b5050565b60006105f7610985565b610605600680546001019055565b600061061060065490565b905061062d85828560405180602001604052806000815250610a31565b6106378185610b45565b60075461064e906001600160a01b031660016105de565b949350505050565b6001600160a01b038516331480610672575061067285336101db565b61068e5760405162461bcd60e51b815260040161029690611748565b61043c8585858585610c8a565b6106a3610985565b6001600160a01b0381166107085760405162461bcd60e51b815260206004820152602660248201527f4f776e61626c653a206e6577206f776e657220697320746865207a65726f206160448201526564647265737360d01b6064820152608401610296565b610711816109df565b50565b6060600280546107239061164a565b80601f016020809104026020016040519081016040528092919081815260200182805461074f9061164a565b801561079c5780601f106107715761010080835404028352916020019161079c565b820191906000526020600020905b81548152906001019060200180831161077f57829003601f168201915b50505050509050919050565b815183511461080a5760405162461bcd60e51b815260206004820152602860248201527f455243313135353a2069647320616e6420616d6f756e7473206c656e677468206044820152670dad2e6dac2e8c6d60c31b6064820152608401610296565b6001600160a01b0384166108305760405162461bcd60e51b8152600401610296906117dd565b3360005b845181101561091757600085828151811061085157610851611796565b60200260200101519050600085838151811061086f5761086f611796565b602090810291909101810151600084815280835260408082206001600160a01b038e1683529093529190912054909150818110156108bf5760405162461bcd60e51b815260040161029690611822565b6000838152602081815260408083206001600160a01b038e8116855292528083208585039055908b168252812080548492906108fc90849061186c565b9250508190555050505080610910906117c2565b9050610834565b50846001600160a01b0316866001600160a01b0316826001600160a01b03167f4a39dc06d4c0dbc64b70af90fd698a233a518aa5d07e595d983b8c0526c8f7fb8787604051610967929190611884565b60405180910390a461097d818787878787610db4565b505050505050565b6005546001600160a01b0316331461057f5760405162461bcd60e51b815260206004820181905260248201527f4f776e61626c653a2063616c6c6572206973206e6f7420746865206f776e65726044820152606401610296565b600580546001600160a01b038381166001600160a01b0319831681179093556040519116919082907f8be0079c531659141344cd1fd0a4f28419497f9722a3daafe3b4186f6b6457e090600090a35050565b6001600160a01b038416610a915760405162461bcd60e51b815260206004820152602160248201527f455243313135353a206d696e7420746f20746865207a65726f206164647265736044820152607360f81b6064820152608401610296565b336000610a9d85610f10565b90506000610aaa85610f10565b90506000868152602081815260408083206001600160a01b038b16845290915281208054879290610adc90849061186c565b909155505060408051878152602081018790526001600160a01b03808a1692600092918716917fc3d58168c5ae7397731d063d5bbf3d657854427343f4c083240f7aacaa2d0f62910160405180910390a4610b3c83600089898989610f5b565b50505050505050565b60008281526004602090815260409091208251610b6492840190611016565b50817f6bb7ff708619ba0610cba295a58592e0451dee2622938c8755667688daf3529b610b9084610317565b604051610b9d919061119d565b60405180910390a25050565b816001600160a01b0316836001600160a01b03161415610c1d5760405162461bcd60e51b815260206004820152602960248201527f455243313135353a2073657474696e6720617070726f76616c20737461747573604482015268103337b91039b2b63360b91b6064820152608401610296565b6001600160a01b03838116600081815260016020908152604080832094871680845294825291829020805460ff191686151590811790915591519182527f17307eab39ab6107e8899845ad3d59bd9653f200f220920489ca2b5937696c31910160405180910390a3505050565b6001600160a01b038416610cb05760405162461bcd60e51b8152600401610296906117dd565b336000610cbc85610f10565b90506000610cc985610f10565b90506000868152602081815260408083206001600160a01b038c16845290915290205485811015610d0c5760405162461bcd60e51b815260040161029690611822565b6000878152602081815260408083206001600160a01b038d8116855292528083208985039055908a16825281208054889290610d4990849061186c565b909155505060408051888152602081018890526001600160a01b03808b16928c821692918816917fc3d58168c5ae7397731d063d5bbf3d657854427343f4c083240f7aacaa2d0f62910160405180910390a4610da9848a8a8a8a8a610f5b565b505050505050505050565b6001600160a01b0384163b1561097d5760405163bc197c8160e01b81526001600160a01b0385169063bc197c8190610df890899089908890889088906004016118a9565b6020604051808303816000875af1925050508015610e33575060408051601f3d908101601f19168201909252610e3091810190611907565b60015b610ee057610e3f611924565b806308c379a01415610e795750610e54611940565b80610e5f5750610e7b565b8060405162461bcd60e51b8152600401610296919061119d565b505b60405162461bcd60e51b815260206004820152603460248201527f455243313135353a207472616e7366657220746f206e6f6e2d455243313135356044820152732932b1b2b4bb32b91034b6b83632b6b2b73a32b960611b6064820152608401610296565b6001600160e01b0319811663bc197c8160e01b14610b3c5760405162461bcd60e51b8152600401610296906119ca565b60408051600180825281830190925260609160009190602080830190803683370190505090508281600081518110610f4a57610f4a611796565b602090810291909101015292915050565b6001600160a01b0384163b1561097d5760405163f23a6e6160e01b81526001600160a01b0385169063f23a6e6190610f9f9089908990889088908890600401611a12565b6020604051808303816000875af1925050508015610fda575060408051601f3d908101601f19168201909252610fd791810190611907565b60015b610fe657610e3f611924565b6001600160e01b0319811663f23a6e6160e01b14610b3c5760405162461bcd60e51b8152600401610296906119ca565b8280546110229061164a565b90600052602060002090601f016020900481019282611044576000855561108a565b82601f1061105d57805160ff191683800117855561108a565b8280016001018555821561108a579182015b8281111561108a57825182559160200191906001019061106f565b5061109692915061109a565b5090565b5b80821115611096576000815560010161109b565b80356001600160a01b03811681146110c657600080fd5b919050565b600080604083850312156110de57600080fd5b6110e7836110af565b946020939093013593505050565b6001600160e01b03198116811461071157600080fd5b60006020828403121561111d57600080fd5b81356103f0816110f5565b60006020828403121561113a57600080fd5b5035919050565b60005b8381101561115c578181015183820152602001611144565b8381111561116b576000848401525b50505050565b60008151808452611189816020860160208601611141565b601f01601f19169290920160200192915050565b6020815260006103f06020830184611171565b634e487b7160e01b600052604160045260246000fd5b601f8201601f1916810167ffffffffffffffff811182821017156111ec576111ec6111b0565b6040525050565b600067ffffffffffffffff82111561120d5761120d6111b0565b5060051b60200190565b600082601f83011261122857600080fd5b81356020611235826111f3565b60405161124282826111c6565b83815260059390931b850182019282810191508684111561126257600080fd5b8286015b8481101561127d5780358352918301918301611266565b509695505050505050565b600082601f83011261129957600080fd5b813567ffffffffffffffff8111156112b3576112b36111b0565b6040516112ca601f8301601f1916602001826111c6565b8181528460208386010111156112df57600080fd5b816020850160208301376000918101602001919091529392505050565b600080600080600060a0868803121561131457600080fd5b61131d866110af565b945061132b602087016110af565b9350604086013567ffffffffffffffff8082111561134857600080fd5b61135489838a01611217565b9450606088013591508082111561136a57600080fd5b61137689838a01611217565b9350608088013591508082111561138c57600080fd5b5061139988828901611288565b9150509295509295909350565b600080604083850312156113b957600080fd5b823567ffffffffffffffff808211156113d157600080fd5b818501915085601f8301126113e557600080fd5b813560206113f2826111f3565b6040516113ff82826111c6565b83815260059390931b850182019282810191508984111561141f57600080fd5b948201945b8386101561144457611435866110af565b82529482019490820190611424565b9650508601359250508082111561145a57600080fd5b5061146785828601611217565b9150509250929050565b600081518084526020808501945080840160005b838110156114a157815187529582019590820190600101611485565b509495945050505050565b6020815260006103f06020830184611471565b600080604083850312156114d257600080fd5b823567ffffffffffffffff8111156114e957600080fd5b6114f585828601611288565b95602094909401359450505050565b6000806040838503121561151757600080fd5b611520836110af565b91506020830135801515811461153557600080fd5b809150509250929050565b60008060006060848603121561155557600080fd5b61155e846110af565b9250602084013567ffffffffffffffff81111561157a57600080fd5b61158686828701611288565b925050604084013590509250925092565b600080604083850312156115aa57600080fd5b6115b3836110af565b91506115c1602084016110af565b90509250929050565b600080600080600060a086880312156115e257600080fd5b6115eb866110af565b94506115f9602087016110af565b93506040860135925060608601359150608086013567ffffffffffffffff81111561162357600080fd5b61139988828901611288565b60006020828403121561164157600080fd5b6103f0826110af565b600181811c9082168061165e57607f821691505b6020821081141561167f57634e487b7160e01b600052602260045260246000fd5b50919050565b60008151611697818560208601611141565b9290920192915050565b600080845481600182811c9150808316806116bd57607f831692505b60208084108214156116dd57634e487b7160e01b86526022600452602486fd5b8180156116f157600181146117025761172f565b60ff1986168952848901965061172f565b60008b81526020902060005b868110156117275781548b82015290850190830161170e565b505084890196505b50505050505061173f8185611685565b95945050505050565b6020808252602e908201527f455243313135353a2063616c6c6572206973206e6f7420746f6b656e206f776e60408201526d195c881bdc88185c1c1c9bdd995960921b606082015260800190565b634e487b7160e01b600052603260045260246000fd5b634e487b7160e01b600052601160045260246000fd5b60006000198214156117d6576117d66117ac565b5060010190565b60208082526025908201527f455243313135353a207472616e7366657220746f20746865207a65726f206164604082015264647265737360d81b606082015260800190565b6020808252602a908201527f455243313135353a20696e73756666696369656e742062616c616e636520666f60408201526939103a3930b739b332b960b11b606082015260800190565b6000821982111561187f5761187f6117ac565b500190565b6040815260006118976040830185611471565b828103602084015261173f8185611471565b6001600160a01b0386811682528516602082015260a0604082018190526000906118d590830186611471565b82810360608401526118e78186611471565b905082810360808401526118fb8185611171565b98975050505050505050565b60006020828403121561191957600080fd5b81516103f0816110f5565b600060033d111561193d5760046000803e5060005160e01c5b90565b600060443d101561194e5790565b6040516003193d81016004833e81513d67ffffffffffffffff816024840111818411171561197e57505050505090565b82850191508151818111156119965750505050505090565b843d87010160208285010111156119b05750505050505090565b6119bf602082860101876111c6565b509095945050505050565b60208082526028908201527f455243313135353a204552433131353552656365697665722072656a656374656040820152676420746f6b656e7360c01b606082015260800190565b6001600160a01b03868116825285166020820152604081018490526060810183905260a060808201819052600090611a4c90830184611171565b97965050505050505056fea26469706673582212206c2d08b8221da585b0a2dc2dbe2e83025a7c53e3340abde89c05456ef3e468a564736f6c634300080a0033360894a13ba1a3210667c828492db98dca3e2076cc3735a920a3ca505d382bbc416464726573733a206c6f772d6c6576656c2064656c65676174652063616c6c206661696c6564a26469706673582212208526a624d7a48e04270e4b32f4bc990cc48c6dba18fff2e1643aaa31b540ffa764736f6c634300080a0033",
  "linkReferences": {},
  "deployedLinkReferences": {}
}