{
  "_format": "hh-sol-artifact-1",
  "contractName": "VersusX1155",
  "sourceName": "contracts/VersusX1155.sol",
  "abi": [
    {
      "inputs": [
        {
          "internalType": "address",
          "name": "_marketAddress",
          "type": "address"
        }
      ],
      "stateMutability": "nonpayable",
      "type": "constructor"
    },
    {
      "anonymous": false,
      "inputs": [
        {
          "indexed": true,
          "internalType": "address",
          "name": "account",
          "type": "address"
        },
        {
          "indexed": true,
          "internalType": "address",
          "name": "operator",
          "type": "address"
        },
        {
          "indexed": false,
          "internalType": "bool",
          "name": "approved",
          "type": "bool"
        }
      ],
      "name": "ApprovalForAll",
      "type": "event"
    },
    {
      "anonymous": false,
      "inputs": [
        {
          "indexed": true,
          "internalType": "address",
          "name": "previousOwner",
          "type": "address"
        },
        {
          "indexed": true,
          "internalType": "address",
          "name": "newOwner",
          "type": "address"
        }
      ],
      "name": "OwnershipTransferred",
      "type": "event"
    },
    {
      "anonymous": false,
      "inputs": [
        {
          "indexed": true,
          "internalType": "address",
          "name": "operator",
          "type": "address"
        },
        {
          "indexed": true,
          "internalType": "address",
          "name": "from",
          "type": "address"
        },
        {
          "indexed": true,
          "internalType": "address",
          "name": "to",
          "type": "address"
        },
        {
          "indexed": false,
          "internalType": "uint256[]",
          "name": "ids",
          "type": "uint256[]"
        },
        {
          "indexed": false,
          "internalType": "uint256[]",
          "name": "values",
          "type": "uint256[]"
        }
      ],
      "name": "TransferBatch",
      "type": "event"
    },
    {
      "anonymous": false,
      "inputs": [
        {
          "indexed": true,
          "internalType": "address",
          "name": "operator",
          "type": "address"
        },
        {
          "indexed": true,
          "internalType": "address",
          "name": "from",
          "type": "address"
        },
        {
          "indexed": true,
          "internalType": "address",
          "name": "to",
          "type": "address"
        },
        {
          "indexed": false,
          "internalType": "uint256",
          "name": "id",
          "type": "uint256"
        },
        {
          "indexed": false,
          "internalType": "uint256",
          "name": "value",
          "type": "uint256"
        }
      ],
      "name": "TransferSingle",
      "type": "event"
    },
    {
      "anonymous": false,
      "inputs": [
        {
          "indexed": false,
          "internalType": "string",
          "name": "value",
          "type": "string"
        },
        {
          "indexed": true,
          "internalType": "uint256",
          "name": "id",
          "type": "uint256"
        }
      ],
      "name": "URI",
      "type": "event"
    },
    {
      "inputs": [
        {
          "internalType": "address",
          "name": "account",
          "type": "address"
        },
        {
          "internalType": "uint256",
          "name": "id",
          "type": "uint256"
        }
      ],
      "name": "balanceOf",
      "outputs": [
        {
          "internalType": "uint256",
          "name": "",
          "type": "uint256"
        }
      ],
      "stateMutability": "view",
      "type": "function"
    },
    {
      "inputs": [
        {
          "internalType": "address[]",
          "name": "accounts",
          "type": "address[]"
        },
        {
          "internalType": "uint256[]",
          "name": "ids",
          "type": "uint256[]"
        }
      ],
      "name": "balanceOfBatch",
      "outputs": [
        {
          "internalType": "uint256[]",
          "name": "",
          "type": "uint256[]"
        }
      ],
      "stateMutability": "view",
      "type": "function"
    },
    {
      "inputs": [
        {
          "internalType": "string",
          "name": "_uri",
          "type": "string"
        },
        {
          "internalType": "uint256",
          "name": "count",
          "type": "uint256"
        }
      ],
      "name": "createToken",
      "outputs": [
        {
          "internalType": "uint256",
          "name": "",
          "type": "uint256"
        }
      ],
      "stateMutability": "nonpayable",
      "type": "function"
    },
    {
      "inputs": [
        {
          "internalType": "address",
          "name": "to",
          "type": "address"
        },
        {
          "internalType": "string",
          "name": "_uri",
          "type": "string"
        },
        {
          "internalType": "uint256",
          "name": "count",
          "type": "uint256"
        }
      ],
      "name": "createTokenToUser",
      "outputs": [
        {
          "internalType": "uint256",
          "name": "",
          "type": "uint256"
        }
      ],
      "stateMutability": "nonpayable",
      "type": "function"
    },
    {
      "inputs": [
        {
          "internalType": "address",
          "name": "account",
          "type": "address"
        },
        {
          "internalType": "address",
          "name": "operator",
          "type": "address"
        }
      ],
      "name": "isApprovedForAll",
      "outputs": [
        {
          "internalType": "bool",
          "name": "",
          "type": "bool"
        }
      ],
      "stateMutability": "view",
      "type": "function"
    },
    {
      "inputs": [],
      "name": "owner",
      "outputs": [
        {
          "internalType": "address",
          "name": "",
          "type": "address"
        }
      ],
      "stateMutability": "view",
      "type": "function"
    },
    {
      "inputs": [],
      "name": "renounceOwnership",
      "outputs": [],
      "stateMutability": "nonpayable",
      "type": "function"
    },
    {
      "inputs": [
        {
          "internalType": "address",
          "name": "from",
          "type": "address"
        },
        {
          "internalType": "address",
          "name": "to",
          "type": "address"
        },
        {
          "internalType": "uint256[]",
          "name": "ids",
          "type": "uint256[]"
        },
        {
          "internalType": "uint256[]",
          "name": "amounts",
          "type": "uint256[]"
        },
        {
          "internalType": "bytes",
          "name": "data",
          "type": "bytes"
        }
      ],
      "name": "safeBatchTransferFrom",
      "outputs": [],
      "stateMutability": "nonpayable",
      "type": "function"
    },
    {
      "inputs": [
        {
          "internalType": "address",
          "name": "from",
          "type": "address"
        },
        {
          "internalType": "address",
          "name": "to",
          "type": "address"
        },
        {
          "internalType": "uint256",
          "name": "id",
          "type": "uint256"
        },
        {
          "internalType": "uint256",
          "name": "amount",
          "type": "uint256"
        },
        {
          "internalType": "bytes",
          "name": "data",
          "type": "bytes"
        }
      ],
      "name": "safeTransferFrom",
      "outputs": [],
      "stateMutability": "nonpayable",
      "type": "function"
    },
    {
      "inputs": [
        {
          "internalType": "address",
          "name": "operator",
          "type": "address"
        },
        {
          "internalType": "bool",
          "name": "approved",
          "type": "bool"
        }
      ],
      "name": "setApprovalForAll",
      "outputs": [],
      "stateMutability": "nonpayable",
      "type": "function"
    },
    {
      "inputs": [
        {
          "internalType": "bytes4",
          "name": "interfaceId",
          "type": "bytes4"
        }
      ],
      "name": "supportsInterface",
      "outputs": [
        {
          "internalType": "bool",
          "name": "",
          "type": "bool"
        }
      ],
      "stateMutability": "view",
      "type": "function"
    },
    {
      "inputs": [
        {
          "internalType": "address",
          "name": "newOwner",
          "type": "address"
        }
      ],
      "name": "transferOwnership",
      "outputs": [],
      "stateMutability": "nonpayable",
      "type": "function"
    },
    {
      "inputs": [
        {
          "internalType": "uint256",
          "name": "tokenId",
          "type": "uint256"
        }
      ],
      "name": "uri",
      "outputs": [
        {
          "internalType": "string",
          "name": "",
          "type": "string"
        }
      ],
      "stateMutability": "view",
      "type": "function"
    }
  ],
  "bytecode": "0x60a06040819052600060808190526200001b9160039162000103565b503480156200002957600080fd5b5060405162001dc638038062001dc68339810160408190526200004c91620001a9565b604080516020810190915260008152620000668162000098565b506200007233620000b1565b600780546001600160a01b0319166001600160a01b039290921691909117905562000218565b8051620000ad90600290602084019062000103565b5050565b600580546001600160a01b038381166001600160a01b0319831681179093556040519116919082907f8be0079c531659141344cd1fd0a4f28419497f9722a3daafe3b4186f6b6457e090600090a35050565b8280546200011190620001db565b90600052602060002090601f01602090048101928262000135576000855562000180565b82601f106200015057805160ff191683800117855562000180565b8280016001018555821562000180579182015b828111156200018057825182559160200191906001019062000163565b506200018e92915062000192565b5090565b5b808211156200018e576000815560010162000193565b600060208284031215620001bc57600080fd5b81516001600160a01b0381168114620001d457600080fd5b9392505050565b600181811c90821680620001f057607f821691505b602082108114156200021257634e487b7160e01b600052602260045260246000fd5b50919050565b611b9e80620002286000396000f3fe608060405234801561001057600080fd5b50600436106100de5760003560e01c806372b3b6201161008c578063c1dea19d11610066578063c1dea19d146101ca578063e985e9c5146101dd578063f242432a14610219578063f2fde38b1461022c57600080fd5b806372b3b620146101895780638da5cb5b1461019c578063a22cb465146101b757600080fd5b80632eb2c2d6116100bd5780632eb2c2d61461014c5780634e1273f414610161578063715018a61461018157600080fd5b8062fdd58e146100e357806301ffc9a7146101095780630e89341c1461012c575b600080fd5b6100f66100f1366004611303565b61023f565b6040519081526020015b60405180910390f35b61011c610117366004611343565b6102d5565b6040519015158152602001610100565b61013f61013a366004611360565b610327565b60405161010091906113d5565b61015f61015a366004611534565b610407565b005b61017461016f3660046115de565b61049a565b60405161010091906116e4565b61015f6105c4565b6100f66101973660046116f7565b6105d8565b6005546040516001600160a01b039091168152602001610100565b61015f6101c536600461173c565b610635565b6100f66101d8366004611778565b610644565b61011c6101eb3660046117cf565b6001600160a01b03918216600090815260016020908152604080832093909416825291909152205460ff1690565b61015f610227366004611802565b6106ad565b61015f61023a366004611867565b610739565b60006001600160a01b0383166102af5760405162461bcd60e51b815260206004820152602a60248201527f455243313135353a2061646472657373207a65726f206973206e6f742061207660448201526930b634b21037bbb732b960b11b60648201526084015b60405180910390fd5b506000908152602081815260408083206001600160a01b03949094168352929052205490565b60006001600160e01b03198216636cdb3d1360e11b148061030657506001600160e01b031982166303a24d0760e21b145b8061032157506301ffc9a760e01b6001600160e01b03198316145b92915050565b60008181526004602052604081208054606092919061034590611882565b80601f016020809104026020016040519081016040528092919081815260200182805461037190611882565b80156103be5780601f10610393576101008083540402835291602001916103be565b820191906000526020600020905b8154815290600101906020018083116103a157829003601f168201915b5050505050905060008151116103dc576103d7836107b2565b610400565b6003816040516020016103f09291906118d9565b6040516020818303038152906040525b9392505050565b6001600160a01b038516331480610423575061042385336101eb565b6104865760405162461bcd60e51b815260206004820152602e60248201527f455243313135353a2063616c6c6572206973206e6f7420746f6b656e206f776e60448201526d195c881bdc88185c1c1c9bdd995960921b60648201526084016102a6565b6104938585858585610846565b5050505050565b606081518351146104ff5760405162461bcd60e51b815260206004820152602960248201527f455243313135353a206163636f756e747320616e6420696473206c656e677468604482015268040dad2e6dac2e8c6d60bb1b60648201526084016102a6565b6000835167ffffffffffffffff81111561051b5761051b6113e8565b604051908082528060200260200182016040528015610544578160200160208202803683370190505b50905060005b84518110156105bc5761058f85828151811061056857610568611980565b602002602001015185838151811061058257610582611980565b602002602001015161023f565b8282815181106105a1576105a1611980565b60209081029190910101526105b5816119ac565b905061054a565b509392505050565b6105cc610aa4565b6105d66000610afe565b565b60006105e2610aa4565b6105f0600680546001019055565b60006105fb60065490565b905061061833828560405180602001604052806000815250610b5d565b6106228185610c71565b600754610400906001600160a01b031660015b610640338383610cd5565b5050565b600061064e610aa4565b61065c600680546001019055565b600061066760065490565b905061068485828560405180602001604052806000815250610b5d565b61068e8185610c71565b6007546106a5906001600160a01b03166001610635565b949350505050565b6001600160a01b0385163314806106c957506106c985336101eb565b61072c5760405162461bcd60e51b815260206004820152602e60248201527f455243313135353a2063616c6c6572206973206e6f7420746f6b656e206f776e60448201526d195c881bdc88185c1c1c9bdd995960921b60648201526084016102a6565b6104938585858585610db6565b610741610aa4565b6001600160a01b0381166107a65760405162461bcd60e51b815260206004820152602660248201527f4f776e61626c653a206e6577206f776e657220697320746865207a65726f206160448201526564647265737360d01b60648201526084016102a6565b6107af81610afe565b50565b6060600280546107c190611882565b80601f01602080910402602001604051908101604052809291908181526020018280546107ed90611882565b801561083a5780601f1061080f5761010080835404028352916020019161083a565b820191906000526020600020905b81548152906001019060200180831161081d57829003601f168201915b50505050509050919050565b81518351146108a85760405162461bcd60e51b815260206004820152602860248201527f455243313135353a2069647320616e6420616d6f756e7473206c656e677468206044820152670dad2e6dac2e8c6d60c31b60648201526084016102a6565b6001600160a01b03841661090c5760405162461bcd60e51b815260206004820152602560248201527f455243313135353a207472616e7366657220746f20746865207a65726f206164604482015264647265737360d81b60648201526084016102a6565b3360005b8451811015610a3657600085828151811061092d5761092d611980565b60200260200101519050600085838151811061094b5761094b611980565b602090810291909101810151600084815280835260408082206001600160a01b038e1683529093529190912054909150818110156109de5760405162461bcd60e51b815260206004820152602a60248201527f455243313135353a20696e73756666696369656e742062616c616e636520666f60448201526939103a3930b739b332b960b11b60648201526084016102a6565b6000838152602081815260408083206001600160a01b038e8116855292528083208585039055908b16825281208054849290610a1b9084906119c7565b9250508190555050505080610a2f906119ac565b9050610910565b50846001600160a01b0316866001600160a01b0316826001600160a01b03167f4a39dc06d4c0dbc64b70af90fd698a233a518aa5d07e595d983b8c0526c8f7fb8787604051610a869291906119df565b60405180910390a4610a9c818787878787610f61565b505050505050565b6005546001600160a01b031633146105d65760405162461bcd60e51b815260206004820181905260248201527f4f776e61626c653a2063616c6c6572206973206e6f7420746865206f776e657260448201526064016102a6565b600580546001600160a01b0383811673ffffffffffffffffffffffffffffffffffffffff19831681179093556040519116919082907f8be0079c531659141344cd1fd0a4f28419497f9722a3daafe3b4186f6b6457e090600090a35050565b6001600160a01b038416610bbd5760405162461bcd60e51b815260206004820152602160248201527f455243313135353a206d696e7420746f20746865207a65726f206164647265736044820152607360f81b60648201526084016102a6565b336000610bc985611107565b90506000610bd685611107565b90506000868152602081815260408083206001600160a01b038b16845290915281208054879290610c089084906119c7565b909155505060408051878152602081018790526001600160a01b03808a1692600092918716917fc3d58168c5ae7397731d063d5bbf3d657854427343f4c083240f7aacaa2d0f62910160405180910390a4610c6883600089898989611152565b50505050505050565b60008281526004602090815260409091208251610c909284019061124e565b50817f6bb7ff708619ba0610cba295a58592e0451dee2622938c8755667688daf3529b610cbc84610327565b604051610cc991906113d5565b60405180910390a25050565b816001600160a01b0316836001600160a01b03161415610d495760405162461bcd60e51b815260206004820152602960248201527f455243313135353a2073657474696e6720617070726f76616c20737461747573604482015268103337b91039b2b63360b91b60648201526084016102a6565b6001600160a01b03838116600081815260016020908152604080832094871680845294825291829020805460ff191686151590811790915591519182527f17307eab39ab6107e8899845ad3d59bd9653f200f220920489ca2b5937696c31910160405180910390a3505050565b6001600160a01b038416610e1a5760405162461bcd60e51b815260206004820152602560248201527f455243313135353a207472616e7366657220746f20746865207a65726f206164604482015264647265737360d81b60648201526084016102a6565b336000610e2685611107565b90506000610e3385611107565b90506000868152602081815260408083206001600160a01b038c16845290915290205485811015610eb95760405162461bcd60e51b815260206004820152602a60248201527f455243313135353a20696e73756666696369656e742062616c616e636520666f60448201526939103a3930b739b332b960b11b60648201526084016102a6565b6000878152602081815260408083206001600160a01b038d8116855292528083208985039055908a16825281208054889290610ef69084906119c7565b909155505060408051888152602081018890526001600160a01b03808b16928c821692918816917fc3d58168c5ae7397731d063d5bbf3d657854427343f4c083240f7aacaa2d0f62910160405180910390a4610f56848a8a8a8a8a611152565b505050505050505050565b6001600160a01b0384163b15610a9c5760405163bc197c8160e01b81526001600160a01b0385169063bc197c8190610fa59089908990889088908890600401611a04565b6020604051808303816000875af1925050508015610fe0575060408051601f3d908101601f19168201909252610fdd91810190611a62565b60015b61109657610fec611a7f565b806308c379a014156110265750611001611a9b565b8061100c5750611028565b8060405162461bcd60e51b81526004016102a691906113d5565b505b60405162461bcd60e51b815260206004820152603460248201527f455243313135353a207472616e7366657220746f206e6f6e2d4552433131353560448201527f526563656976657220696d706c656d656e74657200000000000000000000000060648201526084016102a6565b6001600160e01b0319811663bc197c8160e01b14610c685760405162461bcd60e51b815260206004820152602860248201527f455243313135353a204552433131353552656365697665722072656a656374656044820152676420746f6b656e7360c01b60648201526084016102a6565b6040805160018082528183019092526060916000919060208083019080368337019050509050828160008151811061114157611141611980565b602090810291909101015292915050565b6001600160a01b0384163b15610a9c5760405163f23a6e6160e01b81526001600160a01b0385169063f23a6e61906111969089908990889088908890600401611b25565b6020604051808303816000875af19250505080156111d1575060408051601f3d908101601f191682019092526111ce91810190611a62565b60015b6111dd57610fec611a7f565b6001600160e01b0319811663f23a6e6160e01b14610c685760405162461bcd60e51b815260206004820152602860248201527f455243313135353a204552433131353552656365697665722072656a656374656044820152676420746f6b656e7360c01b60648201526084016102a6565b82805461125a90611882565b90600052602060002090601f01602090048101928261127c57600085556112c2565b82601f1061129557805160ff19168380011785556112c2565b828001600101855582156112c2579182015b828111156112c25782518255916020019190600101906112a7565b506112ce9291506112d2565b5090565b5b808211156112ce57600081556001016112d3565b80356001600160a01b03811681146112fe57600080fd5b919050565b6000806040838503121561131657600080fd5b61131f836112e7565b946020939093013593505050565b6001600160e01b0319811681146107af57600080fd5b60006020828403121561135557600080fd5b81356104008161132d565b60006020828403121561137257600080fd5b5035919050565b60005b8381101561139457818101518382015260200161137c565b838111156113a3576000848401525b50505050565b600081518084526113c1816020860160208601611379565b601f01601f19169290920160200192915050565b60208152600061040060208301846113a9565b634e487b7160e01b600052604160045260246000fd5b601f8201601f1916810167ffffffffffffffff81118282101715611424576114246113e8565b6040525050565b600067ffffffffffffffff821115611445576114456113e8565b5060051b60200190565b600082601f83011261146057600080fd5b8135602061146d8261142b565b60405161147a82826113fe565b83815260059390931b850182019282810191508684111561149a57600080fd5b8286015b848110156114b5578035835291830191830161149e565b509695505050505050565b600082601f8301126114d157600080fd5b813567ffffffffffffffff8111156114eb576114eb6113e8565b604051611502601f8301601f1916602001826113fe565b81815284602083860101111561151757600080fd5b816020850160208301376000918101602001919091529392505050565b600080600080600060a0868803121561154c57600080fd5b611555866112e7565b9450611563602087016112e7565b9350604086013567ffffffffffffffff8082111561158057600080fd5b61158c89838a0161144f565b945060608801359150808211156115a257600080fd5b6115ae89838a0161144f565b935060808801359150808211156115c457600080fd5b506115d1888289016114c0565b9150509295509295909350565b600080604083850312156115f157600080fd5b823567ffffffffffffffff8082111561160957600080fd5b818501915085601f83011261161d57600080fd5b8135602061162a8261142b565b60405161163782826113fe565b83815260059390931b850182019282810191508984111561165757600080fd5b948201945b8386101561167c5761166d866112e7565b8252948201949082019061165c565b9650508601359250508082111561169257600080fd5b5061169f8582860161144f565b9150509250929050565b600081518084526020808501945080840160005b838110156116d9578151875295820195908201906001016116bd565b509495945050505050565b60208152600061040060208301846116a9565b6000806040838503121561170a57600080fd5b823567ffffffffffffffff81111561172157600080fd5b61172d858286016114c0565b95602094909401359450505050565b6000806040838503121561174f57600080fd5b611758836112e7565b91506020830135801515811461176d57600080fd5b809150509250929050565b60008060006060848603121561178d57600080fd5b611796846112e7565b9250602084013567ffffffffffffffff8111156117b257600080fd5b6117be868287016114c0565b925050604084013590509250925092565b600080604083850312156117e257600080fd5b6117eb836112e7565b91506117f9602084016112e7565b90509250929050565b600080600080600060a0868803121561181a57600080fd5b611823866112e7565b9450611831602087016112e7565b93506040860135925060608601359150608086013567ffffffffffffffff81111561185b57600080fd5b6115d1888289016114c0565b60006020828403121561187957600080fd5b610400826112e7565b600181811c9082168061189657607f821691505b602082108114156118b757634e487b7160e01b600052602260045260246000fd5b50919050565b600081516118cf818560208601611379565b9290920192915050565b600080845481600182811c9150808316806118f557607f831692505b602080841082141561191557634e487b7160e01b86526022600452602486fd5b818015611929576001811461193a57611967565b60ff19861689528489019650611967565b60008b81526020902060005b8681101561195f5781548b820152908501908301611946565b505084890196505b50505050505061197781856118bd565b95945050505050565b634e487b7160e01b600052603260045260246000fd5b634e487b7160e01b600052601160045260246000fd5b60006000198214156119c0576119c0611996565b5060010190565b600082198211156119da576119da611996565b500190565b6040815260006119f260408301856116a9565b828103602084015261197781856116a9565b60006001600160a01b03808816835280871660208401525060a06040830152611a3060a08301866116a9565b8281036060840152611a4281866116a9565b90508281036080840152611a5681856113a9565b98975050505050505050565b600060208284031215611a7457600080fd5b81516104008161132d565b600060033d1115611a985760046000803e5060005160e01c5b90565b600060443d1015611aa95790565b6040516003193d81016004833e81513d67ffffffffffffffff8160248401118184111715611ad957505050505090565b8285019150815181811115611af15750505050505090565b843d8701016020828501011115611b0b5750505050505090565b611b1a602082860101876113fe565b509095945050505050565b60006001600160a01b03808816835280871660208401525084604083015283606083015260a06080830152611b5d60a08301846113a9565b97965050505050505056fea26469706673582212208ef1de1d852a631da0c00aa552208a51c43b2fc4da34f46a1dec8f5c56edaaec64736f6c634300080a0033",
  "linkReferences": {},
  "deployedLinkReferences": {}
}