{
  "_format": "hh-sol-artifact-1",
  "contractName": "ESkillzStraightBet",
  "sourceName": "contracts/bet.sol",
  "abi": [
    {
      "inputs": [
        {
          "internalType": "address",
          "name": "_sport",
          "type": "address"
        },
        {
          "internalType": "address",
          "name": "lambdaOwner",
          "type": "address"
        },
        {
          "internalType": "string",
          "name": "lambdaName",
          "type": "string"
        }
      ],
      "stateMutability": "nonpayable",
      "type": "constructor"
    },
    {
      "anonymous": false,
      "inputs": [
        {
          "indexed": false,
          "internalType": "uint256",
          "name": "_game",
          "type": "uint256"
        },
        {
          "indexed": false,
          "internalType": "uint256",
          "name": "_amount",
          "type": "uint256"
        }
      ],
      "name": "BetEvent",
      "type": "event"
    },
    {
      "anonymous": false,
      "inputs": [
        {
          "indexed": true,
          "internalType": "bytes32",
          "name": "role",
          "type": "bytes32"
        },
        {
          "indexed": true,
          "internalType": "bytes32",
          "name": "previousAdminRole",
          "type": "bytes32"
        },
        {
          "indexed": true,
          "internalType": "bytes32",
          "name": "newAdminRole",
          "type": "bytes32"
        }
      ],
      "name": "RoleAdminChanged",
      "type": "event"
    },
    {
      "anonymous": false,
      "inputs": [
        {
          "indexed": true,
          "internalType": "bytes32",
          "name": "role",
          "type": "bytes32"
        },
        {
          "indexed": true,
          "internalType": "address",
          "name": "account",
          "type": "address"
        },
        {
          "indexed": true,
          "internalType": "address",
          "name": "sender",
          "type": "address"
        }
      ],
      "name": "RoleGranted",
      "type": "event"
    },
    {
      "anonymous": false,
      "inputs": [
        {
          "indexed": true,
          "internalType": "bytes32",
          "name": "role",
          "type": "bytes32"
        },
        {
          "indexed": true,
          "internalType": "address",
          "name": "account",
          "type": "address"
        },
        {
          "indexed": true,
          "internalType": "address",
          "name": "sender",
          "type": "address"
        }
      ],
      "name": "RoleRevoked",
      "type": "event"
    },
    {
      "inputs": [
        {
          "internalType": "address",
          "name": "_sender",
          "type": "address"
        },
        {
          "internalType": "uint256",
          "name": "amount",
          "type": "uint256"
        }
      ],
      "name": "CreateMPGame",
      "outputs": [],
      "stateMutability": "nonpayable",
      "type": "function"
    },
    {
      "inputs": [
        {
          "internalType": "address",
          "name": "_sender",
          "type": "address"
        },
        {
          "internalType": "uint256",
          "name": "amount",
          "type": "uint256"
        }
      ],
      "name": "CreateMPGameByToken",
      "outputs": [],
      "stateMutability": "nonpayable",
      "type": "function"
    },
    {
      "inputs": [
        {
          "internalType": "address",
          "name": "_sender",
          "type": "address"
        },
        {
          "internalType": "uint256",
          "name": "amount",
          "type": "uint256"
        }
      ],
      "name": "CreateSPGame",
      "outputs": [],
      "stateMutability": "nonpayable",
      "type": "function"
    },
    {
      "inputs": [
        {
          "internalType": "address",
          "name": "_sender",
          "type": "address"
        },
        {
          "internalType": "uint256",
          "name": "amount",
          "type": "uint256"
        }
      ],
      "name": "CreateSPGameByToken",
      "outputs": [],
      "stateMutability": "nonpayable",
      "type": "function"
    },
    {
      "inputs": [],
      "name": "DEFAULT_ADMIN_ROLE",
      "outputs": [
        {
          "internalType": "bytes32",
          "name": "",
          "type": "bytes32"
        }
      ],
      "stateMutability": "view",
      "type": "function"
    },
    {
      "inputs": [],
      "name": "ERC712_VERSION",
      "outputs": [
        {
          "internalType": "string",
          "name": "",
          "type": "string"
        }
      ],
      "stateMutability": "view",
      "type": "function"
    },
    {
      "inputs": [],
      "name": "GameIDs",
      "outputs": [
        {
          "internalType": "uint256",
          "name": "",
          "type": "uint256"
        }
      ],
      "stateMutability": "view",
      "type": "function"
    },
    {
      "inputs": [
        {
          "internalType": "address",
          "name": "_sender",
          "type": "address"
        },
        {
          "internalType": "uint256",
          "name": "gameID",
          "type": "uint256"
        },
        {
          "internalType": "uint256",
          "name": "amount",
          "type": "uint256"
        }
      ],
      "name": "JoinMPGame",
      "outputs": [],
      "stateMutability": "nonpayable",
      "type": "function"
    },
    {
      "inputs": [
        {
          "internalType": "address",
          "name": "_sender",
          "type": "address"
        },
        {
          "internalType": "uint256",
          "name": "gameID",
          "type": "uint256"
        },
        {
          "internalType": "uint256",
          "name": "amount",
          "type": "uint256"
        }
      ],
      "name": "JoinMPGameByToken",
      "outputs": [],
      "stateMutability": "nonpayable",
      "type": "function"
    },
    {
      "inputs": [],
      "name": "METAKEEP_LAMBDA_CANCEL_NONCE_TYPEHASH",
      "outputs": [
        {
          "internalType": "bytes32",
          "name": "",
          "type": "bytes32"
        }
      ],
      "stateMutability": "view",
      "type": "function"
    },
    {
      "inputs": [],
      "name": "METAKEEP_LAMBDA_OWNER_ROLE",
      "outputs": [
        {
          "internalType": "bytes32",
          "name": "",
          "type": "bytes32"
        }
      ],
      "stateMutability": "view",
      "type": "function"
    },
    {
      "inputs": [],
      "name": "METAKEEP_LAMBDA_TRANSACTION_TYPEHASH",
      "outputs": [
        {
          "internalType": "bytes32",
          "name": "",
          "type": "bytes32"
        }
      ],
      "stateMutability": "view",
      "type": "function"
    },
    {
      "inputs": [],
      "name": "SetGameIDToZero",
      "outputs": [],
      "stateMutability": "nonpayable",
      "type": "function"
    },
    {
      "inputs": [
        {
          "internalType": "address",
          "name": "winner",
          "type": "address"
        },
        {
          "internalType": "uint256",
          "name": "GameID",
          "type": "uint256"
        }
      ],
      "name": "SetMPGameResult",
      "outputs": [],
      "stateMutability": "nonpayable",
      "type": "function"
    },
    {
      "inputs": [
        {
          "internalType": "address",
          "name": "winner",
          "type": "address"
        },
        {
          "internalType": "uint256",
          "name": "GameID",
          "type": "uint256"
        }
      ],
      "name": "SetMPGameResultByToken",
      "outputs": [],
      "stateMutability": "nonpayable",
      "type": "function"
    },
    {
      "inputs": [
        {
          "internalType": "uint256",
          "name": "_amounts",
          "type": "uint256"
        }
      ],
      "name": "SetMinBetAmounts",
      "outputs": [],
      "stateMutability": "nonpayable",
      "type": "function"
    },
    {
      "inputs": [
        {
          "internalType": "address",
          "name": "winner",
          "type": "address"
        },
        {
          "internalType": "uint256",
          "name": "GameID",
          "type": "uint256"
        },
        {
          "internalType": "uint256",
          "name": "result",
          "type": "uint256"
        }
      ],
      "name": "SetSPGameResult",
      "outputs": [],
      "stateMutability": "nonpayable",
      "type": "function"
    },
    {
      "inputs": [
        {
          "internalType": "address",
          "name": "winner",
          "type": "address"
        },
        {
          "internalType": "uint256",
          "name": "GameID",
          "type": "uint256"
        },
        {
          "internalType": "uint256",
          "name": "result",
          "type": "uint256"
        }
      ],
      "name": "SetSPGameResultByToken",
      "outputs": [],
      "stateMutability": "nonpayable",
      "type": "function"
    },
    {
      "inputs": [
        {
          "internalType": "address",
          "name": "userAddress",
          "type": "address"
        },
        {
          "internalType": "uint256",
          "name": "nonce",
          "type": "uint256"
        },
        {
          "internalType": "bytes32",
          "name": "sigR",
          "type": "bytes32"
        },
        {
          "internalType": "bytes32",
          "name": "sigS",
          "type": "bytes32"
        },
        {
          "internalType": "uint8",
          "name": "sigV",
          "type": "uint8"
        }
      ],
      "name": "cancelMetaKeepLambdaNonce",
      "outputs": [],
      "stateMutability": "nonpayable",
      "type": "function"
    },
    {
      "inputs": [],
      "name": "domainSeperator",
      "outputs": [
        {
          "internalType": "bytes32",
          "name": "",
          "type": "bytes32"
        }
      ],
      "stateMutability": "view",
      "type": "function"
    },
    {
      "inputs": [],
      "name": "eskillz_fee",
      "outputs": [
        {
          "internalType": "uint256",
          "name": "",
          "type": "uint256"
        }
      ],
      "stateMutability": "view",
      "type": "function"
    },
    {
      "inputs": [
        {
          "internalType": "address",
          "name": "userAddress",
          "type": "address"
        },
        {
          "internalType": "uint256",
          "name": "nonce",
          "type": "uint256"
        },
        {
          "internalType": "uint256",
          "name": "validFrom",
          "type": "uint256"
        },
        {
          "internalType": "uint256",
          "name": "validUpto",
          "type": "uint256"
        },
        {
          "internalType": "bytes",
          "name": "functionSignature",
          "type": "bytes"
        },
        {
          "internalType": "bytes32",
          "name": "sigR",
          "type": "bytes32"
        },
        {
          "internalType": "bytes32",
          "name": "sigS",
          "type": "bytes32"
        },
        {
          "internalType": "uint8",
          "name": "sigV",
          "type": "uint8"
        }
      ],
      "name": "executeMetaKeepLambdaTransaction",
      "outputs": [
        {
          "internalType": "bool",
          "name": "",
          "type": "bool"
        }
      ],
      "stateMutability": "payable",
      "type": "function"
    },
    {
      "inputs": [],
      "name": "feeReceiver",
      "outputs": [
        {
          "internalType": "address",
          "name": "",
          "type": "address"
        }
      ],
      "stateMutability": "view",
      "type": "function"
    },
    {
      "inputs": [
        {
          "internalType": "uint256",
          "name": "",
          "type": "uint256"
        },
        {
          "internalType": "uint256",
          "name": "",
          "type": "uint256"
        }
      ],
      "name": "gamebetting",
      "outputs": [
        {
          "internalType": "address",
          "name": "player",
          "type": "address"
        },
        {
          "internalType": "uint256",
          "name": "amount",
          "type": "uint256"
        },
        {
          "internalType": "uint256",
          "name": "gameType",
          "type": "uint256"
        },
        {
          "internalType": "uint256",
          "name": "betType",
          "type": "uint256"
        }
      ],
      "stateMutability": "view",
      "type": "function"
    },
    {
      "inputs": [],
      "name": "getAvailableAmountOfContract",
      "outputs": [
        {
          "internalType": "uint256",
          "name": "",
          "type": "uint256"
        }
      ],
      "stateMutability": "view",
      "type": "function"
    },
    {
      "inputs": [],
      "name": "getGameID",
      "outputs": [
        {
          "internalType": "uint256",
          "name": "",
          "type": "uint256"
        }
      ],
      "stateMutability": "view",
      "type": "function"
    },
    {
      "inputs": [
        {
          "internalType": "uint256",
          "name": "gameID",
          "type": "uint256"
        }
      ],
      "name": "getGameInfo",
      "outputs": [
        {
          "components": [
            {
              "internalType": "address",
              "name": "player",
              "type": "address"
            },
            {
              "internalType": "uint256",
              "name": "amount",
              "type": "uint256"
            },
            {
              "internalType": "uint256",
              "name": "gameType",
              "type": "uint256"
            },
            {
              "internalType": "uint256",
              "name": "betType",
              "type": "uint256"
            }
          ],
          "internalType": "struct ESkillzStraightBet.Bet[]",
          "name": "",
          "type": "tuple[]"
        }
      ],
      "stateMutability": "view",
      "type": "function"
    },
    {
      "inputs": [
        {
          "internalType": "uint256",
          "name": "game",
          "type": "uint256"
        }
      ],
      "name": "getPlayerLength",
      "outputs": [
        {
          "internalType": "uint256",
          "name": "",
          "type": "uint256"
        }
      ],
      "stateMutability": "view",
      "type": "function"
    },
    {
      "inputs": [
        {
          "internalType": "bytes32",
          "name": "role",
          "type": "bytes32"
        }
      ],
      "name": "getRoleAdmin",
      "outputs": [
        {
          "internalType": "bytes32",
          "name": "",
          "type": "bytes32"
        }
      ],
      "stateMutability": "view",
      "type": "function"
    },
    {
      "inputs": [
        {
          "internalType": "bytes32",
          "name": "role",
          "type": "bytes32"
        },
        {
          "internalType": "address",
          "name": "account",
          "type": "address"
        }
      ],
      "name": "grantRole",
      "outputs": [],
      "stateMutability": "nonpayable",
      "type": "function"
    },
    {
      "inputs": [
        {
          "internalType": "bytes32",
          "name": "role",
          "type": "bytes32"
        },
        {
          "internalType": "address",
          "name": "account",
          "type": "address"
        }
      ],
      "name": "hasRole",
      "outputs": [
        {
          "internalType": "bool",
          "name": "",
          "type": "bool"
        }
      ],
      "stateMutability": "view",
      "type": "function"
    },
    {
      "inputs": [
        {
          "internalType": "address",
          "name": "userAddress",
          "type": "address"
        },
        {
          "internalType": "uint256",
          "name": "nonce",
          "type": "uint256"
        }
      ],
      "name": "metaKeepLambdaNonceState",
      "outputs": [
        {
          "internalType": "bool",
          "name": "",
          "type": "bool"
        }
      ],
      "stateMutability": "view",
      "type": "function"
    },
    {
      "inputs": [],
      "name": "minBetAmounts",
      "outputs": [
        {
          "internalType": "uint256",
          "name": "",
          "type": "uint256"
        }
      ],
      "stateMutability": "view",
      "type": "function"
    },
    {
      "inputs": [
        {
          "internalType": "bytes32",
          "name": "role",
          "type": "bytes32"
        },
        {
          "internalType": "address",
          "name": "account",
          "type": "address"
        }
      ],
      "name": "renounceRole",
      "outputs": [],
      "stateMutability": "nonpayable",
      "type": "function"
    },
    {
      "inputs": [
        {
          "internalType": "bytes32",
          "name": "role",
          "type": "bytes32"
        },
        {
          "internalType": "address",
          "name": "account",
          "type": "address"
        }
      ],
      "name": "revokeRole",
      "outputs": [],
      "stateMutability": "nonpayable",
      "type": "function"
    },
    {
      "inputs": [
        {
          "internalType": "uint256",
          "name": "_fee",
          "type": "uint256"
        }
      ],
      "name": "setFee",
      "outputs": [],
      "stateMutability": "nonpayable",
      "type": "function"
    },
    {
      "inputs": [
        {
          "internalType": "address",
          "name": "_address",
          "type": "address"
        }
      ],
      "name": "setFeeReceiver",
      "outputs": [],
      "stateMutability": "nonpayable",
      "type": "function"
    },
    {
      "inputs": [
        {
          "internalType": "address",
          "name": "_sport",
          "type": "address"
        }
      ],
      "name": "setSportAddress",
      "outputs": [],
      "stateMutability": "nonpayable",
      "type": "function"
    },
    {
      "inputs": [
        {
          "internalType": "address",
          "name": "_address",
          "type": "address"
        }
      ],
      "name": "setTresury",
      "outputs": [],
      "stateMutability": "nonpayable",
      "type": "function"
    },
    {
      "inputs": [],
      "name": "sport",
      "outputs": [
        {
          "internalType": "address",
          "name": "",
          "type": "address"
        }
      ],
      "stateMutability": "view",
      "type": "function"
    },
    {
      "inputs": [
        {
          "internalType": "bytes4",
          "name": "interfaceId",
          "type": "bytes4"
        }
      ],
      "name": "supportsInterface",
      "outputs": [
        {
          "internalType": "bool",
          "name": "",
          "type": "bool"
        }
      ],
      "stateMutability": "view",
      "type": "function"
    },
    {
      "inputs": [
        {
          "internalType": "uint256",
          "name": "",
          "type": "uint256"
        }
      ],
      "name": "totalAmountsOfDay",
      "outputs": [
        {
          "internalType": "uint256",
          "name": "",
          "type": "uint256"
        }
      ],
      "stateMutability": "view",
      "type": "function"
    },
    {
      "inputs": [],
      "name": "treasury",
      "outputs": [
        {
          "internalType": "address",
          "name": "",
          "type": "address"
        }
      ],
      "stateMutability": "view",
      "type": "function"
    },
    {
      "inputs": [
        {
          "internalType": "address",
          "name": "_feeReceiver",
          "type": "address"
        },
        {
          "internalType": "uint256",
          "name": "_amount",
          "type": "uint256"
        }
      ],
      "name": "withdraw",
      "outputs": [],
      "stateMutability": "nonpayable",
      "type": "function"
    },
    {
      "inputs": [
        {
          "internalType": "address",
          "name": "_feeReceiver",
          "type": "address"
        }
      ],
      "name": "withdrawAll",
      "outputs": [],
      "stateMutability": "nonpayable",
      "type": "function"
    }
  ],
  "bytecode": "0x60806040523480156200001157600080fd5b506040516200488938038062004889833981016040819052620000349162000420565b81818162000052600080516020620048698339815191528262000158565b6200006d600080516020620048698339815191528062000168565b506200007981620001b3565b5050600380546001600160a01b03199081166001600160a01b038581169190911790925560068054821692861692831790556101f4600955600a805473099b7b28ac913efbb3236946769ac6d3819329ab92168217905560405163095ea7b360e01b81526004810191909152670de0b6b3a7640000602482015263095ea7b3906044016020604051808303816000875af11580156200011c573d6000803e3d6000fd5b505050506040513d601f19601f8201168201806040525081019062000142919062000524565b5050633b9aca00600555505042600c556200054f565b620001648282620002d0565b5050565b600082815260208190526040808220600101805490849055905190918391839186917fbd79b86ffe0ab8e8776151514217cd7cacd52c909f66475c3af44e129f0b00ff9190a4505050565b600154156200021d5760405162461bcd60e51b815260206004820152602c60248201527f4d6574614b6565704c616d6264613a20446f6d61696e20736570657261746f7260448201526b08185b1c9958591e481cd95d60a21b606482015260840160405180910390fd5b6040518060800160405280604f81526020016200481a604f913980516020918201208251838301206040805180820190915260018152603160f81b930192909252907fc89efdaa54c0f20c7adf612882df0950f5a951637e0307cdcb4c672f298b8bc6304660408051602081019690965285019390935260608401919091526001600160a01b0316608083015260a082015260c00160408051601f19818403018152919052805160209091012060015550565b6000828152602081815260408083206001600160a01b038516845290915290205460ff1662000164576000828152602081815260408083206001600160a01b03851684529091529020805460ff191660011790556200032e62000372565b6001600160a01b0316816001600160a01b0316837f2f8788117e7eff1d82e926ec794901d17c78024a50270940304540a733656f0d60405160405180910390a45050565b6000620003896200038e60201b620031cb1760201c565b905090565b600033301415620003e757600080368080601f0160208091040260200160405190810160405280939291908181526020018383808284376000920191909152505050503601516001600160a01b03169150620003ea9050565b50335b90565b80516001600160a01b03811681146200040557600080fd5b919050565b634e487b7160e01b600052604160045260246000fd5b6000806000606084860312156200043657600080fd5b6200044184620003ed565b9250602062000452818601620003ed565b60408601519093506001600160401b03808211156200047057600080fd5b818701915087601f8301126200048557600080fd5b8151818111156200049a576200049a6200040a565b604051601f8201601f19908116603f01168101908382118183101715620004c557620004c56200040a565b816040528281528a86848701011115620004de57600080fd5b600093505b82841015620005025784840186015181850187015292850192620004e3565b82841115620005145760008684830101525b8096505050505050509250925092565b6000602082840312156200053757600080fd5b815180151581146200054857600080fd5b9392505050565b6142bb806200055f6000396000f3fe6080604052600436106102725760003560e01c806385f104271161014f578063cb73ac56116100c1578063f3fef3a31161007a578063f3fef3a3146107ac578063f4167d62146107cc578063f696649d146107e1578063f81b97bc1461082b578063fa09e6301461084b578063fddc3d191461086b57600080fd5b8063cb73ac56146106db578063d547741f146106f1578063e8b1398414610711578063e97ff65e14610731578063ebe9b0f214610746578063efdcd9741461078c57600080fd5b8063a217fddf11610113578063a217fddf1461063a578063b3f006741461064f578063b53969401461066f578063b90861991461068f578063c0dcaeeb146106a5578063c4f83d75146106c557600080fd5b806385f104271461059a57806388cb57b4146105ba5780638a8ff7ad146105da57806391d14854146105fa5780639dc010ba1461061a57600080fd5b80633f7c1685116101e857806365e01552116101ac57806365e01552146104d857806367eb5f39146104f857806369c9eaf71461050d57806369fe0e2d1461053a5780636a3371411461055a57806376b22e681461057a57600080fd5b80633f7c16851461043557806343b4f0831461045557806347e1d5501461046b578063587415b01461049857806361d027b3146104b857600080fd5b8063248a9ca31161023a578063248a9ca314610349578063285857ae146103795780632f2ff15d1461039b5780633591ccf5146103bd57806336568abe146103dd5780633f5c0d3f146103fd57600080fd5b806301ffc9a7146102775780630bb93b4b146102ac5780630c1f5635146102e75780630f7e5970146102fc578063243ed11d14610336575b600080fd5b34801561028357600080fd5b5061029761029236600461395b565b610880565b60405190151581526020015b60405180910390f35b3480156102b857600080fd5b506102d96102c7366004613985565b60009081526007602052604090205490565b6040519081526020016102a3565b3480156102f357600080fd5b506102d96108b7565b34801561030857600080fd5b50610329604051806040016040528060018152602001603160f81b81525081565b6040516102a391906139ca565b610297610344366004613a40565b6108da565b34801561035557600080fd5b506102d9610364366004613985565b60009081526020819052604090206001015490565b34801561038557600080fd5b506102d960008051602061424683398151915281565b3480156103a757600080fd5b506103bb6103b6366004613b43565b610aee565b005b3480156103c957600080fd5b506103bb6103d8366004613b6f565b610b18565b3480156103e957600080fd5b506103bb6103f8366004613b43565b610f20565b34801561040957600080fd5b5060065461041d906001600160a01b031681565b6040516001600160a01b0390911681526020016102a3565b34801561044157600080fd5b506103bb610450366004613b6f565b610fae565b34801561046157600080fd5b506102d960055481565b34801561047757600080fd5b5061048b610486366004613985565b6110ad565b6040516102a39190613b99565b3480156104a457600080fd5b506103bb6104b3366004613985565b61114a565b3480156104c457600080fd5b50600b5461041d906001600160a01b031681565b3480156104e457600080fd5b506103bb6104f3366004613c06565b611185565b34801561050457600080fd5b506102d96111dd565b34801561051957600080fd5b506102d9610528366004613985565b60086020526000908152604090205481565b34801561054657600080fd5b506103bb610555366004613985565b6112fd565b34801561056657600080fd5b506103bb610575366004613c21565b611338565b34801561058657600080fd5b506103bb610595366004613b6f565b611599565b3480156105a657600080fd5b506103bb6105b5366004613c21565b61168f565b3480156105c657600080fd5b506103bb6105d5366004613c06565b611b90565b3480156105e657600080fd5b506103bb6105f5366004613c21565b611be8565b34801561060657600080fd5b50610297610615366004613b43565b611e09565b34801561062657600080fd5b506103bb610635366004613b6f565b611e32565b34801561064657600080fd5b506102d9600081565b34801561065b57600080fd5b50600a5461041d906001600160a01b031681565b34801561067b57600080fd5b506103bb61068a366004613b6f565b612012565b34801561069b57600080fd5b506102d960095481565b3480156106b157600080fd5b506103bb6106c0366004613c54565b61259a565b3480156106d157600080fd5b506102d960045481565b3480156106e757600080fd5b506102d960015481565b3480156106fd57600080fd5b506103bb61070c366004613b43565b61268e565b34801561071d57600080fd5b506103bb61072c366004613b6f565b6126b3565b34801561073d57600080fd5b506102d9612894565b34801561075257600080fd5b50610297610761366004613b6f565b6001600160a01b03919091166000908152600260209081526040808320938352929052205460ff1690565b34801561079857600080fd5b506103bb6107a7366004613c06565b6128b7565b3480156107b857600080fd5b506103bb6107c7366004613b6f565b61297e565b3480156107d857600080fd5b506103bb612b8d565b3480156107ed57600080fd5b506108016107fc366004613ca4565b612bca565b604080516001600160a01b03909516855260208501939093529183015260608201526080016102a3565b34801561083757600080fd5b506103bb610846366004613c21565b612c1a565b34801561085757600080fd5b506103bb610866366004613c06565b612f5a565b34801561087757600080fd5b506004546102d9565b60006001600160e01b03198216637965db0b60e01b14806108b157506301ffc9a760e01b6001600160e01b03198316145b92915050565b6040518060600160405280603581526020016141a0603591398051906020012081565b60006108e889898989613227565b60006040518060a001604052808a81526020018981526020018881526020018b6001600160a01b0316815260200187815250905060006040518060a00160405280607181526020016141d56071913980516020918201208351848301516040808701516060808901516080808b01518051908a01208551998a0198909852938801959095528601929092528401526001600160a01b031660a083015260c082015260e0016040516020818303038152906040528051906020012090506109b18b828888886132f8565b610a025760405162461bcd60e51b815260206004820152601d60248201527f4d6574614b6565704c616d6264613a20536967206e6f74206d6174636800000060448201526064015b60405180910390fd5b6001600260008d6001600160a01b03166001600160a01b0316815260200190815260200160002060008c815260200190815260200160002060006101000a81548160ff021916908315150217905550600080306001600160a01b0316898e604051602001610a71929190613cc6565b60408051601f1981840301815290829052610a8b91613cfd565b6000604051808303816000865af19150503d8060008114610ac8576040519150601f19603f3d011682016040523d82523d6000602084013e610acd565b606091505b509150915081610ade578060208201fd5b509b9a5050505050505050505050565b600082815260208190526040902060010154610b0981613410565b610b138383613424565b505050565b600080610b24836134a9565b600085815260076020526040812080549395509193509091610b4857610b48613d19565b9060005260206000209060040201600201546001148015610b9b5750600083815260076020526040902080546001908110610b8557610b85613d19565b9060005260206000209060040201600201546001145b610be75760405162461bcd60e51b815260206004820152601c60248201527f596f752063616e2073657420746865204d502067616d65206f6e6c790000000060448201526064016109f9565b60008381526007602052604081208054909190610c0657610c06613d19565b60009182526020909120600490910201546001600160a01b0385811691161480610c6c5750600083815260076020526040902080546001908110610c4c57610c4c613d19565b60009182526020909120600490910201546001600160a01b038581169116145b610c885760405162461bcd60e51b81526004016109f990613d2f565b60008381526007602052604081208054909190610ca757610ca7613d19565b9060005260206000209060040201600101546002610cc59190613d8a565b6006546040516370a0823160e01b81523060048201526001600160a01b03909116906370a0823190602401602060405180830381865afa158015610d0d573d6000803e3d6000fd5b505050506040513d601f19601f82011682018060405250810190610d319190613da9565b1015610d4f5760405162461bcd60e51b81526004016109f990613dc2565b60008381526007602052604081208054909190610d6e57610d6e613d19565b60009182526020909120600490910201546001600160a01b0385811691161415610e4a57600654600084815260076020526040812080546001600160a01b0390931692634622ae149290610dc457610dc4613d19565b60009182526020909120600491820201546040516001600160e01b031960e085901b168152610e01926001600160a01b0390921691879101613e0e565b6020604051808303816000875af1158015610e20573d6000803e3d6000fd5b505050506040513d601f19601f82011682018060405250810190610e449190613e27565b50610f03565b600654600084815260076020526040902080546001600160a01b0390921691634622ae1491906001908110610e8157610e81613d19565b60009182526020909120600491820201546040516001600160e01b031960e085901b168152610ebe926001600160a01b0390921691879101613e0e565b6020604051808303816000875af1158015610edd573d6000803e3d6000fd5b505050506040513d601f19601f82011682018060405250810190610f019190613e27565b505b6000838152600760205260408120610f1a91613907565b50505050565b610f2861355c565b6001600160a01b0316816001600160a01b031614610fa05760405162461bcd60e51b815260206004820152602f60248201527f416363657373436f6e74726f6c3a2063616e206f6e6c792072656e6f756e636560448201526e103937b632b9903337b91039b2b63360891b60648201526084016109f9565b610faa8282613566565b5050565b60008111610fce5760405162461bcd60e51b81526004016109f990613e49565b60048054906000610fde83613e8d565b90915550506004546000908152600760205260408120610ffd91613907565b60048054600090815260076020908152604080832081516080810183526001600160a01b03888116825281850188815282850187815260016060850181815286548083018855968a52988890209451958a0290940180546001600160a01b0319169590931694909417825551918101919091559051600282015592516003909301929092559154815190815291820183905260008051602061426683398151915291015b60405180910390a15050565b606060076000838152602001908152602001600020805480602002602001604051908101604052809291908181526020016000905b8282101561113f576000848152602090819020604080516080810182526004860290920180546001600160a01b031683526001808201548486015260028201549284019290925260030154606083015290835290920191016110e2565b505050509050919050565b6111646000805160206142468339815191526106156131cb565b6111805760405162461bcd60e51b81526004016109f990613ea8565b600555565b61119f6000805160206142468339815191526106156131cb565b6111bb5760405162461bcd60e51b81526004016109f990613ea8565b600680546001600160a01b0319166001600160a01b0392909216919091179055565b60008062015180600c54426111f29190613edf565b6111fc9190613ef6565b11156112f45760086000600162015180600c544261121a9190613edf565b6112249190613ef6565b61122e9190613edf565b8152602001908152602001600020546008600062015180600c54426112539190613edf565b61125d9190613ef6565b8152602081019190915260409081016000205460065491516370a0823160e01b815230600482015290916001600160a01b0316906370a0823190602401602060405180830381865afa1580156112b7573d6000803e3d6000fd5b505050506040513d601f19601f820116820180604052508101906112db9190613da9565b6112e59190613edf565b6112ef9190613edf565b905090565b50600090565b90565b6113176000805160206142468339815191526106156131cb565b6113335760405162461bcd60e51b81526004016109f990613ea8565b600955565b60008281526007602052604090205460011461138e5760405162461bcd60e51b8152602060048201526015602482015274283630bcb2b9399031b0b7103737ba103537b4b71760591b60448201526064016109f9565b600082815260076020526040812080546001600160a01b03861692906113b6576113b6613d19565b60009182526020909120600490910201546001600160a01b0316141561141e5760405162461bcd60e51b815260206004820152601a60248201527f53616d6520506c61796572732063616e206e6f74206a6f696e2e00000000000060448201526064016109f9565b6000828152600760205260408120805490919061143d5761143d613d19565b906000526020600020906004020160010154811461146d5760405162461bcd60e51b81526004016109f990613f18565b6000828152600760205260408120805490919061148c5761148c613d19565b9060005260206000209060040201600201546001146114ed5760405162461bcd60e51b815260206004820152601d60248201527f596f752063616e206a6f696e20746865204d502067616d65206f6e6c7900000060448201526064016109f9565b600082815260076020908152604080832081516080810183526001600160a01b03888116825281850187815260018386018181526060850182815286548084018855968a52988890209451600490960290940180546001600160a01b0319169590931694909417825551928101929092555160028201559251600390930192909255815184815290810183905260008051602061426683398151915291015b60405180910390a1505050565b600081116115b95760405162461bcd60e51b81526004016109f990613e49565b600480549060006115c983613e8d565b909155505060045460009081526007602052604081206115e891613907565b60048054600090815260076020908152604080832081516080810183526001600160a01b03888116825281850188815260018386018181526060850182815286548084018855968a52988890209451958a0290940180546001600160a01b03191695909316949094178255519281019290925551600282015592516003909301929092559154815190815291820183905260008051602061426683398151915291016110a1565b60008061169b846135e9565b600086815260076020526040812080549395509193506001600160a01b038816926116c8576116c8613d19565b60009182526020909120600490910201546001600160a01b03161461172f5760405162461bcd60e51b815260206004820152601d60248201527f4f7468657220506c61796572732063616e206e6f74206163636573732e00000060448201526064016109f9565b6000848152600760205260408120805490919061174e5761174e613d19565b90600052602060002090600402016002015460001461177f5760405162461bcd60e51b81526004016109f990613f61565b6000848152600760205260408120805490919061179e5761179e613d19565b60009182526020909120600491820201600101546006546040516370a0823160e01b8152309381019390935290916001600160a01b03909116906370a0823190602401602060405180830381865afa1580156117fe573d6000803e3d6000fd5b505050506040513d601f19601f820116820180604052508101906118229190613da9565b10156118405760405162461bcd60e51b81526004016109f990613dc2565b600654600085815260076020526040812080546001600160a01b0390931692634622ae1492899260649289929061187957611879613d19565b9060005260206000209060040201600101546118959190613d8a565b61189f9190613ef6565b6040518363ffffffff1660e01b81526004016118bc929190613e0e565b6020604051808303816000875af11580156118db573d6000803e3d6000fd5b505050506040513d601f19601f820116820180604052508101906118ff9190613e27565b5060065460405163a9059cbb60e01b81526001600160a01b039091169063a9059cbb906119329088908690600401613e0e565b6020604051808303816000875af1158015611951573d6000803e3d6000fd5b505050506040513d601f19601f820116820180604052508101906119759190613e27565b50600654600a5460405163a9059cbb60e01b81526001600160a01b039283169263a9059cbb926119ac929116908590600401613e0e565b6020604051808303816000875af11580156119cb573d6000803e3d6000fd5b505050506040513d601f19601f820116820180604052508101906119ef9190613e27565b5060008481526007602052604081208054909190611a0f57611a0f613d19565b9060005260206000209060040201600101546008600062015180600c5442611a379190613edf565b611a419190613ef6565b81526020019081526020016000205410611ace5760008481526007602052604081208054909190611a7457611a74613d19565b9060005260206000209060040201600101546008600062015180600c5442611a9c9190613edf565b611aa69190613ef6565b81526020019081526020016000206000828254611ac39190613edf565b90915550611b729050565b600062015180600c5442611ae29190613edf565b611aec9190613ef6565b1115611b725760008481526007602052604081208054909190611b1157611b11613d19565b90600052602060002090600402016001015460086000600162015180600c5442611b3b9190613edf565b611b459190613ef6565b611b4f9190613edf565b81526020019081526020016000206000828254611b6c9190613edf565b90915550505b6000848152600760205260408120611b8991613907565b5050505050565b611baa6000805160206142468339815191526106156131cb565b611bc65760405162461bcd60e51b81526004016109f990613ea8565b600b80546001600160a01b0319166001600160a01b0392909216919091179055565b600080611bf4846135e9565b600086815260076020526040812080549395509193506001600160a01b03881692611c2157611c21613d19565b60009182526020909120600490910201546001600160a01b031614611c885760405162461bcd60e51b815260206004820152601d60248201527f4f7468657220506c61796572732063616e206e6f74206163636573732e00000060448201526064016109f9565b60008481526007602052604081208054909190611ca757611ca7613d19565b906000526020600020906004020160020154600014611cd85760405162461bcd60e51b81526004016109f990613f61565b60008481526007602052604081208054909190611cf757611cf7613d19565b906000526020600020906004020160030154600114611d285760405162461bcd60e51b81526004016109f990613f61565b600654600085815260076020526040812080546001600160a01b0390931692634622ae14928992606492899290611d6157611d61613d19565b906000526020600020906004020160010154611d7d9190613d8a565b611d879190613ef6565b611d919086613f98565b6040518363ffffffff1660e01b8152600401611dae929190613e0e565b6020604051808303816000875af1158015611dcd573d6000803e3d6000fd5b505050506040513d601f19601f82011682018060405250810190611df19190613e27565b506000848152600760205260408120611b8991613907565b6000918252602082815260408084206001600160a01b0393909316845291905290205460ff1690565b6006546001600160a01b0316611e4661355c565b6001600160a01b031614611e5957600080fd5b806005541115611e7b5760405162461bcd60e51b81526004016109f990613fb0565b806008600062015180600c5442611e929190613edf565b611e9c9190613ef6565b81526020019081526020016000206000828254611eb99190613f98565b909155505060048054906000611ece83613e8d565b90915550506006546040516323b872dd60e01b81526001600160a01b03848116600483015230602483015260448201849052909116906323b872dd906064016020604051808303816000875af1158015611f2c573d6000803e3d6000fd5b505050506040513d601f19601f82011682018060405250810190611f509190613e27565b506004546000908152600760205260408120611f6b91613907565b60048054600090815260076020908152604080832081516080810183526001600160a01b03888116825281850188815260018386018181526060850189815286548084018855968a52988890209451958a0290940180546001600160a01b03191695909316949094178255519281019290925551600282015592516003909301929092559154815190815291820183905260008051602061426683398151915291016110a1565b60008061201e836134a9565b60008581526007602052604081208054939550919350909161204257612042613d19565b9060005260206000209060040201600201546001148015612095575060008381526007602052604090208054600190811061207f5761207f613d19565b9060005260206000209060040201600201546001145b6120e15760405162461bcd60e51b815260206004820152601c60248201527f596f752063616e2073657420746865204d502067616d65206f6e6c790000000060448201526064016109f9565b6000838152600760205260408120805490919061210057612100613d19565b60009182526020909120600490910201546001600160a01b0385811691161480612166575060008381526007602052604090208054600190811061214657612146613d19565b60009182526020909120600490910201546001600160a01b038581169116145b6121825760405162461bcd60e51b81526004016109f990613d2f565b600083815260076020526040812080549091906121a1576121a1613d19565b90600052602060002090600402016001015460026121bf9190613d8a565b6006546040516370a0823160e01b81523060048201526001600160a01b03909116906370a0823190602401602060405180830381865afa158015612207573d6000803e3d6000fd5b505050506040513d601f19601f8201168201806040525081019061222b9190613da9565b10156122495760405162461bcd60e51b81526004016109f990613dc2565b6000838152600760205260408120805490919061226857612268613d19565b60009182526020909120600490910201546001600160a01b038581169116141561234457600654600084815260076020526040812080546001600160a01b039093169263a9059cbb92906122be576122be613d19565b60009182526020909120600491820201546040516001600160e01b031960e085901b1681526122fb926001600160a01b0390921691879101613e0e565b6020604051808303816000875af115801561231a573d6000803e3d6000fd5b505050506040513d601f19601f8201168201806040525081019061233e9190613e27565b506123fd565b600654600084815260076020526040902080546001600160a01b039092169163a9059cbb9190600190811061237b5761237b613d19565b60009182526020909120600491820201546040516001600160e01b031960e085901b1681526123b8926001600160a01b0390921691879101613e0e565b6020604051808303816000875af11580156123d7573d6000803e3d6000fd5b505050506040513d601f19601f820116820180604052508101906123fb9190613e27565b505b600654600a5460405163a9059cbb60e01b81526001600160a01b039283169263a9059cbb92612433929116908590600401613e0e565b6020604051808303816000875af1158015612452573d6000803e3d6000fd5b505050506040513d601f19601f820116820180604052508101906124769190613e27565b506124818183613f98565b6008600062015180600c54426124979190613edf565b6124a19190613ef6565b81526020019081526020016000205410612507576124bf8183613f98565b6008600062015180600c54426124d59190613edf565b6124df9190613ef6565b815260200190815260200160002060008282546124fc9190613edf565b90915550610f039050565b600062015180600c544261251b9190613edf565b6125259190613ef6565b1115610f03576125358183613f98565b60086000600162015180600c544261254d9190613edf565b6125579190613ef6565b6125619190613edf565b8152602001908152602001600020600082825461257e9190613edf565b90915550506000838152600760205260408120610f1a91613907565b6125a48585613685565b60006040518060600160405280603581526020016141a0603591398051602091820120604080519283019190915281018690526001600160a01b038716606082015260800160405160208183030381529060405280519060200120905061260e86828686866132f8565b61265a5760405162461bcd60e51b815260206004820152601d60248201527f4d6574614b6565704c616d6264613a20536967206e6f74206d6174636800000060448201526064016109f9565b5050506001600160a01b03909216600090815260026020908152604080832093835292905220805460ff1916600117905550565b6000828152602081905260409020600101546126a981613410565b610b138383613566565b6006546001600160a01b03166126c761355c565b6001600160a01b0316146126da57600080fd5b8060055411156126fc5760405162461bcd60e51b81526004016109f990613fb0565b806008600062015180600c54426127139190613edf565b61271d9190613ef6565b8152602001908152602001600020600082825461273a9190613f98565b90915550506004805490600061274f83613e8d565b90915550506006546040516323b872dd60e01b81526001600160a01b03848116600483015230602483015260448201849052909116906323b872dd906064016020604051808303816000875af11580156127ad573d6000803e3d6000fd5b505050506040513d601f19601f820116820180604052508101906127d19190613e27565b5060045460009081526007602052604081206127ec91613907565b60048054600090815260076020908152604080832081516080810183526001600160a01b03888116825281850188815282850187815260608401888152855460018082018855968a52988890209451988a0290940180546001600160a01b0319169890931697909717825551928101929092559351600282015592516003909301929092559154815190815291820183905260008051602061426683398151915291016110a1565b6040518060a00160405280607181526020016141d5607191398051906020012081565b6128d16000805160206142468339815191526106156131cb565b6128ed5760405162461bcd60e51b81526004016109f990613ea8565b600a80546001600160a01b0319166001600160a01b0383811691821790925560065460405163095ea7b360e01b815292169163095ea7b39161293b91670de0b6b3a764000090600401613e0e565b6020604051808303816000875af115801561295a573d6000803e3d6000fd5b505050506040513d601f19601f82011682018060405250810190610faa9190613e27565b600062015180600c54426129929190613edf565b61299c9190613ef6565b116129b95760405162461bcd60e51b81526004016109f990613ffd565b600060086000600162015180600c54426129d39190613edf565b6129dd9190613ef6565b6129e79190613edf565b8152602001908152602001600020546008600062015180600c5442612a0c9190613edf565b612a169190613ef6565b815260200190815260200160002054612a2f9190613f98565b6006546040516370a0823160e01b8152306004820152919250829184916001600160a01b0316906370a0823190602401602060405180830381865afa158015612a7c573d6000803e3d6000fd5b505050506040513d601f19601f82011682018060405250810190612aa09190613da9565b612aaa9190613edf565b11612ac75760405162461bcd60e51b81526004016109f990614052565b600a546001600160a01b0384811691161480612af85750612ae661355c565b6003546001600160a01b039081169116145b612b145760405162461bcd60e51b81526004016109f9906140c3565b600654600a5460405163a9059cbb60e01b81526001600160a01b039283169263a9059cbb92612b4a929116908690600401613e0e565b6020604051808303816000875af1158015612b69573d6000803e3d6000fd5b505050506040513d601f19601f82011682018060405250810190610f1a9190613e27565b612ba76000805160206142468339815191526106156131cb565b612bc35760405162461bcd60e51b81526004016109f990613ea8565b6000600455565b60076020528160005260406000208181548110612be657600080fd5b600091825260209091206004909102018054600182015460028301546003909301546001600160a01b039092169450925084565b6006546001600160a01b0316612c2e61355c565b6001600160a01b031614612c4157600080fd5b600082815260076020526040902054600114612c975760405162461bcd60e51b8152602060048201526015602482015274283630bcb2b9399031b0b7103737ba103537b4b71760591b60448201526064016109f9565b600082815260076020526040812080546001600160a01b0386169290612cbf57612cbf613d19565b60009182526020909120600490910201546001600160a01b03161415612d275760405162461bcd60e51b815260206004820152601a60248201527f53616d6520506c61796572732063616e206e6f74206a6f696e2e00000000000060448201526064016109f9565b60008281526007602052604081208054909190612d4657612d46613d19565b9060005260206000209060040201600101548114612d765760405162461bcd60e51b81526004016109f990613f18565b60008281526007602052604081208054909190612d9557612d95613d19565b906000526020600020906004020160020154600114612df65760405162461bcd60e51b815260206004820152601d60248201527f596f752063616e206a6f696e20746865204d502067616d65206f6e6c7900000060448201526064016109f9565b806008600062015180600c5442612e0d9190613edf565b612e179190613ef6565b81526020019081526020016000206000828254612e349190613f98565b90915550506006546040516323b872dd60e01b81526001600160a01b03858116600483015230602483015260448201849052909116906323b872dd906064016020604051808303816000875af1158015612e92573d6000803e3d6000fd5b505050506040513d601f19601f82011682018060405250810190612eb69190613e27565b50600082815260076020908152604080832081516080810183526001600160a01b03888116825281850187815260018386018181526060850189815286548084018855968a52988890209451600490960290940180546001600160a01b03191695909316949094178255519281019290925551600282015592516003909301929092558151848152908101839052600080516020614266833981519152910161158c565b600062015180600c5442612f6e9190613edf565b612f789190613ef6565b11612f955760405162461bcd60e51b81526004016109f990613ffd565b600060086000600162015180600c5442612faf9190613edf565b612fb99190613ef6565b612fc39190613edf565b8152602001908152602001600020546008600062015180600c5442612fe89190613edf565b612ff29190613ef6565b81526020019081526020016000205461300b9190613f98565b6006546040516370a0823160e01b815230600482015291925082916001600160a01b03909116906370a0823190602401602060405180830381865afa158015613058573d6000803e3d6000fd5b505050506040513d601f19601f8201168201806040525081019061307c9190613da9565b116130995760405162461bcd60e51b81526004016109f990614052565b600a546001600160a01b03838116911614806130ca57506130b861355c565b6003546001600160a01b039081169116145b6130e65760405162461bcd60e51b81526004016109f9906140c3565b600654600a546040516370a0823160e01b81523060048201526001600160a01b039283169263a9059cbb921690849084906370a0823190602401602060405180830381865afa15801561313d573d6000803e3d6000fd5b505050506040513d601f19601f820116820180604052508101906131619190613da9565b61316b9190613edf565b6040518363ffffffff1660e01b8152600401613188929190613e0e565b6020604051808303816000875af11580156131a7573d6000803e3d6000fd5b505050506040513d601f19601f82011682018060405250810190610b139190613e27565b60003330141561322257600080368080601f0160208091040260200160405190810160405280939291908181526020018383808284376000920191909152505050503601516001600160a01b031691506112fa9050565b503390565b81421161328d5760405162461bcd60e51b815260206004820152602e60248201527f4d6574614b6565704c616d6264613a20417574686f72697a6174696f6e20697360448201526d103737ba103cb2ba1033b4bb32b760911b60648201526084016109f9565b8042106132ee5760405162461bcd60e51b815260206004820152602960248201527f4d6574614b6565704c616d6264613a20417574686f72697a6174696f6e2068616044820152681cc8195e1c1a5c995960ba1b60648201526084016109f9565b610f1a8484613685565b60006001600160a01b0386166133505760405162461bcd60e51b815260206004820152601e60248201527f4d6574614b6565704c616d6264613a20494e56414c49445f5349474e4552000060448201526064016109f9565b60016133998660015460405161190160f01b6020820152602281019190915260428101829052600090606201604051602081830303815290604052805190602001209050919050565b6040805160008152602081018083529290925260ff851690820152606081018690526080810185905260a0016020604051602081039080840390855afa1580156133e7573d6000803e3d6000fd5b505050602060405103516001600160a01b0316866001600160a01b031614905095945050505050565b6134218161341c61355c565b6136f9565b50565b61342e8282611e09565b610faa576000828152602081815260408083206001600160a01b03851684529091529020805460ff1916600117905561346561355c565b6001600160a01b0316816001600160a01b0316837f2f8788117e7eff1d82e926ec794901d17c78024a50270940304540a733656f0d60405160405180910390a45050565b6000806000612710600954600760008781526020019081526020016000206000815481106134d9576134d9613d19565b9060005260206000209060040201600101546134f59190613d8a565b6134ff9190613ef6565b90506000816007600087815260200190815260200160002060008154811061352957613529613d19565b90600052602060002090600402016001015460026135479190613d8a565b6135519190613edf565b959194509092505050565b60006112ef6131cb565b6135708282611e09565b15610faa576000828152602081815260408083206001600160a01b03851684529091529020805460ff191690556135a561355c565b6001600160a01b0316816001600160a01b0316837ff6391f5c32d9c69d2a47ea670b442974b53935d1edc7fd64eb21e047a839171b60405160405180910390a45050565b60008060006127106009546007600087815260200190815260200160002060008154811061361957613619613d19565b9060005260206000209060040201600101546136359190613d8a565b61363f9190613ef6565b90506000816007600087815260200190815260200160002060008154811061366957613669613d19565b9060005260206000209060040201600101546135519190613edf565b6001600160a01b038216600090815260026020908152604080832084845290915290205460ff1615610faa5760405162461bcd60e51b815260206004820152601a60248201527f4d6574614b6565704c616d6264613a204e6f6e6365205573656400000000000060448201526064016109f9565b6137038282611e09565b610faa5761371081613752565b61371b836020613764565b60405160200161372c929190614113565b60408051601f198184030181529082905262461bcd60e51b82526109f9916004016139ca565b60606108b16001600160a01b03831660145b60606000613773836002613d8a565b61377e906002613f98565b67ffffffffffffffff81111561379657613796613a19565b6040519080825280601f01601f1916602001820160405280156137c0576020820181803683370190505b509050600360fc1b816000815181106137db576137db613d19565b60200101906001600160f81b031916908160001a905350600f60fb1b8160018151811061380a5761380a613d19565b60200101906001600160f81b031916908160001a905350600061382e846002613d8a565b613839906001613f98565b90505b60018111156138b1576f181899199a1a9b1b9c1cb0b131b232b360811b85600f166010811061386d5761386d613d19565b1a60f81b82828151811061388357613883613d19565b60200101906001600160f81b031916908160001a90535060049490941c936138aa81614188565b905061383c565b5083156139005760405162461bcd60e51b815260206004820181905260248201527f537472696e67733a20686578206c656e67746820696e73756666696369656e7460448201526064016109f9565b9392505050565b508054600082556004029060005260206000209081019061342191905b808211156139575780546001600160a01b0319168155600060018201819055600282018190556003820155600401613924565b5090565b60006020828403121561396d57600080fd5b81356001600160e01b03198116811461390057600080fd5b60006020828403121561399757600080fd5b5035919050565b60005b838110156139b95781810151838201526020016139a1565b83811115610f1a5750506000910152565b60208152600082518060208401526139e981604085016020870161399e565b601f01601f19169190910160400192915050565b80356001600160a01b0381168114613a1457600080fd5b919050565b634e487b7160e01b600052604160045260246000fd5b803560ff81168114613a1457600080fd5b600080600080600080600080610100898b031215613a5d57600080fd5b613a66896139fd565b9750602089013596506040890135955060608901359450608089013567ffffffffffffffff80821115613a9857600080fd5b818b0191508b601f830112613aac57600080fd5b813581811115613abe57613abe613a19565b604051601f8201601f19908116603f01168101908382118183101715613ae657613ae6613a19565b816040528281528e6020848701011115613aff57600080fd5b82602086016020830137600060208483010152809850505050505060a0890135925060c08901359150613b3460e08a01613a2f565b90509295985092959890939650565b60008060408385031215613b5657600080fd5b82359150613b66602084016139fd565b90509250929050565b60008060408385031215613b8257600080fd5b613b8b836139fd565b946020939093013593505050565b602080825282518282018190526000919060409081850190868401855b82811015613bf957815180516001600160a01b03168552868101518786015285810151868601526060908101519085015260809093019290850190600101613bb6565b5091979650505050505050565b600060208284031215613c1857600080fd5b613900826139fd565b600080600060608486031215613c3657600080fd5b613c3f846139fd565b95602085013595506040909401359392505050565b600080600080600060a08688031215613c6c57600080fd5b613c75866139fd565b9450602086013593506040860135925060608601359150613c9860808701613a2f565b90509295509295909350565b60008060408385031215613cb757600080fd5b50508035926020909101359150565b60008351613cd881846020880161399e565b60609390931b6bffffffffffffffffffffffff19169190920190815260140192915050565b60008251613d0f81846020870161399e565b9190910192915050565b634e487b7160e01b600052603260045260246000fd5b60208082526025908201527f6d73672073656e646572206d75737420696e636c7564657320696e20746869736040820152642067616d6560d81b606082015260800190565b634e487b7160e01b600052601160045260246000fd5b6000816000190483118215151615613da457613da4613d74565b500290565b600060208284031215613dbb57600080fd5b5051919050565b6020808252602c908201527f44706f72742042616c616e6365206f662042657420636f6e747261637420697360408201526b103737ba1032b737bab3b41760a11b606082015260800190565b6001600160a01b03929092168252602082015260400190565b600060208284031215613e3957600080fd5b8151801515811461390057600080fd5b60208082526024908201527f42657420616d6f756e7473206d75737420626520626967676572207468616e206040820152637a65726f60e01b606082015260800190565b6000600019821415613ea157613ea1613d74565b5060010190565b60208082526019908201527f4d6574614b6565704c616d6264613a204e6f74206f776e657200000000000000604082015260600190565b600082821015613ef157613ef1613d74565b500390565b600082613f1357634e487b7160e01b600052601260045260246000fd5b500490565b60208082526029908201527f596f75722062657420616d6f756e74206d75737420657175616c7320637265616040820152681d1948185b5bdd5b9d60ba1b606082015260800190565b6020808252601c908201527f596f752063616e20736574207468652053502067616d65206f6e6c7900000000604082015260600190565b60008219821115613fab57613fab613d74565b500190565b6020808252602d908201527f42657420616d6f756e7473206d75737420626520626967676572207468616e2060408201526c6d696e426574416d6f756e747360981b606082015260800190565b60208082526035908201527f7769746864726177206461792073686f756c642062652062696767657220746860408201527430b71039ba30b93a103230bc90159018903230bc9760591b606082015260800190565b6020808252604b908201527f42616c616e6365206d75737420626520626967676572207468616e20616d6f7560408201527f6e74202b2062657474696e67416d6f756e7473206f6620746f64617920616e6460608201526a103cb2b9ba32b93230bc9760a91b608082015260a00190565b60208082526030908201527f6d73672073656e646572206d757374206265206665655265636569766572206f60408201526f391031b7b73a3930b1ba1037bbb732b960811b606082015260800190565b7f416363657373436f6e74726f6c3a206163636f756e742000000000000000000081526000835161414b81601785016020880161399e565b7001034b99036b4b9b9b4b733903937b6329607d1b601791840191820152835161417c81602884016020880161399e565b01602801949350505050565b60008161419757614197613d74565b50600019019056fe4d6574614b6565704c616d62646143616e63656c4e6f6e63652875696e74323536206e6f6e63652c616464726573732066726f6d294d6574614b6565704c616d6264615472616e73616374696f6e2875696e74323536206e6f6e63652c75696e743235362076616c696446726f6d2c75696e743235362076616c69645570746f2c616464726573732066726f6d2c62797465732066756e6374696f6e5369676e617475726529f3a68b3f49a13367480fd7bc507b2776cef106fb7cff6b2af48f699790f77014b2e369502d9bd83f41ab63f1677a14cd6ec5f6f31a885b67989df4f1b3570369a2646970667358221220cf5ec9d64b8ef1a2c6ea3f14b631b0739e4c807656603a69318c14780240eb1d64736f6c634300080a0033454950373132446f6d61696e28737472696e67206e616d652c737472696e672076657273696f6e2c6164647265737320766572696679696e67436f6e74726163742c627974657333322073616c7429f3a68b3f49a13367480fd7bc507b2776cef106fb7cff6b2af48f699790f77014",
  "linkReferences": {},
  "deployedLinkReferences": {}
}