{
  "_format": "hh-sol-artifact-1",
  "contractName": "GetPrice",
  "sourceName": "contracts/GetPrice.sol",
  "abi": [
    {
      "inputs": [
        {
          "internalType": "address",
          "name": "_factory",
          "type": "address"
        },
        {
          "internalType": "address",
          "name": "lambdaOwner",
          "type": "address"
        },
        {
          "internalType": "string",
          "name": "lambdaName",
          "type": "string"
        }
      ],
      "stateMutability": "nonpayable",
      "type": "constructor"
    },
    {
      "anonymous": false,
      "inputs": [
        {
          "indexed": true,
          "internalType": "bytes32",
          "name": "role",
          "type": "bytes32"
        },
        {
          "indexed": true,
          "internalType": "bytes32",
          "name": "previousAdminRole",
          "type": "bytes32"
        },
        {
          "indexed": true,
          "internalType": "bytes32",
          "name": "newAdminRole",
          "type": "bytes32"
        }
      ],
      "name": "RoleAdminChanged",
      "type": "event"
    },
    {
      "anonymous": false,
      "inputs": [
        {
          "indexed": true,
          "internalType": "bytes32",
          "name": "role",
          "type": "bytes32"
        },
        {
          "indexed": true,
          "internalType": "address",
          "name": "account",
          "type": "address"
        },
        {
          "indexed": true,
          "internalType": "address",
          "name": "sender",
          "type": "address"
        }
      ],
      "name": "RoleGranted",
      "type": "event"
    },
    {
      "anonymous": false,
      "inputs": [
        {
          "indexed": true,
          "internalType": "bytes32",
          "name": "role",
          "type": "bytes32"
        },
        {
          "indexed": true,
          "internalType": "address",
          "name": "account",
          "type": "address"
        },
        {
          "indexed": true,
          "internalType": "address",
          "name": "sender",
          "type": "address"
        }
      ],
      "name": "RoleRevoked",
      "type": "event"
    },
    {
      "inputs": [],
      "name": "DEFAULT_ADMIN_ROLE",
      "outputs": [
        {
          "internalType": "bytes32",
          "name": "",
          "type": "bytes32"
        }
      ],
      "stateMutability": "view",
      "type": "function"
    },
    {
      "inputs": [],
      "name": "ERC712_VERSION",
      "outputs": [
        {
          "internalType": "string",
          "name": "",
          "type": "string"
        }
      ],
      "stateMutability": "view",
      "type": "function"
    },
    {
      "inputs": [],
      "name": "METAKEEP_LAMBDA_CANCEL_NONCE_TYPEHASH",
      "outputs": [
        {
          "internalType": "bytes32",
          "name": "",
          "type": "bytes32"
        }
      ],
      "stateMutability": "view",
      "type": "function"
    },
    {
      "inputs": [],
      "name": "METAKEEP_LAMBDA_OWNER_ROLE",
      "outputs": [
        {
          "internalType": "bytes32",
          "name": "",
          "type": "bytes32"
        }
      ],
      "stateMutability": "view",
      "type": "function"
    },
    {
      "inputs": [],
      "name": "METAKEEP_LAMBDA_TRANSACTION_TYPEHASH",
      "outputs": [
        {
          "internalType": "bytes32",
          "name": "",
          "type": "bytes32"
        }
      ],
      "stateMutability": "view",
      "type": "function"
    },
    {
      "inputs": [
        {
          "internalType": "address",
          "name": "userAddress",
          "type": "address"
        },
        {
          "internalType": "uint256",
          "name": "nonce",
          "type": "uint256"
        },
        {
          "internalType": "bytes32",
          "name": "sigR",
          "type": "bytes32"
        },
        {
          "internalType": "bytes32",
          "name": "sigS",
          "type": "bytes32"
        },
        {
          "internalType": "uint8",
          "name": "sigV",
          "type": "uint8"
        }
      ],
      "name": "cancelMetaKeepLambdaNonce",
      "outputs": [],
      "stateMutability": "nonpayable",
      "type": "function"
    },
    {
      "inputs": [],
      "name": "domainSeperator",
      "outputs": [
        {
          "internalType": "bytes32",
          "name": "",
          "type": "bytes32"
        }
      ],
      "stateMutability": "view",
      "type": "function"
    },
    {
      "inputs": [
        {
          "internalType": "address",
          "name": "userAddress",
          "type": "address"
        },
        {
          "internalType": "uint256",
          "name": "nonce",
          "type": "uint256"
        },
        {
          "internalType": "uint256",
          "name": "validFrom",
          "type": "uint256"
        },
        {
          "internalType": "uint256",
          "name": "validUpto",
          "type": "uint256"
        },
        {
          "internalType": "bytes",
          "name": "functionSignature",
          "type": "bytes"
        },
        {
          "internalType": "bytes32",
          "name": "sigR",
          "type": "bytes32"
        },
        {
          "internalType": "bytes32",
          "name": "sigS",
          "type": "bytes32"
        },
        {
          "internalType": "uint8",
          "name": "sigV",
          "type": "uint8"
        }
      ],
      "name": "executeMetaKeepLambdaTransaction",
      "outputs": [
        {
          "internalType": "bool",
          "name": "",
          "type": "bool"
        }
      ],
      "stateMutability": "payable",
      "type": "function"
    },
    {
      "inputs": [],
      "name": "factory",
      "outputs": [
        {
          "internalType": "address",
          "name": "",
          "type": "address"
        }
      ],
      "stateMutability": "view",
      "type": "function"
    },
    {
      "inputs": [
        {
          "internalType": "address",
          "name": "path0",
          "type": "address"
        },
        {
          "internalType": "address",
          "name": "path1",
          "type": "address"
        }
      ],
      "name": "getReserves",
      "outputs": [
        {
          "internalType": "uint256",
          "name": "reserveIn",
          "type": "uint256"
        },
        {
          "internalType": "uint256",
          "name": "reserveOut",
          "type": "uint256"
        }
      ],
      "stateMutability": "view",
      "type": "function"
    },
    {
      "inputs": [
        {
          "internalType": "bytes32",
          "name": "role",
          "type": "bytes32"
        }
      ],
      "name": "getRoleAdmin",
      "outputs": [
        {
          "internalType": "bytes32",
          "name": "",
          "type": "bytes32"
        }
      ],
      "stateMutability": "view",
      "type": "function"
    },
    {
      "inputs": [
        {
          "internalType": "address",
          "name": "path0",
          "type": "address"
        },
        {
          "internalType": "address",
          "name": "path1",
          "type": "address"
        },
        {
          "internalType": "uint256",
          "name": "amountInput",
          "type": "uint256"
        }
      ],
      "name": "getTokenPriceUsingAmount",
      "outputs": [
        {
          "internalType": "uint256",
          "name": "amountOut",
          "type": "uint256"
        }
      ],
      "stateMutability": "view",
      "type": "function"
    },
    {
      "inputs": [
        {
          "internalType": "bytes32",
          "name": "role",
          "type": "bytes32"
        },
        {
          "internalType": "address",
          "name": "account",
          "type": "address"
        }
      ],
      "name": "grantRole",
      "outputs": [],
      "stateMutability": "nonpayable",
      "type": "function"
    },
    {
      "inputs": [
        {
          "internalType": "bytes32",
          "name": "role",
          "type": "bytes32"
        },
        {
          "internalType": "address",
          "name": "account",
          "type": "address"
        }
      ],
      "name": "hasRole",
      "outputs": [
        {
          "internalType": "bool",
          "name": "",
          "type": "bool"
        }
      ],
      "stateMutability": "view",
      "type": "function"
    },
    {
      "inputs": [
        {
          "internalType": "address",
          "name": "userAddress",
          "type": "address"
        },
        {
          "internalType": "uint256",
          "name": "nonce",
          "type": "uint256"
        }
      ],
      "name": "metaKeepLambdaNonceState",
      "outputs": [
        {
          "internalType": "bool",
          "name": "",
          "type": "bool"
        }
      ],
      "stateMutability": "view",
      "type": "function"
    },
    {
      "inputs": [],
      "name": "owner",
      "outputs": [
        {
          "internalType": "address",
          "name": "",
          "type": "address"
        }
      ],
      "stateMutability": "view",
      "type": "function"
    },
    {
      "inputs": [
        {
          "internalType": "bytes32",
          "name": "role",
          "type": "bytes32"
        },
        {
          "internalType": "address",
          "name": "account",
          "type": "address"
        }
      ],
      "name": "renounceRole",
      "outputs": [],
      "stateMutability": "nonpayable",
      "type": "function"
    },
    {
      "inputs": [
        {
          "internalType": "bytes32",
          "name": "role",
          "type": "bytes32"
        },
        {
          "internalType": "address",
          "name": "account",
          "type": "address"
        }
      ],
      "name": "revokeRole",
      "outputs": [],
      "stateMutability": "nonpayable",
      "type": "function"
    },
    {
      "inputs": [
        {
          "internalType": "address",
          "name": "_factory",
          "type": "address"
        }
      ],
      "name": "setFactory",
      "outputs": [],
      "stateMutability": "nonpayable",
      "type": "function"
    },
    {
      "inputs": [
        {
          "internalType": "address",
          "name": "_owner",
          "type": "address"
        }
      ],
      "name": "setOwner",
      "outputs": [],
      "stateMutability": "nonpayable",
      "type": "function"
    },
    {
      "inputs": [
        {
          "internalType": "bytes4",
          "name": "interfaceId",
          "type": "bytes4"
        }
      ],
      "name": "supportsInterface",
      "outputs": [
        {
          "internalType": "bool",
          "name": "",
          "type": "bool"
        }
      ],
      "stateMutability": "view",
      "type": "function"
    }
  ],
  "bytecode": "0x60806040523480156200001157600080fd5b5060405162001f3d38038062001f3d83398101604081905262000034916200037a565b8181816200005260008051602062001f1d83398151915282620000b2565b6200006d60008051602062001f1d83398151915280620000c2565b5062000079816200010d565b5050600380546001600160a01b039485166001600160a01b0319918216179091556004805493909416921691909117909155506200047e565b620000be82826200022a565b5050565b600082815260208190526040808220600101805490849055905190918391839186917fbd79b86ffe0ab8e8776151514217cd7cacd52c909f66475c3af44e129f0b00ff9190a4505050565b60015415620001775760405162461bcd60e51b815260206004820152602c60248201527f4d6574614b6565704c616d6264613a20446f6d61696e20736570657261746f7260448201526b08185b1c9958591e481cd95d60a21b606482015260840160405180910390fd5b6040518060800160405280604f815260200162001ece604f913980516020918201208251838301206040805180820190915260018152603160f81b930192909252907fc89efdaa54c0f20c7adf612882df0950f5a951637e0307cdcb4c672f298b8bc6304660408051602081019690965285019390935260608401919091526001600160a01b0316608083015260a082015260c00160408051601f19818403018152919052805160209091012060015550565b6000828152602081815260408083206001600160a01b038516845290915290205460ff16620000be576000828152602081815260408083206001600160a01b03851684529091529020805460ff1916600117905562000288620002cc565b6001600160a01b0316816001600160a01b0316837f2f8788117e7eff1d82e926ec794901d17c78024a50270940304540a733656f0d60405160405180910390a45050565b6000620002e3620002e860201b62000a241760201c565b905090565b6000333014156200034157600080368080601f0160208091040260200160405190810160405280939291908181526020018383808284376000920191909152505050503601516001600160a01b03169150620003449050565b50335b90565b80516001600160a01b03811681146200035f57600080fd5b919050565b634e487b7160e01b600052604160045260246000fd5b6000806000606084860312156200039057600080fd5b6200039b8462000347565b92506020620003ac81860162000347565b60408601519093506001600160401b0380821115620003ca57600080fd5b818701915087601f830112620003df57600080fd5b815181811115620003f457620003f462000364565b604051601f8201601f19908116603f011681019083821181831017156200041f576200041f62000364565b816040528281528a868487010111156200043857600080fd5b600093505b828410156200045c57848401860151818501870152928501926200043d565b828411156200046e5760008684830101525b8096505050505050509250925092565b611a40806200048e6000396000f3fe60806040526004361061012a5760003560e01c80635bb47808116100ab578063c45a01551161006f578063c45a015514610367578063cb73ac5614610387578063d52bb6f41461039d578063d547741f146103d2578063e97ff65e146103f2578063ebe9b0f21461040757600080fd5b80635bb47808146102ba5780638da5cb5b146102da57806391d1485414610312578063a217fddf14610332578063c0dcaeeb1461034757600080fd5b8063248a9ca3116100f2578063248a9ca3146101f6578063285857ae146102265780632f2ff15d1461025a57806336568abe1461027a5780633ec9f61d1461029a57600080fd5b806301ffc9a71461012f5780630c1f5635146101645780630f7e59701461018757806313af4035146101c1578063243ed11d146101e3575b600080fd5b34801561013b57600080fd5b5061014f61014a36600461148f565b61044d565b60405190151581526020015b60405180910390f35b34801561017057600080fd5b50610179610484565b60405190815260200161015b565b34801561019357600080fd5b506101b4604051806040016040528060018152602001603160f81b81525081565b60405161015b91906114e5565b3480156101cd57600080fd5b506101e16101dc366004611534565b6104a7565b005b61014f6101f1366004611576565b610523565b34801561020257600080fd5b50610179610211366004611679565b60009081526020819052604090206001015490565b34801561023257600080fd5b506101797ff3a68b3f49a13367480fd7bc507b2776cef106fb7cff6b2af48f699790f7701481565b34801561026657600080fd5b506101e1610275366004611692565b610732565b34801561028657600080fd5b506101e1610295366004611692565b61075c565b3480156102a657600080fd5b506101796102b53660046116be565b6107ea565b3480156102c657600080fd5b506101e16102d5366004611534565b610821565b3480156102e657600080fd5b506004546102fa906001600160a01b031681565b6040516001600160a01b03909116815260200161015b565b34801561031e57600080fd5b5061014f61032d366004611692565b610898565b34801561033e57600080fd5b50610179600081565b34801561035357600080fd5b506101e16103623660046116fa565b6108c1565b34801561037357600080fd5b506003546102fa906001600160a01b031681565b34801561039357600080fd5b5061017960015481565b3480156103a957600080fd5b506103bd6103b836600461174a565b6109b5565b6040805192835260208301919091520161015b565b3480156103de57600080fd5b506101e16103ed366004611692565b6109dc565b3480156103fe57600080fd5b50610179610a01565b34801561041357600080fd5b5061014f610422366004611774565b6001600160a01b03919091166000908152600260209081526040808320938352929052205460ff1690565b60006001600160e01b03198216637965db0b60e01b148061047e57506301ffc9a760e01b6001600160e01b03198316145b92915050565b604051806060016040528060358152602001611965603591398051906020012081565b6004546001600160a01b031633146105015760405162461bcd60e51b815260206004820152601860248201527736b9b39039b2b73232b91d1034b9903737ba1037bbb732b960411b60448201526064015b60405180910390fd5b600480546001600160a01b0319166001600160a01b0392909216919091179055565b600061053189898989610a81565b60006040518060a001604052808a81526020018981526020018881526020018b6001600160a01b0316815260200187815250905060006040518060a001604052806071815260200161199a6071913980516020918201208351848301516040808701516060808901516080808b01518051908a01208551998a0198909852938801959095528601929092528401526001600160a01b031660a083015260c082015260e0016040516020818303038152906040528051906020012090506105fa8b82888888610b58565b6106465760405162461bcd60e51b815260206004820152601d60248201527f4d6574614b6565704c616d6264613a20536967206e6f74206d6174636800000060448201526064016104f8565b6001600260008d6001600160a01b03166001600160a01b0316815260200190815260200160002060008c815260200190815260200160002060006101000a81548160ff021916908315150217905550600080306001600160a01b0316898e6040516020016106b592919061179e565b60408051601f19818403018152908290526106cf916117d0565b6000604051808303816000865af19150503d806000811461070c576040519150601f19603f3d011682016040523d82523d6000602084013e610711565b606091505b509150915081610722578060208201fd5b509b9a5050505050505050505050565b60008281526020819052604090206001015461074d81610c70565b6107578383610c84565b505050565b610764610d09565b6001600160a01b0316816001600160a01b0316146107dc5760405162461bcd60e51b815260206004820152602f60248201527f416363657373436f6e74726f6c3a2063616e206f6e6c792072656e6f756e636560448201526e103937b632b9903337b91039b2b63360891b60648201526084016104f8565b6107e68282610d18565b5050565b60035460009081908190610808906001600160a01b03168787610d9b565b91509150610817848383610e71565b9695505050505050565b6004546001600160a01b031633146108765760405162461bcd60e51b815260206004820152601860248201527736b9b39039b2b73232b91d1034b9903737ba1037bbb732b960411b60448201526064016104f8565b600380546001600160a01b0319166001600160a01b0392909216919091179055565b6000918252602082815260408084206001600160a01b0393909316845291905290205460ff1690565b6108cb8585610f8c565b6000604051806060016040528060358152602001611965603591398051602091820120604080519283019190915281018690526001600160a01b03871660608201526080016040516020818303038152906040528051906020012090506109358682868686610b58565b6109815760405162461bcd60e51b815260206004820152601d60248201527f4d6574614b6565704c616d6264613a20536967206e6f74206d6174636800000060448201526064016104f8565b5050506001600160a01b03909216600090815260026020908152604080832093835292905220805460ff1916600117905550565b60035460009081906109d1906001600160a01b03168585610d9b565b909590945092505050565b6000828152602081905260409020600101546109f781610c70565b6107578383610d18565b6040518060a001604052806071815260200161199a607191398051906020012081565b600033301415610a7b57600080368080601f0160208091040260200160405190810160405280939291908181526020018383808284376000920191909152505050503601516001600160a01b03169150610a7e9050565b50335b90565b814211610ae75760405162461bcd60e51b815260206004820152602e60248201527f4d6574614b6565704c616d6264613a20417574686f72697a6174696f6e20697360448201526d103737ba103cb2ba1033b4bb32b760911b60648201526084016104f8565b804210610b485760405162461bcd60e51b815260206004820152602960248201527f4d6574614b6565704c616d6264613a20417574686f72697a6174696f6e2068616044820152681cc8195e1c1a5c995960ba1b60648201526084016104f8565b610b528484610f8c565b50505050565b60006001600160a01b038616610bb05760405162461bcd60e51b815260206004820152601e60248201527f4d6574614b6565704c616d6264613a20494e56414c49445f5349474e4552000060448201526064016104f8565b6001610bf98660015460405161190160f01b6020820152602281019190915260428101829052600090606201604051602081830303815290604052805190602001209050919050565b6040805160008152602081018083529290925260ff851690820152606081018690526080810185905260a0016020604051602081039080840390855afa158015610c47573d6000803e3d6000fd5b505050602060405103516001600160a01b0316866001600160a01b031614905095945050505050565b610c8181610c7c610d09565b611000565b50565b610c8e8282610898565b6107e6576000828152602081815260408083206001600160a01b03851684529091529020805460ff19166001179055610cc5610d09565b6001600160a01b0316816001600160a01b0316837f2f8788117e7eff1d82e926ec794901d17c78024a50270940304540a733656f0d60405160405180910390a45050565b6000610d13610a24565b905090565b610d228282610898565b156107e6576000828152602081815260408083206001600160a01b03851684529091529020805460ff19169055610d57610d09565b6001600160a01b0316816001600160a01b0316837ff6391f5c32d9c69d2a47ea670b442974b53935d1edc7fd64eb21e047a839171b60405160405180910390a45050565b6000806000610daa8585611059565b509050610db886868661114f565b50600080610dc788888861114f565b6001600160a01b0316630902f1ac6040518163ffffffff1660e01b8152600401606060405180830381865afa158015610e04573d6000803e3d6000fd5b505050506040513d601f19601f82011682018060405250810190610e289190611803565b506001600160701b031691506001600160701b03169150826001600160a01b0316876001600160a01b031614610e5f578082610e62565b81815b90999098509650505050505050565b6000808411610ed45760405162461bcd60e51b815260206004820152602960248201527f50616e63616b654c6962726172793a20494e53554646494349454e545f494e50604482015268155517d05353d5539560ba1b60648201526084016104f8565b600083118015610ee45750600082115b610f3f5760405162461bcd60e51b815260206004820152602660248201527f50616e63616b654c6962726172793a20494e53554646494349454e545f4c495160448201526555494449545960d01b60648201526084016104f8565b6000610f4d856126f761121e565b90506000610f5b828561121e565b90506000610f7583610f6f8861271061121e565b90611285565b9050610f818183611869565b979650505050505050565b6001600160a01b038216600090815260026020908152604080832084845290915290205460ff16156107e65760405162461bcd60e51b815260206004820152601a60248201527f4d6574614b6565704c616d6264613a204e6f6e6365205573656400000000000060448201526064016104f8565b61100a8282610898565b6107e657611017816112da565b6110228360206112ec565b60405160200161103392919061188b565b60408051601f198184030181529082905262461bcd60e51b82526104f8916004016114e5565b600080826001600160a01b0316846001600160a01b031614156110ca5760405162461bcd60e51b815260206004820152602360248201527f50616e63616b654c6962726172793a204944454e544943414c5f41444452455360448201526253455360e81b60648201526084016104f8565b826001600160a01b0316846001600160a01b0316106110ea5782846110ed565b83835b90925090506001600160a01b0382166111485760405162461bcd60e51b815260206004820152601c60248201527f50616e63616b654c6962726172793a205a45524f5f414444524553530000000060448201526064016104f8565b9250929050565b600080600061115e8585611059565b6040516001600160601b0319606084811b8216602084015283901b16603482015291935091508690604801604051602081830303815290604052805190602001206040516020016111fc9291906001600160f81b0319815260609290921b6001600160601b031916600183015260158201527f96e8ac4277198ff8b6f785478aa9a39f403cb768dd02cbee326c3e7da348845f603582015260550190565b60408051601f1981840301815291905280516020909101209695505050505050565b6000811580611242575082826112348183611900565b92506112409083611869565b145b61047e5760405162461bcd60e51b815260206004820152601460248201527364732d6d6174682d6d756c2d6f766572666c6f7760601b60448201526064016104f8565b600082611292838261191f565b915081101561047e5760405162461bcd60e51b815260206004820152601460248201527364732d6d6174682d6164642d6f766572666c6f7760601b60448201526064016104f8565b606061047e6001600160a01b03831660145b606060006112fb836002611900565b61130690600261191f565b67ffffffffffffffff81111561131e5761131e61154f565b6040519080825280601f01601f191660200182016040528015611348576020820181803683370190505b509050600360fc1b8160008151811061136357611363611937565b60200101906001600160f81b031916908160001a905350600f60fb1b8160018151811061139257611392611937565b60200101906001600160f81b031916908160001a90535060006113b6846002611900565b6113c190600161191f565b90505b6001811115611439576f181899199a1a9b1b9c1cb0b131b232b360811b85600f16601081106113f5576113f5611937565b1a60f81b82828151811061140b5761140b611937565b60200101906001600160f81b031916908160001a90535060049490941c936114328161194d565b90506113c4565b5083156114885760405162461bcd60e51b815260206004820181905260248201527f537472696e67733a20686578206c656e67746820696e73756666696369656e7460448201526064016104f8565b9392505050565b6000602082840312156114a157600080fd5b81356001600160e01b03198116811461148857600080fd5b60005b838110156114d45781810151838201526020016114bc565b83811115610b525750506000910152565b60208152600082518060208401526115048160408501602087016114b9565b601f01601f19169190910160400192915050565b80356001600160a01b038116811461152f57600080fd5b919050565b60006020828403121561154657600080fd5b61148882611518565b634e487b7160e01b600052604160045260246000fd5b803560ff8116811461152f57600080fd5b600080600080600080600080610100898b03121561159357600080fd5b61159c89611518565b9750602089013596506040890135955060608901359450608089013567ffffffffffffffff808211156115ce57600080fd5b818b0191508b601f8301126115e257600080fd5b8135818111156115f4576115f461154f565b604051601f8201601f19908116603f0116810190838211818310171561161c5761161c61154f565b816040528281528e602084870101111561163557600080fd5b82602086016020830137600060208483010152809850505050505060a0890135925060c0890135915061166a60e08a01611565565b90509295985092959890939650565b60006020828403121561168b57600080fd5b5035919050565b600080604083850312156116a557600080fd5b823591506116b560208401611518565b90509250929050565b6000806000606084860312156116d357600080fd5b6116dc84611518565b92506116ea60208501611518565b9150604084013590509250925092565b600080600080600060a0868803121561171257600080fd5b61171b86611518565b945060208601359350604086013592506060860135915061173e60808701611565565b90509295509295909350565b6000806040838503121561175d57600080fd5b61176683611518565b91506116b560208401611518565b6000806040838503121561178757600080fd5b61179083611518565b946020939093013593505050565b600083516117b08184602088016114b9565b60609390931b6001600160601b0319169190920190815260140192915050565b600082516117e28184602087016114b9565b9190910192915050565b80516001600160701b038116811461152f57600080fd5b60008060006060848603121561181857600080fd5b611821846117ec565b925061182f602085016117ec565b9150604084015163ffffffff8116811461184857600080fd5b809150509250925092565b634e487b7160e01b600052601160045260246000fd5b60008261188657634e487b7160e01b600052601260045260246000fd5b500490565b7f416363657373436f6e74726f6c3a206163636f756e74200000000000000000008152600083516118c38160178501602088016114b9565b7001034b99036b4b9b9b4b733903937b6329607d1b60179184019182015283516118f48160288401602088016114b9565b01602801949350505050565b600081600019048311821515161561191a5761191a611853565b500290565b6000821982111561193257611932611853565b500190565b634e487b7160e01b600052603260045260246000fd5b60008161195c5761195c611853565b50600019019056fe4d6574614b6565704c616d62646143616e63656c4e6f6e63652875696e74323536206e6f6e63652c616464726573732066726f6d294d6574614b6565704c616d6264615472616e73616374696f6e2875696e74323536206e6f6e63652c75696e743235362076616c696446726f6d2c75696e743235362076616c69645570746f2c616464726573732066726f6d2c62797465732066756e6374696f6e5369676e617475726529a26469706673582212200f439809b03a9fcedf20418f4df4d7d8736b85123dd2c452704149d556f9820c64736f6c634300080a0033454950373132446f6d61696e28737472696e67206e616d652c737472696e672076657273696f6e2c6164647265737320766572696679696e67436f6e74726163742c627974657333322073616c7429f3a68b3f49a13367480fd7bc507b2776cef106fb7cff6b2af48f699790f77014",
  "linkReferences": {},
  "deployedLinkReferences": {}
}