{
  "_format": "hh-sol-artifact-1",
  "contractName": "NFTMarket",
  "sourceName": "contracts/MarketPlace.sol",
  "abi": [
    {
      "inputs": [
        {
          "internalType": "address",
          "name": "lambdaOwner",
          "type": "address"
        },
        {
          "internalType": "string",
          "name": "lambdaName",
          "type": "string"
        }
      ],
      "stateMutability": "nonpayable",
      "type": "constructor"
    },
    {
      "anonymous": false,
      "inputs": [
        {
          "indexed": false,
          "internalType": "address",
          "name": "previousAdmin",
          "type": "address"
        },
        {
          "indexed": false,
          "internalType": "address",
          "name": "newAdmin",
          "type": "address"
        }
      ],
      "name": "AdminChanged",
      "type": "event"
    },
    {
      "anonymous": false,
      "inputs": [
        {
          "indexed": true,
          "internalType": "address",
          "name": "beacon",
          "type": "address"
        }
      ],
      "name": "BeaconUpgraded",
      "type": "event"
    },
    {
      "anonymous": false,
      "inputs": [
        {
          "indexed": false,
          "internalType": "uint8",
          "name": "version",
          "type": "uint8"
        }
      ],
      "name": "Initialized",
      "type": "event"
    },
    {
      "anonymous": false,
      "inputs": [
        {
          "indexed": false,
          "internalType": "address",
          "name": "_from",
          "type": "address"
        },
        {
          "indexed": false,
          "internalType": "address",
          "name": "to",
          "type": "address"
        },
        {
          "indexed": false,
          "internalType": "uint256",
          "name": "ItemID",
          "type": "uint256"
        },
        {
          "indexed": false,
          "internalType": "uint256",
          "name": "TokenID",
          "type": "uint256"
        }
      ],
      "name": "MarketItemChanged",
      "type": "event"
    },
    {
      "anonymous": false,
      "inputs": [
        {
          "indexed": true,
          "internalType": "bytes32",
          "name": "role",
          "type": "bytes32"
        },
        {
          "indexed": true,
          "internalType": "bytes32",
          "name": "previousAdminRole",
          "type": "bytes32"
        },
        {
          "indexed": true,
          "internalType": "bytes32",
          "name": "newAdminRole",
          "type": "bytes32"
        }
      ],
      "name": "RoleAdminChanged",
      "type": "event"
    },
    {
      "anonymous": false,
      "inputs": [
        {
          "indexed": true,
          "internalType": "bytes32",
          "name": "role",
          "type": "bytes32"
        },
        {
          "indexed": true,
          "internalType": "address",
          "name": "account",
          "type": "address"
        },
        {
          "indexed": true,
          "internalType": "address",
          "name": "sender",
          "type": "address"
        }
      ],
      "name": "RoleGranted",
      "type": "event"
    },
    {
      "anonymous": false,
      "inputs": [
        {
          "indexed": true,
          "internalType": "bytes32",
          "name": "role",
          "type": "bytes32"
        },
        {
          "indexed": true,
          "internalType": "address",
          "name": "account",
          "type": "address"
        },
        {
          "indexed": true,
          "internalType": "address",
          "name": "sender",
          "type": "address"
        }
      ],
      "name": "RoleRevoked",
      "type": "event"
    },
    {
      "anonymous": false,
      "inputs": [
        {
          "indexed": true,
          "internalType": "address",
          "name": "implementation",
          "type": "address"
        }
      ],
      "name": "Upgraded",
      "type": "event"
    },
    {
      "inputs": [],
      "name": "DEFAULT_ADMIN_ROLE",
      "outputs": [
        {
          "internalType": "bytes32",
          "name": "",
          "type": "bytes32"
        }
      ],
      "stateMutability": "view",
      "type": "function"
    },
    {
      "inputs": [],
      "name": "ERC712_VERSION",
      "outputs": [
        {
          "internalType": "string",
          "name": "",
          "type": "string"
        }
      ],
      "stateMutability": "view",
      "type": "function"
    },
    {
      "inputs": [],
      "name": "METAKEEP_LAMBDA_CANCEL_NONCE_TYPEHASH",
      "outputs": [
        {
          "internalType": "bytes32",
          "name": "",
          "type": "bytes32"
        }
      ],
      "stateMutability": "view",
      "type": "function"
    },
    {
      "inputs": [],
      "name": "METAKEEP_LAMBDA_OWNER_ROLE",
      "outputs": [
        {
          "internalType": "bytes32",
          "name": "",
          "type": "bytes32"
        }
      ],
      "stateMutability": "view",
      "type": "function"
    },
    {
      "inputs": [],
      "name": "METAKEEP_LAMBDA_TRANSACTION_TYPEHASH",
      "outputs": [
        {
          "internalType": "bytes32",
          "name": "",
          "type": "bytes32"
        }
      ],
      "stateMutability": "view",
      "type": "function"
    },
    {
      "inputs": [
        {
          "internalType": "uint256",
          "name": "itemId1",
          "type": "uint256"
        },
        {
          "internalType": "uint256",
          "name": "tokenId",
          "type": "uint256"
        },
        {
          "internalType": "address",
          "name": "nftContract",
          "type": "address"
        },
        {
          "internalType": "address",
          "name": "nftowner",
          "type": "address"
        },
        {
          "internalType": "address",
          "name": "lastSeller",
          "type": "address"
        },
        {
          "internalType": "address[]",
          "name": "prevOwners",
          "type": "address[]"
        },
        {
          "internalType": "uint256",
          "name": "price",
          "type": "uint256"
        },
        {
          "internalType": "uint256",
          "name": "lastPrice",
          "type": "uint256"
        },
        {
          "internalType": "bool",
          "name": "onSale",
          "type": "bool"
        }
      ],
      "name": "addMarketItem",
      "outputs": [],
      "stateMutability": "nonpayable",
      "type": "function"
    },
    {
      "inputs": [
        {
          "internalType": "uint256",
          "name": "amount",
          "type": "uint256"
        }
      ],
      "name": "calcEarnedFeeAmounts",
      "outputs": [],
      "stateMutability": "nonpayable",
      "type": "function"
    },
    {
      "inputs": [
        {
          "internalType": "address",
          "name": "userAddress",
          "type": "address"
        },
        {
          "internalType": "uint256",
          "name": "nonce",
          "type": "uint256"
        },
        {
          "internalType": "bytes32",
          "name": "sigR",
          "type": "bytes32"
        },
        {
          "internalType": "bytes32",
          "name": "sigS",
          "type": "bytes32"
        },
        {
          "internalType": "uint8",
          "name": "sigV",
          "type": "uint8"
        }
      ],
      "name": "cancelMetaKeepLambdaNonce",
      "outputs": [],
      "stateMutability": "nonpayable",
      "type": "function"
    },
    {
      "inputs": [
        {
          "internalType": "uint256",
          "name": "",
          "type": "uint256"
        }
      ],
      "name": "collections",
      "outputs": [
        {
          "internalType": "uint256",
          "name": "itemId",
          "type": "uint256"
        },
        {
          "internalType": "address",
          "name": "nftContract",
          "type": "address"
        },
        {
          "internalType": "string",
          "name": "name",
          "type": "string"
        },
        {
          "internalType": "string",
          "name": "symbol",
          "type": "string"
        },
        {
          "internalType": "string",
          "name": "jsonProperties",
          "type": "string"
        }
      ],
      "stateMutability": "view",
      "type": "function"
    },
    {
      "inputs": [
        {
          "internalType": "address",
          "name": "_addr",
          "type": "address"
        },
        {
          "internalType": "string",
          "name": "_name",
          "type": "string"
        },
        {
          "internalType": "string",
          "name": "_symbol",
          "type": "string"
        },
        {
          "internalType": "string",
          "name": "_jsonProperties",
          "type": "string"
        }
      ],
      "name": "createCollection",
      "outputs": [],
      "stateMutability": "nonpayable",
      "type": "function"
    },
    {
      "inputs": [
        {
          "internalType": "uint256",
          "name": "tokenId",
          "type": "uint256"
        },
        {
          "internalType": "address",
          "name": "nftContract",
          "type": "address"
        }
      ],
      "name": "createMarketItem",
      "outputs": [
        {
          "internalType": "uint256",
          "name": "",
          "type": "uint256"
        }
      ],
      "stateMutability": "nonpayable",
      "type": "function"
    },
    {
      "inputs": [
        {
          "internalType": "uint256",
          "name": "tokenId",
          "type": "uint256"
        },
        {
          "internalType": "address",
          "name": "_owner",
          "type": "address"
        }
      ],
      "name": "createMarketItemFromNFTContract",
      "outputs": [],
      "stateMutability": "nonpayable",
      "type": "function"
    },
    {
      "inputs": [
        {
          "internalType": "uint256[]",
          "name": "tokenIds",
          "type": "uint256[]"
        },
        {
          "internalType": "address",
          "name": "nftContract",
          "type": "address"
        }
      ],
      "name": "createMarketItems",
      "outputs": [],
      "stateMutability": "nonpayable",
      "type": "function"
    },
    {
      "inputs": [
        {
          "internalType": "uint256",
          "name": "cId",
          "type": "uint256"
        }
      ],
      "name": "deleteCollection",
      "outputs": [],
      "stateMutability": "nonpayable",
      "type": "function"
    },
    {
      "inputs": [
        {
          "internalType": "uint256",
          "name": "itemId",
          "type": "uint256"
        }
      ],
      "name": "deleteMarketItem",
      "outputs": [],
      "stateMutability": "nonpayable",
      "type": "function"
    },
    {
      "inputs": [],
      "name": "domainSeperator",
      "outputs": [
        {
          "internalType": "bytes32",
          "name": "",
          "type": "bytes32"
        }
      ],
      "stateMutability": "view",
      "type": "function"
    },
    {
      "inputs": [
        {
          "internalType": "address",
          "name": "userAddress",
          "type": "address"
        },
        {
          "internalType": "uint256",
          "name": "nonce",
          "type": "uint256"
        },
        {
          "internalType": "uint256",
          "name": "validFrom",
          "type": "uint256"
        },
        {
          "internalType": "uint256",
          "name": "validUpto",
          "type": "uint256"
        },
        {
          "internalType": "bytes",
          "name": "functionSignature",
          "type": "bytes"
        },
        {
          "internalType": "bytes32",
          "name": "sigR",
          "type": "bytes32"
        },
        {
          "internalType": "bytes32",
          "name": "sigS",
          "type": "bytes32"
        },
        {
          "internalType": "uint8",
          "name": "sigV",
          "type": "uint8"
        }
      ],
      "name": "executeMetaKeepLambdaTransaction",
      "outputs": [
        {
          "internalType": "bool",
          "name": "",
          "type": "bool"
        }
      ],
      "stateMutability": "payable",
      "type": "function"
    },
    {
      "inputs": [],
      "name": "fetchAllCollections",
      "outputs": [
        {
          "components": [
            {
              "internalType": "uint256",
              "name": "itemId",
              "type": "uint256"
            },
            {
              "internalType": "address",
              "name": "nftContract",
              "type": "address"
            },
            {
              "internalType": "string",
              "name": "name",
              "type": "string"
            },
            {
              "internalType": "string",
              "name": "symbol",
              "type": "string"
            },
            {
              "internalType": "string",
              "name": "jsonProperties",
              "type": "string"
            }
          ],
          "internalType": "struct NFTMarket.CollectionItem[]",
          "name": "",
          "type": "tuple[]"
        }
      ],
      "stateMutability": "view",
      "type": "function"
    },
    {
      "inputs": [],
      "name": "fetchAllItems",
      "outputs": [
        {
          "components": [
            {
              "internalType": "uint256",
              "name": "itemId",
              "type": "uint256"
            },
            {
              "internalType": "uint256",
              "name": "tokenId",
              "type": "uint256"
            },
            {
              "internalType": "address",
              "name": "nftContract",
              "type": "address"
            },
            {
              "internalType": "address payable",
              "name": "owner",
              "type": "address"
            },
            {
              "internalType": "address",
              "name": "lastSeller",
              "type": "address"
            },
            {
              "internalType": "address[]",
              "name": "prevOwners",
              "type": "address[]"
            },
            {
              "internalType": "uint256",
              "name": "price",
              "type": "uint256"
            },
            {
              "internalType": "uint256",
              "name": "lastPrice",
              "type": "uint256"
            },
            {
              "internalType": "bool",
              "name": "onSale",
              "type": "bool"
            }
          ],
          "internalType": "struct NFTMarket.MarketItem[]",
          "name": "",
          "type": "tuple[]"
        }
      ],
      "stateMutability": "view",
      "type": "function"
    },
    {
      "inputs": [
        {
          "internalType": "address",
          "name": "_owner",
          "type": "address"
        },
        {
          "internalType": "address",
          "name": "_nftAddr",
          "type": "address"
        }
      ],
      "name": "fetchAllItemsOfOwner",
      "outputs": [
        {
          "components": [
            {
              "internalType": "uint256",
              "name": "itemId",
              "type": "uint256"
            },
            {
              "internalType": "uint256",
              "name": "tokenId",
              "type": "uint256"
            },
            {
              "internalType": "address",
              "name": "nftContract",
              "type": "address"
            },
            {
              "internalType": "address payable",
              "name": "owner",
              "type": "address"
            },
            {
              "internalType": "address",
              "name": "lastSeller",
              "type": "address"
            },
            {
              "internalType": "address[]",
              "name": "prevOwners",
              "type": "address[]"
            },
            {
              "internalType": "uint256",
              "name": "price",
              "type": "uint256"
            },
            {
              "internalType": "uint256",
              "name": "lastPrice",
              "type": "uint256"
            },
            {
              "internalType": "bool",
              "name": "onSale",
              "type": "bool"
            }
          ],
          "internalType": "struct NFTMarket.MarketItem[]",
          "name": "",
          "type": "tuple[]"
        }
      ],
      "stateMutability": "view",
      "type": "function"
    },
    {
      "inputs": [
        {
          "internalType": "address",
          "name": "_nftAddr",
          "type": "address"
        }
      ],
      "name": "fetchAllItemsOnSale",
      "outputs": [
        {
          "components": [
            {
              "internalType": "uint256",
              "name": "itemId",
              "type": "uint256"
            },
            {
              "internalType": "uint256",
              "name": "tokenId",
              "type": "uint256"
            },
            {
              "internalType": "address",
              "name": "nftContract",
              "type": "address"
            },
            {
              "internalType": "address payable",
              "name": "owner",
              "type": "address"
            },
            {
              "internalType": "address",
              "name": "lastSeller",
              "type": "address"
            },
            {
              "internalType": "address[]",
              "name": "prevOwners",
              "type": "address[]"
            },
            {
              "internalType": "uint256",
              "name": "price",
              "type": "uint256"
            },
            {
              "internalType": "uint256",
              "name": "lastPrice",
              "type": "uint256"
            },
            {
              "internalType": "bool",
              "name": "onSale",
              "type": "bool"
            }
          ],
          "internalType": "struct NFTMarket.MarketItem[]",
          "name": "",
          "type": "tuple[]"
        }
      ],
      "stateMutability": "view",
      "type": "function"
    },
    {
      "inputs": [
        {
          "internalType": "address",
          "name": "_owner",
          "type": "address"
        },
        {
          "internalType": "address",
          "name": "_nftAddr",
          "type": "address"
        }
      ],
      "name": "fetchAllItemsOnSaleOfNotOwner",
      "outputs": [
        {
          "components": [
            {
              "internalType": "uint256",
              "name": "itemId",
              "type": "uint256"
            },
            {
              "internalType": "uint256",
              "name": "tokenId",
              "type": "uint256"
            },
            {
              "internalType": "address",
              "name": "nftContract",
              "type": "address"
            },
            {
              "internalType": "address payable",
              "name": "owner",
              "type": "address"
            },
            {
              "internalType": "address",
              "name": "lastSeller",
              "type": "address"
            },
            {
              "internalType": "address[]",
              "name": "prevOwners",
              "type": "address[]"
            },
            {
              "internalType": "uint256",
              "name": "price",
              "type": "uint256"
            },
            {
              "internalType": "uint256",
              "name": "lastPrice",
              "type": "uint256"
            },
            {
              "internalType": "bool",
              "name": "onSale",
              "type": "bool"
            }
          ],
          "internalType": "struct NFTMarket.MarketItem[]",
          "name": "",
          "type": "tuple[]"
        }
      ],
      "stateMutability": "view",
      "type": "function"
    },
    {
      "inputs": [
        {
          "internalType": "address",
          "name": "_owner",
          "type": "address"
        },
        {
          "internalType": "address",
          "name": "_nftAddr",
          "type": "address"
        }
      ],
      "name": "fetchAllItemsOnSaleOfOwner",
      "outputs": [
        {
          "components": [
            {
              "internalType": "uint256",
              "name": "itemId",
              "type": "uint256"
            },
            {
              "internalType": "uint256",
              "name": "tokenId",
              "type": "uint256"
            },
            {
              "internalType": "address",
              "name": "nftContract",
              "type": "address"
            },
            {
              "internalType": "address payable",
              "name": "owner",
              "type": "address"
            },
            {
              "internalType": "address",
              "name": "lastSeller",
              "type": "address"
            },
            {
              "internalType": "address[]",
              "name": "prevOwners",
              "type": "address[]"
            },
            {
              "internalType": "uint256",
              "name": "price",
              "type": "uint256"
            },
            {
              "internalType": "uint256",
              "name": "lastPrice",
              "type": "uint256"
            },
            {
              "internalType": "bool",
              "name": "onSale",
              "type": "bool"
            }
          ],
          "internalType": "struct NFTMarket.MarketItem[]",
          "name": "",
          "type": "tuple[]"
        }
      ],
      "stateMutability": "view",
      "type": "function"
    },
    {
      "inputs": [
        {
          "internalType": "address",
          "name": "_owner",
          "type": "address"
        },
        {
          "internalType": "address",
          "name": "_nftAddr",
          "type": "address"
        }
      ],
      "name": "fetchAllItemsOnUseOfOwner",
      "outputs": [
        {
          "components": [
            {
              "internalType": "uint256",
              "name": "itemId",
              "type": "uint256"
            },
            {
              "internalType": "uint256",
              "name": "tokenId",
              "type": "uint256"
            },
            {
              "internalType": "address",
              "name": "nftContract",
              "type": "address"
            },
            {
              "internalType": "address payable",
              "name": "owner",
              "type": "address"
            },
            {
              "internalType": "address",
              "name": "lastSeller",
              "type": "address"
            },
            {
              "internalType": "address[]",
              "name": "prevOwners",
              "type": "address[]"
            },
            {
              "internalType": "uint256",
              "name": "price",
              "type": "uint256"
            },
            {
              "internalType": "uint256",
              "name": "lastPrice",
              "type": "uint256"
            },
            {
              "internalType": "bool",
              "name": "onSale",
              "type": "bool"
            }
          ],
          "internalType": "struct NFTMarket.MarketItem[]",
          "name": "",
          "type": "tuple[]"
        }
      ],
      "stateMutability": "view",
      "type": "function"
    },
    {
      "inputs": [
        {
          "internalType": "uint256",
          "name": "itemId",
          "type": "uint256"
        }
      ],
      "name": "getIdToMarketItemOwner",
      "outputs": [
        {
          "internalType": "address",
          "name": "",
          "type": "address"
        }
      ],
      "stateMutability": "view",
      "type": "function"
    },
    {
      "inputs": [
        {
          "internalType": "uint256",
          "name": "itemId",
          "type": "uint256"
        }
      ],
      "name": "getIdToMarketItemTokenID",
      "outputs": [
        {
          "internalType": "uint256",
          "name": "",
          "type": "uint256"
        }
      ],
      "stateMutability": "view",
      "type": "function"
    },
    {
      "inputs": [],
      "name": "getListingPrice",
      "outputs": [
        {
          "internalType": "uint256",
          "name": "",
          "type": "uint256"
        }
      ],
      "stateMutability": "view",
      "type": "function"
    },
    {
      "inputs": [
        {
          "internalType": "bytes32",
          "name": "role",
          "type": "bytes32"
        }
      ],
      "name": "getRoleAdmin",
      "outputs": [
        {
          "internalType": "bytes32",
          "name": "",
          "type": "bytes32"
        }
      ],
      "stateMutability": "view",
      "type": "function"
    },
    {
      "inputs": [
        {
          "internalType": "bytes32",
          "name": "role",
          "type": "bytes32"
        },
        {
          "internalType": "address",
          "name": "account",
          "type": "address"
        }
      ],
      "name": "grantRole",
      "outputs": [],
      "stateMutability": "nonpayable",
      "type": "function"
    },
    {
      "inputs": [
        {
          "internalType": "bytes32",
          "name": "role",
          "type": "bytes32"
        },
        {
          "internalType": "address",
          "name": "account",
          "type": "address"
        }
      ],
      "name": "hasRole",
      "outputs": [
        {
          "internalType": "bool",
          "name": "",
          "type": "bool"
        }
      ],
      "stateMutability": "view",
      "type": "function"
    },
    {
      "inputs": [
        {
          "internalType": "address",
          "name": "lambdaOwner",
          "type": "address"
        },
        {
          "internalType": "string",
          "name": "lambdaName",
          "type": "string"
        }
      ],
      "name": "initialize",
      "outputs": [],
      "stateMutability": "nonpayable",
      "type": "function"
    },
    {
      "inputs": [
        {
          "internalType": "uint256",
          "name": "itemId",
          "type": "uint256"
        },
        {
          "internalType": "address",
          "name": "nftContract",
          "type": "address"
        }
      ],
      "name": "listItemCancelOnSale",
      "outputs": [],
      "stateMutability": "payable",
      "type": "function"
    },
    {
      "inputs": [
        {
          "internalType": "uint256",
          "name": "itemId",
          "type": "uint256"
        },
        {
          "internalType": "address",
          "name": "nftContract",
          "type": "address"
        },
        {
          "internalType": "uint256",
          "name": "price",
          "type": "uint256"
        }
      ],
      "name": "listItemOnSale",
      "outputs": [],
      "stateMutability": "payable",
      "type": "function"
    },
    {
      "inputs": [
        {
          "internalType": "uint256",
          "name": "itemId",
          "type": "uint256"
        },
        {
          "internalType": "uint256",
          "name": "price",
          "type": "uint256"
        },
        {
          "internalType": "address",
          "name": "_owner",
          "type": "address"
        }
      ],
      "name": "listItemOnSaleFromNFTContract",
      "outputs": [],
      "stateMutability": "payable",
      "type": "function"
    },
    {
      "inputs": [
        {
          "internalType": "address",
          "name": "userAddress",
          "type": "address"
        },
        {
          "internalType": "uint256",
          "name": "nonce",
          "type": "uint256"
        }
      ],
      "name": "metaKeepLambdaNonceState",
      "outputs": [
        {
          "internalType": "bool",
          "name": "",
          "type": "bool"
        }
      ],
      "stateMutability": "view",
      "type": "function"
    },
    {
      "inputs": [
        {
          "internalType": "address",
          "name": "operator",
          "type": "address"
        },
        {
          "internalType": "address",
          "name": "from",
          "type": "address"
        },
        {
          "internalType": "uint256",
          "name": "tokenId",
          "type": "uint256"
        },
        {
          "internalType": "bytes",
          "name": "data",
          "type": "bytes"
        }
      ],
      "name": "onERC721Received",
      "outputs": [
        {
          "internalType": "bytes4",
          "name": "",
          "type": "bytes4"
        }
      ],
      "stateMutability": "pure",
      "type": "function"
    },
    {
      "inputs": [],
      "name": "owner",
      "outputs": [
        {
          "internalType": "address",
          "name": "",
          "type": "address"
        }
      ],
      "stateMutability": "view",
      "type": "function"
    },
    {
      "inputs": [],
      "name": "proxiableUUID",
      "outputs": [
        {
          "internalType": "bytes32",
          "name": "",
          "type": "bytes32"
        }
      ],
      "stateMutability": "view",
      "type": "function"
    },
    {
      "inputs": [
        {
          "internalType": "bytes32",
          "name": "role",
          "type": "bytes32"
        },
        {
          "internalType": "address",
          "name": "account",
          "type": "address"
        }
      ],
      "name": "renounceRole",
      "outputs": [],
      "stateMutability": "nonpayable",
      "type": "function"
    },
    {
      "inputs": [
        {
          "internalType": "bytes32",
          "name": "role",
          "type": "bytes32"
        },
        {
          "internalType": "address",
          "name": "account",
          "type": "address"
        }
      ],
      "name": "revokeRole",
      "outputs": [],
      "stateMutability": "nonpayable",
      "type": "function"
    },
    {
      "inputs": [
        {
          "internalType": "uint256",
          "name": "itemId",
          "type": "uint256"
        },
        {
          "internalType": "address",
          "name": "nftContract",
          "type": "address"
        }
      ],
      "name": "sellMarketItem",
      "outputs": [],
      "stateMutability": "payable",
      "type": "function"
    },
    {
      "inputs": [
        {
          "internalType": "uint256",
          "name": "itemId",
          "type": "uint256"
        },
        {
          "internalType": "uint256",
          "name": "tokenId",
          "type": "uint256"
        },
        {
          "internalType": "address",
          "name": "nftContract",
          "type": "address"
        },
        {
          "internalType": "address",
          "name": "nftowner",
          "type": "address"
        },
        {
          "internalType": "address",
          "name": "lastSeller",
          "type": "address"
        },
        {
          "internalType": "address[]",
          "name": "prevOwners",
          "type": "address[]"
        },
        {
          "internalType": "uint256",
          "name": "price",
          "type": "uint256"
        },
        {
          "internalType": "uint256",
          "name": "lastPrice",
          "type": "uint256"
        },
        {
          "internalType": "bool",
          "name": "onSale",
          "type": "bool"
        }
      ],
      "name": "setMarketItem",
      "outputs": [],
      "stateMutability": "nonpayable",
      "type": "function"
    },
    {
      "inputs": [
        {
          "internalType": "uint256",
          "name": "newItemId",
          "type": "uint256"
        }
      ],
      "name": "setTokenID",
      "outputs": [],
      "stateMutability": "nonpayable",
      "type": "function"
    },
    {
      "inputs": [
        {
          "internalType": "bytes4",
          "name": "interfaceId",
          "type": "bytes4"
        }
      ],
      "name": "supportsInterface",
      "outputs": [
        {
          "internalType": "bool",
          "name": "",
          "type": "bool"
        }
      ],
      "stateMutability": "view",
      "type": "function"
    },
    {
      "inputs": [],
      "name": "totalEarnedAmounts",
      "outputs": [
        {
          "internalType": "uint256",
          "name": "",
          "type": "uint256"
        }
      ],
      "stateMutability": "view",
      "type": "function"
    },
    {
      "inputs": [],
      "name": "totalEarnedFeeAmounts",
      "outputs": [
        {
          "internalType": "uint256",
          "name": "",
          "type": "uint256"
        }
      ],
      "stateMutability": "view",
      "type": "function"
    },
    {
      "inputs": [
        {
          "internalType": "address",
          "name": "newImplementation",
          "type": "address"
        }
      ],
      "name": "upgradeTo",
      "outputs": [],
      "stateMutability": "nonpayable",
      "type": "function"
    },
    {
      "inputs": [
        {
          "internalType": "address",
          "name": "newImplementation",
          "type": "address"
        },
        {
          "internalType": "bytes",
          "name": "data",
          "type": "bytes"
        }
      ],
      "name": "upgradeToAndCall",
      "outputs": [],
      "stateMutability": "payable",
      "type": "function"
    },
    {
      "inputs": [],
      "name": "withdrawAll",
      "outputs": [
        {
          "internalType": "bool",
          "name": "",
          "type": "bool"
        }
      ],
      "stateMutability": "payable",
      "type": "function"
    }
  ],
  "bytecode": "0x60a0604052306080523480156200001557600080fd5b50604051620059c0380380620059c083398101604081905262000038916200055b565b6200004482826200004c565b50506200065b565b600054610100900460ff16158080156200006d5750600054600160ff909116105b806200009d57506200008a30620001aa60201b620037331760201c565b1580156200009d575060005460ff166001145b620001065760405162461bcd60e51b815260206004820152602e60248201527f496e697469616c697a61626c653a20636f6e747261637420697320616c72656160448201526d191e481a5b9a5d1a585b1a5e995960921b60648201526084015b60405180910390fd5b6000805460ff1916600117905580156200012a576000805461ff0019166101001790555b6608e1bc9bf040006101315561013480546001600160a01b0319166001600160a01b0385161790556200015e8383620001b9565b8015620001a5576000805461ff0019169055604051600181527f7f26b83ff96e1f2b6a682f133852f6798a09c465da95921460cefb38474024989060200160405180910390a15b505050565b6001600160a01b03163b151590565b600054610100900460ff16620002155760405162461bcd60e51b815260206004820152602b60248201526000805160206200598083398151915260448201526a6e697469616c697a696e6760a81b6064820152608401620000fd565b62000220826200022f565b6200022b81620002c4565b5050565b600054610100900460ff166200028b5760405162461bcd60e51b815260206004820152602b60248201526000805160206200598083398151915260448201526a6e697469616c697a696e6760a81b6064820152608401620000fd565b620002a6600080516020620059a083398151915282620003cd565b620002c1600080516020620059a083398151915280620003d9565b50565b609754156200032b5760405162461bcd60e51b815260206004820152602c60248201527f4d6574614b6565704c616d6264613a20446f6d61696e20736570657261746f7260448201526b08185b1c9958591e481cd95d60a21b6064820152608401620000fd565b6040518060800160405280604f815260200162005931604f9139805160209182012082519282019290922060408051808201825260018152603160f81b90840152805180840194909452838101919091527fc89efdaa54c0f20c7adf612882df0950f5a951637e0307cdcb4c672f298b8bc660608401523060808401524660a0808501919091528151808503909101815260c090930190528151910120609755565b6200022b828262000424565b600082815260656020526040808220600101805490849055905190918391839186917fbd79b86ffe0ab8e8776151514217cd7cacd52c909f66475c3af44e129f0b00ff9190a4505050565b60008281526065602090815260408083206001600160a01b038516845290915290205460ff166200022b5760008281526065602090815260408083206001600160a01b03851684529091529020805460ff1916600117905562000486620004ca565b6001600160a01b0316816001600160a01b0316837f2f8788117e7eff1d82e926ec794901d17c78024a50270940304540a733656f0d60405160405180910390a45050565b6000620004e1620004e660201b620037421760201c565b905090565b6000333014156200053f57600080368080601f0160208091040260200160405190810160405280939291908181526020018383808284376000920191909152505050503601516001600160a01b03169150620005429050565b50335b90565b634e487b7160e01b600052604160045260246000fd5b600080604083850312156200056f57600080fd5b82516001600160a01b03811681146200058757600080fd5b602084810151919350906001600160401b0380821115620005a757600080fd5b818601915086601f830112620005bc57600080fd5b815181811115620005d157620005d162000545565b604051601f8201601f19908116603f01168101908382118183101715620005fc57620005fc62000545565b8160405282815289868487010111156200061557600080fd5b600093505b828410156200063957848401860151818501870152928501926200061a565b828411156200064b5760008684830101525b8096505050505050509250929050565b60805161529e6200069360003960008181610de401528181610e240152818161117b015281816111bb015261124a015261529e6000f3fe6080604052600436106102ae5760003560e01c80638ee2526711610175578063b661ca05116100dc578063d51b2d0611610095578063e97ff65e1161006f578063e97ff65e146108a4578063ebe9b0f2146108b9578063f399e22e146108ff578063fdbda0ec1461091f57600080fd5b8063d51b2d0614610809578063d547741f1461082b578063ddfe99d91461084b57600080fd5b8063b661ca0514610742578063c0534ab014610762578063c0dcaeeb1461079c578063c770d7de146107bc578063c8c930be146107dc578063cb73ac56146107f357600080fd5b8063a42c587a1161012e578063a42c587a14610698578063a5c1344b146106b8578063a9c07145146106d8578063ac9dfacb146106f8578063ae73ace71461070f578063b161500c1461072f57600080fd5b80638ee25267146105ee57806391d148541461060e57806391eec6bf1461062e57806397598cc31461064e578063980e27bd14610663578063a217fddf1461068357600080fd5b80633659cfe6116102195780635d555630116101d25780635d555630146105335780635f5e637f146105605780637a4151a1146105735780637dd3eeb914610593578063853828b6146105b35780638da5cb5b146105bb57600080fd5b80633659cfe6146104985780633df17453146104b85780633e339590146104d85780634f1ef286146104f857806352d1902d1461050b578063539c23021461052057600080fd5b8063243ed11d1161026b578063243ed11d146103d1578063248a9ca3146103e4578063285857ae146104145780632f2ff15d146104365780633087b2b01461045857806336568abe1461047857600080fd5b806301ffc9a7146102b35780630c1f5635146102e85780630f7e59701461030b57806312e8558514610345578063150b7a021461035b5780632147f68b146103a0575b600080fd5b3480156102bf57600080fd5b506102d36102ce36600461452a565b610950565b60405190151581526020015b60405180910390f35b3480156102f457600080fd5b506102fd610987565b6040519081526020016102df565b34801561031757600080fd5b50610338604051806040016040528060018152602001603160f81b81525081565b6040516102df91906145ac565b34801561035157600080fd5b50610131546102fd565b34801561036757600080fd5b506103876103763660046145e4565b630a85bd0160e11b95945050505050565b6040516001600160e01b031990911681526020016102df565b3480156103ac57600080fd5b506102fd6103bb366004614682565b6000908152610136602052604090206001015490565b6102d36103df366004614761565b6109aa565b3480156103f057600080fd5b506102fd6103ff366004614682565b60009081526065602052604090206001015490565b34801561042057600080fd5b506102fd60008051602061522283398151915281565b34801561044257600080fd5b506104566104513660046147f1565b610bbe565b005b34801561046457600080fd5b50610456610473366004614854565b610be8565b34801561048457600080fd5b506104566104933660046147f1565b610d4b565b3480156104a457600080fd5b506104566104b3366004614962565b610dd9565b3480156104c457600080fd5b506104566104d336600461497f565b610eb9565b3480156104e457600080fd5b506102fd6104f33660046147f1565b610f8f565b610456610506366004614a19565b611170565b34801561051757600080fd5b506102fd61123d565b61045661052e3660046147f1565b6112f1565b34801561053f57600080fd5b5061055361054e366004614a68565b611487565b6040516102df9190614ada565b61045661056e3660046147f1565b61175c565b34801561057f57600080fd5b5061045661058e366004614bba565b6119f6565b34801561059f57600080fd5b506104566105ae366004614682565b611c37565b6102d3611c4d565b3480156105c757600080fd5b50610134546001600160a01b03165b6040516001600160a01b0390911681526020016102df565b3480156105fa57600080fd5b50610456610609366004614682565b611cf3565b34801561061a57600080fd5b506102d36106293660046147f1565b611d25565b34801561063a57600080fd5b50610553610649366004614a68565b611d50565b34801561065a57600080fd5b50610553612079565b34801561066f57600080fd5b5061055361067e366004614a68565b612213565b34801561068f57600080fd5b506102fd600081565b3480156106a457600080fd5b506104566106b3366004614682565b61253a565b3480156106c457600080fd5b506104566106d33660046147f1565b612588565b3480156106e457600080fd5b506104566106f3366004614682565b6126a2565b34801561070457600080fd5b506102fd6101325481565b34801561071b57600080fd5b5061045661072a366004614854565b612710565b61045661073d366004614c5c565b612831565b34801561074e57600080fd5b5061055361075d366004614a68565b612a23565b34801561076e57600080fd5b506105d661077d366004614682565b600090815261013660205260409020600301546001600160a01b031690565b3480156107a857600080fd5b506104566107b7366004614c94565b612d56565b3480156107c857600080fd5b506105536107d7366004614962565b612e4a565b3480156107e857600080fd5b506102fd6101335481565b3480156107ff57600080fd5b506102fd60975481565b34801561081557600080fd5b5061081e613106565b6040516102df9190614ce6565b34801561083757600080fd5b506104566108463660046147f1565b6133dd565b610456610859366004614d9a565b6000928352610136602052604090922060088101805460ff191660011790556004810180546001600160a01b039094166001600160a01b031990941693909317909255600690910155565b3480156108b057600080fd5b506102fd613402565b3480156108c557600080fd5b506102d36108d4366004614dd3565b6001600160a01b03919091166000908152609860209081526040808320938352929052205460ff1690565b34801561090b57600080fd5b5061045661091a366004614a19565b613425565b34801561092b57600080fd5b5061093f61093a366004614682565b613561565b6040516102df959493929190614dff565b60006001600160e01b03198216637965db0b60e01b148061098157506301ffc9a760e01b6001600160e01b03198316145b92915050565b60405180606001604052806035815260200161517c603591398051906020012081565b60006109b88989898961379e565b60006040518060a001604052808a81526020018981526020018881526020018b6001600160a01b0316815260200187815250905060006040518060a00160405280607181526020016151b16071913980516020918201208351848301516040808701516060808901516080808b01518051908a01208551998a0198909852938801959095528601929092528401526001600160a01b031660a083015260c082015260e001604051602081830303815290604052805190602001209050610a818b82888888613875565b610ad25760405162461bcd60e51b815260206004820152601d60248201527f4d6574614b6565704c616d6264613a20536967206e6f74206d6174636800000060448201526064015b60405180910390fd5b6001609860008d6001600160a01b03166001600160a01b0316815260200190815260200160002060008c815260200190815260200160002060006101000a81548160ff021916908315150217905550600080306001600160a01b0316898e604051602001610b41929190614e5b565b60408051601f1981840301815290829052610b5b91614e92565b6000604051808303816000865af19150503d8060008114610b98576040519150601f19603f3d011682016040523d82523d6000602084013e610b9d565b606091505b509150915081610bae578060208201fd5b509b9a5050505050505050505050565b600082815260656020526040902060010154610bd98161398d565b610be3838361399e565b505050565b6040518061012001604052808a8152602001898152602001886001600160a01b03168152602001876001600160a01b03168152602001866001600160a01b0316815260200185815260200184815260200183815260200182151581525061013660008b8152602001908152602001600020600082015181600001556020820151816001015560408201518160020160006101000a8154816001600160a01b0302191690836001600160a01b0316021790555060608201518160030160006101000a8154816001600160a01b0302191690836001600160a01b0316021790555060808201518160040160006101000a8154816001600160a01b0302191690836001600160a01b0316021790555060a0820151816005019080519060200190610d1092919061437f565b5060c0820151600682015560e08201516007820155610100909101516008909101805460ff1916911515919091179055505050505050505050565b610d53613a25565b6001600160a01b0316816001600160a01b031614610dcb5760405162461bcd60e51b815260206004820152602f60248201527f416363657373436f6e74726f6c3a2063616e206f6e6c792072656e6f756e636560448201526e103937b632b9903337b91039b2b63360891b6064820152608401610ac9565b610dd58282613a34565b5050565b306001600160a01b037f0000000000000000000000000000000000000000000000000000000000000000161415610e225760405162461bcd60e51b8152600401610ac990614eae565b7f00000000000000000000000000000000000000000000000000000000000000006001600160a01b0316610e6b60008051602061515c833981519152546001600160a01b031690565b6001600160a01b031614610e915760405162461bcd60e51b8152600401610ac990614efa565b610e9a81613ab9565b60408051600080825260208201909252610eb691839190613b1b565b50565b610ec861013080546001019055565b6000610ed46101305490565b6040805160a0810182528281526001600160a01b0388811660208084019182528385018a8152606085018a90526080850189905260008781526101358352959095208451815591516001830180546001600160a01b0319169190941617909255925180519495509193610f4d92600285019201906143e4565b5060608201518051610f699160038401916020909101906143e4565b5060808201518051610f859160048401916020909101906143e4565b5050505050505050565b6040516331a9108f60e11b81526004810183905260009033906001600160a01b03841690636352211e90602401602060405180830381865afa158015610fd9573d6000803e3d6000fd5b505050506040513d601f19601f82011682018060405250810190610ffd9190614f46565b6001600160a01b0316146110535760405162461bcd60e51b815260206004820152601d60248201527f4f6e6c79206f776e65722063616e206c697374206e6577204974656d730000006044820152606401610ac9565b61106261012f80546001019055565b600061106e61012f5490565b604080516101208101825282815260208082018881526001600160a01b0380891684860190815233606086810191825260006080880181815260a0890183815260c08a0183905260e08a018390526101008a018390528b8352610136895299909120885181559551600187015592516002860180549186166001600160a01b0319928316179055915160038601805491861691841691909117905591516004850180549190941691161790915593518051959650939492939092611138926005850192019061437f565b5060c0820151600682015560e08201516007820155610100909101516008909101805460ff1916911515919091179055509392505050565b306001600160a01b037f00000000000000000000000000000000000000000000000000000000000000001614156111b95760405162461bcd60e51b8152600401610ac990614eae565b7f00000000000000000000000000000000000000000000000000000000000000006001600160a01b031661120260008051602061515c833981519152546001600160a01b031690565b6001600160a01b0316146112285760405162461bcd60e51b8152600401610ac990614efa565b61123182613ab9565b610dd582826001613b1b565b6000306001600160a01b037f000000000000000000000000000000000000000000000000000000000000000016146112dd5760405162461bcd60e51b815260206004820152603860248201527f555550535570677261646561626c653a206d757374206e6f742062652063616c60448201527f6c6564207468726f7567682064656c656761746563616c6c00000000000000006064820152608401610ac9565b5060008051602061515c8339815191525b90565b600082815261013660205260409020600301546001600160a01b03163314801561132d57506000828152610136602052604090206008015460ff165b6113895760405162461bcd60e51b815260206004820152602760248201527f6f6e6c79206f776e65722063616e2063616e63656c2074686973206974656d206044820152666f6e2073616c6560c81b6064820152608401610ac9565b6000828152610136602052604090819020600101549051632142170760e11b815230600482015233602482015260448101919091526001600160a01b038216906342842e0e90606401600060405180830381600087803b1580156113ec57600080fd5b505af1158015611400573d6000803e3d6000fd5b50505060008381526101366020908152604080832060088101805460ff191690556006810193909355600383015460019093015481516001600160a01b0390941680855292840192909252820185905260608201527f98e55545b671712989c02775721fbd580cad374634f412902b0711ab2433e6fe915060800160405180910390a15050565b6060600061149561012f5490565b90506000805b82811015611540576001600160a01b03861661013660006114bd846001614f79565b81526020810191909152604001600020600301546001600160a01b031614801561151b57506001600160a01b03851661013660006114fc846001614f79565b81526020810191909152604001600020600201546001600160a01b0316145b1561152e578161152a81614f91565b9250505b8061153881614f91565b91505061149b565b506000816001600160401b0381111561155b5761155b61469b565b60405190808252806020026020018201604052801561159457816020015b611581614458565b8152602001906001900390816115795790505b5090506000805b84811015611750576001600160a01b03881661013660006115bd846001614f79565b81526020810191909152604001600020600301546001600160a01b031614801561161b57506001600160a01b03871661013660006115fc846001614f79565b81526020810191909152604001600020600201546001600160a01b0316145b1561173e57600061013681611631846001614f79565b815260208082019290925260409081016000208151610120810183528154815260018201548185015260028201546001600160a01b039081168285015260038301548116606083015260048301541660808201526005820180548451818702810187019095528085529295509093859360a08601939092918301828280156116e257602002820191906000526020600020905b81546001600160a01b031681526001909101906020018083116116c4575b5050509183525050600682015460208201526007820154604082015260089091015460ff161515606090910152845185908590811061172357611723614fac565b6020026020010181905250828061173990614f91565b935050505b8061174881614f91565b91505061159b565b50909695505050505050565b611764613c86565b6000828152610136602052604090206006015434146117c55760405162461bcd60e51b815260206004820152601d60248201527f416d6f756e74206d75737420626520657175616c20746f2070726963650000006044820152606401610ac9565b600082815261013660205260409020600301546001600160a01b03163314156118305760405162461bcd60e51b815260206004820152601e60248201527f4f776e65722073686f756c646e277420627579207468656972204e46547300006044820152606401610ac9565b6000828152610136602052604090819020600101549051632142170760e11b815230600482015233602482015260448101919091526001600160a01b038216906342842e0e90606401600060405180830381600087803b15801561189357600080fd5b505af11580156118a7573d6000803e3d6000fd5b505050600083815261013660205260408082206003015490516001600160a01b0390911692503480156108fc0292909190818181858888f193505050501580156118f5573d6000803e3d6000fd5b5061013454600083815261013660205260409020600301546001600160a01b039081169116141561193457346101325461192f9190614f79565b610132555b600082815261013660209081526040808320600381018054600583018054600180820183559188528688200180546001600160a01b039093166001600160a01b03199384161790558887528254339216821790925560068301805460078501559590955560088201805460ff191690550154815184815292830193909352810184905260608101919091527f98e55545b671712989c02775721fbd580cad374634f412902b0711ab2433e6fe9060800160405180910390a1610dd56001609955565b60005b8251811015610be357336001600160a01b0316826001600160a01b0316636352211e858481518110611a2d57611a2d614fac565b60200260200101516040518263ffffffff1660e01b8152600401611a5391815260200190565b602060405180830381865afa158015611a70573d6000803e3d6000fd5b505050506040513d601f19601f82011682018060405250810190611a949190614f46565b6001600160a01b031614611aea5760405162461bcd60e51b815260206004820152601d60248201527f4f6e6c79206f776e65722063616e206c697374206e6577204974656d730000006044820152606401610ac9565b611af961012f80546001019055565b6000611b0561012f5490565b90506060604051806101200160405280838152602001868581518110611b2d57611b2d614fac565b60209081029190910181015182526001600160a01b03808816838301523360408085019190915260006060808601829052608080870189905260a080880184905260c0880184905260e090970183905289835261013686529183902087518155878601516001820155928701516002840180549186166001600160a01b0319928316179055908701516003840180549186169183169190911790559086015160048301805491909416911617909155918301518051611bf2926005850192019061437f565b5060c0820151600682015560e08201516007820155610100909101516008909101805460ff191691151591909117905550819050611c2f81614f91565b9150506119f9565b8061013354611c469190614f79565b6101335550565b6000611c69600080516020615222833981519152610629613742565b611cb15760405162461bcd60e51b815260206004820152601960248201527826b2ba30a5b2b2b82630b6b132309d102737ba1037bbb732b960391b6044820152606401610ac9565b610134546040516001600160a01b03909116904780156108fc02916000818181858888f19350505050158015611ceb573d6000803e3d6000fd5b506001905090565b600061012f5560005b81811015610dd557611d1361012f80546001019055565b80611d1d81614f91565b915050611cfc565b60009182526065602090815260408084206001600160a01b0393909316845291905290205460ff1690565b60606000611d5e61012f5490565b90506000805b82811015611e39576001600160a01b0386166101366000611d86846001614f79565b81526020810191909152604001600020600301546001600160a01b0316148015611dd457506101366000611dbb836001614f79565b815260208101919091526040016000206008015460ff16155b8015611e1457506001600160a01b0385166101366000611df5846001614f79565b81526020810191909152604001600020600201546001600160a01b0316145b15611e275781611e2381614f91565b9250505b80611e3181614f91565b915050611d64565b506000816001600160401b03811115611e5457611e5461469b565b604051908082528060200260200182016040528015611e8d57816020015b611e7a614458565b815260200190600190039081611e725790505b5090506000805b84811015611750576001600160a01b0388166101366000611eb6846001614f79565b81526020810191909152604001600020600301546001600160a01b0316148015611f0457506101366000611eeb836001614f79565b815260208101919091526040016000206008015460ff16155b8015611f4457506001600160a01b0387166101366000611f25846001614f79565b81526020810191909152604001600020600201546001600160a01b0316145b1561206757600061013681611f5a846001614f79565b815260208082019290925260409081016000208151610120810183528154815260018201548185015260028201546001600160a01b039081168285015260038301548116606083015260048301541660808201526005820180548451818702810187019095528085529295509093859360a086019390929183018282801561200b57602002820191906000526020600020905b81546001600160a01b03168152600190910190602001808311611fed575b5050509183525050600682015460208201526007820154604082015260089091015460ff161515606090910152845185908590811061204c5761204c614fac565b6020026020010181905250828061206290614f91565b935050505b8061207181614f91565b915050611e94565b6060600061208761012f5490565b90506000816001600160401b038111156120a3576120a361469b565b6040519080825280602002602001820160405280156120dc57816020015b6120c9614458565b8152602001906001900390816120c15790505b50905060005b8281101561220c576000610136816120fb846001614f79565b815260208082019290925260409081016000208151610120810183528154815260018201548185015260028201546001600160a01b039081168285015260038301548116606083015260048301541660808201526005820180548451818702810187019095528085529295509093859360a08601939092918301828280156121ac57602002820191906000526020600020905b81546001600160a01b0316815260019091019060200180831161218e575b5050509183525050600682015460208201526007820154604082015260089091015460ff16151560609091015283518490849081106121ed576121ed614fac565b602002602001018190525050808061220490614f91565b9150506120e2565b5092915050565b6060600061222161012f5490565b90506000805b828110156122fb576001600160a01b0386166101366000612249846001614f79565b81526020810191909152604001600020600301546001600160a01b03161480156122965750610136600061227e836001614f79565b815260208101919091526040016000206008015460ff165b80156122d657506001600160a01b03851661013660006122b7846001614f79565b81526020810191909152604001600020600201546001600160a01b0316145b156122e957816122e581614f91565b9250505b806122f381614f91565b915050612227565b506000816001600160401b038111156123165761231661469b565b60405190808252806020026020018201604052801561234f57816020015b61233c614458565b8152602001906001900390816123345790505b5090506000805b84811015611750576001600160a01b0388166101366000612378846001614f79565b81526020810191909152604001600020600301546001600160a01b03161480156123c5575061013660006123ad836001614f79565b815260208101919091526040016000206008015460ff165b801561240557506001600160a01b03871661013660006123e6846001614f79565b81526020810191909152604001600020600201546001600160a01b0316145b156125285760006101368161241b846001614f79565b815260208082019290925260409081016000208151610120810183528154815260018201548185015260028201546001600160a01b039081168285015260038301548116606083015260048301541660808201526005820180548451818702810187019095528085529295509093859360a08601939092918301828280156124cc57602002820191906000526020600020905b81546001600160a01b031681526001909101906020018083116124ae575b5050509183525050600682015460208201526007820154604082015260089091015460ff161515606090910152845185908590811061250d5761250d614fac565b6020026020010181905250828061252390614f91565b935050505b8061253281614f91565b915050612356565b6000818152610135602052604081208181556001810180546001600160a01b03191690559061256c60028301826144c1565b61257a6003830160006144c1565b610be36004830160006144c1565b61259761012f80546001019055565b60006125a361012f5490565b60408051610120810182528281526020808201878152338385019081526001600160a01b03888116606086810191825260006080880181815260a0890183815260c08a0183905260e08a018390526101008a018390528b8352610136895299909120885181559551600187015593516002860180549185166001600160a01b0319928316179055915160038601805491851691841691909117905592516004850180549190931691161790559351805195965093949293909261266c926005850192019061437f565b5060c0820151600682015560e08201516007820155610100909101516008909101805460ff191691151591909117905550505050565b600081815261013660205260408120818155600181018290556002810180546001600160a01b0319908116909155600382018054821690556004820180549091169055906126f360058301826144fb565b506000600682018190556007820155600801805460ff1916905550565b61271f61012f80546001019055565b600061272b61012f5490565b604080516101208101825282815260208082018d81526001600160a01b03808e168486019081528d8216606086019081528d83166080870190815260a087018e815260c088018e905260e088018d90528b151561010089015260008a8152610136885298909820875181559451600186015591516002850180549185166001600160a01b0319928316179055905160038501805491851691831691909117905590516004840180549190931691161790559251805194955091936127f5926005850192019061437f565b5060c0820151600682015560e08201516007820155610100909101516008909101805460ff191691151591909117905550505050505050505050565b600083815261013660205260409020600301546001600160a01b031633146128a75760405162461bcd60e51b8152602060048201526024808201527f6f6e6c79206f776e65722063616e207075742074686973206974656d206f6e2060448201526373616c6560e01b6064820152608401610ac9565b61013154341461291f5760405162461bcd60e51b815260206004820152603860248201527f416d6f756e7420646f65736e2774206d656574206c697374696e67206665657360448201527f20726571756972656d656e747320282e303032356574682900000000000000006064820152608401610ac9565b6000838152610136602052604090819020600101549051632142170760e11b815233600482015230602482015260448101919091526001600160a01b038316906342842e0e90606401600060405180830381600087803b15801561298257600080fd5b505af1158015612996573d6000803e3d6000fd5b505050506129ad610134546001600160a01b031690565b6001600160a01b03166108fc349081150290604051600060405180830381858888f193505050501580156129e5573d6000803e3d6000fd5b506000928352610136602052604090922060088101805460ff191660011790556004810180546001600160a01b031916331790556006019190915550565b60606000612a3161012f5490565b90506000805b82811015612b11576101366000612a4f836001614f79565b815260208101919091526040016000206008015460ff1615156001148015612aac57506001600160a01b0386166101366000612a8c846001614f79565b81526020810191909152604001600020600301546001600160a01b031614155b8015612aec57506001600160a01b0385166101366000612acd846001614f79565b81526020810191909152604001600020600201546001600160a01b0316145b15612aff5781612afb81614f91565b9250505b80612b0981614f91565b915050612a37565b506000816001600160401b03811115612b2c57612b2c61469b565b604051908082528060200260200182016040528015612b6557816020015b612b52614458565b815260200190600190039081612b4a5790505b5090506000805b84811015611750576101366000612b84836001614f79565b815260208101919091526040016000206008015460ff1615156001148015612be157506001600160a01b0388166101366000612bc1846001614f79565b81526020810191909152604001600020600301546001600160a01b031614155b8015612c2157506001600160a01b0387166101366000612c02846001614f79565b81526020810191909152604001600020600201546001600160a01b0316145b15612d4457600061013681612c37846001614f79565b815260208082019290925260409081016000208151610120810183528154815260018201548185015260028201546001600160a01b039081168285015260038301548116606083015260048301541660808201526005820180548451818702810187019095528085529295509093859360a0860193909291830182828015612ce857602002820191906000526020600020905b81546001600160a01b03168152600190910190602001808311612cca575b5050509183525050600682015460208201526007820154604082015260089091015460ff1615156060909101528451859085908110612d2957612d29614fac565b60200260200101819052508280612d3f90614f91565b935050505b80612d4e81614f91565b915050612b6c565b612d608585613ce0565b600060405180606001604052806035815260200161517c603591398051602091820120604080519283019190915281018690526001600160a01b0387166060820152608001604051602081830303815290604052805190602001209050612dca8682868686613875565b612e165760405162461bcd60e51b815260206004820152601d60248201527f4d6574614b6565704c616d6264613a20536967206e6f74206d617463680000006044820152606401610ac9565b5050506001600160a01b03909216600090815260986020908152604080832093835292905220805460ff1916600117905550565b60606000612e5861012f5490565b90506000805b82811015612ef7576101366000612e76836001614f79565b815260208101919091526040016000206008015460ff1615156001148015612ed257506001600160a01b0385166101366000612eb3846001614f79565b81526020810191909152604001600020600201546001600160a01b0316145b15612ee55781612ee181614f91565b9250505b80612eef81614f91565b915050612e5e565b506000816001600160401b03811115612f1257612f1261469b565b604051908082528060200260200182016040528015612f4b57816020015b612f38614458565b815260200190600190039081612f305790505b5090506000805b848110156130fb576101366000612f6a836001614f79565b815260208101919091526040016000206008015460ff1615156001148015612fc657506001600160a01b0387166101366000612fa7846001614f79565b81526020810191909152604001600020600201546001600160a01b0316145b156130e957600061013681612fdc846001614f79565b815260208082019290925260409081016000208151610120810183528154815260018201548185015260028201546001600160a01b039081168285015260038301548116606083015260048301541660808201526005820180548451818702810187019095528085529295509093859360a086019390929183018282801561308d57602002820191906000526020600020905b81546001600160a01b0316815260019091019060200180831161306f575b5050509183525050600682015460208201526007820154604082015260089091015460ff16151560609091015284518590859081106130ce576130ce614fac565b602002602001018190525082806130e490614f91565b935050505b806130f381614f91565b915050612f52565b509095945050505050565b606060006131146101305490565b90506000816001600160401b038111156131305761313061469b565b60405190808252806020026020018201604052801561319c57816020015b6131896040518060a001604052806000815260200160006001600160a01b031681526020016060815260200160608152602001606081525090565b81526020019060019003908161314e5790505b50905060005b8281101561220c576000610135816131bb846001614f79565b81526020808201929092526040908101600020815160a0810183528154815260018201546001600160a01b031693810193909352600281018054919450849284019161320690614fc2565b80601f016020809104026020016040519081016040528092919081815260200182805461323290614fc2565b801561327f5780601f106132545761010080835404028352916020019161327f565b820191906000526020600020905b81548152906001019060200180831161326257829003601f168201915b5050505050815260200160038201805461329890614fc2565b80601f01602080910402602001604051908101604052809291908181526020018280546132c490614fc2565b80156133115780601f106132e657610100808354040283529160200191613311565b820191906000526020600020905b8154815290600101906020018083116132f457829003601f168201915b5050505050815260200160048201805461332a90614fc2565b80601f016020809104026020016040519081016040528092919081815260200182805461335690614fc2565b80156133a35780601f10613378576101008083540402835291602001916133a3565b820191906000526020600020905b81548152906001019060200180831161338657829003601f168201915b5050505050815250508383815181106133be576133be614fac565b60200260200101819052505080806133d590614f91565b9150506131a2565b6000828152606560205260409020600101546133f88161398d565b610be38383613a34565b6040518060a00160405280607181526020016151b1607191398051906020012081565b600054610100900460ff16158080156134455750600054600160ff909116105b8061345f5750303b15801561345f575060005460ff166001145b6134c25760405162461bcd60e51b815260206004820152602e60248201527f496e697469616c697a61626c653a20636f6e747261637420697320616c72656160448201526d191e481a5b9a5d1a585b1a5e995960921b6064820152608401610ac9565b6000805460ff1916600117905580156134e5576000805461ff0019166101001790555b6608e1bc9bf040006101315561013480546001600160a01b0319166001600160a01b0385161790556135178383613d54565b8015610be3576000805461ff0019169055604051600181527f7f26b83ff96e1f2b6a682f133852f6798a09c465da95921460cefb38474024989060200160405180910390a1505050565b6101356020526000908152604090208054600182015460028301805492936001600160a01b039092169261359490614fc2565b80601f01602080910402602001604051908101604052809291908181526020018280546135c090614fc2565b801561360d5780601f106135e25761010080835404028352916020019161360d565b820191906000526020600020905b8154815290600101906020018083116135f057829003601f168201915b50505050509080600301805461362290614fc2565b80601f016020809104026020016040519081016040528092919081815260200182805461364e90614fc2565b801561369b5780601f106136705761010080835404028352916020019161369b565b820191906000526020600020905b81548152906001019060200180831161367e57829003601f168201915b5050505050908060040180546136b090614fc2565b80601f01602080910402602001604051908101604052809291908181526020018280546136dc90614fc2565b80156137295780601f106136fe57610100808354040283529160200191613729565b820191906000526020600020905b81548152906001019060200180831161370c57829003601f168201915b5050505050905085565b6001600160a01b03163b151590565b60003330141561379957600080368080601f0160208091040260200160405190810160405280939291908181526020018383808284376000920191909152505050503601516001600160a01b031691506112ee9050565b503390565b8142116138045760405162461bcd60e51b815260206004820152602e60248201527f4d6574614b6565704c616d6264613a20417574686f72697a6174696f6e20697360448201526d103737ba103cb2ba1033b4bb32b760911b6064820152608401610ac9565b8042106138655760405162461bcd60e51b815260206004820152602960248201527f4d6574614b6565704c616d6264613a20417574686f72697a6174696f6e2068616044820152681cc8195e1c1a5c995960ba1b6064820152608401610ac9565b61386f8484613ce0565b50505050565b60006001600160a01b0386166138cd5760405162461bcd60e51b815260206004820152601e60248201527f4d6574614b6565704c616d6264613a20494e56414c49445f5349474e455200006044820152606401610ac9565b60016139168660975460405161190160f01b6020820152602281019190915260428101829052600090606201604051602081830303815290604052805190602001209050919050565b6040805160008152602081018083529290925260ff851690820152606081018690526080810185905260a0016020604051602081039080840390855afa158015613964573d6000803e3d6000fd5b505050602060405103516001600160a01b0316866001600160a01b031614905095945050505050565b610eb681613999613a25565b613d8d565b6139a88282611d25565b610dd55760008281526065602090815260408083206001600160a01b03851684529091529020805460ff191660011790556139e1613a25565b6001600160a01b0316816001600160a01b0316837f2f8788117e7eff1d82e926ec794901d17c78024a50270940304540a733656f0d60405160405180910390a45050565b6000613a2f613742565b905090565b613a3e8282611d25565b15610dd55760008281526065602090815260408083206001600160a01b03851684529091529020805460ff19169055613a75613a25565b6001600160a01b0316816001600160a01b0316837ff6391f5c32d9c69d2a47ea670b442974b53935d1edc7fd64eb21e047a839171b60405160405180910390a45050565b613ad3600080516020615222833981519152610629613742565b610eb65760405162461bcd60e51b815260206004820152601960248201527826b2ba30a5b2b2b82630b6b132309d102737ba1037bbb732b960391b6044820152606401610ac9565b7f4910fdfa16fed3260ed0e7147f7cc6da11a60208b5b9406d12a635614ffd91435460ff1615613b4e57610be383613de6565b826001600160a01b03166352d1902d6040518163ffffffff1660e01b8152600401602060405180830381865afa925050508015613ba8575060408051601f3d908101601f19168201909252613ba591810190614ffd565b60015b613c0b5760405162461bcd60e51b815260206004820152602e60248201527f45524331393637557067726164653a206e657720696d706c656d656e7461746960448201526d6f6e206973206e6f74205555505360901b6064820152608401610ac9565b60008051602061515c8339815191528114613c7a5760405162461bcd60e51b815260206004820152602960248201527f45524331393637557067726164653a20756e737570706f727465642070726f786044820152681a58589b195555525160ba1b6064820152608401610ac9565b50610be3838383613e82565b60026099541415613cd95760405162461bcd60e51b815260206004820152601f60248201527f5265656e7472616e637947756172643a207265656e7472616e742063616c6c006044820152606401610ac9565b6002609955565b6001600160a01b038216600090815260986020908152604080832084845290915290205460ff1615610dd55760405162461bcd60e51b815260206004820152601a60248201527f4d6574614b6565704c616d6264613a204e6f6e636520557365640000000000006044820152606401610ac9565b600054610100900460ff16613d7b5760405162461bcd60e51b8152600401610ac990615016565b613d8482613ea7565b610dd581613efe565b613d978282611d25565b610dd557613da481614004565b613daf836020614016565b604051602001613dc0929190615061565b60408051601f198184030181529082905262461bcd60e51b8252610ac9916004016145ac565b6001600160a01b0381163b613e535760405162461bcd60e51b815260206004820152602d60248201527f455243313936373a206e657720696d706c656d656e746174696f6e206973206e60448201526c1bdd08184818dbdb9d1c9858dd609a1b6064820152608401610ac9565b60008051602061515c83398151915280546001600160a01b0319166001600160a01b0392909216919091179055565b613e8b836141b8565b600082511180613e985750805b15610be35761386f83836141f8565b600054610100900460ff16613ece5760405162461bcd60e51b8152600401610ac990615016565b613ee6600080516020615222833981519152826142ec565b610eb6600080516020615222833981519152806142f6565b60975415613f635760405162461bcd60e51b815260206004820152602c60248201527f4d6574614b6565704c616d6264613a20446f6d61696e20736570657261746f7260448201526b08185b1c9958591e481cd95d60a21b6064820152608401610ac9565b6040518060800160405280604f815260200161510d604f9139805160209182012082519282019290922060408051808201825260018152603160f81b90840152805180840194909452838101919091527fc89efdaa54c0f20c7adf612882df0950f5a951637e0307cdcb4c672f298b8bc660608401523060808401524660a0808501919091528151808503909101815260c090930190528151910120609755565b60606109816001600160a01b03831660145b606060006140258360026150d6565b614030906002614f79565b6001600160401b038111156140475761404761469b565b6040519080825280601f01601f191660200182016040528015614071576020820181803683370190505b509050600360fc1b8160008151811061408c5761408c614fac565b60200101906001600160f81b031916908160001a905350600f60fb1b816001815181106140bb576140bb614fac565b60200101906001600160f81b031916908160001a90535060006140df8460026150d6565b6140ea906001614f79565b90505b6001811115614162576f181899199a1a9b1b9c1cb0b131b232b360811b85600f166010811061411e5761411e614fac565b1a60f81b82828151811061413457614134614fac565b60200101906001600160f81b031916908160001a90535060049490941c9361415b816150f5565b90506140ed565b5083156141b15760405162461bcd60e51b815260206004820181905260248201527f537472696e67733a20686578206c656e67746820696e73756666696369656e746044820152606401610ac9565b9392505050565b6141c181613de6565b6040516001600160a01b038216907fbc7cd75a20ee27fd9adebab32041f755214dbc6bffa90cc0225b39da2e5c2d3b90600090a250565b60606001600160a01b0383163b6142605760405162461bcd60e51b815260206004820152602660248201527f416464726573733a2064656c65676174652063616c6c20746f206e6f6e2d636f6044820152651b9d1c9858dd60d21b6064820152608401610ac9565b600080846001600160a01b03168460405161427b9190614e92565b600060405180830381855af49150503d80600081146142b6576040519150601f19603f3d011682016040523d82523d6000602084013e6142bb565b606091505b50915091506142e3828260405180606001604052806027815260200161524260279139614341565b95945050505050565b610dd5828261399e565b600082815260656020526040808220600101805490849055905190918391839186917fbd79b86ffe0ab8e8776151514217cd7cacd52c909f66475c3af44e129f0b00ff9190a4505050565b606083156143505750816141b1565b6141b183838151156143655781518083602001fd5b8060405162461bcd60e51b8152600401610ac991906145ac565b8280548282559060005260206000209081019282156143d4579160200282015b828111156143d457825182546001600160a01b0319166001600160a01b0390911617825560209092019160019091019061439f565b506143e0929150614515565b5090565b8280546143f090614fc2565b90600052602060002090601f01602090048101928261441257600085556143d4565b82601f1061442b57805160ff19168380011785556143d4565b828001600101855582156143d4579182015b828111156143d457825182559160200191906001019061443d565b604051806101200160405280600081526020016000815260200160006001600160a01b0316815260200160006001600160a01b0316815260200160006001600160a01b031681526020016060815260200160008152602001600081526020016000151581525090565b5080546144cd90614fc2565b6000825580601f106144dd575050565b601f016020900490600052602060002090810190610eb69190614515565b5080546000825590600052602060002090810190610eb691905b5b808211156143e05760008155600101614516565b60006020828403121561453c57600080fd5b81356001600160e01b0319811681146141b157600080fd5b60005b8381101561456f578181015183820152602001614557565b8381111561386f5750506000910152565b60008151808452614598816020860160208601614554565b601f01601f19169290920160200192915050565b6020815260006141b16020830184614580565b6001600160a01b0381168114610eb657600080fd5b80356145df816145bf565b919050565b6000806000806000608086880312156145fc57600080fd5b8535614607816145bf565b94506020860135614617816145bf565b93506040860135925060608601356001600160401b038082111561463a57600080fd5b818801915088601f83011261464e57600080fd5b81358181111561465d57600080fd5b89602082850101111561466f57600080fd5b9699959850939650602001949392505050565b60006020828403121561469457600080fd5b5035919050565b634e487b7160e01b600052604160045260246000fd5b604051601f8201601f191681016001600160401b03811182821017156146d9576146d961469b565b604052919050565b600082601f8301126146f257600080fd5b81356001600160401b0381111561470b5761470b61469b565b61471e601f8201601f19166020016146b1565b81815284602083860101111561473357600080fd5b816020850160208301376000918101602001919091529392505050565b803560ff811681146145df57600080fd5b600080600080600080600080610100898b03121561477e57600080fd5b8835614789816145bf565b975060208901359650604089013595506060890135945060808901356001600160401b038111156147b957600080fd5b6147c58b828c016146e1565b94505060a0890135925060c089013591506147e260e08a01614750565b90509295985092959890939650565b6000806040838503121561480457600080fd5b823591506020830135614816816145bf565b809150509250929050565b60006001600160401b0382111561483a5761483a61469b565b5060051b60200190565b803580151581146145df57600080fd5b60008060008060008060008060006101208a8c03121561487357600080fd5b893598506020808b0135985060408b013561488d816145bf565b975060608b013561489d816145bf565b965060808b01356148ad816145bf565b955060a08b01356001600160401b038111156148c857600080fd5b8b01601f81018d136148d957600080fd5b80356148ec6148e782614821565b6146b1565b81815260059190911b8201830190838101908f83111561490b57600080fd5b928401925b82841015614932578335614923816145bf565b82529284019290840190614910565b975050505060c08b013593505060e08a013591506149536101008b01614844565b90509295985092959850929598565b60006020828403121561497457600080fd5b81356141b1816145bf565b6000806000806080858703121561499557600080fd5b84356149a0816145bf565b935060208501356001600160401b03808211156149bc57600080fd5b6149c8888389016146e1565b945060408701359150808211156149de57600080fd5b6149ea888389016146e1565b93506060870135915080821115614a0057600080fd5b50614a0d878288016146e1565b91505092959194509250565b60008060408385031215614a2c57600080fd5b8235614a37816145bf565b915060208301356001600160401b03811115614a5257600080fd5b614a5e858286016146e1565b9150509250929050565b60008060408385031215614a7b57600080fd5b8235614a86816145bf565b91506020830135614816816145bf565b600081518084526020808501945080840160005b83811015614acf5781516001600160a01b031687529582019590820190600101614aaa565b509495945050505050565b60006020808301818452808551808352604092508286019150828160051b87010184880160005b83811015614bac57603f198984030185528151805184528781015188850152868101516001600160a01b03908116888601526060808301518216908601526080808301519091169085015260a0808201516101208287018190529190614b6983880182614a96565b60c0858101519089015260e0808601519089015261010094850151801515868a0152949093509150614b989050565b509588019593505090860190600101614b01565b509098975050505050505050565b60008060408385031215614bcd57600080fd5b82356001600160401b03811115614be357600080fd5b8301601f81018513614bf457600080fd5b80356020614c046148e783614821565b82815260059290921b83018101918181019088841115614c2357600080fd5b938201935b83851015614c4157843582529382019390820190614c28565b9550614c5090508682016145d4565b93505050509250929050565b600080600060608486031215614c7157600080fd5b833592506020840135614c83816145bf565b929592945050506040919091013590565b600080600080600060a08688031215614cac57600080fd5b8535614cb7816145bf565b9450602086013593506040860135925060608601359150614cda60808701614750565b90509295509295909350565b60006020808301818452808551808352604092508286019150828160051b87010184880160005b83811015614bac57888303603f19018552815180518452878101516001600160a01b0316888501528681015160a088860181905290614d4e82870182614580565b91505060608083015186830382880152614d688382614580565b9250505060808083015192508582038187015250614d868183614580565b968901969450505090860190600101614d0d565b600080600060608486031215614daf57600080fd5b83359250602084013591506040840135614dc8816145bf565b809150509250925092565b60008060408385031215614de657600080fd5b8235614df1816145bf565b946020939093013593505050565b8581526001600160a01b038516602082015260a060408201819052600090614e2990830186614580565b8281036060840152614e3b8186614580565b90508281036080840152614e4f8185614580565b98975050505050505050565b60008351614e6d818460208801614554565b60609390931b6bffffffffffffffffffffffff19169190920190815260140192915050565b60008251614ea4818460208701614554565b9190910192915050565b6020808252602c908201527f46756e6374696f6e206d7573742062652063616c6c6564207468726f7567682060408201526b19195b1959d85d1958d85b1b60a21b606082015260800190565b6020808252602c908201527f46756e6374696f6e206d7573742062652063616c6c6564207468726f7567682060408201526b6163746976652070726f787960a01b606082015260800190565b600060208284031215614f5857600080fd5b81516141b1816145bf565b634e487b7160e01b600052601160045260246000fd5b60008219821115614f8c57614f8c614f63565b500190565b6000600019821415614fa557614fa5614f63565b5060010190565b634e487b7160e01b600052603260045260246000fd5b600181811c90821680614fd657607f821691505b60208210811415614ff757634e487b7160e01b600052602260045260246000fd5b50919050565b60006020828403121561500f57600080fd5b5051919050565b6020808252602b908201527f496e697469616c697a61626c653a20636f6e7472616374206973206e6f74206960408201526a6e697469616c697a696e6760a81b606082015260800190565b7f416363657373436f6e74726f6c3a206163636f756e7420000000000000000000815260008351615099816017850160208801614554565b7001034b99036b4b9b9b4b733903937b6329607d1b60179184019182015283516150ca816028840160208801614554565b01602801949350505050565b60008160001904831182151516156150f0576150f0614f63565b500290565b60008161510457615104614f63565b50600019019056fe454950373132446f6d61696e28737472696e67206e616d652c737472696e672076657273696f6e2c6164647265737320766572696679696e67436f6e74726163742c627974657333322073616c7429360894a13ba1a3210667c828492db98dca3e2076cc3735a920a3ca505d382bbc4d6574614b6565704c616d62646143616e63656c4e6f6e63652875696e74323536206e6f6e63652c616464726573732066726f6d294d6574614b6565704c616d6264615472616e73616374696f6e2875696e74323536206e6f6e63652c75696e743235362076616c696446726f6d2c75696e743235362076616c69645570746f2c616464726573732066726f6d2c62797465732066756e6374696f6e5369676e617475726529f3a68b3f49a13367480fd7bc507b2776cef106fb7cff6b2af48f699790f77014416464726573733a206c6f772d6c6576656c2064656c65676174652063616c6c206661696c6564a26469706673582212209bafb0285f53a020de84de13cb02dd6e0bd033be54f5ca9bf184ff26d570fe5b64736f6c634300080a0033454950373132446f6d61696e28737472696e67206e616d652c737472696e672076657273696f6e2c6164647265737320766572696679696e67436f6e74726163742c627974657333322073616c7429496e697469616c697a61626c653a20636f6e7472616374206973206e6f742069f3a68b3f49a13367480fd7bc507b2776cef106fb7cff6b2af48f699790f77014",
  "linkReferences": {},
  "deployedLinkReferences": {}
}