{
  "_format": "hh-sol-artifact-1",
  "contractName": "NFT",
  "sourceName": "contracts/NFT.sol",
  "abi": [
    {
      "inputs": [
        {
          "internalType": "string",
          "name": "_name",
          "type": "string"
        },
        {
          "internalType": "string",
          "name": "_symbol",
          "type": "string"
        },
        {
          "internalType": "address",
          "name": "deployedMarketplaceAddress",
          "type": "address"
        },
        {
          "internalType": "address",
          "name": "lambdaOwner",
          "type": "address"
        },
        {
          "internalType": "string",
          "name": "lambdaName",
          "type": "string"
        }
      ],
      "stateMutability": "nonpayable",
      "type": "constructor"
    },
    {
      "anonymous": false,
      "inputs": [
        {
          "indexed": false,
          "internalType": "address",
          "name": "previousAdmin",
          "type": "address"
        },
        {
          "indexed": false,
          "internalType": "address",
          "name": "newAdmin",
          "type": "address"
        }
      ],
      "name": "AdminChanged",
      "type": "event"
    },
    {
      "anonymous": false,
      "inputs": [
        {
          "indexed": true,
          "internalType": "address",
          "name": "owner",
          "type": "address"
        },
        {
          "indexed": true,
          "internalType": "address",
          "name": "approved",
          "type": "address"
        },
        {
          "indexed": true,
          "internalType": "uint256",
          "name": "tokenId",
          "type": "uint256"
        }
      ],
      "name": "Approval",
      "type": "event"
    },
    {
      "anonymous": false,
      "inputs": [
        {
          "indexed": true,
          "internalType": "address",
          "name": "owner",
          "type": "address"
        },
        {
          "indexed": true,
          "internalType": "address",
          "name": "operator",
          "type": "address"
        },
        {
          "indexed": false,
          "internalType": "bool",
          "name": "approved",
          "type": "bool"
        }
      ],
      "name": "ApprovalForAll",
      "type": "event"
    },
    {
      "anonymous": false,
      "inputs": [
        {
          "indexed": true,
          "internalType": "address",
          "name": "beacon",
          "type": "address"
        }
      ],
      "name": "BeaconUpgraded",
      "type": "event"
    },
    {
      "anonymous": false,
      "inputs": [
        {
          "indexed": false,
          "internalType": "uint8",
          "name": "version",
          "type": "uint8"
        }
      ],
      "name": "Initialized",
      "type": "event"
    },
    {
      "anonymous": false,
      "inputs": [
        {
          "indexed": false,
          "internalType": "address",
          "name": "_from",
          "type": "address"
        },
        {
          "indexed": false,
          "internalType": "address",
          "name": "to",
          "type": "address"
        },
        {
          "indexed": false,
          "internalType": "uint256",
          "name": "ItemID",
          "type": "uint256"
        },
        {
          "indexed": false,
          "internalType": "uint256",
          "name": "TokenID",
          "type": "uint256"
        }
      ],
      "name": "MarketItemChanged",
      "type": "event"
    },
    {
      "anonymous": false,
      "inputs": [
        {
          "indexed": true,
          "internalType": "bytes32",
          "name": "role",
          "type": "bytes32"
        },
        {
          "indexed": true,
          "internalType": "bytes32",
          "name": "previousAdminRole",
          "type": "bytes32"
        },
        {
          "indexed": true,
          "internalType": "bytes32",
          "name": "newAdminRole",
          "type": "bytes32"
        }
      ],
      "name": "RoleAdminChanged",
      "type": "event"
    },
    {
      "anonymous": false,
      "inputs": [
        {
          "indexed": true,
          "internalType": "bytes32",
          "name": "role",
          "type": "bytes32"
        },
        {
          "indexed": true,
          "internalType": "address",
          "name": "account",
          "type": "address"
        },
        {
          "indexed": true,
          "internalType": "address",
          "name": "sender",
          "type": "address"
        }
      ],
      "name": "RoleGranted",
      "type": "event"
    },
    {
      "anonymous": false,
      "inputs": [
        {
          "indexed": true,
          "internalType": "bytes32",
          "name": "role",
          "type": "bytes32"
        },
        {
          "indexed": true,
          "internalType": "address",
          "name": "account",
          "type": "address"
        },
        {
          "indexed": true,
          "internalType": "address",
          "name": "sender",
          "type": "address"
        }
      ],
      "name": "RoleRevoked",
      "type": "event"
    },
    {
      "anonymous": false,
      "inputs": [
        {
          "indexed": false,
          "internalType": "address",
          "name": "owner",
          "type": "address"
        },
        {
          "indexed": false,
          "internalType": "uint256",
          "name": "tokenID",
          "type": "uint256"
        },
        {
          "indexed": false,
          "internalType": "string",
          "name": "tokenURI",
          "type": "string"
        }
      ],
      "name": "TokenUriUpdated",
      "type": "event"
    },
    {
      "anonymous": false,
      "inputs": [
        {
          "indexed": true,
          "internalType": "address",
          "name": "from",
          "type": "address"
        },
        {
          "indexed": true,
          "internalType": "address",
          "name": "to",
          "type": "address"
        },
        {
          "indexed": true,
          "internalType": "uint256",
          "name": "tokenId",
          "type": "uint256"
        }
      ],
      "name": "Transfer",
      "type": "event"
    },
    {
      "anonymous": false,
      "inputs": [
        {
          "indexed": true,
          "internalType": "address",
          "name": "implementation",
          "type": "address"
        }
      ],
      "name": "Upgraded",
      "type": "event"
    },
    {
      "inputs": [],
      "name": "DEFAULT_ADMIN_ROLE",
      "outputs": [
        {
          "internalType": "bytes32",
          "name": "",
          "type": "bytes32"
        }
      ],
      "stateMutability": "view",
      "type": "function"
    },
    {
      "inputs": [],
      "name": "ERC712_VERSION",
      "outputs": [
        {
          "internalType": "string",
          "name": "",
          "type": "string"
        }
      ],
      "stateMutability": "view",
      "type": "function"
    },
    {
      "inputs": [],
      "name": "METAKEEP_LAMBDA_CANCEL_NONCE_TYPEHASH",
      "outputs": [
        {
          "internalType": "bytes32",
          "name": "",
          "type": "bytes32"
        }
      ],
      "stateMutability": "view",
      "type": "function"
    },
    {
      "inputs": [],
      "name": "METAKEEP_LAMBDA_OWNER_ROLE",
      "outputs": [
        {
          "internalType": "bytes32",
          "name": "",
          "type": "bytes32"
        }
      ],
      "stateMutability": "view",
      "type": "function"
    },
    {
      "inputs": [],
      "name": "METAKEEP_LAMBDA_TRANSACTION_TYPEHASH",
      "outputs": [
        {
          "internalType": "bytes32",
          "name": "",
          "type": "bytes32"
        }
      ],
      "stateMutability": "view",
      "type": "function"
    },
    {
      "inputs": [
        {
          "internalType": "address",
          "name": "to",
          "type": "address"
        },
        {
          "internalType": "uint256",
          "name": "tokenId",
          "type": "uint256"
        }
      ],
      "name": "approve",
      "outputs": [],
      "stateMutability": "nonpayable",
      "type": "function"
    },
    {
      "inputs": [
        {
          "internalType": "uint256",
          "name": "itemId",
          "type": "uint256"
        },
        {
          "internalType": "uint256",
          "name": "price",
          "type": "uint256"
        },
        {
          "internalType": "uint256",
          "name": "tokenId",
          "type": "uint256"
        }
      ],
      "name": "approveAndListOnsSale",
      "outputs": [],
      "stateMutability": "payable",
      "type": "function"
    },
    {
      "inputs": [
        {
          "internalType": "uint256[]",
          "name": "itemId",
          "type": "uint256[]"
        },
        {
          "internalType": "uint256",
          "name": "price",
          "type": "uint256"
        },
        {
          "internalType": "uint256[]",
          "name": "tokenId",
          "type": "uint256[]"
        }
      ],
      "name": "approveAndListOnsSaleAll",
      "outputs": [],
      "stateMutability": "payable",
      "type": "function"
    },
    {
      "inputs": [
        {
          "internalType": "address",
          "name": "owner",
          "type": "address"
        }
      ],
      "name": "balanceOf",
      "outputs": [
        {
          "internalType": "uint256",
          "name": "",
          "type": "uint256"
        }
      ],
      "stateMutability": "view",
      "type": "function"
    },
    {
      "inputs": [
        {
          "internalType": "address",
          "name": "userAddress",
          "type": "address"
        },
        {
          "internalType": "uint256",
          "name": "nonce",
          "type": "uint256"
        },
        {
          "internalType": "bytes32",
          "name": "sigR",
          "type": "bytes32"
        },
        {
          "internalType": "bytes32",
          "name": "sigS",
          "type": "bytes32"
        },
        {
          "internalType": "uint8",
          "name": "sigV",
          "type": "uint8"
        }
      ],
      "name": "cancelMetaKeepLambdaNonce",
      "outputs": [],
      "stateMutability": "nonpayable",
      "type": "function"
    },
    {
      "inputs": [],
      "name": "createDefaultToken",
      "outputs": [],
      "stateMutability": "nonpayable",
      "type": "function"
    },
    {
      "inputs": [
        {
          "internalType": "string",
          "name": "tokenURI",
          "type": "string"
        },
        {
          "internalType": "uint256",
          "name": "Noftokens",
          "type": "uint256"
        }
      ],
      "name": "createTokens",
      "outputs": [],
      "stateMutability": "nonpayable",
      "type": "function"
    },
    {
      "inputs": [
        {
          "internalType": "string",
          "name": "tokenURI",
          "type": "string"
        },
        {
          "internalType": "uint256",
          "name": "Noftokens",
          "type": "uint256"
        },
        {
          "internalType": "address",
          "name": "user",
          "type": "address"
        }
      ],
      "name": "createTokensForUser",
      "outputs": [],
      "stateMutability": "nonpayable",
      "type": "function"
    },
    {
      "inputs": [],
      "name": "defaultTokenURI",
      "outputs": [
        {
          "internalType": "string",
          "name": "",
          "type": "string"
        }
      ],
      "stateMutability": "view",
      "type": "function"
    },
    {
      "inputs": [
        {
          "internalType": "uint256",
          "name": "itemId",
          "type": "uint256"
        },
        {
          "internalType": "uint256",
          "name": "tokenId",
          "type": "uint256"
        }
      ],
      "name": "deleteNFT",
      "outputs": [],
      "stateMutability": "nonpayable",
      "type": "function"
    },
    {
      "inputs": [],
      "name": "domainSeperator",
      "outputs": [
        {
          "internalType": "bytes32",
          "name": "",
          "type": "bytes32"
        }
      ],
      "stateMutability": "view",
      "type": "function"
    },
    {
      "inputs": [
        {
          "internalType": "address",
          "name": "userAddress",
          "type": "address"
        },
        {
          "internalType": "uint256",
          "name": "nonce",
          "type": "uint256"
        },
        {
          "internalType": "uint256",
          "name": "validFrom",
          "type": "uint256"
        },
        {
          "internalType": "uint256",
          "name": "validUpto",
          "type": "uint256"
        },
        {
          "internalType": "bytes",
          "name": "functionSignature",
          "type": "bytes"
        },
        {
          "internalType": "bytes32",
          "name": "sigR",
          "type": "bytes32"
        },
        {
          "internalType": "bytes32",
          "name": "sigS",
          "type": "bytes32"
        },
        {
          "internalType": "uint8",
          "name": "sigV",
          "type": "uint8"
        }
      ],
      "name": "executeMetaKeepLambdaTransaction",
      "outputs": [
        {
          "internalType": "bool",
          "name": "",
          "type": "bool"
        }
      ],
      "stateMutability": "payable",
      "type": "function"
    },
    {
      "inputs": [],
      "name": "fetchAllProperty",
      "outputs": [
        {
          "components": [
            {
              "internalType": "uint256",
              "name": "id",
              "type": "uint256"
            },
            {
              "internalType": "string",
              "name": "field",
              "type": "string"
            },
            {
              "internalType": "string",
              "name": "field_type",
              "type": "string"
            }
          ],
          "internalType": "struct NFT.Property[]",
          "name": "",
          "type": "tuple[]"
        }
      ],
      "stateMutability": "view",
      "type": "function"
    },
    {
      "inputs": [
        {
          "internalType": "uint256",
          "name": "tokenId",
          "type": "uint256"
        }
      ],
      "name": "getApproved",
      "outputs": [
        {
          "internalType": "address",
          "name": "",
          "type": "address"
        }
      ],
      "stateMutability": "view",
      "type": "function"
    },
    {
      "inputs": [
        {
          "internalType": "bytes32",
          "name": "role",
          "type": "bytes32"
        }
      ],
      "name": "getRoleAdmin",
      "outputs": [
        {
          "internalType": "bytes32",
          "name": "",
          "type": "bytes32"
        }
      ],
      "stateMutability": "view",
      "type": "function"
    },
    {
      "inputs": [
        {
          "internalType": "bytes32",
          "name": "role",
          "type": "bytes32"
        },
        {
          "internalType": "address",
          "name": "account",
          "type": "address"
        }
      ],
      "name": "grantRole",
      "outputs": [],
      "stateMutability": "nonpayable",
      "type": "function"
    },
    {
      "inputs": [
        {
          "internalType": "bytes32",
          "name": "role",
          "type": "bytes32"
        },
        {
          "internalType": "address",
          "name": "account",
          "type": "address"
        }
      ],
      "name": "hasRole",
      "outputs": [
        {
          "internalType": "bool",
          "name": "",
          "type": "bool"
        }
      ],
      "stateMutability": "view",
      "type": "function"
    },
    {
      "inputs": [
        {
          "internalType": "string",
          "name": "_name",
          "type": "string"
        },
        {
          "internalType": "string",
          "name": "_symbol",
          "type": "string"
        },
        {
          "internalType": "address",
          "name": "deployedMarketplaceAddress",
          "type": "address"
        },
        {
          "internalType": "address",
          "name": "lambdaOwner",
          "type": "address"
        },
        {
          "internalType": "string",
          "name": "lambdaName",
          "type": "string"
        }
      ],
      "name": "initialize",
      "outputs": [],
      "stateMutability": "nonpayable",
      "type": "function"
    },
    {
      "inputs": [
        {
          "internalType": "address",
          "name": "owner",
          "type": "address"
        },
        {
          "internalType": "address",
          "name": "operator",
          "type": "address"
        }
      ],
      "name": "isApprovedForAll",
      "outputs": [
        {
          "internalType": "bool",
          "name": "",
          "type": "bool"
        }
      ],
      "stateMutability": "view",
      "type": "function"
    },
    {
      "inputs": [
        {
          "internalType": "address",
          "name": "userAddress",
          "type": "address"
        },
        {
          "internalType": "uint256",
          "name": "nonce",
          "type": "uint256"
        }
      ],
      "name": "metaKeepLambdaNonceState",
      "outputs": [
        {
          "internalType": "bool",
          "name": "",
          "type": "bool"
        }
      ],
      "stateMutability": "view",
      "type": "function"
    },
    {
      "inputs": [],
      "name": "name",
      "outputs": [
        {
          "internalType": "string",
          "name": "",
          "type": "string"
        }
      ],
      "stateMutability": "view",
      "type": "function"
    },
    {
      "inputs": [
        {
          "internalType": "uint256",
          "name": "tokenId",
          "type": "uint256"
        }
      ],
      "name": "ownerOf",
      "outputs": [
        {
          "internalType": "address",
          "name": "",
          "type": "address"
        }
      ],
      "stateMutability": "view",
      "type": "function"
    },
    {
      "inputs": [
        {
          "internalType": "uint256",
          "name": "",
          "type": "uint256"
        }
      ],
      "name": "properties",
      "outputs": [
        {
          "internalType": "uint256",
          "name": "id",
          "type": "uint256"
        },
        {
          "internalType": "string",
          "name": "field",
          "type": "string"
        },
        {
          "internalType": "string",
          "name": "field_type",
          "type": "string"
        }
      ],
      "stateMutability": "view",
      "type": "function"
    },
    {
      "inputs": [],
      "name": "proxiableUUID",
      "outputs": [
        {
          "internalType": "bytes32",
          "name": "",
          "type": "bytes32"
        }
      ],
      "stateMutability": "view",
      "type": "function"
    },
    {
      "inputs": [
        {
          "internalType": "bytes32",
          "name": "role",
          "type": "bytes32"
        },
        {
          "internalType": "address",
          "name": "account",
          "type": "address"
        }
      ],
      "name": "renounceRole",
      "outputs": [],
      "stateMutability": "nonpayable",
      "type": "function"
    },
    {
      "inputs": [
        {
          "internalType": "bytes32",
          "name": "role",
          "type": "bytes32"
        },
        {
          "internalType": "address",
          "name": "account",
          "type": "address"
        }
      ],
      "name": "revokeRole",
      "outputs": [],
      "stateMutability": "nonpayable",
      "type": "function"
    },
    {
      "inputs": [
        {
          "internalType": "address",
          "name": "from",
          "type": "address"
        },
        {
          "internalType": "address",
          "name": "to",
          "type": "address"
        },
        {
          "internalType": "uint256",
          "name": "tokenId",
          "type": "uint256"
        }
      ],
      "name": "safeTransferFrom",
      "outputs": [],
      "stateMutability": "nonpayable",
      "type": "function"
    },
    {
      "inputs": [
        {
          "internalType": "address",
          "name": "from",
          "type": "address"
        },
        {
          "internalType": "address",
          "name": "to",
          "type": "address"
        },
        {
          "internalType": "uint256",
          "name": "tokenId",
          "type": "uint256"
        },
        {
          "internalType": "bytes",
          "name": "data",
          "type": "bytes"
        }
      ],
      "name": "safeTransferFrom",
      "outputs": [],
      "stateMutability": "nonpayable",
      "type": "function"
    },
    {
      "inputs": [
        {
          "internalType": "address",
          "name": "operator",
          "type": "address"
        },
        {
          "internalType": "bool",
          "name": "approved",
          "type": "bool"
        }
      ],
      "name": "setApprovalForAll",
      "outputs": [],
      "stateMutability": "nonpayable",
      "type": "function"
    },
    {
      "inputs": [
        {
          "internalType": "string",
          "name": "tokenURI",
          "type": "string"
        }
      ],
      "name": "setDefaultTokenUri",
      "outputs": [],
      "stateMutability": "nonpayable",
      "type": "function"
    },
    {
      "inputs": [
        {
          "internalType": "address",
          "name": "_marketplaceAddress",
          "type": "address"
        }
      ],
      "name": "setMarketAddress",
      "outputs": [],
      "stateMutability": "nonpayable",
      "type": "function"
    },
    {
      "inputs": [
        {
          "internalType": "string[]",
          "name": "fields",
          "type": "string[]"
        },
        {
          "internalType": "string[]",
          "name": "filedTypes",
          "type": "string[]"
        }
      ],
      "name": "setProperties",
      "outputs": [],
      "stateMutability": "nonpayable",
      "type": "function"
    },
    {
      "inputs": [
        {
          "internalType": "uint256",
          "name": "newItemId",
          "type": "uint256"
        },
        {
          "internalType": "string",
          "name": "tokenURI",
          "type": "string"
        },
        {
          "internalType": "address",
          "name": "user",
          "type": "address"
        }
      ],
      "name": "setToken",
      "outputs": [],
      "stateMutability": "nonpayable",
      "type": "function"
    },
    {
      "inputs": [
        {
          "internalType": "uint256",
          "name": "newItemId",
          "type": "uint256"
        }
      ],
      "name": "setTokenID",
      "outputs": [],
      "stateMutability": "nonpayable",
      "type": "function"
    },
    {
      "inputs": [
        {
          "internalType": "bytes4",
          "name": "interfaceId",
          "type": "bytes4"
        }
      ],
      "name": "supportsInterface",
      "outputs": [
        {
          "internalType": "bool",
          "name": "",
          "type": "bool"
        }
      ],
      "stateMutability": "view",
      "type": "function"
    },
    {
      "inputs": [],
      "name": "symbol",
      "outputs": [
        {
          "internalType": "string",
          "name": "",
          "type": "string"
        }
      ],
      "stateMutability": "view",
      "type": "function"
    },
    {
      "inputs": [
        {
          "internalType": "uint256",
          "name": "tokenId",
          "type": "uint256"
        }
      ],
      "name": "tokenURI",
      "outputs": [
        {
          "internalType": "string",
          "name": "",
          "type": "string"
        }
      ],
      "stateMutability": "view",
      "type": "function"
    },
    {
      "inputs": [],
      "name": "totalNFTs",
      "outputs": [
        {
          "internalType": "uint256",
          "name": "",
          "type": "uint256"
        }
      ],
      "stateMutability": "view",
      "type": "function"
    },
    {
      "inputs": [
        {
          "internalType": "address",
          "name": "from",
          "type": "address"
        },
        {
          "internalType": "address",
          "name": "to",
          "type": "address"
        },
        {
          "internalType": "uint256",
          "name": "tokenId",
          "type": "uint256"
        }
      ],
      "name": "transferFrom",
      "outputs": [],
      "stateMutability": "nonpayable",
      "type": "function"
    },
    {
      "inputs": [
        {
          "internalType": "address",
          "name": "token_owner",
          "type": "address"
        },
        {
          "internalType": "uint256",
          "name": "tokenId",
          "type": "uint256"
        },
        {
          "internalType": "string",
          "name": "tokenURI",
          "type": "string"
        }
      ],
      "name": "updateTokenUri",
      "outputs": [],
      "stateMutability": "nonpayable",
      "type": "function"
    },
    {
      "inputs": [
        {
          "internalType": "address",
          "name": "newImplementation",
          "type": "address"
        }
      ],
      "name": "upgradeTo",
      "outputs": [],
      "stateMutability": "nonpayable",
      "type": "function"
    },
    {
      "inputs": [
        {
          "internalType": "address",
          "name": "newImplementation",
          "type": "address"
        },
        {
          "internalType": "bytes",
          "name": "data",
          "type": "bytes"
        }
      ],
      "name": "upgradeToAndCall",
      "outputs": [],
      "stateMutability": "payable",
      "type": "function"
    }
  ],
  "bytecode": "0x60a0604052306080523480156200001557600080fd5b5060405162005b1a38038062005b1a8339810160408190526200003891620007d2565b62000047858585858562000052565b5050505050620008c6565b600054610100900460ff1615808015620000735750600054600160ff909116105b80620000a357506200009030620001b360201b62002ab91760201c565b158015620000a3575060005460ff166001145b6200010c5760405162461bcd60e51b815260206004820152602e60248201527f496e697469616c697a61626c653a20636f6e747261637420697320616c72656160448201526d191e481a5b9a5d1a585b1a5e995960921b60648201526084015b60405180910390fd5b6000805460ff19166001179055801562000130576000805461ff0019166101001790555b6200013c8686620001c2565b61016380546001600160a01b0319166001600160a01b0386161790556200016483836200022e565b8015620001ab576000805461ff0019169055604051600181527f7f26b83ff96e1f2b6a682f133852f6798a09c465da95921460cefb38474024989060200160405180910390a15b505050505050565b6001600160a01b03163b151590565b600054610100900460ff166200021e5760405162461bcd60e51b815260206004820152602b602482015260008051602062005ada83398151915260448201526a6e697469616c697a696e6760a81b606482015260840162000103565b6200022a8282620002a0565b5050565b600054610100900460ff166200028a5760405162461bcd60e51b815260206004820152602b602482015260008051602062005ada83398151915260448201526a6e697469616c697a696e6760a81b606482015260840162000103565b62000295826200032c565b6200022a81620003c1565b600054610100900460ff16620002fc5760405162461bcd60e51b815260206004820152602b602482015260008051602062005ada83398151915260448201526a6e697469616c697a696e6760a81b606482015260840162000103565b81516200031190609990602085019062000642565b5080516200032790609a90602084019062000642565b505050565b600054610100900460ff16620003885760405162461bcd60e51b815260206004820152602b602482015260008051602062005ada83398151915260448201526a6e697469616c697a696e6760a81b606482015260840162000103565b620003a360008051602062005afa83398151915282620004ca565b620003be60008051602062005afa83398151915280620004d6565b50565b60975415620004285760405162461bcd60e51b815260206004820152602c60248201527f4d6574614b6565704c616d6264613a20446f6d61696e20736570657261746f7260448201526b08185b1c9958591e481cd95d60a21b606482015260840162000103565b6040518060800160405280604f815260200162005a8b604f9139805160209182012082519282019290922060408051808201825260018152603160f81b90840152805180840194909452838101919091527fc89efdaa54c0f20c7adf612882df0950f5a951637e0307cdcb4c672f298b8bc660608401523060808401524660a0808501919091528151808503909101815260c090930190528151910120609755565b6200022a828262000521565b600082815260656020526040808220600101805490849055905190918391839186917fbd79b86ffe0ab8e8776151514217cd7cacd52c909f66475c3af44e129f0b00ff9190a4505050565b60008281526065602090815260408083206001600160a01b038516845290915290205460ff166200022a5760008281526065602090815260408083206001600160a01b03851684529091529020805460ff1916600117905562000583620005c7565b6001600160a01b0316816001600160a01b0316837f2f8788117e7eff1d82e926ec794901d17c78024a50270940304540a733656f0d60405160405180910390a45050565b6000620005de620005e360201b62002ac81760201c565b905090565b6000333014156200063c57600080368080601f0160208091040260200160405190810160405280939291908181526020018383808284376000920191909152505050503601516001600160a01b031691506200063f9050565b50335b90565b828054620006509062000889565b90600052602060002090601f016020900481019282620006745760008555620006bf565b82601f106200068f57805160ff1916838001178555620006bf565b82800160010185558215620006bf579182015b82811115620006bf578251825591602001919060010190620006a2565b50620006cd929150620006d1565b5090565b5b80821115620006cd5760008155600101620006d2565b634e487b7160e01b600052604160045260246000fd5b600082601f8301126200071057600080fd5b81516001600160401b03808211156200072d576200072d620006e8565b604051601f8301601f19908116603f01168101908282118183101715620007585762000758620006e8565b816040528381526020925086838588010111156200077557600080fd5b600091505b838210156200079957858201830151818301840152908201906200077a565b83821115620007ab5760008385830101525b9695505050505050565b80516001600160a01b0381168114620007cd57600080fd5b919050565b600080600080600060a08688031215620007eb57600080fd5b85516001600160401b03808211156200080357600080fd5b6200081189838a01620006fe565b965060208801519150808211156200082857600080fd5b6200083689838a01620006fe565b95506200084660408901620007b5565b94506200085660608901620007b5565b935060808801519150808211156200086d57600080fd5b506200087c88828901620006fe565b9150509295509295909350565b600181811c908216806200089e57607f821691505b60208210811415620008c057634e487b7160e01b600052602260045260246000fd5b50919050565b60805161518d620008fe60003960008181611260015281816112a00152818161135b0152818161139b015261142a015261518d6000f3fe6080604052600436106102885760003560e01c80638edc4edf1161015a578063c87b56dd116100c1578063e97ff65e1161007a578063e97ff65e14610782578063e985e9c514610797578063ebe9b0f2146107e0578063f7b1080814610826578063fae9261214610855578063feb21cfd1461087557600080fd5b8063c87b56dd146106d9578063ca2ac3b0146106f9578063cb73ac561461070c578063d547741f14610722578063db74ee3114610742578063e0ce48b31461076257600080fd5b8063a22cb46511610113578063a22cb46514610619578063a7d410de14610639578063a870e8de14610659578063ac30794d14610679578063b88d4fde14610699578063c0dcaeeb146106b957600080fd5b80638edc4edf1461057a5780638ee252671461059a57806391d14854146105ba57806395d89b41146105da578063963bfe12146105ef578063a217fddf1461060457600080fd5b8063248a9ca3116101fe57806342842e0e116101b757806342842e0e146104df5780634f1ef286146104ff57806352d1902d146105125780636352211e1461052757806370a08231146105475780638a68d9741461056757600080fd5b8063248a9ca31461040b578063285857ae1461043b5780632f2ff15d1461045d5780632f3fdec81461047d57806336568abe1461049f5780633659cfe6146104bf57600080fd5b80630c1f5635116102505780630c1f56351461035e5780630d0e96da146103815780630f7e59701461039657806310841f55146103c357806323b872dd146103d8578063243ed11d146103f857600080fd5b806301ffc9a71461028d57806306fdde03146102c2578063081812fc146102e457806308bc86b61461031c578063095ea7b31461033e575b600080fd5b34801561029957600080fd5b506102ad6102a83660046141de565b610895565b60405190151581526020015b60405180910390f35b3480156102ce57600080fd5b506102d76108a6565b6040516102b99190614253565b3480156102f057600080fd5b506103046102ff366004614266565b610938565b6040516001600160a01b0390911681526020016102b9565b34801561032857600080fd5b5061033c610337366004614334565b61095f565b005b34801561034a57600080fd5b5061033c61035936600461438d565b610a93565b34801561036a57600080fd5b50610373610bb6565b6040519081526020016102b9565b34801561038d57600080fd5b50610373610bd9565b3480156103a257600080fd5b506102d7604051806040016040528060018152602001603160f81b81525081565b3480156103cf57600080fd5b5061033c610bea565b3480156103e457600080fd5b5061033c6103f33660046143b9565b610d3b565b6102ad610406366004614410565b610d73565b34801561041757600080fd5b50610373610426366004614266565b60009081526065602052604090206001015490565b34801561044757600080fd5b5061037360008051602061511183398151915281565b34801561046957600080fd5b5061033c6104783660046144a0565b610f82565b34801561048957600080fd5b50610492610fa7565b6040516102b991906144d0565b3480156104ab57600080fd5b5061033c6104ba3660046144a0565b6111c7565b3480156104cb57600080fd5b5061033c6104da366004614561565b611255565b3480156104eb57600080fd5b5061033c6104fa3660046143b9565b611335565b61033c61050d36600461457e565b611350565b34801561051e57600080fd5b5061037361141d565b34801561053357600080fd5b50610304610542366004614266565b6114d1565b34801561055357600080fd5b50610373610562366004614561565b611531565b61033c61057536600461465b565b6115b7565b34801561058657600080fd5b5061033c6105953660046146c7565b611ade565b3480156105a657600080fd5b5061033c6105b5366004614266565b611b28565b3480156105c657600080fd5b506102ad6105d53660046144a0565b611b5a565b3480156105e657600080fd5b506102d7611b85565b3480156105fb57600080fd5b506102d7611b94565b34801561061057600080fd5b50610373600081565b34801561062557600080fd5b5061033c6106343660046146fb565b611c23565b34801561064557600080fd5b5061033c61065436600461472e565b611c35565b34801561066557600080fd5b5061033c610674366004614788565b611d2e565b34801561068557600080fd5b5061033c6106943660046147d7565b611d7a565b3480156106a557600080fd5b5061033c6106b43660046147f9565b611f9e565b3480156106c557600080fd5b5061033c6106d4366004614864565b611fd7565b3480156106e557600080fd5b506102d76106f4366004614266565b6120cb565b61033c6107073660046148b6565b6121dc565b34801561071857600080fd5b5061037360975481565b34801561072e57600080fd5b5061033c61073d3660046144a0565b6125e7565b34801561074e57600080fd5b5061033c61075d3660046148e2565b61260c565b34801561076e57600080fd5b5061033c61077d366004614993565b61274a565b34801561078e57600080fd5b5061037361282c565b3480156107a357600080fd5b506102ad6107b23660046149e1565b6001600160a01b039182166000908152609e6020908152604080832093909416825291909152205460ff1690565b3480156107ec57600080fd5b506102ad6107fb36600461438d565b6001600160a01b03919091166000908152609860209081526040808320938352929052205460ff1690565b34801561083257600080fd5b50610846610841366004614266565b61284f565b6040516102b993929190614a0f565b34801561086157600080fd5b5061033c610870366004614561565b612983565b34801561088157600080fd5b5061033c610890366004614ac3565b6129dc565b60006108a082612b24565b92915050565b6060609980546108b590614b1c565b80601f01602080910402602001604051908101604052809291908181526020018280546108e190614b1c565b801561092e5780601f106109035761010080835404028352916020019161092e565b820191906000526020600020905b81548152906001019060200180831161091157829003601f168201915b5050505050905090565b600061094382612b64565b506000908152609d60205260409020546001600160a01b031690565b606581106109a65760405162461bcd60e51b815260206004820152600f60248201526e2a37b7903434b3b410373ab6b132b960891b60448201526064015b60405180910390fd5b60005b81811015610a8e576109c061016180546001019055565b60006109cc6101615490565b90506109df6109d9612bc3565b82612bcd565b6109e98185612d58565b61016354610a00906001600160a01b031682610a93565b610163546001600160a01b031663a5c1344b82610a1b612bc3565b6040516001600160e01b031960e085901b16815260048101929092526001600160a01b03166024820152604401600060405180830381600087803b158015610a6257600080fd5b505af1158015610a76573d6000803e3d6000fd5b50505050508080610a8690614b6d565b9150506109a9565b505050565b6000610a9e826114d1565b9050806001600160a01b0316836001600160a01b03161415610b0c5760405162461bcd60e51b815260206004820152602160248201527f4552433732313a20617070726f76616c20746f2063757272656e74206f776e656044820152603960f91b606482015260840161099d565b806001600160a01b0316610b1e612bc3565b6001600160a01b03161480610b3a5750610b3a816107b2612bc3565b610bac5760405162461bcd60e51b815260206004820152603d60248201527f4552433732313a20617070726f76652063616c6c6572206973206e6f7420746f60448201527f6b656e206f776e6572206f7220617070726f76656420666f7220616c6c000000606482015260840161099d565b610a8e8383612df2565b60405180606001604052806035815260200161506b603591398051906020012081565b6000610be56101615490565b905090565b610bf961016180546001019055565b6000610c056101615490565b9050610c126109d9612bc3565b610ca7816101648054610c2490614b1c565b80601f0160208091040260200160405190810160405280929190818152602001828054610c5090614b1c565b8015610c9d5780601f10610c7257610100808354040283529160200191610c9d565b820191906000526020600020905b815481529060010190602001808311610c8057829003601f168201915b5050505050612d58565b61016354610cbe906001600160a01b031682610a93565b610163546001600160a01b031663a5c1344b82610cd9612bc3565b6040516001600160e01b031960e085901b16815260048101929092526001600160a01b03166024820152604401600060405180830381600087803b158015610d2057600080fd5b505af1158015610d34573d6000803e3d6000fd5b5050505050565b610d4c610d46612bc3565b82612e60565b610d685760405162461bcd60e51b815260040161099d90614b88565b610a8e838383612ede565b6000610d8189898989613042565b60006040518060a001604052808a81526020018981526020018881526020018b6001600160a01b0316815260200187815250905060006040518060a00160405280607181526020016150a06071913980516020918201208351848301516040808701516060808901516080808b01518051908a01208551998a0198909852938801959095528601929092528401526001600160a01b031660a083015260c082015260e001604051602081830303815290604052805190602001209050610e4a8b82888888613113565b610e965760405162461bcd60e51b815260206004820152601d60248201527f4d6574614b6565704c616d6264613a20536967206e6f74206d61746368000000604482015260640161099d565b6001609860008d6001600160a01b03166001600160a01b0316815260200190815260200160002060008c815260200190815260200160002060006101000a81548160ff021916908315150217905550600080306001600160a01b0316898e604051602001610f05929190614bd5565b60408051601f1981840301815290829052610f1f91614c0c565b6000604051808303816000865af19150503d8060008114610f5c576040519150601f19603f3d011682016040523d82523d6000602084013e610f61565b606091505b509150915081610f72578060208201fd5b509b9a5050505050505050505050565b600082815260656020526040902060010154610f9d8161322b565b610a8e838361323c565b60606000610fb56101625490565b90506000816001600160401b03811115610fd157610fd161427f565b60405190808252806020026020018201604052801561102657816020015b61101360405180606001604052806000815260200160608152602001606081525090565b815260200190600190039081610fef5790505b50905060005b828110156111c057600061016581611045846001614c28565b81526020019081526020016000209050806040518060600160405290816000820154815260200160018201805461107b90614b1c565b80601f01602080910402602001604051908101604052809291908181526020018280546110a790614b1c565b80156110f45780601f106110c9576101008083540402835291602001916110f4565b820191906000526020600020905b8154815290600101906020018083116110d757829003601f168201915b5050505050815260200160028201805461110d90614b1c565b80601f016020809104026020016040519081016040528092919081815260200182805461113990614b1c565b80156111865780601f1061115b57610100808354040283529160200191611186565b820191906000526020600020905b81548152906001019060200180831161116957829003601f168201915b5050505050815250508383815181106111a1576111a1614c40565b60200260200101819052505080806111b890614b6d565b91505061102c565b5092915050565b6111cf612bc3565b6001600160a01b0316816001600160a01b0316146112475760405162461bcd60e51b815260206004820152602f60248201527f416363657373436f6e74726f6c3a2063616e206f6e6c792072656e6f756e636560448201526e103937b632b9903337b91039b2b63360891b606482015260840161099d565b61125182826132c3565b5050565b306001600160a01b037f000000000000000000000000000000000000000000000000000000000000000016141561129e5760405162461bcd60e51b815260040161099d90614c56565b7f00000000000000000000000000000000000000000000000000000000000000006001600160a01b03166112e760008051602061504b833981519152546001600160a01b031690565b6001600160a01b03161461130d5760405162461bcd60e51b815260040161099d90614ca2565b61131681613348565b604080516000808252602082019092526113329183919061337e565b50565b610a8e83838360405180602001604052806000815250611f9e565b306001600160a01b037f00000000000000000000000000000000000000000000000000000000000000001614156113995760405162461bcd60e51b815260040161099d90614c56565b7f00000000000000000000000000000000000000000000000000000000000000006001600160a01b03166113e260008051602061504b833981519152546001600160a01b031690565b6001600160a01b0316146114085760405162461bcd60e51b815260040161099d90614ca2565b61141182613348565b6112518282600161337e565b6000306001600160a01b037f000000000000000000000000000000000000000000000000000000000000000016146114bd5760405162461bcd60e51b815260206004820152603860248201527f555550535570677261646561626c653a206d757374206e6f742062652063616c60448201527f6c6564207468726f7567682064656c656761746563616c6c0000000000000000606482015260840161099d565b5060008051602061504b8339815191525b90565b6000818152609b60205260408120546001600160a01b0316806108a05760405162461bcd60e51b8152602060048201526018602482015277115490cdcc8c4e881a5b9d985b1a59081d1bdad95b88125160421b604482015260640161099d565b60006001600160a01b03821661159b5760405162461bcd60e51b815260206004820152602960248201527f4552433732313a2061646472657373207a65726f206973206e6f7420612076616044820152683634b21037bbb732b960b91b606482015260840161099d565b506001600160a01b03166000908152609c602052604090205490565b825161016360009054906101000a90046001600160a01b03166001600160a01b03166312e855856040518163ffffffff1660e01b8152600401602060405180830381865afa15801561160d573d6000803e3d6000fd5b505050506040513d601f19601f820116820180604052508101906116319190614cee565b61163b9190614d07565b3410156116b05760405162461bcd60e51b815260206004820152603c60248201527f416d6f756e74206d75737420626520626967676572207468616e206c6973746960448201527f6e67206665657320282e30303235657468202a206e756d626572732900000000606482015260840161099d565b60005b8351811015611ad8576116c4612bc3565b6001600160a01b031661016360009054906101000a90046001600160a01b03166001600160a01b031663c0534ab086848151811061170457611704614c40565b60200260200101516040518263ffffffff1660e01b815260040161172a91815260200190565b602060405180830381865afa158015611747573d6000803e3d6000fd5b505050506040513d601f19601f8201168201806040525081019061176b9190614d26565b6001600160a01b0316148015611836575081818151811061178e5761178e614c40565b602002602001015161016360009054906101000a90046001600160a01b03166001600160a01b0316632147f68b8684815181106117cd576117cd614c40565b60200260200101516040518263ffffffff1660e01b81526004016117f391815260200190565b602060405180830381865afa158015611810573d6000803e3d6000fd5b505050506040513d601f19601f820116820180604052508101906118349190614cee565b145b6118525760405162461bcd60e51b815260040161099d90614d43565b61188e61185d612bc3565b6101635484516001600160a01b039091169085908590811061188157611881614c40565b6020026020010151611335565b61016360009054906101000a90046001600160a01b03166001600160a01b0316638da5cb5b6040518163ffffffff1660e01b8152600401602060405180830381865afa1580156118e2573d6000803e3d6000fd5b505050506040513d601f19601f820116820180604052508101906119069190614d26565b6001600160a01b03166108fc349081150290604051600060405180830381858888f1935050505015801561193e573d6000803e3d6000fd5b5061016354604051637dd3eeb960e01b81523460048201526001600160a01b0390911690637dd3eeb990602401600060405180830381600087803b15801561198557600080fd5b505af1158015611999573d6000803e3d6000fd5b50506101635486516001600160a01b03909116925063ddfe99d991508690849081106119c7576119c7614c40565b6020026020010151856119d8612bc3565b6040516001600160e01b031960e086901b168152600481019390935260248301919091526001600160a01b03166044820152606401600060405180830381600087803b158015611a2757600080fd5b505af1158015611a3b573d6000803e3d6000fd5b505050507f98e55545b671712989c02775721fbd580cad374634f412902b0711ab2433e6fe611a68612bc3565b6101635486516001600160a01b0390911690879085908110611a8c57611a8c614c40565b6020026020010151858581518110611aa657611aa6614c40565b6020026020010151604051611abe9493929190614d87565b60405180910390a180611ad081614b6d565b9150506116b3565b50505050565b611af86000805160206151118339815191526105d5612ac8565b611b145760405162461bcd60e51b815260040161099d90614db0565b8051611251906101649060208401906140f9565b60006101615560005b8181101561125157611b4861016180546001019055565b80611b5281614b6d565b915050611b31565b60009182526065602090815260408084206001600160a01b0393909316845291905290205460ff1690565b6060609a80546108b590614b1c565b6101648054611ba290614b1c565b80601f0160208091040260200160405190810160405280929190818152602001828054611bce90614b1c565b8015611c1b5780601f10611bf057610100808354040283529160200191611c1b565b820191906000526020600020905b815481529060010190602001808311611bfe57829003601f168201915b505050505081565b611251611c2e612bc3565b83836134e9565b60658210611c775760405162461bcd60e51b815260206004820152600f60248201526e2a37b7903434b3b410373ab6b132b960891b604482015260640161099d565b60005b82811015611ad857611c9161016180546001019055565b6000611c9d6101615490565b9050611ca98382612bcd565b611cb38186612d58565b6101635460405163a5c1344b60e01b8152600481018390526001600160a01b0385811660248301529091169063a5c1344b90604401600060405180830381600087803b158015611d0257600080fd5b505af1158015611d16573d6000803e3d6000fd5b50505050508080611d2690614b6d565b915050611c7a565b611d388184612bcd565b611d428383612d58565b611d4a612bc3565b6001600160a01b0316816001600160a01b03161415610a8e5761016354610a8e906001600160a01b031684610a93565b611d82612bc3565b6001600160a01b0316611d94826114d1565b6001600160a01b0316148015611e2a5750611dad612bc3565b61016354604051630c0534ab60e41b8152600481018590526001600160a01b03928316929091169063c0534ab090602401602060405180830381865afa158015611dfb573d6000803e3d6000fd5b505050506040513d601f19601f82011682018060405250810190611e1f9190614d26565b6001600160a01b0316145b8015611ea1575061016354604051632147f68b60e01b81526004810184905282916001600160a01b031690632147f68b90602401602060405180830381865afa158015611e7b573d6000803e3d6000fd5b505050506040513d601f19601f82011682018060405250810190611e9f9190614cee565b145b611eed5760405162461bcd60e51b815260206004820152601f60248201527f6f6e6c79206f776e65722063616e2064656c6574652074686973206974656d00604482015260640161099d565b6101635460405163a9c0714560e01b8152600481018490526001600160a01b039091169063a9c0714590602401600060405180830381600087803b158015611f3457600080fd5b505af1158015611f48573d6000803e3d6000fd5b50505050611f55816135b8565b7f98e55545b671712989c02775721fbd580cad374634f412902b0711ab2433e6fe611f7e612bc3565b60008484604051611f929493929190614d87565b60405180910390a15050565b611faf611fa9612bc3565b83612e60565b611fcb5760405162461bcd60e51b815260040161099d90614b88565b611ad8848484846135f8565b611fe1858561362b565b600060405180606001604052806035815260200161506b603591398051602091820120604080519283019190915281018690526001600160a01b038716606082015260800160405160208183030381529060405280519060200120905061204b8682868686613113565b6120975760405162461bcd60e51b815260206004820152601d60248201527f4d6574614b6565704c616d6264613a20536967206e6f74206d61746368000000604482015260640161099d565b5050506001600160a01b03909216600090815260986020908152604080832093835292905220805460ff1916600117905550565b60606120d682612b64565b600082815260cb6020526040812080546120ef90614b1c565b80601f016020809104026020016040519081016040528092919081815260200182805461211b90614b1c565b80156121685780601f1061213d57610100808354040283529160200191612168565b820191906000526020600020905b81548152906001019060200180831161214b57829003601f168201915b50505050509050600061218660408051602081019091526000815290565b9050805160001415612199575092915050565b8151156121cb5780826040516020016121b3929190614de7565b60405160208183030381529060405292505050919050565b6121d48461369f565b949350505050565b61016360009054906101000a90046001600160a01b03166001600160a01b03166312e855856040518163ffffffff1660e01b8152600401602060405180830381865afa158015612230573d6000803e3d6000fd5b505050506040513d601f19601f820116820180604052508101906122549190614cee565b3410156122c95760405162461bcd60e51b815260206004820152603860248201527f416d6f756e7420646f65736e2774206d656574206c697374696e67206665657360448201527f20726571756972656d656e747320282e30303235657468290000000000000000606482015260840161099d565b6122d1612bc3565b61016354604051630c0534ab60e41b8152600481018690526001600160a01b03928316929091169063c0534ab090602401602060405180830381865afa15801561231f573d6000803e3d6000fd5b505050506040513d601f19601f820116820180604052508101906123439190614d26565b6001600160a01b03161480156123c4575061016354604051632147f68b60e01b81526004810185905282916001600160a01b031690632147f68b90602401602060405180830381865afa15801561239e573d6000803e3d6000fd5b505050506040513d601f19601f820116820180604052508101906123c29190614cee565b145b6123e05760405162461bcd60e51b815260040161099d90614d43565b6123fe6123eb612bc3565b610163546001600160a01b031683611335565b61016360009054906101000a90046001600160a01b03166001600160a01b0316638da5cb5b6040518163ffffffff1660e01b8152600401602060405180830381865afa158015612452573d6000803e3d6000fd5b505050506040513d601f19601f820116820180604052508101906124769190614d26565b6001600160a01b03166108fc349081150290604051600060405180830381858888f193505050501580156124ae573d6000803e3d6000fd5b5061016354604051637dd3eeb960e01b81523460048201526001600160a01b0390911690637dd3eeb990602401600060405180830381600087803b1580156124f557600080fd5b505af1158015612509573d6000803e3d6000fd5b5050610163546001600160a01b0316915063ddfe99d99050848461252b612bc3565b6040516001600160e01b031960e086901b168152600481019390935260248301919091526001600160a01b03166044820152606401600060405180830381600087803b15801561257a57600080fd5b505af115801561258e573d6000803e3d6000fd5b505050507f98e55545b671712989c02775721fbd580cad374634f412902b0711ab2433e6fe6125bb612bc3565b610163546040516125da92916001600160a01b03169087908690614d87565b60405180910390a1505050565b6000828152606560205260409020600101546126028161322b565b610a8e83836132c3565b600054610100900460ff161580801561262c5750600054600160ff909116105b806126465750303b158015612646575060005460ff166001145b6126a95760405162461bcd60e51b815260206004820152602e60248201527f496e697469616c697a61626c653a20636f6e747261637420697320616c72656160448201526d191e481a5b9a5d1a585b1a5e995960921b606482015260840161099d565b6000805460ff1916600117905580156126cc576000805461ff0019166101001790555b6126d68686613713565b61016380546001600160a01b0319166001600160a01b0386161790556126fc8383613744565b8015612742576000805461ff0019169055604051600181527f7f26b83ff96e1f2b6a682f133852f6798a09c465da95921460cefb38474024989060200160405180910390a15b505050505050565b612753826114d1565b6001600160a01b0316836001600160a01b0316146127ef5760405162461bcd60e51b815260206004820152604d60248201527f4d6573736167652073656e646572206973206e6f74206f776e6572206f66207460448201527f6f6b656e2e204f6e6c79206f776e65722063616e20757064617465207468652060648201526c2aa9249037b3103a37b5b2b71760991b608482015260a40161099d565b6127f98282612d58565b7fa2a005d89293f74f02821cfa9d27ac0f97316b75df160545307ba9b948aa8a238383836040516125da93929190614e16565b6040518060a00160405280607181526020016150a0607191398051906020012081565b610165602052600090815260409020805460018201805491929161287290614b1c565b80601f016020809104026020016040519081016040528092919081815260200182805461289e90614b1c565b80156128eb5780601f106128c0576101008083540402835291602001916128eb565b820191906000526020600020905b8154815290600101906020018083116128ce57829003601f168201915b50505050509080600201805461290090614b1c565b80601f016020809104026020016040519081016040528092919081815260200182805461292c90614b1c565b80156129795780601f1061294e57610100808354040283529160200191612979565b820191906000526020600020905b81548152906001019060200180831161295c57829003601f168201915b5050505050905083565b61299d6000805160206151118339815191526105d5612ac8565b6129b95760405162461bcd60e51b815260040161099d90614db0565b61016380546001600160a01b0319166001600160a01b0392909216919091179055565b60006101625560005b8251811015610a8e576129fd61016280546001019055565b6040518060600160405280826001612a159190614c28565b8152602001848381518110612a2c57612a2c614c40565b60200260200101518152602001838381518110612a4b57612a4b614c40565b6020908102919091018101519091526000838152610165825260409020825181558282015180519192612a86926001850192909101906140f9565b5060408201518051612aa29160028401916020909101906140f9565b509050508080612ab190614b6d565b9150506129e5565b6001600160a01b03163b151590565b600033301415612b1f57600080368080601f0160208091040260200160405190810160405280939291908181526020018383808284376000920191909152505050503601516001600160a01b031691506114ce9050565b503390565b60006001600160e01b031982166380ac58cd60e01b1480612b5557506001600160e01b03198216635b5e139f60e01b145b806108a057506108a08261377d565b6000818152609b60205260409020546001600160a01b03166113325760405162461bcd60e51b8152602060048201526018602482015277115490cdcc8c4e881a5b9d985b1a59081d1bdad95b88125160421b604482015260640161099d565b6000610be5612ac8565b6001600160a01b038216612c235760405162461bcd60e51b815260206004820181905260248201527f4552433732313a206d696e7420746f20746865207a65726f2061646472657373604482015260640161099d565b6000818152609b60205260409020546001600160a01b031615612c885760405162461bcd60e51b815260206004820152601c60248201527f4552433732313a20746f6b656e20616c7265616479206d696e74656400000000604482015260640161099d565b6000818152609b60205260409020546001600160a01b031615612ced5760405162461bcd60e51b815260206004820152601c60248201527f4552433732313a20746f6b656e20616c7265616479206d696e74656400000000604482015260640161099d565b6001600160a01b0382166000818152609c6020908152604080832080546001019055848352609b90915280822080546001600160a01b0319168417905551839291907fddf252ad1be2c89b69c2b068fc378daa952ba7f163c4a11628f55a4df523b3ef908290a45050565b6000828152609b60205260409020546001600160a01b0316612dd35760405162461bcd60e51b815260206004820152602e60248201527f45524337323155524953746f726167653a2055524920736574206f66206e6f6e60448201526d32bc34b9ba32b73a103a37b5b2b760911b606482015260840161099d565b600082815260cb602090815260409091208251610a8e928401906140f9565b6000818152609d6020526040902080546001600160a01b0319166001600160a01b0384169081179091558190612e27826114d1565b6001600160a01b03167f8c5be1e5ebec7d5bd14f71427d1e84f3dd0314c0f7b2291e5b200ac8c7c3b92560405160405180910390a45050565b600080612e6c836114d1565b9050806001600160a01b0316846001600160a01b03161480612eb357506001600160a01b038082166000908152609e602090815260408083209388168352929052205460ff165b806121d45750836001600160a01b0316612ecc84610938565b6001600160a01b031614949350505050565b826001600160a01b0316612ef1826114d1565b6001600160a01b031614612f175760405162461bcd60e51b815260040161099d90614e3d565b6001600160a01b038216612f795760405162461bcd60e51b8152602060048201526024808201527f4552433732313a207472616e7366657220746f20746865207a65726f206164646044820152637265737360e01b606482015260840161099d565b826001600160a01b0316612f8c826114d1565b6001600160a01b031614612fb25760405162461bcd60e51b815260040161099d90614e3d565b6000818152609d6020908152604080832080546001600160a01b03199081169091556001600160a01b03878116808652609c8552838620805460001901905590871680865283862080546001019055868652609b90945282852080549092168417909155905184937fddf252ad1be2c89b69c2b068fc378daa952ba7f163c4a11628f55a4df523b3ef91a4505050565b8142116130a85760405162461bcd60e51b815260206004820152602e60248201527f4d6574614b6565704c616d6264613a20417574686f72697a6174696f6e20697360448201526d103737ba103cb2ba1033b4bb32b760911b606482015260840161099d565b8042106131095760405162461bcd60e51b815260206004820152602960248201527f4d6574614b6565704c616d6264613a20417574686f72697a6174696f6e2068616044820152681cc8195e1c1a5c995960ba1b606482015260840161099d565b611ad8848461362b565b60006001600160a01b03861661316b5760405162461bcd60e51b815260206004820152601e60248201527f4d6574614b6565704c616d6264613a20494e56414c49445f5349474e45520000604482015260640161099d565b60016131b48660975460405161190160f01b6020820152602281019190915260428101829052600090606201604051602081830303815290604052805190602001209050919050565b6040805160008152602081018083529290925260ff851690820152606081018690526080810185905260a0016020604051602081039080840390855afa158015613202573d6000803e3d6000fd5b505050602060405103516001600160a01b0316866001600160a01b031614905095945050505050565b61133281613237612bc3565b6137b2565b6132468282611b5a565b6112515760008281526065602090815260408083206001600160a01b03851684529091529020805460ff1916600117905561327f612bc3565b6001600160a01b0316816001600160a01b0316837f2f8788117e7eff1d82e926ec794901d17c78024a50270940304540a733656f0d60405160405180910390a45050565b6132cd8282611b5a565b156112515760008281526065602090815260408083206001600160a01b03851684529091529020805460ff19169055613304612bc3565b6001600160a01b0316816001600160a01b0316837ff6391f5c32d9c69d2a47ea670b442974b53935d1edc7fd64eb21e047a839171b60405160405180910390a45050565b6133626000805160206151118339815191526105d5612ac8565b6113325760405162461bcd60e51b815260040161099d90614db0565b7f4910fdfa16fed3260ed0e7147f7cc6da11a60208b5b9406d12a635614ffd91435460ff16156133b157610a8e8361380b565b826001600160a01b03166352d1902d6040518163ffffffff1660e01b8152600401602060405180830381865afa92505050801561340b575060408051601f3d908101601f1916820190925261340891810190614cee565b60015b61346e5760405162461bcd60e51b815260206004820152602e60248201527f45524331393637557067726164653a206e657720696d706c656d656e7461746960448201526d6f6e206973206e6f74205555505360901b606482015260840161099d565b60008051602061504b83398151915281146134dd5760405162461bcd60e51b815260206004820152602960248201527f45524331393637557067726164653a20756e737570706f727465642070726f786044820152681a58589b195555525160ba1b606482015260840161099d565b50610a8e8383836138a7565b816001600160a01b0316836001600160a01b0316141561354b5760405162461bcd60e51b815260206004820152601960248201527f4552433732313a20617070726f766520746f2063616c6c657200000000000000604482015260640161099d565b6001600160a01b038381166000818152609e6020908152604080832094871680845294825291829020805460ff191686151590811790915591519182527f17307eab39ab6107e8899845ad3d59bd9653f200f220920489ca2b5937696c31910160405180910390a3505050565b6135c1816138cc565b600081815260cb6020526040902080546135da90614b1c565b15905061133257600081815260cb602052604081206113329161417d565b613603848484612ede565b61360f84848484613961565b611ad85760405162461bcd60e51b815260040161099d90614e82565b6001600160a01b038216600090815260986020908152604080832084845290915290205460ff16156112515760405162461bcd60e51b815260206004820152601a60248201527f4d6574614b6565704c616d6264613a204e6f6e63652055736564000000000000604482015260640161099d565b60606136aa82612b64565b60006136c160408051602081019091526000815290565b905060008151116136e1576040518060200160405280600081525061370c565b806136eb84613a66565b6040516020016136fc929190614de7565b6040516020818303038152906040525b9392505050565b600054610100900460ff1661373a5760405162461bcd60e51b815260040161099d90614ed4565b6112518282613b02565b600054610100900460ff1661376b5760405162461bcd60e51b815260040161099d90614ed4565b61377482613b50565b61125181613ba7565b60006001600160e01b03198216637965db0b60e01b14806108a057506301ffc9a760e01b6001600160e01b03198316146108a0565b6137bc8282611b5a565b611251576137c981613cad565b6137d4836020613cbf565b6040516020016137e5929190614f1f565b60408051601f198184030181529082905262461bcd60e51b825261099d91600401614253565b6001600160a01b0381163b6138785760405162461bcd60e51b815260206004820152602d60248201527f455243313936373a206e657720696d706c656d656e746174696f6e206973206e60448201526c1bdd08184818dbdb9d1c9858dd609a1b606482015260840161099d565b60008051602061504b83398151915280546001600160a01b0319166001600160a01b0392909216919091179055565b6138b083613e5a565b6000825111806138bd5750805b15610a8e57611ad88383613e9a565b60006138d7826114d1565b90506138e2826114d1565b6000838152609d6020908152604080832080546001600160a01b03199081169091556001600160a01b038516808552609c84528285208054600019019055878552609b909352818420805490911690555192935084927fddf252ad1be2c89b69c2b068fc378daa952ba7f163c4a11628f55a4df523b3ef908390a45050565b60006001600160a01b0384163b15613a5b57836001600160a01b031663150b7a0261398a612bc3565b8786866040518563ffffffff1660e01b81526004016139ac9493929190614f94565b6020604051808303816000875af19250505080156139e7575060408051601f3d908101601f191682019092526139e491810190614fc7565b60015b613a41573d808015613a15576040519150601f19603f3d011682016040523d82523d6000602084013e613a1a565b606091505b508051613a395760405162461bcd60e51b815260040161099d90614e82565b805181602001fd5b6001600160e01b031916630a85bd0160e11b1490506121d4565b506001949350505050565b60606000613a7383613f8e565b60010190506000816001600160401b03811115613a9257613a9261427f565b6040519080825280601f01601f191660200182016040528015613abc576020820181803683370190505b5090508181016020015b600019016f181899199a1a9b1b9c1cb0b131b232b360811b600a86061a8153600a8504945084613af557613afa565b613ac6565b509392505050565b600054610100900460ff16613b295760405162461bcd60e51b815260040161099d90614ed4565b8151613b3c9060999060208501906140f9565b508051610a8e90609a9060208401906140f9565b600054610100900460ff16613b775760405162461bcd60e51b815260040161099d90614ed4565b613b8f60008051602061511183398151915282614066565b61133260008051602061511183398151915280614070565b60975415613c0c5760405162461bcd60e51b815260206004820152602c60248201527f4d6574614b6565704c616d6264613a20446f6d61696e20736570657261746f7260448201526b08185b1c9958591e481cd95d60a21b606482015260840161099d565b6040518060800160405280604f8152602001614ffc604f9139805160209182012082519282019290922060408051808201825260018152603160f81b90840152805180840194909452838101919091527fc89efdaa54c0f20c7adf612882df0950f5a951637e0307cdcb4c672f298b8bc660608401523060808401524660a0808501919091528151808503909101815260c090930190528151910120609755565b60606108a06001600160a01b03831660145b60606000613cce836002614d07565b613cd9906002614c28565b6001600160401b03811115613cf057613cf061427f565b6040519080825280601f01601f191660200182016040528015613d1a576020820181803683370190505b509050600360fc1b81600081518110613d3557613d35614c40565b60200101906001600160f81b031916908160001a905350600f60fb1b81600181518110613d6457613d64614c40565b60200101906001600160f81b031916908160001a9053506000613d88846002614d07565b613d93906001614c28565b90505b6001811115613e0b576f181899199a1a9b1b9c1cb0b131b232b360811b85600f1660108110613dc757613dc7614c40565b1a60f81b828281518110613ddd57613ddd614c40565b60200101906001600160f81b031916908160001a90535060049490941c93613e0481614fe4565b9050613d96565b50831561370c5760405162461bcd60e51b815260206004820181905260248201527f537472696e67733a20686578206c656e67746820696e73756666696369656e74604482015260640161099d565b613e638161380b565b6040516001600160a01b038216907fbc7cd75a20ee27fd9adebab32041f755214dbc6bffa90cc0225b39da2e5c2d3b90600090a250565b60606001600160a01b0383163b613f025760405162461bcd60e51b815260206004820152602660248201527f416464726573733a2064656c65676174652063616c6c20746f206e6f6e2d636f6044820152651b9d1c9858dd60d21b606482015260840161099d565b600080846001600160a01b031684604051613f1d9190614c0c565b600060405180830381855af49150503d8060008114613f58576040519150601f19603f3d011682016040523d82523d6000602084013e613f5d565b606091505b5091509150613f858282604051806060016040528060278152602001615131602791396140bb565b95945050505050565b60008072184f03e93ff9f4daa797ed6e38ed64bf6a1f0160401b8310613fcd5772184f03e93ff9f4daa797ed6e38ed64bf6a1f0160401b830492506040015b6d04ee2d6d415b85acef81000000008310613ff9576d04ee2d6d415b85acef8100000000830492506020015b662386f26fc10000831061401757662386f26fc10000830492506010015b6305f5e100831061402f576305f5e100830492506008015b612710831061404357612710830492506004015b60648310614055576064830492506002015b600a83106108a05760010192915050565b611251828261323c565b600082815260656020526040808220600101805490849055905190918391839186917fbd79b86ffe0ab8e8776151514217cd7cacd52c909f66475c3af44e129f0b00ff9190a4505050565b606083156140ca57508161370c565b61370c83838151156140df5781518083602001fd5b8060405162461bcd60e51b815260040161099d9190614253565b82805461410590614b1c565b90600052602060002090601f016020900481019282614127576000855561416d565b82601f1061414057805160ff191683800117855561416d565b8280016001018555821561416d579182015b8281111561416d578251825591602001919060010190614152565b506141799291506141b3565b5090565b50805461418990614b1c565b6000825580601f10614199575050565b601f01602090049060005260206000209081019061133291905b5b8082111561417957600081556001016141b4565b6001600160e01b03198116811461133257600080fd5b6000602082840312156141f057600080fd5b813561370c816141c8565b60005b838110156142165781810151838201526020016141fe565b83811115611ad85750506000910152565b6000815180845261423f8160208601602086016141fb565b601f01601f19169290920160200192915050565b60208152600061370c6020830184614227565b60006020828403121561427857600080fd5b5035919050565b634e487b7160e01b600052604160045260246000fd5b604051601f8201601f191681016001600160401b03811182821017156142bd576142bd61427f565b604052919050565b600082601f8301126142d657600080fd5b81356001600160401b038111156142ef576142ef61427f565b614302601f8201601f1916602001614295565b81815284602083860101111561431757600080fd5b816020850160208301376000918101602001919091529392505050565b6000806040838503121561434757600080fd5b82356001600160401b0381111561435d57600080fd5b614369858286016142c5565b95602094909401359450505050565b6001600160a01b038116811461133257600080fd5b600080604083850312156143a057600080fd5b82356143ab81614378565b946020939093013593505050565b6000806000606084860312156143ce57600080fd5b83356143d981614378565b925060208401356143e981614378565b929592945050506040919091013590565b803560ff8116811461440b57600080fd5b919050565b600080600080600080600080610100898b03121561442d57600080fd5b883561443881614378565b975060208901359650604089013595506060890135945060808901356001600160401b0381111561446857600080fd5b6144748b828c016142c5565b94505060a0890135925060c0890135915061449160e08a016143fa565b90509295985092959890939650565b600080604083850312156144b357600080fd5b8235915060208301356144c581614378565b809150509250929050565b60006020808301818452808551808352604092508286019150828160051b87010184880160005b8381101561455357603f19898403018552815160608151855288820151818a87015261452582870182614227565b9150508782015191508481038886015261453f8183614227565b9689019694505050908601906001016144f7565b509098975050505050505050565b60006020828403121561457357600080fd5b813561370c81614378565b6000806040838503121561459157600080fd5b823561459c81614378565b915060208301356001600160401b038111156145b757600080fd5b6145c3858286016142c5565b9150509250929050565b60006001600160401b038211156145e6576145e661427f565b5060051b60200190565b600082601f83011261460157600080fd5b81356020614616614611836145cd565b614295565b82815260059290921b8401810191818101908684111561463557600080fd5b8286015b848110156146505780358352918301918301614639565b509695505050505050565b60008060006060848603121561467057600080fd5b83356001600160401b038082111561468757600080fd5b614693878388016145f0565b94506020860135935060408601359150808211156146b057600080fd5b506146bd868287016145f0565b9150509250925092565b6000602082840312156146d957600080fd5b81356001600160401b038111156146ef57600080fd5b6121d4848285016142c5565b6000806040838503121561470e57600080fd5b823561471981614378565b9150602083013580151581146144c557600080fd5b60008060006060848603121561474357600080fd5b83356001600160401b0381111561475957600080fd5b614765868287016142c5565b93505060208401359150604084013561477d81614378565b809150509250925092565b60008060006060848603121561479d57600080fd5b8335925060208401356001600160401b038111156147ba57600080fd5b6147c6868287016142c5565b925050604084013561477d81614378565b600080604083850312156147ea57600080fd5b50508035926020909101359150565b6000806000806080858703121561480f57600080fd5b843561481a81614378565b9350602085013561482a81614378565b92506040850135915060608501356001600160401b0381111561484c57600080fd5b614858878288016142c5565b91505092959194509250565b600080600080600060a0868803121561487c57600080fd5b853561488781614378565b94506020860135935060408601359250606086013591506148aa608087016143fa565b90509295509295909350565b6000806000606084860312156148cb57600080fd5b505081359360208301359350604090920135919050565b600080600080600060a086880312156148fa57600080fd5b85356001600160401b038082111561491157600080fd5b61491d89838a016142c5565b9650602088013591508082111561493357600080fd5b61493f89838a016142c5565b95506040880135915061495182614378565b90935060608701359061496382614378565b9092506080870135908082111561497957600080fd5b50614986888289016142c5565b9150509295509295909350565b6000806000606084860312156149a857600080fd5b83356149b381614378565b92506020840135915060408401356001600160401b038111156149d557600080fd5b6146bd868287016142c5565b600080604083850312156149f457600080fd5b82356149ff81614378565b915060208301356144c581614378565b838152606060208201526000614a286060830185614227565b8281036040840152614a3a8185614227565b9695505050505050565b600082601f830112614a5557600080fd5b81356020614a65614611836145cd565b82815260059290921b84018101918181019086841115614a8457600080fd5b8286015b848110156146505780356001600160401b03811115614aa75760008081fd5b614ab58986838b01016142c5565b845250918301918301614a88565b60008060408385031215614ad657600080fd5b82356001600160401b0380821115614aed57600080fd5b614af986838701614a44565b93506020850135915080821115614b0f57600080fd5b506145c385828601614a44565b600181811c90821680614b3057607f821691505b60208210811415614b5157634e487b7160e01b600052602260045260246000fd5b50919050565b634e487b7160e01b600052601160045260246000fd5b6000600019821415614b8157614b81614b57565b5060010190565b6020808252602d908201527f4552433732313a2063616c6c6572206973206e6f7420746f6b656e206f776e6560408201526c1c881bdc88185c1c1c9bdd9959609a1b606082015260800190565b60008351614be78184602088016141fb565b60609390931b6bffffffffffffffffffffffff19169190920190815260140192915050565b60008251614c1e8184602087016141fb565b9190910192915050565b60008219821115614c3b57614c3b614b57565b500190565b634e487b7160e01b600052603260045260246000fd5b6020808252602c908201527f46756e6374696f6e206d7573742062652063616c6c6564207468726f7567682060408201526b19195b1959d85d1958d85b1b60a21b606082015260800190565b6020808252602c908201527f46756e6374696f6e206d7573742062652063616c6c6564207468726f7567682060408201526b6163746976652070726f787960a01b606082015260800190565b600060208284031215614d0057600080fd5b5051919050565b6000816000190483118215151615614d2157614d21614b57565b500290565b600060208284031215614d3857600080fd5b815161370c81614378565b60208082526024908201527f6f6e6c79206f776e65722063616e207075742074686973206974656d206f6e2060408201526373616c6560e01b606082015260800190565b6001600160a01b0394851681529290931660208301526040820152606081019190915260800190565b60208082526019908201527f4d6574614b6565704c616d6264613a204e6f74206f776e657200000000000000604082015260600190565b60008351614df98184602088016141fb565b835190830190614e0d8183602088016141fb565b01949350505050565b60018060a01b0384168152826020820152606060408201526000613f856060830184614227565b60208082526025908201527f4552433732313a207472616e736665722066726f6d20696e636f72726563742060408201526437bbb732b960d91b606082015260800190565b60208082526032908201527f4552433732313a207472616e7366657220746f206e6f6e20455243373231526560408201527131b2b4bb32b91034b6b83632b6b2b73a32b960711b606082015260800190565b6020808252602b908201527f496e697469616c697a61626c653a20636f6e7472616374206973206e6f74206960408201526a6e697469616c697a696e6760a81b606082015260800190565b7f416363657373436f6e74726f6c3a206163636f756e7420000000000000000000815260008351614f578160178501602088016141fb565b7001034b99036b4b9b9b4b733903937b6329607d1b6017918401918201528351614f888160288401602088016141fb565b01602801949350505050565b6001600160a01b0385811682528416602082015260408101839052608060608201819052600090614a3a90830184614227565b600060208284031215614fd957600080fd5b815161370c816141c8565b600081614ff357614ff3614b57565b50600019019056fe454950373132446f6d61696e28737472696e67206e616d652c737472696e672076657273696f6e2c6164647265737320766572696679696e67436f6e74726163742c627974657333322073616c7429360894a13ba1a3210667c828492db98dca3e2076cc3735a920a3ca505d382bbc4d6574614b6565704c616d62646143616e63656c4e6f6e63652875696e74323536206e6f6e63652c616464726573732066726f6d294d6574614b6565704c616d6264615472616e73616374696f6e2875696e74323536206e6f6e63652c75696e743235362076616c696446726f6d2c75696e743235362076616c69645570746f2c616464726573732066726f6d2c62797465732066756e6374696f6e5369676e617475726529f3a68b3f49a13367480fd7bc507b2776cef106fb7cff6b2af48f699790f77014416464726573733a206c6f772d6c6576656c2064656c65676174652063616c6c206661696c6564a2646970667358221220675746950ad12554f685616093175d2f65cd1024881dae3611aa03731af1935964736f6c634300080a0033454950373132446f6d61696e28737472696e67206e616d652c737472696e672076657273696f6e2c6164647265737320766572696679696e67436f6e74726163742c627974657333322073616c7429496e697469616c697a61626c653a20636f6e7472616374206973206e6f742069f3a68b3f49a13367480fd7bc507b2776cef106fb7cff6b2af48f699790f77014",
  "linkReferences": {},
  "deployedLinkReferences": {}
}