{
  "_format": "hh-sol-artifact-1",
  "contractName": "SPORT",
  "sourceName": "contracts/sport.sol",
  "abi": [
    {
      "inputs": [
        {
          "internalType": "address",
          "name": "_dexRouter",
          "type": "address"
        },
        {
          "internalType": "address",
          "name": "lambdaOwner",
          "type": "address"
        },
        {
          "internalType": "string",
          "name": "lambdaName",
          "type": "string"
        }
      ],
      "stateMutability": "nonpayable",
      "type": "constructor"
    },
    {
      "anonymous": false,
      "inputs": [
        {
          "indexed": true,
          "internalType": "address",
          "name": "owner",
          "type": "address"
        },
        {
          "indexed": true,
          "internalType": "address",
          "name": "spender",
          "type": "address"
        },
        {
          "indexed": false,
          "internalType": "uint256",
          "name": "value",
          "type": "uint256"
        }
      ],
      "name": "Approval",
      "type": "event"
    },
    {
      "anonymous": false,
      "inputs": [
        {
          "indexed": true,
          "internalType": "bytes32",
          "name": "role",
          "type": "bytes32"
        },
        {
          "indexed": true,
          "internalType": "bytes32",
          "name": "previousAdminRole",
          "type": "bytes32"
        },
        {
          "indexed": true,
          "internalType": "bytes32",
          "name": "newAdminRole",
          "type": "bytes32"
        }
      ],
      "name": "RoleAdminChanged",
      "type": "event"
    },
    {
      "anonymous": false,
      "inputs": [
        {
          "indexed": true,
          "internalType": "bytes32",
          "name": "role",
          "type": "bytes32"
        },
        {
          "indexed": true,
          "internalType": "address",
          "name": "account",
          "type": "address"
        },
        {
          "indexed": true,
          "internalType": "address",
          "name": "sender",
          "type": "address"
        }
      ],
      "name": "RoleGranted",
      "type": "event"
    },
    {
      "anonymous": false,
      "inputs": [
        {
          "indexed": true,
          "internalType": "bytes32",
          "name": "role",
          "type": "bytes32"
        },
        {
          "indexed": true,
          "internalType": "address",
          "name": "account",
          "type": "address"
        },
        {
          "indexed": true,
          "internalType": "address",
          "name": "sender",
          "type": "address"
        }
      ],
      "name": "RoleRevoked",
      "type": "event"
    },
    {
      "anonymous": false,
      "inputs": [
        {
          "indexed": true,
          "internalType": "address",
          "name": "from",
          "type": "address"
        },
        {
          "indexed": true,
          "internalType": "address",
          "name": "to",
          "type": "address"
        },
        {
          "indexed": false,
          "internalType": "uint256",
          "name": "value",
          "type": "uint256"
        }
      ],
      "name": "Transfer",
      "type": "event"
    },
    {
      "inputs": [],
      "name": "DEFAULT_ADMIN_ROLE",
      "outputs": [
        {
          "internalType": "bytes32",
          "name": "",
          "type": "bytes32"
        }
      ],
      "stateMutability": "view",
      "type": "function"
    },
    {
      "inputs": [],
      "name": "ERC712_VERSION",
      "outputs": [
        {
          "internalType": "string",
          "name": "",
          "type": "string"
        }
      ],
      "stateMutability": "view",
      "type": "function"
    },
    {
      "inputs": [],
      "name": "ESkillzBet",
      "outputs": [
        {
          "internalType": "address",
          "name": "",
          "type": "address"
        }
      ],
      "stateMutability": "view",
      "type": "function"
    },
    {
      "inputs": [],
      "name": "MATIC",
      "outputs": [
        {
          "internalType": "address",
          "name": "",
          "type": "address"
        }
      ],
      "stateMutability": "view",
      "type": "function"
    },
    {
      "inputs": [],
      "name": "METAKEEP_LAMBDA_CANCEL_NONCE_TYPEHASH",
      "outputs": [
        {
          "internalType": "bytes32",
          "name": "",
          "type": "bytes32"
        }
      ],
      "stateMutability": "view",
      "type": "function"
    },
    {
      "inputs": [],
      "name": "METAKEEP_LAMBDA_OWNER_ROLE",
      "outputs": [
        {
          "internalType": "bytes32",
          "name": "",
          "type": "bytes32"
        }
      ],
      "stateMutability": "view",
      "type": "function"
    },
    {
      "inputs": [],
      "name": "METAKEEP_LAMBDA_TRANSACTION_TYPEHASH",
      "outputs": [
        {
          "internalType": "bytes32",
          "name": "",
          "type": "bytes32"
        }
      ],
      "stateMutability": "view",
      "type": "function"
    },
    {
      "inputs": [
        {
          "internalType": "address",
          "name": "holder",
          "type": "address"
        },
        {
          "internalType": "address",
          "name": "spender",
          "type": "address"
        }
      ],
      "name": "allowance",
      "outputs": [
        {
          "internalType": "uint256",
          "name": "",
          "type": "uint256"
        }
      ],
      "stateMutability": "view",
      "type": "function"
    },
    {
      "inputs": [
        {
          "internalType": "address",
          "name": "spender",
          "type": "address"
        },
        {
          "internalType": "uint256",
          "name": "amount",
          "type": "uint256"
        }
      ],
      "name": "approve",
      "outputs": [
        {
          "internalType": "bool",
          "name": "",
          "type": "bool"
        }
      ],
      "stateMutability": "nonpayable",
      "type": "function"
    },
    {
      "inputs": [
        {
          "internalType": "address",
          "name": "spender",
          "type": "address"
        },
        {
          "internalType": "address",
          "name": "creator",
          "type": "address"
        },
        {
          "internalType": "uint256",
          "name": "amount",
          "type": "uint256"
        }
      ],
      "name": "approveAndCreateMPGame",
      "outputs": [],
      "stateMutability": "nonpayable",
      "type": "function"
    },
    {
      "inputs": [
        {
          "internalType": "address",
          "name": "spender",
          "type": "address"
        },
        {
          "internalType": "address",
          "name": "creator",
          "type": "address"
        },
        {
          "internalType": "uint256",
          "name": "amount",
          "type": "uint256"
        }
      ],
      "name": "approveAndCreateSPGame",
      "outputs": [],
      "stateMutability": "nonpayable",
      "type": "function"
    },
    {
      "inputs": [
        {
          "internalType": "address",
          "name": "spender",
          "type": "address"
        },
        {
          "internalType": "address",
          "name": "joiner",
          "type": "address"
        },
        {
          "internalType": "uint256",
          "name": "amount",
          "type": "uint256"
        },
        {
          "internalType": "uint256",
          "name": "gameID",
          "type": "uint256"
        }
      ],
      "name": "approveAndJoinMPGame",
      "outputs": [],
      "stateMutability": "nonpayable",
      "type": "function"
    },
    {
      "inputs": [
        {
          "internalType": "address",
          "name": "from",
          "type": "address"
        },
        {
          "internalType": "address",
          "name": "spender",
          "type": "address"
        },
        {
          "internalType": "uint256",
          "name": "amount",
          "type": "uint256"
        }
      ],
      "name": "approveFrom",
      "outputs": [
        {
          "internalType": "bool",
          "name": "",
          "type": "bool"
        }
      ],
      "stateMutability": "nonpayable",
      "type": "function"
    },
    {
      "inputs": [
        {
          "internalType": "address",
          "name": "spender",
          "type": "address"
        }
      ],
      "name": "approveMax",
      "outputs": [
        {
          "internalType": "bool",
          "name": "",
          "type": "bool"
        }
      ],
      "stateMutability": "nonpayable",
      "type": "function"
    },
    {
      "inputs": [
        {
          "internalType": "address",
          "name": "account",
          "type": "address"
        }
      ],
      "name": "balanceOf",
      "outputs": [
        {
          "internalType": "uint256",
          "name": "",
          "type": "uint256"
        }
      ],
      "stateMutability": "view",
      "type": "function"
    },
    {
      "inputs": [
        {
          "internalType": "address",
          "name": "userAddress",
          "type": "address"
        },
        {
          "internalType": "uint256",
          "name": "nonce",
          "type": "uint256"
        },
        {
          "internalType": "bytes32",
          "name": "sigR",
          "type": "bytes32"
        },
        {
          "internalType": "bytes32",
          "name": "sigS",
          "type": "bytes32"
        },
        {
          "internalType": "uint8",
          "name": "sigV",
          "type": "uint8"
        }
      ],
      "name": "cancelMetaKeepLambdaNonce",
      "outputs": [],
      "stateMutability": "nonpayable",
      "type": "function"
    },
    {
      "inputs": [],
      "name": "decimals",
      "outputs": [
        {
          "internalType": "uint8",
          "name": "",
          "type": "uint8"
        }
      ],
      "stateMutability": "pure",
      "type": "function"
    },
    {
      "inputs": [],
      "name": "domainSeperator",
      "outputs": [
        {
          "internalType": "bytes32",
          "name": "",
          "type": "bytes32"
        }
      ],
      "stateMutability": "view",
      "type": "function"
    },
    {
      "inputs": [
        {
          "internalType": "address",
          "name": "userAddress",
          "type": "address"
        },
        {
          "internalType": "uint256",
          "name": "nonce",
          "type": "uint256"
        },
        {
          "internalType": "uint256",
          "name": "validFrom",
          "type": "uint256"
        },
        {
          "internalType": "uint256",
          "name": "validUpto",
          "type": "uint256"
        },
        {
          "internalType": "bytes",
          "name": "functionSignature",
          "type": "bytes"
        },
        {
          "internalType": "bytes32",
          "name": "sigR",
          "type": "bytes32"
        },
        {
          "internalType": "bytes32",
          "name": "sigS",
          "type": "bytes32"
        },
        {
          "internalType": "uint8",
          "name": "sigV",
          "type": "uint8"
        }
      ],
      "name": "executeMetaKeepLambdaTransaction",
      "outputs": [
        {
          "internalType": "bool",
          "name": "",
          "type": "bool"
        }
      ],
      "stateMutability": "payable",
      "type": "function"
    },
    {
      "inputs": [],
      "name": "getCirculatingSupply",
      "outputs": [
        {
          "internalType": "uint256",
          "name": "",
          "type": "uint256"
        }
      ],
      "stateMutability": "view",
      "type": "function"
    },
    {
      "inputs": [],
      "name": "getOwner",
      "outputs": [
        {
          "internalType": "address",
          "name": "",
          "type": "address"
        }
      ],
      "stateMutability": "view",
      "type": "function"
    },
    {
      "inputs": [
        {
          "internalType": "bytes32",
          "name": "role",
          "type": "bytes32"
        }
      ],
      "name": "getRoleAdmin",
      "outputs": [
        {
          "internalType": "bytes32",
          "name": "",
          "type": "bytes32"
        }
      ],
      "stateMutability": "view",
      "type": "function"
    },
    {
      "inputs": [
        {
          "internalType": "bytes32",
          "name": "role",
          "type": "bytes32"
        },
        {
          "internalType": "address",
          "name": "account",
          "type": "address"
        }
      ],
      "name": "grantRole",
      "outputs": [],
      "stateMutability": "nonpayable",
      "type": "function"
    },
    {
      "inputs": [
        {
          "internalType": "bytes32",
          "name": "role",
          "type": "bytes32"
        },
        {
          "internalType": "address",
          "name": "account",
          "type": "address"
        }
      ],
      "name": "hasRole",
      "outputs": [
        {
          "internalType": "bool",
          "name": "",
          "type": "bool"
        }
      ],
      "stateMutability": "view",
      "type": "function"
    },
    {
      "inputs": [
        {
          "internalType": "address",
          "name": "userAddress",
          "type": "address"
        },
        {
          "internalType": "uint256",
          "name": "nonce",
          "type": "uint256"
        }
      ],
      "name": "metaKeepLambdaNonceState",
      "outputs": [
        {
          "internalType": "bool",
          "name": "",
          "type": "bool"
        }
      ],
      "stateMutability": "view",
      "type": "function"
    },
    {
      "inputs": [
        {
          "internalType": "address",
          "name": "_toAddress",
          "type": "address"
        },
        {
          "internalType": "uint256",
          "name": "amount",
          "type": "uint256"
        }
      ],
      "name": "mintMore",
      "outputs": [
        {
          "internalType": "bool",
          "name": "",
          "type": "bool"
        }
      ],
      "stateMutability": "nonpayable",
      "type": "function"
    },
    {
      "inputs": [
        {
          "internalType": "uint256",
          "name": "_amounts",
          "type": "uint256"
        },
        {
          "internalType": "address",
          "name": "_toAddress",
          "type": "address"
        }
      ],
      "name": "mintSportToUser",
      "outputs": [],
      "stateMutability": "nonpayable",
      "type": "function"
    },
    {
      "inputs": [],
      "name": "name",
      "outputs": [
        {
          "internalType": "string",
          "name": "",
          "type": "string"
        }
      ],
      "stateMutability": "pure",
      "type": "function"
    },
    {
      "inputs": [],
      "name": "pair",
      "outputs": [
        {
          "internalType": "address",
          "name": "",
          "type": "address"
        }
      ],
      "stateMutability": "view",
      "type": "function"
    },
    {
      "inputs": [
        {
          "internalType": "bytes32",
          "name": "role",
          "type": "bytes32"
        },
        {
          "internalType": "address",
          "name": "account",
          "type": "address"
        }
      ],
      "name": "renounceRole",
      "outputs": [],
      "stateMutability": "nonpayable",
      "type": "function"
    },
    {
      "inputs": [
        {
          "internalType": "bytes32",
          "name": "role",
          "type": "bytes32"
        },
        {
          "internalType": "address",
          "name": "account",
          "type": "address"
        }
      ],
      "name": "revokeRole",
      "outputs": [],
      "stateMutability": "nonpayable",
      "type": "function"
    },
    {
      "inputs": [],
      "name": "router",
      "outputs": [
        {
          "internalType": "contract IDEXRouter",
          "name": "",
          "type": "address"
        }
      ],
      "stateMutability": "view",
      "type": "function"
    },
    {
      "inputs": [
        {
          "internalType": "address",
          "name": "_ESkillzBet",
          "type": "address"
        }
      ],
      "name": "setEskillzBet",
      "outputs": [],
      "stateMutability": "nonpayable",
      "type": "function"
    },
    {
      "inputs": [
        {
          "internalType": "bytes4",
          "name": "interfaceId",
          "type": "bytes4"
        }
      ],
      "name": "supportsInterface",
      "outputs": [
        {
          "internalType": "bool",
          "name": "",
          "type": "bool"
        }
      ],
      "stateMutability": "view",
      "type": "function"
    },
    {
      "inputs": [],
      "name": "symbol",
      "outputs": [
        {
          "internalType": "string",
          "name": "",
          "type": "string"
        }
      ],
      "stateMutability": "pure",
      "type": "function"
    },
    {
      "inputs": [],
      "name": "totalSupply",
      "outputs": [
        {
          "internalType": "uint256",
          "name": "",
          "type": "uint256"
        }
      ],
      "stateMutability": "view",
      "type": "function"
    },
    {
      "inputs": [
        {
          "internalType": "address",
          "name": "recipient",
          "type": "address"
        },
        {
          "internalType": "uint256",
          "name": "amount",
          "type": "uint256"
        }
      ],
      "name": "transfer",
      "outputs": [
        {
          "internalType": "bool",
          "name": "",
          "type": "bool"
        }
      ],
      "stateMutability": "nonpayable",
      "type": "function"
    },
    {
      "inputs": [
        {
          "internalType": "address",
          "name": "sender",
          "type": "address"
        },
        {
          "internalType": "address",
          "name": "recipient",
          "type": "address"
        },
        {
          "internalType": "uint256",
          "name": "amount",
          "type": "uint256"
        }
      ],
      "name": "transferFrom",
      "outputs": [
        {
          "internalType": "bool",
          "name": "",
          "type": "bool"
        }
      ],
      "stateMutability": "nonpayable",
      "type": "function"
    },
    {
      "stateMutability": "payable",
      "type": "receive"
    }
  ],
  "bytecode": "0x60806040523480156200001157600080fd5b506040516200298f3803806200298f833981016040819052620000349162000692565b818181620000526000805160206200296f8339815191528262000333565b6200006d6000805160206200296f8339815191528062000343565b5062000079816200038e565b5050600380546001600160a01b0319166001600160a01b038416179055620000a46009600a620008a9565b620000b490631dcd6500620008c1565b600555600880546001600160a01b0319166001600160a01b038516908117909155604080516315ab88c960e31b8152905163ad5c4648916004808201926020929091908290030181865afa15801562000111573d6000803e3d6000fd5b505050506040513d601f19601f82011682018060405250810190620001379190620008e3565b600480546001600160a01b0319166001600160a01b039283161781556008546040805163c45a015560e01b81529051919093169263c45a015592818101926020929091908290030181865afa15801562000195573d6000803e3d6000fd5b505050506040513d601f19601f82011682018060405250810190620001bb9190620008e3565b600480546040516364e329cb60e11b81526001600160a01b0391821692810192909252306024830152919091169063c9c65396906044016020604051808303816000875af115801562000212573d6000803e3d6000fd5b505050506040513d601f19601f82011682018060405250810190620002389190620008e3565b600980546001600160a01b0319166001600160a01b0392831617905560055430600090815260076020908152604080832060085490951683529390529190912081905562000288908490620004ab565b50600954600554620002a4916001600160a01b031690620004ab565b5060055460066000620002b662000542565b6001600160a01b03168152602081019190915260400160002055620002da62000542565b6001600160a01b031660006001600160a01b03167fddf252ad1be2c89b69c2b068fc378daa952ba7f163c4a11628f55a4df523b3ef6005546040516200032291815260200190565b60405180910390a350505062000901565b6200033f82826200055e565b5050565b600082815260208190526040808220600101805490849055905190918391839186917fbd79b86ffe0ab8e8776151514217cd7cacd52c909f66475c3af44e129f0b00ff9190a4505050565b60015415620003f85760405162461bcd60e51b815260206004820152602c60248201527f4d6574614b6565704c616d6264613a20446f6d61696e20736570657261746f7260448201526b08185b1c9958591e481cd95d60a21b606482015260840160405180910390fd5b6040518060800160405280604f815260200162002920604f913980516020918201208251838301206040805180820190915260018152603160f81b930192909252907fc89efdaa54c0f20c7adf612882df0950f5a951637e0307cdcb4c672f298b8bc6304660408051602081019690965285019390935260608401919091526001600160a01b0316608083015260a082015260c00160408051601f19818403018152919052805160209091012060015550565b600081600782620004bb62000542565b6001600160a01b0390811682526020808301939093526040918201600090812091881680825291909352912091909155620004f562000542565b6001600160a01b03167f8c5be1e5ebec7d5bd14f71427d1e84f3dd0314c0f7b2291e5b200ac8c7c3b925846040516200053091815260200190565b60405180910390a35060015b92915050565b6000620005596200060060201b620013361760201c565b905090565b6000828152602081815260408083206001600160a01b038516845290915290205460ff166200033f576000828152602081815260408083206001600160a01b03851684529091529020805460ff19166001179055620005bc62000542565b6001600160a01b0316816001600160a01b0316837f2f8788117e7eff1d82e926ec794901d17c78024a50270940304540a733656f0d60405160405180910390a45050565b6000333014156200065957600080368080601f0160208091040260200160405190810160405280939291908181526020018383808284376000920191909152505050503601516001600160a01b031691506200065c9050565b50335b90565b80516001600160a01b03811681146200067757600080fd5b919050565b634e487b7160e01b600052604160045260246000fd5b600080600060608486031215620006a857600080fd5b620006b3846200065f565b92506020620006c48186016200065f565b60408601519093506001600160401b0380821115620006e257600080fd5b818701915087601f830112620006f757600080fd5b8151818111156200070c576200070c6200067c565b604051601f8201601f19908116603f011681019083821181831017156200073757620007376200067c565b816040528281528a868487010111156200075057600080fd5b600093505b8284101562000774578484018601518185018701529285019262000755565b82841115620007865760008684830101525b8096505050505050509250925092565b634e487b7160e01b600052601160045260246000fd5b600181815b80851115620007ed578160001904821115620007d157620007d162000796565b80851615620007df57918102915b93841c9390800290620007b1565b509250929050565b60008262000806575060016200053c565b8162000815575060006200053c565b81600181146200082e5760028114620008395762000859565b60019150506200053c565b60ff8411156200084d576200084d62000796565b50506001821b6200053c565b5060208310610133831016604e8410600b84101617156200087e575081810a6200053c565b6200088a8383620007ac565b8060001904821115620008a157620008a162000796565b029392505050565b6000620008ba60ff841683620007f5565b9392505050565b6000816000190483118215151615620008de57620008de62000796565b500290565b600060208284031215620008f657600080fd5b620008ba826200065f565b61200f80620009116000396000f3fe6080604052600436106102295760003560e01c806370a0823111610123578063a9059cbb116100ab578063de6750091161006f578063de675009146106db578063e97ff65e146106fb578063eafadeb614610710578063ebe9b0f214610730578063f887ea401461077657600080fd5b8063a9059cbb1461061f578063c0dcaeeb1461063f578063cb73ac561461065f578063d547741f14610675578063dd62ed3e1461069557600080fd5b806391d14854116100f257806391d148541461057c57806395d89b411461059c578063a217fddf146105ca578063a5fa7c07146105df578063a8aa1b31146105ff57600080fd5b806370a08231146104e8578063893d20e81461051e5780638c2e30ff1461053c578063912a8e5f1461055c57600080fd5b8063248a9ca3116101b1578063313ce56711610175578063313ce5671461044c57806336568abe146104685780634622ae141461048857806352ec8529146104a8578063571ac8b0146104c857600080fd5b8063248a9ca314610391578063265a4d25146103c1578063285857ae146103e15780632b112e49146104155780632f2ff15d1461042a57600080fd5b80630f7e5970116101f85780630f7e5970146102e457806315b550d61461031157806318160ddd1461034957806323b872dd1461035e578063243ed11d1461037e57600080fd5b806301ffc9a71461023557806306fdde031461026a578063095ea7b3146102a15780630c1f5635146102c157600080fd5b3661023057005b600080fd5b34801561024157600080fd5b50610255610250366004611a48565b610796565b60405190151581526020015b60405180910390f35b34801561027657600080fd5b5060408051808201909152600581526414d41493d560da1b60208201525b6040516102619190611a9e565b3480156102ad57600080fd5b506102556102bc366004611aed565b6107cd565b3480156102cd57600080fd5b506102d661085f565b604051908152602001610261565b3480156102f057600080fd5b50610294604051806040016040528060018152602001603160f81b81525081565b34801561031d57600080fd5b50600454610331906001600160a01b031681565b6040516001600160a01b039091168152602001610261565b34801561035557600080fd5b506005546102d6565b34801561036a57600080fd5b50610255610379366004611b17565b610882565b61025561038c366004611b7a565b6109a1565b34801561039d57600080fd5b506102d66103ac366004611c7d565b60009081526020819052604090206001015490565b3480156103cd57600080fd5b50600a54610331906001600160a01b031681565b3480156103ed57600080fd5b506102d67ff3a68b3f49a13367480fd7bc507b2776cef106fb7cff6b2af48f699790f7701481565b34801561042157600080fd5b506102d6610bb5565b34801561043657600080fd5b5061044a610445366004611c96565b610c26565b005b34801561045857600080fd5b5060405160098152602001610261565b34801561047457600080fd5b5061044a610483366004611c96565b610c50565b34801561049457600080fd5b506102556104a3366004611aed565b610cde565b3480156104b457600080fd5b506102556104c3366004611b17565b610e15565b3480156104d457600080fd5b506102556104e3366004611cc2565b610e7e565b3480156104f457600080fd5b506102d6610503366004611cc2565b6001600160a01b031660009081526006602052604090205490565b34801561052a57600080fd5b506003546001600160a01b0316610331565b34801561054857600080fd5b5061044a610557366004611cc2565b610e8c565b34801561056857600080fd5b5061044a610577366004611c96565b610f26565b34801561058857600080fd5b50610255610597366004611c96565b61101a565b3480156105a857600080fd5b5060408051808201909152600581526414d413d49560da1b6020820152610294565b3480156105d657600080fd5b506102d6600081565b3480156105eb57600080fd5b5061044a6105fa366004611b17565b611043565b34801561060b57600080fd5b50600954610331906001600160a01b031681565b34801561062b57600080fd5b5061025561063a366004611aed565b6110db565b34801561064b57600080fd5b5061044a61065a366004611cdd565b6110f6565b34801561066b57600080fd5b506102d660015481565b34801561068157600080fd5b5061044a610690366004611c96565b6111ea565b3480156106a157600080fd5b506102d66106b0366004611d2d565b6001600160a01b03918216600090815260076020908152604080832093909416825291909152205490565b3480156106e757600080fd5b5061044a6106f6366004611b17565b61120f565b34801561070757600080fd5b506102d6611274565b34801561071c57600080fd5b5061044a61072b366004611d57565b611297565b34801561073c57600080fd5b5061025561074b366004611aed565b6001600160a01b03919091166000908152600260209081526040808320938352929052205460ff1690565b34801561078257600080fd5b50600854610331906001600160a01b031681565b60006001600160e01b03198216637965db0b60e01b14806107c757506301ffc9a760e01b6001600160e01b03198316145b92915050565b600081600760006107dc611393565b6001600160a01b0390811682526020808301939093526040918201600090812091881680825291909352912091909155610814611393565b6001600160a01b03167f8c5be1e5ebec7d5bd14f71427d1e84f3dd0314c0f7b2291e5b200ac8c7c3b9258460405161084e91815260200190565b60405180910390a350600192915050565b604051806060016040528060358152602001611f34603591398051906020012081565b6005546001600160a01b0384166000908152600760205260408120909190826108a9611393565b6001600160a01b03166001600160a01b03168152602001908152602001600020541461098e576109528260405180604001604052806016815260200175496e73756666696369656e7420416c6c6f77616e636560501b81525060076000886001600160a01b03166001600160a01b031681526020019081526020016000206000610931611393565b6001600160a01b03168152602081019190915260400160002054919061139d565b6001600160a01b038516600090815260076020526040812090610973611393565b6001600160a01b031681526020810191909152604001600020555b6109998484846113c9565b949350505050565b60006109af898989896113d6565b60006040518060a001604052808a81526020018981526020018881526020018b6001600160a01b0316815260200187815250905060006040518060a0016040528060718152602001611f696071913980516020918201208351848301516040808701516060808901516080808b01518051908a01208551998a0198909852938801959095528601929092528401526001600160a01b031660a083015260c082015260e001604051602081830303815290604052805190602001209050610a788b828888886114ad565b610ac95760405162461bcd60e51b815260206004820152601d60248201527f4d6574614b6565704c616d6264613a20536967206e6f74206d6174636800000060448201526064015b60405180910390fd5b6001600260008d6001600160a01b03166001600160a01b0316815260200190815260200160002060008c815260200190815260200160002060006101000a81548160ff021916908315150217905550600080306001600160a01b0316898e604051602001610b38929190611d99565b60408051601f1981840301815290829052610b5291611dd0565b6000604051808303816000865af19150503d8060008114610b8f576040519150601f19603f3d011682016040523d82523d6000602084013e610b94565b606091505b509150915081610ba5578060208201fd5b509b9a5050505050505050505050565b60066020527f54cdd369e4e8a8515e52ca72ec816c2101831ad1f18bf44102ed171459c9b4f85461dead60009081527f1aecba4ebe7a4e0673e4891b2b092b2228e4322380b579fb494fad3da8586e22546005549192610c21929091610c1b91906115c5565b906115c5565b905090565b600082815260208190526040902060010154610c41816115d1565b610c4b83836115e5565b505050565b610c58611393565b6001600160a01b0316816001600160a01b031614610cd05760405162461bcd60e51b815260206004820152602f60248201527f416363657373436f6e74726f6c3a2063616e206f6e6c792072656e6f756e636560448201526e103937b632b9903337b91039b2b63360891b6064820152608401610ac0565b610cda828261166a565b5050565b6003546000906001600160a01b0316610cf5611393565b6001600160a01b03161480610d245750600a546001600160a01b0316610d19611393565b6001600160a01b0316145b610d815760405162461bcd60e51b815260206004820152602860248201527f63616c6c6572206973206e6f74206f776e6572206f722062657474696e67206360448201526737b73a3930b1ba1760c11b6064820152608401610ac0565b60008211610da15760405162461bcd60e51b8152600401610ac090611dec565b6001600160a01b038316600090815260066020526040902054610dc490836116ed565b6001600160a01b0384166000818152600660205260408082209390935591519091907fddf252ad1be2c89b69c2b068fc378daa952ba7f163c4a11628f55a4df523b3ef9061084e9086815260200190565b6001600160a01b03838116600081815260076020908152604080832094871680845294825280832086905551858152919392917f8c5be1e5ebec7d5bd14f71427d1e84f3dd0314c0f7b2291e5b200ac8c7c3b92591015b60405180910390a35060019392505050565b60006107c7826005546107cd565b610eb87ff3a68b3f49a13367480fd7bc507b2776cef106fb7cff6b2af48f699790f77014610597611336565b610f045760405162461bcd60e51b815260206004820152601960248201527f4d6574614b6565704c616d6264613a204e6f74206f776e6572000000000000006044820152606401610ac0565b600a80546001600160a01b0319166001600160a01b0392909216919091179055565b6001600160a01b038116610f885760405162461bcd60e51b815260206004820152602360248201527f546f41646472657373206d757374206e6f74206265205a65726f20616464726560448201526239b99760e91b6064820152608401610ac0565b60008211610fa85760405162461bcd60e51b8152600401610ac090611dec565b6001600160a01b03811660009081526006602052604081208054849290610fd0908490611e43565b90915550506040518281526001600160a01b038216906000907fddf252ad1be2c89b69c2b068fc378daa952ba7f163c4a11628f55a4df523b3ef9060200160405180910390a35050565b6000918252602082815260408084206001600160a01b0393909316845291905290205460ff1690565b600081116110635760405162461bcd60e51b8152600401610ac090611dec565b61106e828483610e15565b50600a54604051634ee0085d60e11b81526001600160a01b0384811660048301526024820184905290911690639dc010ba906044015b600060405180830381600087803b1580156110be57600080fd5b505af11580156110d2573d6000803e3d6000fd5b50505050505050565b60006110ef6110e8611393565b84846113c9565b9392505050565b61110085856116f9565b6000604051806060016040528060358152602001611f34603591398051602091820120604080519283019190915281018690526001600160a01b038716606082015260800160405160208183030381529060405280519060200120905061116a86828686866114ad565b6111b65760405162461bcd60e51b815260206004820152601d60248201527f4d6574614b6565704c616d6264613a20536967206e6f74206d617463680000006044820152606401610ac0565b5050506001600160a01b03909216600090815260026020908152604080832093835292905220805460ff1916600117905550565b600082815260208190526040902060010154611205816115d1565b610c4b838361166a565b6000811161122f5760405162461bcd60e51b8152600401610ac090611dec565b61123a828483610e15565b50600a54604051633a2c4e6160e21b81526001600160a01b038481166004830152602482018490529091169063e8b13984906044016110a4565b6040518060a0016040528060718152602001611f69607191398051906020012081565b600082116112b75760405162461bcd60e51b8152600401610ac090611dec565b6112c2838584610e15565b50600a54604051633e06e5ef60e21b81526001600160a01b03858116600483015260248201849052604482018590529091169063f81b97bc90606401600060405180830381600087803b15801561131857600080fd5b505af115801561132c573d6000803e3d6000fd5b5050505050505050565b60003330141561138d57600080368080601f0160208091040260200160405190810160405280939291908181526020018383808284376000920191909152505050503601516001600160a01b031691506113909050565b50335b90565b6000610c21611336565b600081848411156113c15760405162461bcd60e51b8152600401610ac09190611a9e565b505050900390565b600061099984848461176d565b81421161143c5760405162461bcd60e51b815260206004820152602e60248201527f4d6574614b6565704c616d6264613a20417574686f72697a6174696f6e20697360448201526d103737ba103cb2ba1033b4bb32b760911b6064820152608401610ac0565b80421061149d5760405162461bcd60e51b815260206004820152602960248201527f4d6574614b6565704c616d6264613a20417574686f72697a6174696f6e2068616044820152681cc8195e1c1a5c995960ba1b6064820152608401610ac0565b6114a784846116f9565b50505050565b60006001600160a01b0386166115055760405162461bcd60e51b815260206004820152601e60248201527f4d6574614b6565704c616d6264613a20494e56414c49445f5349474e455200006044820152606401610ac0565b600161154e8660015460405161190160f01b6020820152602281019190915260428101829052600090606201604051602081830303815290604052805190602001209050919050565b6040805160008152602081018083529290925260ff851690820152606081018690526080810185905260a0016020604051602081039080840390855afa15801561159c573d6000803e3d6000fd5b505050602060405103516001600160a01b0316866001600160a01b031614905095945050505050565b60006110ef8284611e5b565b6115e2816115dd611393565b611841565b50565b6115ef828261101a565b610cda576000828152602081815260408083206001600160a01b03851684529091529020805460ff19166001179055611626611393565b6001600160a01b0316816001600160a01b0316837f2f8788117e7eff1d82e926ec794901d17c78024a50270940304540a733656f0d60405160405180910390a45050565b611674828261101a565b15610cda576000828152602081815260408083206001600160a01b03851684529091529020805460ff191690556116a9611393565b6001600160a01b0316816001600160a01b0316837ff6391f5c32d9c69d2a47ea670b442974b53935d1edc7fd64eb21e047a839171b60405160405180910390a45050565b60006110ef8284611e43565b6001600160a01b038216600090815260026020908152604080832084845290915290205460ff1615610cda5760405162461bcd60e51b815260206004820152601a60248201527f4d6574614b6565704c616d6264613a204e6f6e636520557365640000000000006044820152606401610ac0565b6040805180820182526014815273496e73756666696369656e742042616c616e636560601b6020808301919091526001600160a01b03861660009081526006909152918220546117be91849061139d565b6001600160a01b0380861660009081526006602052604080822093909355908516815220546117ed90836116ed565b6001600160a01b0380851660008181526006602052604090819020939093559151908616907fddf252ad1be2c89b69c2b068fc378daa952ba7f163c4a11628f55a4df523b3ef90610e6c9086815260200190565b61184b828261101a565b610cda576118588161189a565b6118638360206118ac565b604051602001611874929190611e72565b60408051601f198184030181529082905262461bcd60e51b8252610ac091600401611a9e565b60606107c76001600160a01b03831660145b606060006118bb836002611ee7565b6118c6906002611e43565b67ffffffffffffffff8111156118de576118de611b53565b6040519080825280601f01601f191660200182016040528015611908576020820181803683370190505b509050600360fc1b8160008151811061192357611923611f06565b60200101906001600160f81b031916908160001a905350600f60fb1b8160018151811061195257611952611f06565b60200101906001600160f81b031916908160001a9053506000611976846002611ee7565b611981906001611e43565b90505b60018111156119f9576f181899199a1a9b1b9c1cb0b131b232b360811b85600f16601081106119b5576119b5611f06565b1a60f81b8282815181106119cb576119cb611f06565b60200101906001600160f81b031916908160001a90535060049490941c936119f281611f1c565b9050611984565b5083156110ef5760405162461bcd60e51b815260206004820181905260248201527f537472696e67733a20686578206c656e67746820696e73756666696369656e746044820152606401610ac0565b600060208284031215611a5a57600080fd5b81356001600160e01b0319811681146110ef57600080fd5b60005b83811015611a8d578181015183820152602001611a75565b838111156114a75750506000910152565b6020815260008251806020840152611abd816040850160208701611a72565b601f01601f19169190910160400192915050565b80356001600160a01b0381168114611ae857600080fd5b919050565b60008060408385031215611b0057600080fd5b611b0983611ad1565b946020939093013593505050565b600080600060608486031215611b2c57600080fd5b611b3584611ad1565b9250611b4360208501611ad1565b9150604084013590509250925092565b634e487b7160e01b600052604160045260246000fd5b803560ff81168114611ae857600080fd5b600080600080600080600080610100898b031215611b9757600080fd5b611ba089611ad1565b9750602089013596506040890135955060608901359450608089013567ffffffffffffffff80821115611bd257600080fd5b818b0191508b601f830112611be657600080fd5b813581811115611bf857611bf8611b53565b604051601f8201601f19908116603f01168101908382118183101715611c2057611c20611b53565b816040528281528e6020848701011115611c3957600080fd5b82602086016020830137600060208483010152809850505050505060a0890135925060c08901359150611c6e60e08a01611b69565b90509295985092959890939650565b600060208284031215611c8f57600080fd5b5035919050565b60008060408385031215611ca957600080fd5b82359150611cb960208401611ad1565b90509250929050565b600060208284031215611cd457600080fd5b6110ef82611ad1565b600080600080600060a08688031215611cf557600080fd5b611cfe86611ad1565b9450602086013593506040860135925060608601359150611d2160808701611b69565b90509295509295909350565b60008060408385031215611d4057600080fd5b611d4983611ad1565b9150611cb960208401611ad1565b60008060008060808587031215611d6d57600080fd5b611d7685611ad1565b9350611d8460208601611ad1565b93969395505050506040820135916060013590565b60008351611dab818460208801611a72565b60609390931b6bffffffffffffffffffffffff19169190920190815260140192915050565b60008251611de2818460208701611a72565b9190910192915050565b60208082526021908201527f416d6f756e742073686f756c6420626520626967676572207468616e207a65726040820152606f60f81b606082015260800190565b634e487b7160e01b600052601160045260246000fd5b60008219821115611e5657611e56611e2d565b500190565b600082821015611e6d57611e6d611e2d565b500390565b7f416363657373436f6e74726f6c3a206163636f756e7420000000000000000000815260008351611eaa816017850160208801611a72565b7001034b99036b4b9b9b4b733903937b6329607d1b6017918401918201528351611edb816028840160208801611a72565b01602801949350505050565b6000816000190483118215151615611f0157611f01611e2d565b500290565b634e487b7160e01b600052603260045260246000fd5b600081611f2b57611f2b611e2d565b50600019019056fe4d6574614b6565704c616d62646143616e63656c4e6f6e63652875696e74323536206e6f6e63652c616464726573732066726f6d294d6574614b6565704c616d6264615472616e73616374696f6e2875696e74323536206e6f6e63652c75696e743235362076616c696446726f6d2c75696e743235362076616c69645570746f2c616464726573732066726f6d2c62797465732066756e6374696f6e5369676e617475726529a26469706673582212204d922cb03f7d72ffd5e975fc4375894a5001818790ec573c67ad578c4d63214264736f6c634300080a0033454950373132446f6d61696e28737472696e67206e616d652c737472696e672076657273696f6e2c6164647265737320766572696679696e67436f6e74726163742c627974657333322073616c7429f3a68b3f49a13367480fd7bc507b2776cef106fb7cff6b2af48f699790f77014",
  "linkReferences": {},
  "deployedLinkReferences": {}
}